Archive member included to satisfy reference by file (symbol)

C:\Users\Hunter\DOCUME~1\Work\Venom\DEVELO~1\CIRCUI~2\BLINK0~3\BLINK0~1\ARDUIN~1\Debug\libArduinoCore.a(cortex_handlers.o)
                              (Reset_Handler)
C:\Users\Hunter\DOCUME~1\Work\Venom\DEVELO~1\CIRCUI~2\BLINK0~3\BLINK0~1\ARDUIN~1\Debug\libArduinoCore.a(delay.o)
                              Sketch.o (delay)
C:\Users\Hunter\DOCUME~1\Work\Venom\DEVELO~1\CIRCUI~2\BLINK0~3\BLINK0~1\ARDUIN~1\Debug\libArduinoCore.a(hooks.o)
                              C:\Users\Hunter\DOCUME~1\Work\Venom\DEVELO~1\CIRCUI~2\BLINK0~3\BLINK0~1\ARDUIN~1\Debug\libArduinoCore.a(delay.o) (yield)
C:\Users\Hunter\DOCUME~1\Work\Venom\DEVELO~1\CIRCUI~2\BLINK0~3\BLINK0~1\ARDUIN~1\Debug\libArduinoCore.a(main.o)
                              c:/program files (x86)/atmel/studio/7.0/toolchain/arm/arm-gnu-toolchain/bin/../lib/gcc/arm-none-eabi/6.3.1/../../../../arm-none-eabi/lib/thumb/v6-m/crt0.o (main)
C:\Users\Hunter\DOCUME~1\Work\Venom\DEVELO~1\CIRCUI~2\BLINK0~3\BLINK0~1\ARDUIN~1\Debug\libArduinoCore.a(Reset.o)
                              C:\Users\Hunter\DOCUME~1\Work\Venom\DEVELO~1\CIRCUI~2\BLINK0~3\BLINK0~1\ARDUIN~1\Debug\libArduinoCore.a(delay.o) (tickReset)
C:\Users\Hunter\DOCUME~1\Work\Venom\DEVELO~1\CIRCUI~2\BLINK0~3\BLINK0~1\ARDUIN~1\Debug\libArduinoCore.a(startup.o)
                              C:\Users\Hunter\DOCUME~1\Work\Venom\DEVELO~1\CIRCUI~2\BLINK0~3\BLINK0~1\ARDUIN~1\Debug\libArduinoCore.a(cortex_handlers.o) (SystemInit)
C:\Users\Hunter\DOCUME~1\Work\Venom\DEVELO~1\CIRCUI~2\BLINK0~3\BLINK0~1\ARDUIN~1\Debug\libArduinoCore.a(USBCore.o)
                              C:\Users\Hunter\DOCUME~1\Work\Venom\DEVELO~1\CIRCUI~2\BLINK0~3\BLINK0~1\ARDUIN~1\Debug\libArduinoCore.a(main.o) (USBDeviceClass::init())
C:\Users\Hunter\DOCUME~1\Work\Venom\DEVELO~1\CIRCUI~2\BLINK0~3\BLINK0~1\ARDUIN~1\Debug\libArduinoCore.a(wiring.o)
                              C:\Users\Hunter\DOCUME~1\Work\Venom\DEVELO~1\CIRCUI~2\BLINK0~3\BLINK0~1\ARDUIN~1\Debug\libArduinoCore.a(main.o) (init)
C:\Users\Hunter\DOCUME~1\Work\Venom\DEVELO~1\CIRCUI~2\BLINK0~3\BLINK0~1\ARDUIN~1\Debug\libArduinoCore.a(wiring_analog.o)
                              C:\Users\Hunter\DOCUME~1\Work\Venom\DEVELO~1\CIRCUI~2\BLINK0~3\BLINK0~1\ARDUIN~1\Debug\libArduinoCore.a(wiring.o) (analogReference)
C:\Users\Hunter\DOCUME~1\Work\Venom\DEVELO~1\CIRCUI~2\BLINK0~3\BLINK0~1\ARDUIN~1\Debug\libArduinoCore.a(wiring_digital.o)
                              Sketch.o (pinMode)
C:\Users\Hunter\DOCUME~1\Work\Venom\DEVELO~1\CIRCUI~2\BLINK0~3\BLINK0~1\ARDUIN~1\Debug\libArduinoCore.a(wiring_private.o)
                              C:\Users\Hunter\DOCUME~1\Work\Venom\DEVELO~1\CIRCUI~2\BLINK0~3\BLINK0~1\ARDUIN~1\Debug\libArduinoCore.a(wiring_analog.o) (pinPeripheral)
C:\Users\Hunter\DOCUME~1\Work\Venom\DEVELO~1\CIRCUI~2\BLINK0~3\BLINK0~1\ARDUIN~1\Debug\libArduinoCore.a(variant.o)
                              C:\Users\Hunter\DOCUME~1\Work\Venom\DEVELO~1\CIRCUI~2\BLINK0~3\BLINK0~1\ARDUIN~1\Debug\libArduinoCore.a(wiring_analog.o) (g_apTCInstances)
C:\Users\Hunter\DOCUME~1\Work\Venom\DEVELO~1\CIRCUI~2\BLINK0~3\BLINK0~1\ARDUIN~1\Debug\libArduinoCore.a(new.o)
                              C:\Users\Hunter\DOCUME~1\Work\Venom\DEVELO~1\CIRCUI~2\BLINK0~3\BLINK0~1\ARDUIN~1\Debug\libArduinoCore.a(USBCore.o) (operator new(unsigned int))
C:\Users\Hunter\DOCUME~1\Work\Venom\DEVELO~1\CIRCUI~2\BLINK0~3\BLINK0~1\ARDUIN~1\Debug\libArduinoCore.a(SERCOM.o)
                              C:\Users\Hunter\DOCUME~1\Work\Venom\DEVELO~1\CIRCUI~2\BLINK0~3\BLINK0~1\ARDUIN~1\Debug\libArduinoCore.a(variant.o) (SERCOM::SERCOM(Sercom*))
C:\Users\Hunter\DOCUME~1\Work\Venom\DEVELO~1\CIRCUI~2\BLINK0~3\BLINK0~1\ARDUIN~1\Debug\libArduinoCore.a(Uart.o)
                              C:\Users\Hunter\DOCUME~1\Work\Venom\DEVELO~1\CIRCUI~2\BLINK0~3\BLINK0~1\ARDUIN~1\Debug\libArduinoCore.a(variant.o) (Uart::Uart(SERCOM*, unsigned char, unsigned char, SercomRXPad, SercomUartTXPad))
C:\Users\Hunter\DOCUME~1\Work\Venom\DEVELO~1\CIRCUI~2\BLINK0~3\BLINK0~1\ARDUIN~1\Debug\libArduinoCore.a(CDC.o)
                              C:\Users\Hunter\DOCUME~1\Work\Venom\DEVELO~1\CIRCUI~2\BLINK0~3\BLINK0~1\ARDUIN~1\Debug\libArduinoCore.a(USBCore.o) (Serial_::enableInterrupt())
C:\Users\Hunter\DOCUME~1\Work\Venom\DEVELO~1\CIRCUI~2\BLINK0~3\BLINK0~1\ARDUIN~1\Debug\libArduinoCore.a(PluggableUSB.o)
                              C:\Users\Hunter\DOCUME~1\Work\Venom\DEVELO~1\CIRCUI~2\BLINK0~3\BLINK0~1\ARDUIN~1\Debug\libArduinoCore.a(USBCore.o) (PluggableUSB_::getInterface(unsigned char*))
C:\Users\Hunter\DOCUME~1\Work\Venom\DEVELO~1\CIRCUI~2\BLINK0~3\BLINK0~1\ARDUIN~1\Debug\libArduinoCore.a(Print.o)
                              C:\Users\Hunter\DOCUME~1\Work\Venom\DEVELO~1\CIRCUI~2\BLINK0~3\BLINK0~1\ARDUIN~1\Debug\libArduinoCore.a(Uart.o) (Print::write(unsigned char const*, unsigned int))
C:\Users\Hunter\DOCUME~1\Work\Venom\DEVELO~1\CIRCUI~2\BLINK0~3\BLINK0~1\ARDUIN~1\Debug\libArduinoCore.a(abi.o)
                              C:\Users\Hunter\DOCUME~1\Work\Venom\DEVELO~1\CIRCUI~2\BLINK0~3\BLINK0~1\ARDUIN~1\Debug\libArduinoCore.a(Print.o) (__cxa_pure_virtual)
c:/program files (x86)/atmel/studio/7.0/toolchain/arm/arm-gnu-toolchain/bin/../lib/gcc/arm-none-eabi/6.3.1/thumb/v6-m\libgcc.a(_thumb1_case_uqi.o)
                              C:\Users\Hunter\DOCUME~1\Work\Venom\DEVELO~1\CIRCUI~2\BLINK0~3\BLINK0~1\ARDUIN~1\Debug\libArduinoCore.a(USBCore.o) (__gnu_thumb1_case_uqi)
c:/program files (x86)/atmel/studio/7.0/toolchain/arm/arm-gnu-toolchain/bin/../lib/gcc/arm-none-eabi/6.3.1/thumb/v6-m\libgcc.a(_udivsi3.o)
                              C:\Users\Hunter\DOCUME~1\Work\Venom\DEVELO~1\CIRCUI~2\BLINK0~3\BLINK0~1\ARDUIN~1\Debug\libArduinoCore.a(USBCore.o) (__aeabi_uidiv)
c:/program files (x86)/atmel/studio/7.0/toolchain/arm/arm-gnu-toolchain/bin/../lib/gcc/arm-none-eabi/6.3.1/thumb/v6-m\libgcc.a(_divsi3.o)
                              C:\Users\Hunter\DOCUME~1\Work\Venom\DEVELO~1\CIRCUI~2\BLINK0~3\BLINK0~1\ARDUIN~1\Debug\libArduinoCore.a(SERCOM.o) (__aeabi_idiv)
c:/program files (x86)/atmel/studio/7.0/toolchain/arm/arm-gnu-toolchain/bin/../lib/gcc/arm-none-eabi/6.3.1/thumb/v6-m\libgcc.a(_dvmd_tls.o)
                              c:/program files (x86)/atmel/studio/7.0/toolchain/arm/arm-gnu-toolchain/bin/../lib/gcc/arm-none-eabi/6.3.1/thumb/v6-m\libgcc.a(_udivsi3.o) (__aeabi_idiv0)
c:/program files (x86)/atmel/studio/7.0/toolchain/arm/arm-gnu-toolchain/bin/../lib/gcc/arm-none-eabi/6.3.1/thumb/v6-m\libgcc.a(_arm_cmpdf2.o)
                              C:\Users\Hunter\DOCUME~1\Work\Venom\DEVELO~1\CIRCUI~2\BLINK0~3\BLINK0~1\ARDUIN~1\Debug\libArduinoCore.a(Print.o) (__aeabi_dcmplt)
c:/program files (x86)/atmel/studio/7.0/toolchain/arm/arm-gnu-toolchain/bin/../lib/gcc/arm-none-eabi/6.3.1/thumb/v6-m\libgcc.a(_fixunsdfsi.o)
                              C:\Users\Hunter\DOCUME~1\Work\Venom\DEVELO~1\CIRCUI~2\BLINK0~3\BLINK0~1\ARDUIN~1\Debug\libArduinoCore.a(Print.o) (__aeabi_d2uiz)
c:/program files (x86)/atmel/studio/7.0/toolchain/arm/arm-gnu-toolchain/bin/../lib/gcc/arm-none-eabi/6.3.1/thumb/v6-m\libgcc.a(adddf3.o)
                              C:\Users\Hunter\DOCUME~1\Work\Venom\DEVELO~1\CIRCUI~2\BLINK0~3\BLINK0~1\ARDUIN~1\Debug\libArduinoCore.a(Print.o) (__aeabi_dadd)
c:/program files (x86)/atmel/studio/7.0/toolchain/arm/arm-gnu-toolchain/bin/../lib/gcc/arm-none-eabi/6.3.1/thumb/v6-m\libgcc.a(divdf3.o)
                              C:\Users\Hunter\DOCUME~1\Work\Venom\DEVELO~1\CIRCUI~2\BLINK0~3\BLINK0~1\ARDUIN~1\Debug\libArduinoCore.a(Print.o) (__aeabi_ddiv)
c:/program files (x86)/atmel/studio/7.0/toolchain/arm/arm-gnu-toolchain/bin/../lib/gcc/arm-none-eabi/6.3.1/thumb/v6-m\libgcc.a(eqdf2.o)
                              c:/program files (x86)/atmel/studio/7.0/toolchain/arm/arm-gnu-toolchain/bin/../lib/gcc/arm-none-eabi/6.3.1/thumb/v6-m\libgcc.a(_arm_cmpdf2.o) (__eqdf2)
c:/program files (x86)/atmel/studio/7.0/toolchain/arm/arm-gnu-toolchain/bin/../lib/gcc/arm-none-eabi/6.3.1/thumb/v6-m\libgcc.a(gedf2.o)
                              c:/program files (x86)/atmel/studio/7.0/toolchain/arm/arm-gnu-toolchain/bin/../lib/gcc/arm-none-eabi/6.3.1/thumb/v6-m\libgcc.a(_arm_cmpdf2.o) (__gedf2)
c:/program files (x86)/atmel/studio/7.0/toolchain/arm/arm-gnu-toolchain/bin/../lib/gcc/arm-none-eabi/6.3.1/thumb/v6-m\libgcc.a(ledf2.o)
                              c:/program files (x86)/atmel/studio/7.0/toolchain/arm/arm-gnu-toolchain/bin/../lib/gcc/arm-none-eabi/6.3.1/thumb/v6-m\libgcc.a(_arm_cmpdf2.o) (__ledf2)
c:/program files (x86)/atmel/studio/7.0/toolchain/arm/arm-gnu-toolchain/bin/../lib/gcc/arm-none-eabi/6.3.1/thumb/v6-m\libgcc.a(muldf3.o)
                              C:\Users\Hunter\DOCUME~1\Work\Venom\DEVELO~1\CIRCUI~2\BLINK0~3\BLINK0~1\ARDUIN~1\Debug\libArduinoCore.a(Print.o) (__aeabi_dmul)
c:/program files (x86)/atmel/studio/7.0/toolchain/arm/arm-gnu-toolchain/bin/../lib/gcc/arm-none-eabi/6.3.1/thumb/v6-m\libgcc.a(subdf3.o)
                              C:\Users\Hunter\DOCUME~1\Work\Venom\DEVELO~1\CIRCUI~2\BLINK0~3\BLINK0~1\ARDUIN~1\Debug\libArduinoCore.a(Print.o) (__aeabi_dsub)
c:/program files (x86)/atmel/studio/7.0/toolchain/arm/arm-gnu-toolchain/bin/../lib/gcc/arm-none-eabi/6.3.1/thumb/v6-m\libgcc.a(unorddf2.o)
                              C:\Users\Hunter\DOCUME~1\Work\Venom\DEVELO~1\CIRCUI~2\BLINK0~3\BLINK0~1\ARDUIN~1\Debug\libArduinoCore.a(Print.o) (__aeabi_dcmpun)
c:/program files (x86)/atmel/studio/7.0/toolchain/arm/arm-gnu-toolchain/bin/../lib/gcc/arm-none-eabi/6.3.1/thumb/v6-m\libgcc.a(fixdfsi.o)
                              c:/program files (x86)/atmel/studio/7.0/toolchain/arm/arm-gnu-toolchain/bin/../lib/gcc/arm-none-eabi/6.3.1/thumb/v6-m\libgcc.a(_fixunsdfsi.o) (__aeabi_d2iz)
c:/program files (x86)/atmel/studio/7.0/toolchain/arm/arm-gnu-toolchain/bin/../lib/gcc/arm-none-eabi/6.3.1/thumb/v6-m\libgcc.a(floatunsidf.o)
                              C:\Users\Hunter\DOCUME~1\Work\Venom\DEVELO~1\CIRCUI~2\BLINK0~3\BLINK0~1\ARDUIN~1\Debug\libArduinoCore.a(Print.o) (__aeabi_ui2d)
c:/program files (x86)/atmel/studio/7.0/toolchain/arm/arm-gnu-toolchain/bin/../lib/gcc/arm-none-eabi/6.3.1/thumb/v6-m\libgcc.a(_clzsi2.o)
                              c:/program files (x86)/atmel/studio/7.0/toolchain/arm/arm-gnu-toolchain/bin/../lib/gcc/arm-none-eabi/6.3.1/thumb/v6-m\libgcc.a(adddf3.o) (__clzsi2)
c:/program files (x86)/atmel/studio/7.0/toolchain/arm/arm-gnu-toolchain/bin/../lib/gcc/arm-none-eabi/6.3.1/../../../../arm-none-eabi/lib/thumb/v6-m\libc_nano.a(lib_a-exit.o)
                              c:/program files (x86)/atmel/studio/7.0/toolchain/arm/arm-gnu-toolchain/bin/../lib/gcc/arm-none-eabi/6.3.1/../../../../arm-none-eabi/lib/thumb/v6-m/crt0.o (exit)
c:/program files (x86)/atmel/studio/7.0/toolchain/arm/arm-gnu-toolchain/bin/../lib/gcc/arm-none-eabi/6.3.1/../../../../arm-none-eabi/lib/thumb/v6-m\libc_nano.a(lib_a-impure.o)
                              c:/program files (x86)/atmel/studio/7.0/toolchain/arm/arm-gnu-toolchain/bin/../lib/gcc/arm-none-eabi/6.3.1/../../../../arm-none-eabi/lib/thumb/v6-m\libc_nano.a(lib_a-exit.o) (_global_impure_ptr)
c:/program files (x86)/atmel/studio/7.0/toolchain/arm/arm-gnu-toolchain/bin/../lib/gcc/arm-none-eabi/6.3.1/../../../../arm-none-eabi/lib/thumb/v6-m\libc_nano.a(lib_a-init.o)
                              c:/program files (x86)/atmel/studio/7.0/toolchain/arm/arm-gnu-toolchain/bin/../lib/gcc/arm-none-eabi/6.3.1/../../../../arm-none-eabi/lib/thumb/v6-m/crt0.o (__libc_init_array)
c:/program files (x86)/atmel/studio/7.0/toolchain/arm/arm-gnu-toolchain/bin/../lib/gcc/arm-none-eabi/6.3.1/../../../../arm-none-eabi/lib/thumb/v6-m\libc_nano.a(lib_a-malloc.o)
                              C:\Users\Hunter\DOCUME~1\Work\Venom\DEVELO~1\CIRCUI~2\BLINK0~3\BLINK0~1\ARDUIN~1\Debug\libArduinoCore.a(USBCore.o) (malloc)
c:/program files (x86)/atmel/studio/7.0/toolchain/arm/arm-gnu-toolchain/bin/../lib/gcc/arm-none-eabi/6.3.1/../../../../arm-none-eabi/lib/thumb/v6-m\libc_nano.a(lib_a-memcpy-stub.o)
                              C:\Users\Hunter\DOCUME~1\Work\Venom\DEVELO~1\CIRCUI~2\BLINK0~3\BLINK0~1\ARDUIN~1\Debug\libArduinoCore.a(USBCore.o) (memcpy)
c:/program files (x86)/atmel/studio/7.0/toolchain/arm/arm-gnu-toolchain/bin/../lib/gcc/arm-none-eabi/6.3.1/../../../../arm-none-eabi/lib/thumb/v6-m\libc_nano.a(lib_a-memset.o)
                              c:/program files (x86)/atmel/studio/7.0/toolchain/arm/arm-gnu-toolchain/bin/../lib/gcc/arm-none-eabi/6.3.1/../../../../arm-none-eabi/lib/thumb/v6-m/crt0.o (memset)
c:/program files (x86)/atmel/studio/7.0/toolchain/arm/arm-gnu-toolchain/bin/../lib/gcc/arm-none-eabi/6.3.1/../../../../arm-none-eabi/lib/thumb/v6-m\libc_nano.a(lib_a-nano-freer.o)
                              c:/program files (x86)/atmel/studio/7.0/toolchain/arm/arm-gnu-toolchain/bin/../lib/gcc/arm-none-eabi/6.3.1/../../../../arm-none-eabi/lib/thumb/v6-m\libc_nano.a(lib_a-malloc.o) (_free_r)
c:/program files (x86)/atmel/studio/7.0/toolchain/arm/arm-gnu-toolchain/bin/../lib/gcc/arm-none-eabi/6.3.1/../../../../arm-none-eabi/lib/thumb/v6-m\libc_nano.a(lib_a-nano-mallocr.o)
                              c:/program files (x86)/atmel/studio/7.0/toolchain/arm/arm-gnu-toolchain/bin/../lib/gcc/arm-none-eabi/6.3.1/../../../../arm-none-eabi/lib/thumb/v6-m\libc_nano.a(lib_a-malloc.o) (_malloc_r)
c:/program files (x86)/atmel/studio/7.0/toolchain/arm/arm-gnu-toolchain/bin/../lib/gcc/arm-none-eabi/6.3.1/../../../../arm-none-eabi/lib/thumb/v6-m\libc_nano.a(lib_a-sbrkr.o)
                              c:/program files (x86)/atmel/studio/7.0/toolchain/arm/arm-gnu-toolchain/bin/../lib/gcc/arm-none-eabi/6.3.1/../../../../arm-none-eabi/lib/thumb/v6-m\libc_nano.a(lib_a-nano-mallocr.o) (_sbrk_r)
c:/program files (x86)/atmel/studio/7.0/toolchain/arm/arm-gnu-toolchain/bin/../lib/gcc/arm-none-eabi/6.3.1/../../../../arm-none-eabi/lib/thumb/v6-m\libc_nano.a(lib_a-strlen.o)
                              C:\Users\Hunter\DOCUME~1\Work\Venom\DEVELO~1\CIRCUI~2\BLINK0~3\BLINK0~1\ARDUIN~1\Debug\libArduinoCore.a(USBCore.o) (strlen)
c:/program files (x86)/atmel/studio/7.0/toolchain/arm/arm-gnu-toolchain/bin/../lib/gcc/arm-none-eabi/6.3.1/../../../../arm-none-eabi/lib/thumb/v6-m\libc_nano.a(lib_a-mlock.o)
                              c:/program files (x86)/atmel/studio/7.0/toolchain/arm/arm-gnu-toolchain/bin/../lib/gcc/arm-none-eabi/6.3.1/../../../../arm-none-eabi/lib/thumb/v6-m\libc_nano.a(lib_a-nano-freer.o) (__malloc_lock)
c:/program files (x86)/atmel/studio/7.0/toolchain/arm/arm-gnu-toolchain/bin/../lib/gcc/arm-none-eabi/6.3.1/../../../../arm-none-eabi/lib/thumb/v6-m\libc_nano.a(lib_a-reent.o)
                              c:/program files (x86)/atmel/studio/7.0/toolchain/arm/arm-gnu-toolchain/bin/../lib/gcc/arm-none-eabi/6.3.1/../../../../arm-none-eabi/lib/thumb/v6-m\libc_nano.a(lib_a-sbrkr.o) (errno)
c:/program files (x86)/atmel/studio/7.0/toolchain/arm/arm-gnu-toolchain/bin/../lib/gcc/arm-none-eabi/6.3.1/../../../../arm-none-eabi/lib/thumb/v6-m\libnosys.a(sbrk.o)
                              c:/program files (x86)/atmel/studio/7.0/toolchain/arm/arm-gnu-toolchain/bin/../lib/gcc/arm-none-eabi/6.3.1/../../../../arm-none-eabi/lib/thumb/v6-m\libc_nano.a(lib_a-sbrkr.o) (_sbrk)
c:/program files (x86)/atmel/studio/7.0/toolchain/arm/arm-gnu-toolchain/bin/../lib/gcc/arm-none-eabi/6.3.1/../../../../arm-none-eabi/lib/thumb/v6-m\libnosys.a(_exit.o)
                              c:/program files (x86)/atmel/studio/7.0/toolchain/arm/arm-gnu-toolchain/bin/../lib/gcc/arm-none-eabi/6.3.1/../../../../arm-none-eabi/lib/thumb/v6-m\libc_nano.a(lib_a-exit.o) (_exit)

Allocating common symbols
Common symbol       size              file

errno               0x4               c:/program files (x86)/atmel/studio/7.0/toolchain/arm/arm-gnu-toolchain/bin/../lib/gcc/arm-none-eabi/6.3.1/../../../../arm-none-eabi/lib/thumb/v6-m\libc_nano.a(lib_a-reent.o)

Discarded input sections

 .text          0x00000000        0x0 c:/program files (x86)/atmel/studio/7.0/toolchain/arm/arm-gnu-toolchain/bin/../lib/gcc/arm-none-eabi/6.3.1/thumb/v6-m/crti.o
 .data          0x00000000        0x0 c:/program files (x86)/atmel/studio/7.0/toolchain/arm/arm-gnu-toolchain/bin/../lib/gcc/arm-none-eabi/6.3.1/thumb/v6-m/crti.o
 .bss           0x00000000        0x0 c:/program files (x86)/atmel/studio/7.0/toolchain/arm/arm-gnu-toolchain/bin/../lib/gcc/arm-none-eabi/6.3.1/thumb/v6-m/crti.o
 .data          0x00000000        0x4 c:/program files (x86)/atmel/studio/7.0/toolchain/arm/arm-gnu-toolchain/bin/../lib/gcc/arm-none-eabi/6.3.1/thumb/v6-m/crtbegin.o
 .text          0x00000000       0x78 c:/program files (x86)/atmel/studio/7.0/toolchain/arm/arm-gnu-toolchain/bin/../lib/gcc/arm-none-eabi/6.3.1/../../../../arm-none-eabi/lib/thumb/v6-m/crt0.o
 .data          0x00000000        0x0 c:/program files (x86)/atmel/studio/7.0/toolchain/arm/arm-gnu-toolchain/bin/../lib/gcc/arm-none-eabi/6.3.1/../../../../arm-none-eabi/lib/thumb/v6-m/crt0.o
 .bss           0x00000000        0x0 c:/program files (x86)/atmel/studio/7.0/toolchain/arm/arm-gnu-toolchain/bin/../lib/gcc/arm-none-eabi/6.3.1/../../../../arm-none-eabi/lib/thumb/v6-m/crt0.o
 .ARM.extab     0x00000000        0x0 c:/program files (x86)/atmel/studio/7.0/toolchain/arm/arm-gnu-toolchain/bin/../lib/gcc/arm-none-eabi/6.3.1/../../../../arm-none-eabi/lib/thumb/v6-m/crt0.o
 .ARM.exidx     0x00000000        0x8 c:/program files (x86)/atmel/studio/7.0/toolchain/arm/arm-gnu-toolchain/bin/../lib/gcc/arm-none-eabi/6.3.1/../../../../arm-none-eabi/lib/thumb/v6-m/crt0.o
 .ARM.attributes
                0x00000000       0x1b c:/program files (x86)/atmel/studio/7.0/toolchain/arm/arm-gnu-toolchain/bin/../lib/gcc/arm-none-eabi/6.3.1/../../../../arm-none-eabi/lib/thumb/v6-m/crt0.o
 .group         0x00000000        0x8 Sketch.o
 .group         0x00000000        0x8 Sketch.o
 .group         0x00000000        0x8 Sketch.o
 .group         0x00000000        0x8 Sketch.o
 .group         0x00000000        0x8 Sketch.o
 .group         0x00000000        0x8 Sketch.o
 .group         0x00000000        0x8 Sketch.o
Memory Configuration

Name             Origin             Length             Attributes
FLASH            0x00000000         0x00040000         xr
RAM              0x20000000         0x00008000         xrw
*default*        0x00000000         0xffffffff

Linker script and memory map

LOAD c:/program files (x86)/atmel/studio/7.0/toolchain/arm/arm-gnu-toolchain/bin/../lib/gcc/arm-none-eabi/6.3.1/thumb/v6-m/crti.o
LOAD c:/program files (x86)/atmel/studio/7.0/toolchain/arm/arm-gnu-toolchain/bin/../lib/gcc/arm-none-eabi/6.3.1/thumb/v6-m/crtbegin.o
LOAD c:/program files (x86)/atmel/studio/7.0/toolchain/arm/arm-gnu-toolchain/bin/../lib/gcc/arm-none-eabi/6.3.1/../../../../arm-none-eabi/lib/thumb/v6-m/crt0.o
LOAD Sketch.o
START GROUP
LOAD C:\Users\Hunter\DOCUME~1\Work\Venom\DEVELO~1\CIRCUI~2\BLINK0~3\BLINK0~1\ARDUIN~1\Debug\libArduinoCore.a
END GROUP
LOAD c:/program files (x86)/atmel/studio/7.0/toolchain/arm/arm-gnu-toolchain/bin/../lib/gcc/arm-none-eabi/6.3.1/../../../../arm-none-eabi/lib/thumb/v6-m\libstdc++_nano.a
LOAD c:/program files (x86)/atmel/studio/7.0/toolchain/arm/arm-gnu-toolchain/bin/../lib/gcc/arm-none-eabi/6.3.1/../../../../arm-none-eabi/lib/thumb/v6-m\libm.a
START GROUP
LOAD c:/program files (x86)/atmel/studio/7.0/toolchain/arm/arm-gnu-toolchain/bin/../lib/gcc/arm-none-eabi/6.3.1/thumb/v6-m\libgcc.a
LOAD c:/program files (x86)/atmel/studio/7.0/toolchain/arm/arm-gnu-toolchain/bin/../lib/gcc/arm-none-eabi/6.3.1/../../../../arm-none-eabi/lib/thumb/v6-m\libc_nano.a
END GROUP
START GROUP
LOAD c:/program files (x86)/atmel/studio/7.0/toolchain/arm/arm-gnu-toolchain/bin/../lib/gcc/arm-none-eabi/6.3.1/thumb/v6-m\libgcc.a
LOAD c:/program files (x86)/atmel/studio/7.0/toolchain/arm/arm-gnu-toolchain/bin/../lib/gcc/arm-none-eabi/6.3.1/../../../../arm-none-eabi/lib/thumb/v6-m\libc_nano.a
LOAD c:/program files (x86)/atmel/studio/7.0/toolchain/arm/arm-gnu-toolchain/bin/../lib/gcc/arm-none-eabi/6.3.1/../../../../arm-none-eabi/lib/thumb/v6-m\libnosys.a
END GROUP
START GROUP
LOAD c:/program files (x86)/atmel/studio/7.0/toolchain/arm/arm-gnu-toolchain/bin/../lib/gcc/arm-none-eabi/6.3.1/thumb/v6-m\libgcc.a
LOAD c:/program files (x86)/atmel/studio/7.0/toolchain/arm/arm-gnu-toolchain/bin/../lib/gcc/arm-none-eabi/6.3.1/../../../../arm-none-eabi/lib/thumb/v6-m\libc_nano.a
LOAD c:/program files (x86)/atmel/studio/7.0/toolchain/arm/arm-gnu-toolchain/bin/../lib/gcc/arm-none-eabi/6.3.1/../../../../arm-none-eabi/lib/thumb/v6-m\libnosys.a
END GROUP
LOAD c:/program files (x86)/atmel/studio/7.0/toolchain/arm/arm-gnu-toolchain/bin/../lib/gcc/arm-none-eabi/6.3.1/thumb/v6-m/crtend.o
LOAD c:/program files (x86)/atmel/studio/7.0/toolchain/arm/arm-gnu-toolchain/bin/../lib/gcc/arm-none-eabi/6.3.1/thumb/v6-m/crtn.o

.text           0x00000000     0x2b74
                0x00000000                __text_start__ = .
 *(.isr_vector)
 .isr_vector    0x00000000       0xb4 C:\Users\Hunter\DOCUME~1\Work\Venom\DEVELO~1\CIRCUI~2\BLINK0~3\BLINK0~1\ARDUIN~1\Debug\libArduinoCore.a(cortex_handlers.o)
                0x00000000                exception_table
 *(.text*)
 .text          0x000000b4       0x60 c:/program files (x86)/atmel/studio/7.0/toolchain/arm/arm-gnu-toolchain/bin/../lib/gcc/arm-none-eabi/6.3.1/thumb/v6-m/crtbegin.o
 .text.setup    0x00000114        0xc Sketch.o
                0x00000114                setup
 .text.loop     0x00000120       0x24 Sketch.o
                0x00000120                loop
 .text.Dummy_Handler
                0x00000144        0x4 C:\Users\Hunter\DOCUME~1\Work\Venom\DEVELO~1\CIRCUI~2\BLINK0~3\BLINK0~1\ARDUIN~1\Debug\libArduinoCore.a(cortex_handlers.o)
                0x00000144                DMAC_Handler
                0x00000144                HardFault_Handler
                0x00000144                AC_Handler
                0x00000144                PendSV_Handler
                0x00000144                NMI_Handler
                0x00000144                TC7_Handler
                0x00000144                SERCOM1_Handler
                0x00000144                ADC_Handler
                0x00000144                TCC1_Handler
                0x00000144                SERCOM2_Handler
                0x00000144                TCC0_Handler
                0x00000144                RTC_Handler
                0x00000144                EIC_Handler
                0x00000144                TC6_Handler
                0x00000144                WDT_Handler
                0x00000144                TC4_Handler
                0x00000144                TC3_Handler
                0x00000144                Dummy_Handler
                0x00000144                PM_Handler
                0x00000144                SERCOM5_Handler
                0x00000144                SVC_Handler
                0x00000144                TCC2_Handler
                0x00000144                EVSYS_Handler
                0x00000144                SERCOM3_Handler
                0x00000144                I2S_Handler
                0x00000144                NVMCTRL_Handler
                0x00000144                SERCOM0_Handler
                0x00000144                DAC_Handler
                0x00000144                PTC_Handler
                0x00000144                SYSCTRL_Handler
 .text.USB_Handler
                0x00000148       0x14 C:\Users\Hunter\DOCUME~1\Work\Venom\DEVELO~1\CIRCUI~2\BLINK0~3\BLINK0~1\ARDUIN~1\Debug\libArduinoCore.a(cortex_handlers.o)
                0x00000148                USB_Handler
 .text.Reset_Handler
                0x0000015c       0x54 C:\Users\Hunter\DOCUME~1\Work\Venom\DEVELO~1\CIRCUI~2\BLINK0~3\BLINK0~1\ARDUIN~1\Debug\libArduinoCore.a(cortex_handlers.o)
                0x0000015c                Reset_Handler
 .text.SysTick_Handler
                0x000001b0       0x10 C:\Users\Hunter\DOCUME~1\Work\Venom\DEVELO~1\CIRCUI~2\BLINK0~3\BLINK0~1\ARDUIN~1\Debug\libArduinoCore.a(cortex_handlers.o)
                0x000001b0                SysTick_Handler
 .text.USB_SetHandler
                0x000001c0        0xc C:\Users\Hunter\DOCUME~1\Work\Venom\DEVELO~1\CIRCUI~2\BLINK0~3\BLINK0~1\ARDUIN~1\Debug\libArduinoCore.a(cortex_handlers.o)
                0x000001c0                USB_SetHandler
 .text.micros   0x000001cc       0x60 C:\Users\Hunter\DOCUME~1\Work\Venom\DEVELO~1\CIRCUI~2\BLINK0~3\BLINK0~1\ARDUIN~1\Debug\libArduinoCore.a(delay.o)
                0x000001cc                micros
 .text.delay    0x0000022c       0x30 C:\Users\Hunter\DOCUME~1\Work\Venom\DEVELO~1\CIRCUI~2\BLINK0~3\BLINK0~1\ARDUIN~1\Debug\libArduinoCore.a(delay.o)
                0x0000022c                delay
 .text.resetExternalChip
                0x0000025c        0x2 C:\Users\Hunter\DOCUME~1\Work\Venom\DEVELO~1\CIRCUI~2\BLINK0~3\BLINK0~1\ARDUIN~1\Debug\libArduinoCore.a(delay.o)
                0x0000025c                resetExternalChip
 *fill*         0x0000025e        0x2 
 .text.SysTick_DefaultHandler
                0x00000260       0x14 C:\Users\Hunter\DOCUME~1\Work\Venom\DEVELO~1\CIRCUI~2\BLINK0~3\BLINK0~1\ARDUIN~1\Debug\libArduinoCore.a(delay.o)
                0x00000260                SysTick_DefaultHandler
 .text.__empty  0x00000274        0x2 C:\Users\Hunter\DOCUME~1\Work\Venom\DEVELO~1\CIRCUI~2\BLINK0~3\BLINK0~1\ARDUIN~1\Debug\libArduinoCore.a(hooks.o)
                0x00000274                yield
 .text.__false  0x00000276        0x4 C:\Users\Hunter\DOCUME~1\Work\Venom\DEVELO~1\CIRCUI~2\BLINK0~3\BLINK0~1\ARDUIN~1\Debug\libArduinoCore.a(hooks.o)
                0x00000276                sysTickHook
 .text._Z11initVariantv
                0x0000027a        0x2 C:\Users\Hunter\DOCUME~1\Work\Venom\DEVELO~1\CIRCUI~2\BLINK0~3\BLINK0~1\ARDUIN~1\Debug\libArduinoCore.a(main.o)
                0x0000027a                initVariant()
 .text.startup.main
                0x0000027c       0x40 C:\Users\Hunter\DOCUME~1\Work\Venom\DEVELO~1\CIRCUI~2\BLINK0~3\BLINK0~1\ARDUIN~1\Debug\libArduinoCore.a(main.o)
                0x0000027c                main
 .text.initiateReset
                0x000002bc       0x14 C:\Users\Hunter\DOCUME~1\Work\Venom\DEVELO~1\CIRCUI~2\BLINK0~3\BLINK0~1\ARDUIN~1\Debug\libArduinoCore.a(Reset.o)
                0x000002bc                initiateReset
 .text.cancelReset
                0x000002d0       0x10 C:\Users\Hunter\DOCUME~1\Work\Venom\DEVELO~1\CIRCUI~2\BLINK0~3\BLINK0~1\ARDUIN~1\Debug\libArduinoCore.a(Reset.o)
                0x000002d0                cancelReset
 .text.tickReset
                0x000002e0       0x78 C:\Users\Hunter\DOCUME~1\Work\Venom\DEVELO~1\CIRCUI~2\BLINK0~3\BLINK0~1\ARDUIN~1\Debug\libArduinoCore.a(Reset.o)
                0x000002e0                tickReset
 .text.SystemInit
                0x00000358      0x160 C:\Users\Hunter\DOCUME~1\Work\Venom\DEVELO~1\CIRCUI~2\BLINK0~3\BLINK0~1\ARDUIN~1\Debug\libArduinoCore.a(startup.o)
                0x00000358                SystemInit
 .text._ZN26DoubleBufferedEPOutHandlerD2Ev
                0x000004b8        0x2 C:\Users\Hunter\DOCUME~1\Work\Venom\DEVELO~1\CIRCUI~2\BLINK0~3\BLINK0~1\ARDUIN~1\Debug\libArduinoCore.a(USBCore.o)
                0x000004b8                DoubleBufferedEPOutHandler::~DoubleBufferedEPOutHandler()
                0x000004b8                DoubleBufferedEPOutHandler::~DoubleBufferedEPOutHandler()
 .text._ZN26DoubleBufferedEPOutHandlerD0Ev
                0x000004ba        0xc C:\Users\Hunter\DOCUME~1\Work\Venom\DEVELO~1\CIRCUI~2\BLINK0~3\BLINK0~1\ARDUIN~1\Debug\libArduinoCore.a(USBCore.o)
                0x000004ba                DoubleBufferedEPOutHandler::~DoubleBufferedEPOutHandler()
 *fill*         0x000004c6        0x2 
 .text._ZN14USBDeviceClass6initEPEmm.part.7
                0x000004c8       0xc4 C:\Users\Hunter\DOCUME~1\Work\Venom\DEVELO~1\CIRCUI~2\BLINK0~3\BLINK0~1\ARDUIN~1\Debug\libArduinoCore.a(USBCore.o)
 .text._ZN7__GuardC2Ev
                0x0000058c        0xe C:\Users\Hunter\DOCUME~1\Work\Venom\DEVELO~1\CIRCUI~2\BLINK0~3\BLINK0~1\ARDUIN~1\Debug\libArduinoCore.a(USBCore.o)
                0x0000058c                __Guard::__Guard()
                0x0000058c                __Guard::__Guard()
 .text._ZN7__GuardD2Ev
                0x0000059a        0xe C:\Users\Hunter\DOCUME~1\Work\Venom\DEVELO~1\CIRCUI~2\BLINK0~3\BLINK0~1\ARDUIN~1\Debug\libArduinoCore.a(USBCore.o)
                0x0000059a                __Guard::~__Guard()
                0x0000059a                __Guard::~__Guard()
 .text._ZNK26DoubleBufferedEPOutHandler10_availableEv
                0x000005a8       0x70 C:\Users\Hunter\DOCUME~1\Work\Venom\DEVELO~1\CIRCUI~2\BLINK0~3\BLINK0~1\ARDUIN~1\Debug\libArduinoCore.a(USBCore.o)
                0x000005a8                DoubleBufferedEPOutHandler::_available() const
 .text._ZN26DoubleBufferedEPOutHandler7releaseEv
                0x00000618       0x3c C:\Users\Hunter\DOCUME~1\Work\Venom\DEVELO~1\CIRCUI~2\BLINK0~3\BLINK0~1\ARDUIN~1\Debug\libArduinoCore.a(USBCore.o)
                0x00000618                DoubleBufferedEPOutHandler::release()
 .text._ZN26DoubleBufferedEPOutHandler14handleEndpointEv
                0x00000654       0xe8 C:\Users\Hunter\DOCUME~1\Work\Venom\DEVELO~1\CIRCUI~2\BLINK0~3\BLINK0~1\ARDUIN~1\Debug\libArduinoCore.a(USBCore.o)
                0x00000654                DoubleBufferedEPOutHandler::handleEndpoint()
 .text._ZN26DoubleBufferedEPOutHandler5_recvEv
                0x0000073c      0x194 C:\Users\Hunter\DOCUME~1\Work\Venom\DEVELO~1\CIRCUI~2\BLINK0~3\BLINK0~1\ARDUIN~1\Debug\libArduinoCore.a(USBCore.o)
                0x0000073c                DoubleBufferedEPOutHandler::_recv()
 .text._ZN26DoubleBufferedEPOutHandler4peekEv
                0x000008d0       0x22 C:\Users\Hunter\DOCUME~1\Work\Venom\DEVELO~1\CIRCUI~2\BLINK0~3\BLINK0~1\ARDUIN~1\Debug\libArduinoCore.a(USBCore.o)
                0x000008d0                DoubleBufferedEPOutHandler::peek()
 .text._ZN26DoubleBufferedEPOutHandler9availableEv
                0x000008f2       0x18 C:\Users\Hunter\DOCUME~1\Work\Venom\DEVELO~1\CIRCUI~2\BLINK0~3\BLINK0~1\ARDUIN~1\Debug\libArduinoCore.a(USBCore.o)
                0x000008f2                DoubleBufferedEPOutHandler::available()
 .text._ZN26DoubleBufferedEPOutHandler4recvEPvm
                0x0000090a       0x6c C:\Users\Hunter\DOCUME~1\Work\Venom\DEVELO~1\CIRCUI~2\BLINK0~3\BLINK0~1\ARDUIN~1\Debug\libArduinoCore.a(USBCore.o)
                0x0000090a                DoubleBufferedEPOutHandler::recv(void*, unsigned long)
 .text._ZN14USBDeviceClass14SendInterfacesEPm
                0x00000976       0x20 C:\Users\Hunter\DOCUME~1\Work\Venom\DEVELO~1\CIRCUI~2\BLINK0~3\BLINK0~1\ARDUIN~1\Debug\libArduinoCore.a(USBCore.o)
                0x00000976                USBDeviceClass::SendInterfaces(unsigned long*)
 *fill*         0x00000996        0x2 
 .text._ZN14USBDeviceClass4initEv
                0x00000998      0x134 C:\Users\Hunter\DOCUME~1\Work\Venom\DEVELO~1\CIRCUI~2\BLINK0~3\BLINK0~1\ARDUIN~1\Debug\libArduinoCore.a(USBCore.o)
                0x00000998                USBDeviceClass::init()
 .text._ZN14USBDeviceClass6attachEv
                0x00000acc       0x34 C:\Users\Hunter\DOCUME~1\Work\Venom\DEVELO~1\CIRCUI~2\BLINK0~3\BLINK0~1\ARDUIN~1\Debug\libArduinoCore.a(USBCore.o)
                0x00000acc                USBDeviceClass::attach()
 .text._ZN14USBDeviceClass10setAddressEm
                0x00000b00       0x48 C:\Users\Hunter\DOCUME~1\Work\Venom\DEVELO~1\CIRCUI~2\BLINK0~3\BLINK0~1\ARDUIN~1\Debug\libArduinoCore.a(USBCore.o)
                0x00000b00                USBDeviceClass::setAddress(unsigned long)
 .text._ZN14USBDeviceClass25handleClassInterfaceSetupER8USBSetup
                0x00000b48       0x24 C:\Users\Hunter\DOCUME~1\Work\Venom\DEVELO~1\CIRCUI~2\BLINK0~3\BLINK0~1\ARDUIN~1\Debug\libArduinoCore.a(USBCore.o)
                0x00000b48                USBDeviceClass::handleClassInterfaceSetup(USBSetup&)
 .text._ZN14USBDeviceClass6initEPEmm
                0x00000b6c      0x104 C:\Users\Hunter\DOCUME~1\Work\Venom\DEVELO~1\CIRCUI~2\BLINK0~3\BLINK0~1\ARDUIN~1\Debug\libArduinoCore.a(USBCore.o)
                0x00000b6c                USBDeviceClass::initEP(unsigned long, unsigned long)
 .text._ZN14USBDeviceClass13initEndpointsEv
                0x00000c70       0x24 C:\Users\Hunter\DOCUME~1\Work\Venom\DEVELO~1\CIRCUI~2\BLINK0~3\BLINK0~1\ARDUIN~1\Debug\libArduinoCore.a(USBCore.o)
                0x00000c70                USBDeviceClass::initEndpoints()
 .text._ZN14USBDeviceClass5clearEm
                0x00000c94       0x38 C:\Users\Hunter\DOCUME~1\Work\Venom\DEVELO~1\CIRCUI~2\BLINK0~3\BLINK0~1\ARDUIN~1\Debug\libArduinoCore.a(USBCore.o)
                0x00000c94                USBDeviceClass::clear(unsigned long)
 .text._ZN14USBDeviceClass9availableEm
                0x00000ccc       0x2c C:\Users\Hunter\DOCUME~1\Work\Venom\DEVELO~1\CIRCUI~2\BLINK0~3\BLINK0~1\ARDUIN~1\Debug\libArduinoCore.a(USBCore.o)
                0x00000ccc                USBDeviceClass::available(unsigned long)
 .text._ZN14USBDeviceClass5flushEm
                0x00000cf8       0x2c C:\Users\Hunter\DOCUME~1\Work\Venom\DEVELO~1\CIRCUI~2\BLINK0~3\BLINK0~1\ARDUIN~1\Debug\libArduinoCore.a(USBCore.o)
                0x00000cf8                USBDeviceClass::flush(unsigned long)
 .text._ZN14USBDeviceClass4recvEmPvm
                0x00000d24       0xc4 C:\Users\Hunter\DOCUME~1\Work\Venom\DEVELO~1\CIRCUI~2\BLINK0~3\BLINK0~1\ARDUIN~1\Debug\libArduinoCore.a(USBCore.o)
                0x00000d24                USBDeviceClass::recv(unsigned long, void*, unsigned long)
 .text._ZN14USBDeviceClass4recvEm
                0x00000de8       0x1c C:\Users\Hunter\DOCUME~1\Work\Venom\DEVELO~1\CIRCUI~2\BLINK0~3\BLINK0~1\ARDUIN~1\Debug\libArduinoCore.a(USBCore.o)
                0x00000de8                USBDeviceClass::recv(unsigned long)
 .text._ZN14USBDeviceClass14armRecvCtrlOUTEm
                0x00000e04       0x5c C:\Users\Hunter\DOCUME~1\Work\Venom\DEVELO~1\CIRCUI~2\BLINK0~3\BLINK0~1\ARDUIN~1\Debug\libArduinoCore.a(USBCore.o)
                0x00000e04                USBDeviceClass::armRecvCtrlOUT(unsigned long)
 .text._ZN14USBDeviceClass11recvControlEPvm
                0x00000e60       0x28 C:\Users\Hunter\DOCUME~1\Work\Venom\DEVELO~1\CIRCUI~2\BLINK0~3\BLINK0~1\ARDUIN~1\Debug\libArduinoCore.a(USBCore.o)
                0x00000e60                USBDeviceClass::recvControl(void*, unsigned long)
 .text._ZN14USBDeviceClass4sendEmPKvm
                0x00000e88      0x10c C:\Users\Hunter\DOCUME~1\Work\Venom\DEVELO~1\CIRCUI~2\BLINK0~3\BLINK0~1\ARDUIN~1\Debug\libArduinoCore.a(USBCore.o)
                0x00000e88                USBDeviceClass::send(unsigned long, void const*, unsigned long)
 .text._ZN14USBDeviceClass7armSendEmPKvm
                0x00000f94       0x48 C:\Users\Hunter\DOCUME~1\Work\Venom\DEVELO~1\CIRCUI~2\BLINK0~3\BLINK0~1\ARDUIN~1\Debug\libArduinoCore.a(USBCore.o)
                0x00000f94                USBDeviceClass::armSend(unsigned long, void const*, unsigned long)
 .text._ZN14USBDeviceClass11sendControlEPKvm
                0x00000fdc       0x54 C:\Users\Hunter\DOCUME~1\Work\Venom\DEVELO~1\CIRCUI~2\BLINK0~3\BLINK0~1\ARDUIN~1\Debug\libArduinoCore.a(USBCore.o)
                0x00000fdc                USBDeviceClass::sendControl(void const*, unsigned long)
 .text._ZN14USBDeviceClass20sendStringDescriptorEPKhm
                0x00001030       0x64 C:\Users\Hunter\DOCUME~1\Work\Venom\DEVELO~1\CIRCUI~2\BLINK0~3\BLINK0~1\ARDUIN~1\Debug\libArduinoCore.a(USBCore.o)
                0x00001030                USBDeviceClass::sendStringDescriptor(unsigned char const*, unsigned long)
 .text._ZN14USBDeviceClass17sendConfigurationEm
                0x00001094       0x94 C:\Users\Hunter\DOCUME~1\Work\Venom\DEVELO~1\CIRCUI~2\BLINK0~3\BLINK0~1\ARDUIN~1\Debug\libArduinoCore.a(USBCore.o)
                0x00001094                USBDeviceClass::sendConfiguration(unsigned long)
 .text._ZN14USBDeviceClass14sendDescriptorER8USBSetup
                0x00001128       0xe0 C:\Users\Hunter\DOCUME~1\Work\Venom\DEVELO~1\CIRCUI~2\BLINK0~3\BLINK0~1\ARDUIN~1\Debug\libArduinoCore.a(USBCore.o)
                0x00001128                USBDeviceClass::sendDescriptor(USBSetup&)
 .text._ZN14USBDeviceClass7sendZlpEm
                0x00001208       0x18 C:\Users\Hunter\DOCUME~1\Work\Venom\DEVELO~1\CIRCUI~2\BLINK0~3\BLINK0~1\ARDUIN~1\Debug\libArduinoCore.a(USBCore.o)
                0x00001208                USBDeviceClass::sendZlp(unsigned long)
 .text._ZN14USBDeviceClass19handleStandardSetupER8USBSetup
                0x00001220       0xf4 C:\Users\Hunter\DOCUME~1\Work\Venom\DEVELO~1\CIRCUI~2\BLINK0~3\BLINK0~1\ARDUIN~1\Debug\libArduinoCore.a(USBCore.o)
                0x00001220                USBDeviceClass::handleStandardSetup(USBSetup&)
 .text._ZN14USBDeviceClass10ISRHandlerEv
                0x00001314      0x108 C:\Users\Hunter\DOCUME~1\Work\Venom\DEVELO~1\CIRCUI~2\BLINK0~3\BLINK0~1\ARDUIN~1\Debug\libArduinoCore.a(USBCore.o)
                0x00001314                USBDeviceClass::ISRHandler()
 .text.UDD_Handler
                0x0000141c       0x10 C:\Users\Hunter\DOCUME~1\Work\Venom\DEVELO~1\CIRCUI~2\BLINK0~3\BLINK0~1\ARDUIN~1\Debug\libArduinoCore.a(USBCore.o)
                0x0000141c                UDD_Handler
 .text.startup._GLOBAL__sub_I_usbd
                0x0000142c       0x10 C:\Users\Hunter\DOCUME~1\Work\Venom\DEVELO~1\CIRCUI~2\BLINK0~3\BLINK0~1\ARDUIN~1\Debug\libArduinoCore.a(USBCore.o)
 .text.init     0x0000143c       0xf0 C:\Users\Hunter\DOCUME~1\Work\Venom\DEVELO~1\CIRCUI~2\BLINK0~3\BLINK0~1\ARDUIN~1\Debug\libArduinoCore.a(wiring.o)
                0x0000143c                init
 .text.analogReference
                0x0000152c       0x64 C:\Users\Hunter\DOCUME~1\Work\Venom\DEVELO~1\CIRCUI~2\BLINK0~3\BLINK0~1\ARDUIN~1\Debug\libArduinoCore.a(wiring_analog.o)
                0x0000152c                analogReference
 .text.pinMode  0x00001590       0x98 C:\Users\Hunter\DOCUME~1\Work\Venom\DEVELO~1\CIRCUI~2\BLINK0~3\BLINK0~1\ARDUIN~1\Debug\libArduinoCore.a(wiring_digital.o)
                0x00001590                pinMode
 .text.digitalWrite
                0x00001628       0x58 C:\Users\Hunter\DOCUME~1\Work\Venom\DEVELO~1\CIRCUI~2\BLINK0~3\BLINK0~1\ARDUIN~1\Debug\libArduinoCore.a(wiring_digital.o)
                0x00001628                digitalWrite
 .text.pinPeripheral
                0x00001680       0xbc C:\Users\Hunter\DOCUME~1\Work\Venom\DEVELO~1\CIRCUI~2\BLINK0~3\BLINK0~1\ARDUIN~1\Debug\libArduinoCore.a(wiring_private.o)
                0x00001680                pinPeripheral
 .text.SERCOM4_Handler
                0x0000173c       0x10 C:\Users\Hunter\DOCUME~1\Work\Venom\DEVELO~1\CIRCUI~2\BLINK0~3\BLINK0~1\ARDUIN~1\Debug\libArduinoCore.a(variant.o)
                0x0000173c                SERCOM4_Handler
 .text.startup._GLOBAL__sub_I_g_APinDescription
                0x0000174c       0x7c C:\Users\Hunter\DOCUME~1\Work\Venom\DEVELO~1\CIRCUI~2\BLINK0~3\BLINK0~1\ARDUIN~1\Debug\libArduinoCore.a(variant.o)
 .text._Znwj    0x000017c8        0x8 C:\Users\Hunter\DOCUME~1\Work\Venom\DEVELO~1\CIRCUI~2\BLINK0~3\BLINK0~1\ARDUIN~1\Debug\libArduinoCore.a(new.o)
                0x000017c8                operator new(unsigned int)
 .text._ZdlPv   0x000017d0        0x8 C:\Users\Hunter\DOCUME~1\Work\Venom\DEVELO~1\CIRCUI~2\BLINK0~3\BLINK0~1\ARDUIN~1\Debug\libArduinoCore.a(new.o)
                0x000017d0                operator delete(void*)
 .text._ZN6SERCOMC2EP6Sercom
                0x000017d8        0x4 C:\Users\Hunter\DOCUME~1\Work\Venom\DEVELO~1\CIRCUI~2\BLINK0~3\BLINK0~1\ARDUIN~1\Debug\libArduinoCore.a(SERCOM.o)
                0x000017d8                SERCOM::SERCOM(Sercom*)
                0x000017d8                SERCOM::SERCOM(Sercom*)
 .text._ZN6SERCOM9initFrameE18SercomUartCharSize15SercomDataOrder16SercomParityMode19SercomNumberStopBit
                0x000017dc       0x34 C:\Users\Hunter\DOCUME~1\Work\Venom\DEVELO~1\CIRCUI~2\BLINK0~3\BLINK0~1\ARDUIN~1\Debug\libArduinoCore.a(SERCOM.o)
                0x000017dc                SERCOM::initFrame(SercomUartCharSize, SercomDataOrder, SercomParityMode, SercomNumberStopBit)
 .text._ZN6SERCOM8initPadsE15SercomUartTXPad11SercomRXPad
                0x00001810       0x24 C:\Users\Hunter\DOCUME~1\Work\Venom\DEVELO~1\CIRCUI~2\BLINK0~3\BLINK0~1\ARDUIN~1\Debug\libArduinoCore.a(SERCOM.o)
                0x00001810                SERCOM::initPads(SercomUartTXPad, SercomRXPad)
 .text._ZN6SERCOM9resetUARTEv
                0x00001834       0x18 C:\Users\Hunter\DOCUME~1\Work\Venom\DEVELO~1\CIRCUI~2\BLINK0~3\BLINK0~1\ARDUIN~1\Debug\libArduinoCore.a(SERCOM.o)
                0x00001834                SERCOM::resetUART()
 .text._ZN6SERCOM10enableUARTEv
                0x0000184c       0x12 C:\Users\Hunter\DOCUME~1\Work\Venom\DEVELO~1\CIRCUI~2\BLINK0~3\BLINK0~1\ARDUIN~1\Debug\libArduinoCore.a(SERCOM.o)
                0x0000184c                SERCOM::enableUART()
 .text._ZN6SERCOM9flushUARTEv
                0x0000185e       0x10 C:\Users\Hunter\DOCUME~1\Work\Venom\DEVELO~1\CIRCUI~2\BLINK0~3\BLINK0~1\ARDUIN~1\Debug\libArduinoCore.a(SERCOM.o)
                0x0000185e                SERCOM::flushUART()
 .text._ZN6SERCOM15clearStatusUARTEv
                0x0000186e        0x8 C:\Users\Hunter\DOCUME~1\Work\Venom\DEVELO~1\CIRCUI~2\BLINK0~3\BLINK0~1\ARDUIN~1\Debug\libArduinoCore.a(SERCOM.o)
                0x0000186e                SERCOM::clearStatusUART()
 .text._ZN6SERCOM17availableDataUARTEv
                0x00001876        0xa C:\Users\Hunter\DOCUME~1\Work\Venom\DEVELO~1\CIRCUI~2\BLINK0~3\BLINK0~1\ARDUIN~1\Debug\libArduinoCore.a(SERCOM.o)
                0x00001876                SERCOM::availableDataUART()
 .text._ZN6SERCOM11isUARTErrorEv
                0x00001880        0x8 C:\Users\Hunter\DOCUME~1\Work\Venom\DEVELO~1\CIRCUI~2\BLINK0~3\BLINK0~1\ARDUIN~1\Debug\libArduinoCore.a(SERCOM.o)
                0x00001880                SERCOM::isUARTError()
 .text._ZN6SERCOM20acknowledgeUARTErrorEv
                0x00001888        0xe C:\Users\Hunter\DOCUME~1\Work\Venom\DEVELO~1\CIRCUI~2\BLINK0~3\BLINK0~1\ARDUIN~1\Debug\libArduinoCore.a(SERCOM.o)
                0x00001888                SERCOM::acknowledgeUARTError()
 .text._ZN6SERCOM16isFrameErrorUARTEv
                0x00001896        0xa C:\Users\Hunter\DOCUME~1\Work\Venom\DEVELO~1\CIRCUI~2\BLINK0~3\BLINK0~1\ARDUIN~1\Debug\libArduinoCore.a(SERCOM.o)
                0x00001896                SERCOM::isFrameErrorUART()
 .text._ZN6SERCOM19clearFrameErrorUARTEv
                0x000018a0        0xc C:\Users\Hunter\DOCUME~1\Work\Venom\DEVELO~1\CIRCUI~2\BLINK0~3\BLINK0~1\ARDUIN~1\Debug\libArduinoCore.a(SERCOM.o)
                0x000018a0                SERCOM::clearFrameErrorUART()
 .text._ZN6SERCOM23isDataRegisterEmptyUARTEv
                0x000018ac        0xa C:\Users\Hunter\DOCUME~1\Work\Venom\DEVELO~1\CIRCUI~2\BLINK0~3\BLINK0~1\ARDUIN~1\Debug\libArduinoCore.a(SERCOM.o)
                0x000018ac                SERCOM::isDataRegisterEmptyUART()
 .text._ZN6SERCOM12readDataUARTEv
                0x000018b6        0x8 C:\Users\Hunter\DOCUME~1\Work\Venom\DEVELO~1\CIRCUI~2\BLINK0~3\BLINK0~1\ARDUIN~1\Debug\libArduinoCore.a(SERCOM.o)
                0x000018b6                SERCOM::readDataUART()
 .text._ZN6SERCOM13writeDataUARTEh
                0x000018be       0x10 C:\Users\Hunter\DOCUME~1\Work\Venom\DEVELO~1\CIRCUI~2\BLINK0~3\BLINK0~1\ARDUIN~1\Debug\libArduinoCore.a(SERCOM.o)
                0x000018be                SERCOM::writeDataUART(unsigned char)
 .text._ZN6SERCOM36enableDataRegisterEmptyInterruptUARTEv
                0x000018ce        0x8 C:\Users\Hunter\DOCUME~1\Work\Venom\DEVELO~1\CIRCUI~2\BLINK0~3\BLINK0~1\ARDUIN~1\Debug\libArduinoCore.a(SERCOM.o)
                0x000018ce                SERCOM::enableDataRegisterEmptyInterruptUART()
 .text._ZN6SERCOM37disableDataRegisterEmptyInterruptUARTEv
                0x000018d6        0x8 C:\Users\Hunter\DOCUME~1\Work\Venom\DEVELO~1\CIRCUI~2\BLINK0~3\BLINK0~1\ARDUIN~1\Debug\libArduinoCore.a(SERCOM.o)
                0x000018d6                SERCOM::disableDataRegisterEmptyInterruptUART()
 *fill*         0x000018de        0x2 
 .text._ZN6SERCOM13initClockNVICEv
                0x000018e0       0xa8 C:\Users\Hunter\DOCUME~1\Work\Venom\DEVELO~1\CIRCUI~2\BLINK0~3\BLINK0~1\ARDUIN~1\Debug\libArduinoCore.a(SERCOM.o)
                0x000018e0                SERCOM::initClockNVIC()
 .text._ZN6SERCOM8initUARTE14SercomUartMode20SercomUartSampleRatem
                0x00001988       0x64 C:\Users\Hunter\DOCUME~1\Work\Venom\DEVELO~1\CIRCUI~2\BLINK0~3\BLINK0~1\ARDUIN~1\Debug\libArduinoCore.a(SERCOM.o)
                0x00001988                SERCOM::initUART(SercomUartMode, SercomUartSampleRate, unsigned long)
 .text._ZN4UartcvbEv
                0x000019ec        0x4 C:\Users\Hunter\DOCUME~1\Work\Venom\DEVELO~1\CIRCUI~2\BLINK0~3\BLINK0~1\ARDUIN~1\Debug\libArduinoCore.a(Uart.o)
                0x000019ec                Uart::operator bool()
 .text._ZN4Uart5beginEm
                0x000019f0       0x10 C:\Users\Hunter\DOCUME~1\Work\Venom\DEVELO~1\CIRCUI~2\BLINK0~3\BLINK0~1\ARDUIN~1\Debug\libArduinoCore.a(Uart.o)
                0x000019f0                Uart::begin(unsigned long)
 .text._ZN4Uart4peekEv
                0x00001a00       0x1a C:\Users\Hunter\DOCUME~1\Work\Venom\DEVELO~1\CIRCUI~2\BLINK0~3\BLINK0~1\ARDUIN~1\Debug\libArduinoCore.a(Uart.o)
                0x00001a00                Uart::peek()
 .text._ZN4Uart3endEv
                0x00001a1a       0x20 C:\Users\Hunter\DOCUME~1\Work\Venom\DEVELO~1\CIRCUI~2\BLINK0~3\BLINK0~1\ARDUIN~1\Debug\libArduinoCore.a(Uart.o)
                0x00001a1a                Uart::end()
 .text._ZN4Uart16extractNbStopBitEt
                0x00001a3a        0xc C:\Users\Hunter\DOCUME~1\Work\Venom\DEVELO~1\CIRCUI~2\BLINK0~3\BLINK0~1\ARDUIN~1\Debug\libArduinoCore.a(Uart.o)
                0x00001a3a                Uart::extractNbStopBit(unsigned short)
 .text._ZN4Uart15extractCharSizeEt
                0x00001a46       0x28 C:\Users\Hunter\DOCUME~1\Work\Venom\DEVELO~1\CIRCUI~2\BLINK0~3\BLINK0~1\ARDUIN~1\Debug\libArduinoCore.a(Uart.o)
                0x00001a46                Uart::extractCharSize(unsigned short)
 .text._ZN4Uart13extractParityEt
                0x00001a6e       0x14 C:\Users\Hunter\DOCUME~1\Work\Venom\DEVELO~1\CIRCUI~2\BLINK0~3\BLINK0~1\ARDUIN~1\Debug\libArduinoCore.a(Uart.o)
                0x00001a6e                Uart::extractParity(unsigned short)
 *fill*         0x00001a82        0x2 
 .text._ZN4Uart5beginEmt
                0x00001a84       0xf8 C:\Users\Hunter\DOCUME~1\Work\Venom\DEVELO~1\CIRCUI~2\BLINK0~3\BLINK0~1\ARDUIN~1\Debug\libArduinoCore.a(Uart.o)
                0x00001a84                Uart::begin(unsigned long, unsigned short)
 .text._ZN11RingBufferNILi256EEC2Ev
                0x00001b7c       0x1c C:\Users\Hunter\DOCUME~1\Work\Venom\DEVELO~1\CIRCUI~2\BLINK0~3\BLINK0~1\ARDUIN~1\Debug\libArduinoCore.a(Uart.o)
                0x00001b7c                RingBufferN<256>::RingBufferN()
                0x00001b7c                RingBufferN<256>::RingBufferN()
 .text._ZN4UartC2EP6SERCOMhh11SercomRXPad15SercomUartTXPad
                0x00001b98       0x74 C:\Users\Hunter\DOCUME~1\Work\Venom\DEVELO~1\CIRCUI~2\BLINK0~3\BLINK0~1\ARDUIN~1\Debug\libArduinoCore.a(Uart.o)
                0x00001b98                Uart::Uart(SERCOM*, unsigned char, unsigned char, SercomRXPad, SercomUartTXPad)
                0x00001b98                Uart::Uart(SERCOM*, unsigned char, unsigned char, SercomRXPad, SercomUartTXPad)
 .text._ZN11RingBufferNILi256EE9availableEv
                0x00001c0c       0x12 C:\Users\Hunter\DOCUME~1\Work\Venom\DEVELO~1\CIRCUI~2\BLINK0~3\BLINK0~1\ARDUIN~1\Debug\libArduinoCore.a(Uart.o)
                0x00001c0c                RingBufferN<256>::available()
 .text._ZN4Uart5flushEv
                0x00001c1e       0x1a C:\Users\Hunter\DOCUME~1\Work\Venom\DEVELO~1\CIRCUI~2\BLINK0~3\BLINK0~1\ARDUIN~1\Debug\libArduinoCore.a(Uart.o)
                0x00001c1e                Uart::flush()
 .text._ZN4Uart9availableEv
                0x00001c38        0xa C:\Users\Hunter\DOCUME~1\Work\Venom\DEVELO~1\CIRCUI~2\BLINK0~3\BLINK0~1\ARDUIN~1\Debug\libArduinoCore.a(Uart.o)
                0x00001c38                Uart::available()
 .text._ZN11RingBufferNILi256EE17availableForStoreEv
                0x00001c42       0x20 C:\Users\Hunter\DOCUME~1\Work\Venom\DEVELO~1\CIRCUI~2\BLINK0~3\BLINK0~1\ARDUIN~1\Debug\libArduinoCore.a(Uart.o)
                0x00001c42                RingBufferN<256>::availableForStore()
 .text._ZN4Uart17availableForWriteEv
                0x00001c62        0xc C:\Users\Hunter\DOCUME~1\Work\Venom\DEVELO~1\CIRCUI~2\BLINK0~3\BLINK0~1\ARDUIN~1\Debug\libArduinoCore.a(Uart.o)
                0x00001c62                Uart::availableForWrite()
 .text._ZN4Uart10IrqHandlerEv
                0x00001c6e       0xcc C:\Users\Hunter\DOCUME~1\Work\Venom\DEVELO~1\CIRCUI~2\BLINK0~3\BLINK0~1\ARDUIN~1\Debug\libArduinoCore.a(Uart.o)
                0x00001c6e                Uart::IrqHandler()
 *fill*         0x00001d3a        0x2 
 .text._ZN4Uart5writeEh
                0x00001d3c       0xb4 C:\Users\Hunter\DOCUME~1\Work\Venom\DEVELO~1\CIRCUI~2\BLINK0~3\BLINK0~1\ARDUIN~1\Debug\libArduinoCore.a(Uart.o)
                0x00001d3c                Uart::write(unsigned char)
 .text._ZN4Uart4readEv
                0x00001df0       0x4c C:\Users\Hunter\DOCUME~1\Work\Venom\DEVELO~1\CIRCUI~2\BLINK0~3\BLINK0~1\ARDUIN~1\Debug\libArduinoCore.a(Uart.o)
                0x00001df0                Uart::read()
 .text._ZN7Serial_13getDescriptorER8USBSetup
                0x00001e3c        0x4 C:\Users\Hunter\DOCUME~1\Work\Venom\DEVELO~1\CIRCUI~2\BLINK0~3\BLINK0~1\ARDUIN~1\Debug\libArduinoCore.a(CDC.o)
                0x00001e3c                Serial_::getDescriptor(USBSetup&)
 .text._ZThn16_N7Serial_13getDescriptorER8USBSetup
                0x00001e40       0x10 C:\Users\Hunter\DOCUME~1\Work\Venom\DEVELO~1\CIRCUI~2\BLINK0~3\BLINK0~1\ARDUIN~1\Debug\libArduinoCore.a(CDC.o)
                0x00001e40                non-virtual thunk to Serial_::getDescriptor(USBSetup&)
 .text._ZL5utox8mPc
                0x00001e50       0x24 C:\Users\Hunter\DOCUME~1\Work\Venom\DEVELO~1\CIRCUI~2\BLINK0~3\BLINK0~1\ARDUIN~1\Debug\libArduinoCore.a(CDC.o)
 .text._ZN7Serial_12getShortNameEPc
                0x00001e74       0x44 C:\Users\Hunter\DOCUME~1\Work\Venom\DEVELO~1\CIRCUI~2\BLINK0~3\BLINK0~1\ARDUIN~1\Debug\libArduinoCore.a(CDC.o)
                0x00001e74                Serial_::getShortName(char*)
 .text._ZThn16_N7Serial_12getShortNameEPc
                0x00001eb8       0x10 C:\Users\Hunter\DOCUME~1\Work\Venom\DEVELO~1\CIRCUI~2\BLINK0~3\BLINK0~1\ARDUIN~1\Debug\libArduinoCore.a(CDC.o)
                0x00001eb8                non-virtual thunk to Serial_::getShortName(char*)
 .text._ZN7Serial_14handleEndpointEi
                0x00001ec8        0x2 C:\Users\Hunter\DOCUME~1\Work\Venom\DEVELO~1\CIRCUI~2\BLINK0~3\BLINK0~1\ARDUIN~1\Debug\libArduinoCore.a(CDC.o)
                0x00001ec8                Serial_::handleEndpoint(int)
 *fill*         0x00001eca        0x2 
 .text._ZThn16_N7Serial_14handleEndpointEi
                0x00001ecc       0x10 C:\Users\Hunter\DOCUME~1\Work\Venom\DEVELO~1\CIRCUI~2\BLINK0~3\BLINK0~1\ARDUIN~1\Debug\libArduinoCore.a(CDC.o)
                0x00001ecc                non-virtual thunk to Serial_::handleEndpoint(int)
 .text._ZN7Serial_17availableForWriteEv
                0x00001edc        0x4 C:\Users\Hunter\DOCUME~1\Work\Venom\DEVELO~1\CIRCUI~2\BLINK0~3\BLINK0~1\ARDUIN~1\Debug\libArduinoCore.a(CDC.o)
                0x00001edc                Serial_::availableForWrite()
 .text._ZN7Serial_5writeEh
                0x00001ee0       0x14 C:\Users\Hunter\DOCUME~1\Work\Venom\DEVELO~1\CIRCUI~2\BLINK0~3\BLINK0~1\ARDUIN~1\Debug\libArduinoCore.a(CDC.o)
                0x00001ee0                Serial_::write(unsigned char)
 .text._ZN7Serial_12getInterfaceEPh
                0x00001ef4      0x128 C:\Users\Hunter\DOCUME~1\Work\Venom\DEVELO~1\CIRCUI~2\BLINK0~3\BLINK0~1\ARDUIN~1\Debug\libArduinoCore.a(CDC.o)
                0x00001ef4                Serial_::getInterface(unsigned char*)
 .text._ZThn16_N7Serial_12getInterfaceEPh
                0x0000201c       0x10 C:\Users\Hunter\DOCUME~1\Work\Venom\DEVELO~1\CIRCUI~2\BLINK0~3\BLINK0~1\ARDUIN~1\Debug\libArduinoCore.a(CDC.o)
                0x0000201c                non-virtual thunk to Serial_::getInterface(unsigned char*)
 .text._ZN7Serial_5setupER8USBSetup
                0x0000202c       0xa8 C:\Users\Hunter\DOCUME~1\Work\Venom\DEVELO~1\CIRCUI~2\BLINK0~3\BLINK0~1\ARDUIN~1\Debug\libArduinoCore.a(CDC.o)
                0x0000202c                Serial_::setup(USBSetup&)
 .text._ZThn16_N7Serial_5setupER8USBSetup
                0x000020d4       0x10 C:\Users\Hunter\DOCUME~1\Work\Venom\DEVELO~1\CIRCUI~2\BLINK0~3\BLINK0~1\ARDUIN~1\Debug\libArduinoCore.a(CDC.o)
                0x000020d4                non-virtual thunk to Serial_::setup(USBSetup&)
 .text._ZN7Serial_9availableEv
                0x000020e4       0x20 C:\Users\Hunter\DOCUME~1\Work\Venom\DEVELO~1\CIRCUI~2\BLINK0~3\BLINK0~1\ARDUIN~1\Debug\libArduinoCore.a(CDC.o)
                0x000020e4                Serial_::available()
 .text._ZN7Serial_5flushEv
                0x00002104        0xe C:\Users\Hunter\DOCUME~1\Work\Venom\DEVELO~1\CIRCUI~2\BLINK0~3\BLINK0~1\ARDUIN~1\Debug\libArduinoCore.a(CDC.o)
                0x00002104                Serial_::flush()
 .text._ZN7Serial_5clearEv
                0x00002112        0xe C:\Users\Hunter\DOCUME~1\Work\Venom\DEVELO~1\CIRCUI~2\BLINK0~3\BLINK0~1\ARDUIN~1\Debug\libArduinoCore.a(CDC.o)
                0x00002112                Serial_::clear()
 .text._ZN7Serial_5writeEPKhj
                0x00002120       0x1e C:\Users\Hunter\DOCUME~1\Work\Venom\DEVELO~1\CIRCUI~2\BLINK0~3\BLINK0~1\ARDUIN~1\Debug\libArduinoCore.a(CDC.o)
                0x00002120                Serial_::write(unsigned char const*, unsigned int)
 *fill*         0x0000213e        0x2 
 .text._ZN7Serial_4peekEv
                0x00002140       0x1c C:\Users\Hunter\DOCUME~1\Work\Venom\DEVELO~1\CIRCUI~2\BLINK0~3\BLINK0~1\ARDUIN~1\Debug\libArduinoCore.a(CDC.o)
                0x00002140                Serial_::peek()
 .text._ZN7Serial_4readEv
                0x0000215c       0x24 C:\Users\Hunter\DOCUME~1\Work\Venom\DEVELO~1\CIRCUI~2\BLINK0~3\BLINK0~1\ARDUIN~1\Debug\libArduinoCore.a(CDC.o)
                0x0000215c                Serial_::read()
 .text._ZN7Serial_C2ER14USBDeviceClass
                0x00002180       0x50 C:\Users\Hunter\DOCUME~1\Work\Venom\DEVELO~1\CIRCUI~2\BLINK0~3\BLINK0~1\ARDUIN~1\Debug\libArduinoCore.a(CDC.o)
                0x00002180                Serial_::Serial_(USBDeviceClass&)
                0x00002180                Serial_::Serial_(USBDeviceClass&)
 .text._ZN7Serial_15enableInterruptEv
                0x000021d0       0x30 C:\Users\Hunter\DOCUME~1\Work\Venom\DEVELO~1\CIRCUI~2\BLINK0~3\BLINK0~1\ARDUIN~1\Debug\libArduinoCore.a(CDC.o)
                0x000021d0                Serial_::enableInterrupt()
 .text._ZN7Serial_5beginEm
                0x00002200        0x2 C:\Users\Hunter\DOCUME~1\Work\Venom\DEVELO~1\CIRCUI~2\BLINK0~3\BLINK0~1\ARDUIN~1\Debug\libArduinoCore.a(CDC.o)
                0x00002200                Serial_::begin(unsigned long)
 *fill*         0x00002202        0x2 
 .text.startup._GLOBAL__sub_I__ZN7Serial_12getInterfaceEPh
                0x00002204       0x14 C:\Users\Hunter\DOCUME~1\Work\Venom\DEVELO~1\CIRCUI~2\BLINK0~3\BLINK0~1\ARDUIN~1\Debug\libArduinoCore.a(CDC.o)
 .text._ZN13PluggableUSB_12getInterfaceEPh
                0x00002218       0x28 C:\Users\Hunter\DOCUME~1\Work\Venom\DEVELO~1\CIRCUI~2\BLINK0~3\BLINK0~1\ARDUIN~1\Debug\libArduinoCore.a(PluggableUSB.o)
                0x00002218                PluggableUSB_::getInterface(unsigned char*)
 .text._ZN13PluggableUSB_13getDescriptorER8USBSetup
                0x00002240       0x20 C:\Users\Hunter\DOCUME~1\Work\Venom\DEVELO~1\CIRCUI~2\BLINK0~3\BLINK0~1\ARDUIN~1\Debug\libArduinoCore.a(PluggableUSB.o)
                0x00002240                PluggableUSB_::getDescriptor(USBSetup&)
 .text._ZN13PluggableUSB_12getShortNameEPc
                0x00002260       0x26 C:\Users\Hunter\DOCUME~1\Work\Venom\DEVELO~1\CIRCUI~2\BLINK0~3\BLINK0~1\ARDUIN~1\Debug\libArduinoCore.a(PluggableUSB.o)
                0x00002260                PluggableUSB_::getShortName(char*)
 .text._ZN13PluggableUSB_5setupER8USBSetup
                0x00002286       0x20 C:\Users\Hunter\DOCUME~1\Work\Venom\DEVELO~1\CIRCUI~2\BLINK0~3\BLINK0~1\ARDUIN~1\Debug\libArduinoCore.a(PluggableUSB.o)
                0x00002286                PluggableUSB_::setup(USBSetup&)
 .text._ZN13PluggableUSB_14handleEndpointEi
                0x000022a6       0x1a C:\Users\Hunter\DOCUME~1\Work\Venom\DEVELO~1\CIRCUI~2\BLINK0~3\BLINK0~1\ARDUIN~1\Debug\libArduinoCore.a(PluggableUSB.o)
                0x000022a6                PluggableUSB_::handleEndpoint(int)
 .text._ZN13PluggableUSB_4plugEP18PluggableUSBModule
                0x000022c0       0x58 C:\Users\Hunter\DOCUME~1\Work\Venom\DEVELO~1\CIRCUI~2\BLINK0~3\BLINK0~1\ARDUIN~1\Debug\libArduinoCore.a(PluggableUSB.o)
                0x000022c0                PluggableUSB_::plug(PluggableUSBModule*)
 .text._Z12PluggableUSBv
                0x00002318       0x20 C:\Users\Hunter\DOCUME~1\Work\Venom\DEVELO~1\CIRCUI~2\BLINK0~3\BLINK0~1\ARDUIN~1\Debug\libArduinoCore.a(PluggableUSB.o)
                0x00002318                PluggableUSB()
 .text._ZN5Print5writeEPKhj
                0x00002338       0x28 C:\Users\Hunter\DOCUME~1\Work\Venom\DEVELO~1\CIRCUI~2\BLINK0~3\BLINK0~1\ARDUIN~1\Debug\libArduinoCore.a(Print.o)
                0x00002338                Print::write(unsigned char const*, unsigned int)
 .text          0x00002360       0x14 c:/program files (x86)/atmel/studio/7.0/toolchain/arm/arm-gnu-toolchain/bin/../lib/gcc/arm-none-eabi/6.3.1/thumb/v6-m\libgcc.a(_thumb1_case_uqi.o)
                0x00002360                __gnu_thumb1_case_uqi
 .text          0x00002374      0x114 c:/program files (x86)/atmel/studio/7.0/toolchain/arm/arm-gnu-toolchain/bin/../lib/gcc/arm-none-eabi/6.3.1/thumb/v6-m\libgcc.a(_udivsi3.o)
                0x00002374                __aeabi_uidiv
                0x00002374                __udivsi3
                0x00002480                __aeabi_uidivmod
 .text          0x00002488        0x4 c:/program files (x86)/atmel/studio/7.0/toolchain/arm/arm-gnu-toolchain/bin/../lib/gcc/arm-none-eabi/6.3.1/thumb/v6-m\libgcc.a(_dvmd_tls.o)
                0x00002488                __aeabi_idiv0
                0x00002488                __aeabi_ldiv0
 .text.__libc_init_array
                0x0000248c       0x48 c:/program files (x86)/atmel/studio/7.0/toolchain/arm/arm-gnu-toolchain/bin/../lib/gcc/arm-none-eabi/6.3.1/../../../../arm-none-eabi/lib/thumb/v6-m\libc_nano.a(lib_a-init.o)
                0x0000248c                __libc_init_array
 .text.malloc   0x000024d4       0x14 c:/program files (x86)/atmel/studio/7.0/toolchain/arm/arm-gnu-toolchain/bin/../lib/gcc/arm-none-eabi/6.3.1/../../../../arm-none-eabi/lib/thumb/v6-m\libc_nano.a(lib_a-malloc.o)
                0x000024d4                malloc
 .text.free     0x000024e8       0x14 c:/program files (x86)/atmel/studio/7.0/toolchain/arm/arm-gnu-toolchain/bin/../lib/gcc/arm-none-eabi/6.3.1/../../../../arm-none-eabi/lib/thumb/v6-m\libc_nano.a(lib_a-malloc.o)
                0x000024e8                free
 .text.memcpy   0x000024fc       0x12 c:/program files (x86)/atmel/studio/7.0/toolchain/arm/arm-gnu-toolchain/bin/../lib/gcc/arm-none-eabi/6.3.1/../../../../arm-none-eabi/lib/thumb/v6-m\libc_nano.a(lib_a-memcpy-stub.o)
                0x000024fc                memcpy
 .text.memset   0x0000250e       0x10 c:/program files (x86)/atmel/studio/7.0/toolchain/arm/arm-gnu-toolchain/bin/../lib/gcc/arm-none-eabi/6.3.1/../../../../arm-none-eabi/lib/thumb/v6-m\libc_nano.a(lib_a-memset.o)
                0x0000250e                memset
 *fill*         0x0000251e        0x2 
 .text._free_r  0x00002520       0x94 c:/program files (x86)/atmel/studio/7.0/toolchain/arm/arm-gnu-toolchain/bin/../lib/gcc/arm-none-eabi/6.3.1/../../../../arm-none-eabi/lib/thumb/v6-m\libc_nano.a(lib_a-nano-freer.o)
                0x00002520                _free_r
 .text._malloc_r
                0x000025b4       0xbc c:/program files (x86)/atmel/studio/7.0/toolchain/arm/arm-gnu-toolchain/bin/../lib/gcc/arm-none-eabi/6.3.1/../../../../arm-none-eabi/lib/thumb/v6-m\libc_nano.a(lib_a-nano-mallocr.o)
                0x000025b4                _malloc_r
 .text._sbrk_r  0x00002670       0x24 c:/program files (x86)/atmel/studio/7.0/toolchain/arm/arm-gnu-toolchain/bin/../lib/gcc/arm-none-eabi/6.3.1/../../../../arm-none-eabi/lib/thumb/v6-m\libc_nano.a(lib_a-sbrkr.o)
                0x00002670                _sbrk_r
 .text          0x00002694        0xe c:/program files (x86)/atmel/studio/7.0/toolchain/arm/arm-gnu-toolchain/bin/../lib/gcc/arm-none-eabi/6.3.1/../../../../arm-none-eabi/lib/thumb/v6-m\libc_nano.a(lib_a-strlen.o)
                0x00002694                strlen
 .text.__malloc_lock
                0x000026a2        0x2 c:/program files (x86)/atmel/studio/7.0/toolchain/arm/arm-gnu-toolchain/bin/../lib/gcc/arm-none-eabi/6.3.1/../../../../arm-none-eabi/lib/thumb/v6-m\libc_nano.a(lib_a-mlock.o)
                0x000026a2                __malloc_lock
 .text.__malloc_unlock
                0x000026a4        0x2 c:/program files (x86)/atmel/studio/7.0/toolchain/arm/arm-gnu-toolchain/bin/../lib/gcc/arm-none-eabi/6.3.1/../../../../arm-none-eabi/lib/thumb/v6-m\libc_nano.a(lib_a-mlock.o)
                0x000026a4                __malloc_unlock
 *fill*         0x000026a6        0x2 
 .text._sbrk    0x000026a8       0x1c c:/program files (x86)/atmel/studio/7.0/toolchain/arm/arm-gnu-toolchain/bin/../lib/gcc/arm-none-eabi/6.3.1/../../../../arm-none-eabi/lib/thumb/v6-m\libnosys.a(sbrk.o)
                0x000026a8                _sbrk
 *(.init)
 .init          0x000026c4        0x4 c:/program files (x86)/atmel/studio/7.0/toolchain/arm/arm-gnu-toolchain/bin/../lib/gcc/arm-none-eabi/6.3.1/thumb/v6-m/crti.o
                0x000026c4                _init
 .init          0x000026c8        0x8 c:/program files (x86)/atmel/studio/7.0/toolchain/arm/arm-gnu-toolchain/bin/../lib/gcc/arm-none-eabi/6.3.1/thumb/v6-m/crtn.o
 *(.fini)
 .fini          0x000026d0        0x4 c:/program files (x86)/atmel/studio/7.0/toolchain/arm/arm-gnu-toolchain/bin/../lib/gcc/arm-none-eabi/6.3.1/thumb/v6-m/crti.o
                0x000026d0                _fini
 .fini          0x000026d4        0x8 c:/program files (x86)/atmel/studio/7.0/toolchain/arm/arm-gnu-toolchain/bin/../lib/gcc/arm-none-eabi/6.3.1/thumb/v6-m/crtn.o
 *crtbegin.o(.ctors)
 *crtbegin?.o(.ctors)
 *(EXCLUDE_FILE(*crtend.o *crtend?.o) .ctors)
 *(SORT(.ctors.*))
 *(.ctors)
 *crtbegin.o(.dtors)
 *crtbegin?.o(.dtors)
 *(EXCLUDE_FILE(*crtend.o *crtend?.o) .dtors)
 *(SORT(.dtors.*))
 *(.dtors)
 *(.rodata*)
 .rodata._ZTV26DoubleBufferedEPOutHandler
                0x000026dc       0x24 C:\Users\Hunter\DOCUME~1\Work\Venom\DEVELO~1\CIRCUI~2\BLINK0~3\BLINK0~1\ARDUIN~1\Debug\libArduinoCore.a(USBCore.o)
                0x000026dc                vtable for DoubleBufferedEPOutHandler
 .rodata._ZL14STRING_PRODUCT
                0x00002700       0x1b C:\Users\Hunter\DOCUME~1\Work\Venom\DEVELO~1\CIRCUI~2\BLINK0~3\BLINK0~1\ARDUIN~1\Debug\libArduinoCore.a(USBCore.o)
 *fill*         0x0000271b        0x1 
 .rodata._ZL15STRING_LANGUAGE
                0x0000271c        0x4 C:\Users\Hunter\DOCUME~1\Work\Venom\DEVELO~1\CIRCUI~2\BLINK0~3\BLINK0~1\ARDUIN~1\Debug\libArduinoCore.a(USBCore.o)
 .rodata._ZL19STRING_MANUFACTURER
                0x00002720        0x9 C:\Users\Hunter\DOCUME~1\Work\Venom\DEVELO~1\CIRCUI~2\BLINK0~3\BLINK0~1\ARDUIN~1\Debug\libArduinoCore.a(USBCore.o)
 .rodata._ZL21USB_DeviceDescriptorB
                0x00002729       0x12 C:\Users\Hunter\DOCUME~1\Work\Venom\DEVELO~1\CIRCUI~2\BLINK0~3\BLINK0~1\ARDUIN~1\Debug\libArduinoCore.a(USBCore.o)
 *fill*         0x0000273b        0x1 
 .rodata.g_APinDescription
                0x0000273c      0x3a8 C:\Users\Hunter\DOCUME~1\Work\Venom\DEVELO~1\CIRCUI~2\BLINK0~3\BLINK0~1\ARDUIN~1\Debug\libArduinoCore.a(variant.o)
                0x0000273c                g_APinDescription
 .rodata._ZTV4Uart
                0x00002ae4       0x34 C:\Users\Hunter\DOCUME~1\Work\Venom\DEVELO~1\CIRCUI~2\BLINK0~3\BLINK0~1\ARDUIN~1\Debug\libArduinoCore.a(Uart.o)
                0x00002ae4                vtable for Uart
 .rodata._ZTV7Serial_
                0x00002b18       0x58 C:\Users\Hunter\DOCUME~1\Work\Venom\DEVELO~1\CIRCUI~2\BLINK0~3\BLINK0~1\ARDUIN~1\Debug\libArduinoCore.a(CDC.o)
                0x00002b18                vtable for Serial_
 *(.eh_frame*)
 .eh_frame      0x00002b70        0x0 c:/program files (x86)/atmel/studio/7.0/toolchain/arm/arm-gnu-toolchain/bin/../lib/gcc/arm-none-eabi/6.3.1/thumb/v6-m/crtbegin.o
 .eh_frame      0x00002b70        0x4 c:/program files (x86)/atmel/studio/7.0/toolchain/arm/arm-gnu-toolchain/bin/../lib/gcc/arm-none-eabi/6.3.1/thumb/v6-m/crtend.o

.glue_7         0x00002b74        0x0
 .glue_7        0x00002b74        0x0 linker stubs

.glue_7t        0x00002b74        0x0
 .glue_7t       0x00002b74        0x0 linker stubs

.vfp11_veneer   0x00002b74        0x0
 .vfp11_veneer  0x00002b74        0x0 linker stubs

.v4_bx          0x00002b74        0x0
 .v4_bx         0x00002b74        0x0 linker stubs

.iplt           0x00002b74        0x0
 .iplt          0x00002b74        0x0 c:/program files (x86)/atmel/studio/7.0/toolchain/arm/arm-gnu-toolchain/bin/../lib/gcc/arm-none-eabi/6.3.1/thumb/v6-m/crtbegin.o

.rel.dyn        0x00002b74        0x0
 .rel.iplt      0x00002b74        0x0 c:/program files (x86)/atmel/studio/7.0/toolchain/arm/arm-gnu-toolchain/bin/../lib/gcc/arm-none-eabi/6.3.1/thumb/v6-m/crtbegin.o

.ARM.extab
 *(.ARM.extab* .gnu.linkonce.armextab.*)
                0x00002b74                __exidx_start = .

.ARM.exidx
 *(.ARM.exidx* .gnu.linkonce.armexidx.*)
                0x00002b74                __exidx_end = .
                0x00002b74                __etext = .

.data           0x20000000       0x94 load address 0x00002b74
                0x20000000                __data_start__ = .
 *(vtable)
 *(.data*)
 .data._ZL5ticks
                0x20000000        0x4 C:\Users\Hunter\DOCUME~1\Work\Venom\DEVELO~1\CIRCUI~2\BLINK0~3\BLINK0~1\ARDUIN~1\Debug\libArduinoCore.a(Reset.o)
 .data.SystemCoreClock
                0x20000004        0x4 C:\Users\Hunter\DOCUME~1\Work\Venom\DEVELO~1\CIRCUI~2\BLINK0~3\BLINK0~1\ARDUIN~1\Debug\libArduinoCore.a(wiring.o)
                0x20000004                SystemCoreClock
 .data._ZL10breakValue
                0x20000008        0x4 C:\Users\Hunter\DOCUME~1\Work\Venom\DEVELO~1\CIRCUI~2\BLINK0~3\BLINK0~1\ARDUIN~1\Debug\libArduinoCore.a(CDC.o)
 .data._ZL12_usbLineInfo
                0x2000000c        0x8 C:\Users\Hunter\DOCUME~1\Work\Venom\DEVELO~1\CIRCUI~2\BLINK0~3\BLINK0~1\ARDUIN~1\Debug\libArduinoCore.a(CDC.o)
 .data._serialPeek
                0x20000014        0x4 C:\Users\Hunter\DOCUME~1\Work\Venom\DEVELO~1\CIRCUI~2\BLINK0~3\BLINK0~1\ARDUIN~1\Debug\libArduinoCore.a(CDC.o)
                0x20000014                _serialPeek
 .data._impure_ptr
                0x20000018        0x4 c:/program files (x86)/atmel/studio/7.0/toolchain/arm/arm-gnu-toolchain/bin/../lib/gcc/arm-none-eabi/6.3.1/../../../../arm-none-eabi/lib/thumb/v6-m\libc_nano.a(lib_a-impure.o)
                0x20000018                _impure_ptr
 .data.impure_data
                0x2000001c       0x60 c:/program files (x86)/atmel/studio/7.0/toolchain/arm/arm-gnu-toolchain/bin/../lib/gcc/arm-none-eabi/6.3.1/../../../../arm-none-eabi/lib/thumb/v6-m\libc_nano.a(lib_a-impure.o)
                0x2000007c                . = ALIGN (0x4)
                0x2000007c                PROVIDE (__preinit_array_start, .)
 *(.preinit_array)
                0x2000007c                PROVIDE (__preinit_array_end, .)
                0x2000007c                . = ALIGN (0x4)
                0x2000007c                PROVIDE (__init_array_start, .)
 *(SORT(.init_array.*))
 *(.init_array)
 .init_array    0x2000007c        0x4 c:/program files (x86)/atmel/studio/7.0/toolchain/arm/arm-gnu-toolchain/bin/../lib/gcc/arm-none-eabi/6.3.1/thumb/v6-m/crtbegin.o
 .init_array    0x20000080        0x4 C:\Users\Hunter\DOCUME~1\Work\Venom\DEVELO~1\CIRCUI~2\BLINK0~3\BLINK0~1\ARDUIN~1\Debug\libArduinoCore.a(USBCore.o)
 .init_array    0x20000084        0x4 C:\Users\Hunter\DOCUME~1\Work\Venom\DEVELO~1\CIRCUI~2\BLINK0~3\BLINK0~1\ARDUIN~1\Debug\libArduinoCore.a(variant.o)
 .init_array    0x20000088        0x4 C:\Users\Hunter\DOCUME~1\Work\Venom\DEVELO~1\CIRCUI~2\BLINK0~3\BLINK0~1\ARDUIN~1\Debug\libArduinoCore.a(CDC.o)
                0x2000008c                PROVIDE (__init_array_end, .)
                0x2000008c                . = ALIGN (0x4)
                [!provide]                PROVIDE (__fini_array_start, .)
 *(SORT(.fini_array.*))
 *(.fini_array)
 .fini_array    0x2000008c        0x4 c:/program files (x86)/atmel/studio/7.0/toolchain/arm/arm-gnu-toolchain/bin/../lib/gcc/arm-none-eabi/6.3.1/thumb/v6-m/crtbegin.o
                [!provide]                PROVIDE (__fini_array_end, .)
 *(.jcr*)
 .jcr           0x20000090        0x0 c:/program files (x86)/atmel/studio/7.0/toolchain/arm/arm-gnu-toolchain/bin/../lib/gcc/arm-none-eabi/6.3.1/thumb/v6-m/crtbegin.o
 .jcr           0x20000090        0x4 c:/program files (x86)/atmel/studio/7.0/toolchain/arm/arm-gnu-toolchain/bin/../lib/gcc/arm-none-eabi/6.3.1/thumb/v6-m/crtend.o
                0x20000094                . = ALIGN (0x4)
                0x20000094                __data_end__ = .

.igot.plt       0x20000094        0x0 load address 0x00002c08
 .igot.plt      0x20000094        0x0 c:/program files (x86)/atmel/studio/7.0/toolchain/arm/arm-gnu-toolchain/bin/../lib/gcc/arm-none-eabi/6.3.1/thumb/v6-m/crtbegin.o

.bss            0x20000094      0x8ac load address 0x00002c08
                0x20000094                . = ALIGN (0x4)
                0x20000094                __bss_start__ = .
 *(.bss*)
 .bss           0x20000094       0x1c c:/program files (x86)/atmel/studio/7.0/toolchain/arm/arm-gnu-toolchain/bin/../lib/gcc/arm-none-eabi/6.3.1/thumb/v6-m/crtbegin.o
 .bss.usb_isr   0x200000b0        0x4 C:\Users\Hunter\DOCUME~1\Work\Venom\DEVELO~1\CIRCUI~2\BLINK0~3\BLINK0~1\ARDUIN~1\Debug\libArduinoCore.a(cortex_handlers.o)
 .bss._ulTickCount
                0x200000b4        0x4 C:\Users\Hunter\DOCUME~1\Work\Venom\DEVELO~1\CIRCUI~2\BLINK0~3\BLINK0~1\ARDUIN~1\Debug\libArduinoCore.a(delay.o)
 .bss.EndPoints
                0x200000b8       0x28 C:\Users\Hunter\DOCUME~1\Work\Venom\DEVELO~1\CIRCUI~2\BLINK0~3\BLINK0~1\ARDUIN~1\Debug\libArduinoCore.a(USBCore.o)
                0x200000b8                EndPoints
 .bss.USBDevice
                0x200000e0        0x1 C:\Users\Hunter\DOCUME~1\Work\Venom\DEVELO~1\CIRCUI~2\BLINK0~3\BLINK0~1\ARDUIN~1\Debug\libArduinoCore.a(USBCore.o)
                0x200000e0                USBDevice
 *fill*         0x200000e1        0x3 
 .bss._ZL10epHandlers
                0x200000e4       0x1c C:\Users\Hunter\DOCUME~1\Work\Venom\DEVELO~1\CIRCUI~2\BLINK0~3\BLINK0~1\ARDUIN~1\Debug\libArduinoCore.a(USBCore.o)
 .bss._ZL14isEndpointHalt
                0x20000100        0x1 C:\Users\Hunter\DOCUME~1\Work\Venom\DEVELO~1\CIRCUI~2\BLINK0~3\BLINK0~1\ARDUIN~1\Debug\libArduinoCore.a(USBCore.o)
 .bss._ZL20LastTransmitTimedOut
                0x20000101        0x7 C:\Users\Hunter\DOCUME~1\Work\Venom\DEVELO~1\CIRCUI~2\BLINK0~3\BLINK0~1\ARDUIN~1\Debug\libArduinoCore.a(USBCore.o)
 .bss._ZL21isRemoteWakeUpEnabled
                0x20000108        0x1 C:\Users\Hunter\DOCUME~1\Work\Venom\DEVELO~1\CIRCUI~2\BLINK0~3\BLINK0~1\ARDUIN~1\Debug\libArduinoCore.a(USBCore.o)
 *fill*         0x20000109        0x3 
 .bss._ZL22udd_ep_in_cache_buffer
                0x2000010c      0x1c0 C:\Users\Hunter\DOCUME~1\Work\Venom\DEVELO~1\CIRCUI~2\BLINK0~3\BLINK0~1\ARDUIN~1\Debug\libArduinoCore.a(USBCore.o)
 .bss._ZL23udd_ep_out_cache_buffer
                0x200002cc      0x1c0 C:\Users\Hunter\DOCUME~1\Work\Venom\DEVELO~1\CIRCUI~2\BLINK0~3\BLINK0~1\ARDUIN~1\Debug\libArduinoCore.a(USBCore.o)
 .bss._dry_run  0x2000048c        0x1 C:\Users\Hunter\DOCUME~1\Work\Venom\DEVELO~1\CIRCUI~2\BLINK0~3\BLINK0~1\ARDUIN~1\Debug\libArduinoCore.a(USBCore.o)
                0x2000048c                _dry_run
 .bss._pack_buffer
                0x2000048d      0x100 C:\Users\Hunter\DOCUME~1\Work\Venom\DEVELO~1\CIRCUI~2\BLINK0~3\BLINK0~1\ARDUIN~1\Debug\libArduinoCore.a(USBCore.o)
                0x2000048d                _pack_buffer
 .bss._pack_message
                0x2000058d        0x1 C:\Users\Hunter\DOCUME~1\Work\Venom\DEVELO~1\CIRCUI~2\BLINK0~3\BLINK0~1\ARDUIN~1\Debug\libArduinoCore.a(USBCore.o)
                0x2000058d                _pack_message
 .bss._pack_size
                0x2000058e        0x2 C:\Users\Hunter\DOCUME~1\Work\Venom\DEVELO~1\CIRCUI~2\BLINK0~3\BLINK0~1\ARDUIN~1\Debug\libArduinoCore.a(USBCore.o)
                0x2000058e                _pack_size
 .bss._usbConfiguration
                0x20000590        0x4 C:\Users\Hunter\DOCUME~1\Work\Venom\DEVELO~1\CIRCUI~2\BLINK0~3\BLINK0~1\ARDUIN~1\Debug\libArduinoCore.a(USBCore.o)
                0x20000590                _usbConfiguration
 .bss._usbSetInterface
                0x20000594        0x4 C:\Users\Hunter\DOCUME~1\Work\Venom\DEVELO~1\CIRCUI~2\BLINK0~3\BLINK0~1\ARDUIN~1\Debug\libArduinoCore.a(USBCore.o)
                0x20000594                _usbSetInterface
 .bss.usbd      0x20000598      0x104 C:\Users\Hunter\DOCUME~1\Work\Venom\DEVELO~1\CIRCUI~2\BLINK0~3\BLINK0~1\ARDUIN~1\Debug\libArduinoCore.a(USBCore.o)
                0x20000598                usbd
 .bss.Serial1   0x2000069c      0x23c C:\Users\Hunter\DOCUME~1\Work\Venom\DEVELO~1\CIRCUI~2\BLINK0~3\BLINK0~1\ARDUIN~1\Debug\libArduinoCore.a(variant.o)
                0x2000069c                Serial1
 .bss.sercom0   0x200008d8        0x4 C:\Users\Hunter\DOCUME~1\Work\Venom\DEVELO~1\CIRCUI~2\BLINK0~3\BLINK0~1\ARDUIN~1\Debug\libArduinoCore.a(variant.o)
                0x200008d8                sercom0
 .bss.sercom1   0x200008dc        0x4 C:\Users\Hunter\DOCUME~1\Work\Venom\DEVELO~1\CIRCUI~2\BLINK0~3\BLINK0~1\ARDUIN~1\Debug\libArduinoCore.a(variant.o)
                0x200008dc                sercom1
 .bss.sercom2   0x200008e0        0x4 C:\Users\Hunter\DOCUME~1\Work\Venom\DEVELO~1\CIRCUI~2\BLINK0~3\BLINK0~1\ARDUIN~1\Debug\libArduinoCore.a(variant.o)
                0x200008e0                sercom2
 .bss.sercom3   0x200008e4        0x4 C:\Users\Hunter\DOCUME~1\Work\Venom\DEVELO~1\CIRCUI~2\BLINK0~3\BLINK0~1\ARDUIN~1\Debug\libArduinoCore.a(variant.o)
                0x200008e4                sercom3
 .bss.sercom4   0x200008e8        0x4 C:\Users\Hunter\DOCUME~1\Work\Venom\DEVELO~1\CIRCUI~2\BLINK0~3\BLINK0~1\ARDUIN~1\Debug\libArduinoCore.a(variant.o)
                0x200008e8                sercom4
 .bss.sercom5   0x200008ec        0x4 C:\Users\Hunter\DOCUME~1\Work\Venom\DEVELO~1\CIRCUI~2\BLINK0~3\BLINK0~1\ARDUIN~1\Debug\libArduinoCore.a(variant.o)
                0x200008ec                sercom5
 .bss.SerialUSB
                0x200008f0       0x34 C:\Users\Hunter\DOCUME~1\Work\Venom\DEVELO~1\CIRCUI~2\BLINK0~3\BLINK0~1\ARDUIN~1\Debug\libArduinoCore.a(CDC.o)
                0x200008f0                SerialUSB
 .bss._ZGVZ12PluggableUSBvE3obj
                0x20000924        0x4 C:\Users\Hunter\DOCUME~1\Work\Venom\DEVELO~1\CIRCUI~2\BLINK0~3\BLINK0~1\ARDUIN~1\Debug\libArduinoCore.a(PluggableUSB.o)
 .bss._ZZ12PluggableUSBvE3obj
                0x20000928        0x8 C:\Users\Hunter\DOCUME~1\Work\Venom\DEVELO~1\CIRCUI~2\BLINK0~3\BLINK0~1\ARDUIN~1\Debug\libArduinoCore.a(PluggableUSB.o)
 .bss.__malloc_free_list
                0x20000930        0x4 c:/program files (x86)/atmel/studio/7.0/toolchain/arm/arm-gnu-toolchain/bin/../lib/gcc/arm-none-eabi/6.3.1/../../../../arm-none-eabi/lib/thumb/v6-m\libc_nano.a(lib_a-nano-mallocr.o)
                0x20000930                __malloc_free_list
 .bss.__malloc_sbrk_start
                0x20000934        0x4 c:/program files (x86)/atmel/studio/7.0/toolchain/arm/arm-gnu-toolchain/bin/../lib/gcc/arm-none-eabi/6.3.1/../../../../arm-none-eabi/lib/thumb/v6-m\libc_nano.a(lib_a-nano-mallocr.o)
                0x20000934                __malloc_sbrk_start
 .bss.heap_end.4116
                0x20000938        0x4 c:/program files (x86)/atmel/studio/7.0/toolchain/arm/arm-gnu-toolchain/bin/../lib/gcc/arm-none-eabi/6.3.1/../../../../arm-none-eabi/lib/thumb/v6-m\libnosys.a(sbrk.o)
 *(COMMON)
 COMMON         0x2000093c        0x4 c:/program files (x86)/atmel/studio/7.0/toolchain/arm/arm-gnu-toolchain/bin/../lib/gcc/arm-none-eabi/6.3.1/../../../../arm-none-eabi/lib/thumb/v6-m\libc_nano.a(lib_a-reent.o)
                0x2000093c                errno
                0x20000940                . = ALIGN (0x4)
                0x20000940                __bss_end__ = .

.heap           0x20000940        0x0
                0x20000940                __end__ = .
                0x20000940                PROVIDE (end, .)
 *(.heap*)
                0x20000940                __HeapLimit = .

.stack_dummy    0x20000940        0x0
 *(.stack*)
                0x20008000                __StackTop = (ORIGIN (RAM) + LENGTH (RAM))
                0x20008000                __StackLimit = (__StackTop - SIZEOF (.stack_dummy))
                0x20008000                PROVIDE (__stack, __StackTop)
                0x20007fff                __ram_end__ = ((ORIGIN (RAM) + LENGTH (RAM)) - 0x1)
                0x00000001                ASSERT ((__StackLimit >= __HeapLimit), region RAM overflowed with stack)
OUTPUT(Blink.elf elf32-littlearm)

.ARM.attributes
                0x00000000       0x28
 .ARM.attributes
                0x00000000       0x1e c:/program files (x86)/atmel/studio/7.0/toolchain/arm/arm-gnu-toolchain/bin/../lib/gcc/arm-none-eabi/6.3.1/thumb/v6-m/crti.o
 .ARM.attributes
                0x0000001e       0x2c c:/program files (x86)/atmel/studio/7.0/toolchain/arm/arm-gnu-toolchain/bin/../lib/gcc/arm-none-eabi/6.3.1/thumb/v6-m/crtbegin.o
 .ARM.attributes
                0x0000004a       0x32 Sketch.o
 .ARM.attributes
                0x0000007c       0x32 C:\Users\Hunter\DOCUME~1\Work\Venom\DEVELO~1\CIRCUI~2\BLINK0~3\BLINK0~1\ARDUIN~1\Debug\libArduinoCore.a(cortex_handlers.o)
 .ARM.attributes
                0x000000ae       0x32 C:\Users\Hunter\DOCUME~1\Work\Venom\DEVELO~1\CIRCUI~2\BLINK0~3\BLINK0~1\ARDUIN~1\Debug\libArduinoCore.a(delay.o)
 .ARM.attributes
                0x000000e0       0x32 C:\Users\Hunter\DOCUME~1\Work\Venom\DEVELO~1\CIRCUI~2\BLINK0~3\BLINK0~1\ARDUIN~1\Debug\libArduinoCore.a(hooks.o)
 .ARM.attributes
                0x00000112       0x32 C:\Users\Hunter\DOCUME~1\Work\Venom\DEVELO~1\CIRCUI~2\BLINK0~3\BLINK0~1\ARDUIN~1\Debug\libArduinoCore.a(main.o)
 .ARM.attributes
                0x00000144       0x32 C:\Users\Hunter\DOCUME~1\Work\Venom\DEVELO~1\CIRCUI~2\BLINK0~3\BLINK0~1\ARDUIN~1\Debug\libArduinoCore.a(Reset.o)
 .ARM.attributes
                0x00000176       0x32 C:\Users\Hunter\DOCUME~1\Work\Venom\DEVELO~1\CIRCUI~2\BLINK0~3\BLINK0~1\ARDUIN~1\Debug\libArduinoCore.a(startup.o)
 .ARM.attributes
                0x000001a8       0x32 C:\Users\Hunter\DOCUME~1\Work\Venom\DEVELO~1\CIRCUI~2\BLINK0~3\BLINK0~1\ARDUIN~1\Debug\libArduinoCore.a(USBCore.o)
 .ARM.attributes
                0x000001da       0x32 C:\Users\Hunter\DOCUME~1\Work\Venom\DEVELO~1\CIRCUI~2\BLINK0~3\BLINK0~1\ARDUIN~1\Debug\libArduinoCore.a(wiring.o)
 .ARM.attributes
                0x0000020c       0x32 C:\Users\Hunter\DOCUME~1\Work\Venom\DEVELO~1\CIRCUI~2\BLINK0~3\BLINK0~1\ARDUIN~1\Debug\libArduinoCore.a(wiring_analog.o)
 .ARM.attributes
                0x0000023e       0x32 C:\Users\Hunter\DOCUME~1\Work\Venom\DEVELO~1\CIRCUI~2\BLINK0~3\BLINK0~1\ARDUIN~1\Debug\libArduinoCore.a(wiring_digital.o)
 .ARM.attributes
                0x00000270       0x32 C:\Users\Hunter\DOCUME~1\Work\Venom\DEVELO~1\CIRCUI~2\BLINK0~3\BLINK0~1\ARDUIN~1\Debug\libArduinoCore.a(wiring_private.o)
 .ARM.attributes
                0x000002a2       0x32 C:\Users\Hunter\DOCUME~1\Work\Venom\DEVELO~1\CIRCUI~2\BLINK0~3\BLINK0~1\ARDUIN~1\Debug\libArduinoCore.a(variant.o)
 .ARM.attributes
                0x000002d4       0x32 C:\Users\Hunter\DOCUME~1\Work\Venom\DEVELO~1\CIRCUI~2\BLINK0~3\BLINK0~1\ARDUIN~1\Debug\libArduinoCore.a(new.o)
 .ARM.attributes
                0x00000306       0x32 C:\Users\Hunter\DOCUME~1\Work\Venom\DEVELO~1\CIRCUI~2\BLINK0~3\BLINK0~1\ARDUIN~1\Debug\libArduinoCore.a(SERCOM.o)
 .ARM.attributes
                0x00000338       0x32 C:\Users\Hunter\DOCUME~1\Work\Venom\DEVELO~1\CIRCUI~2\BLINK0~3\BLINK0~1\ARDUIN~1\Debug\libArduinoCore.a(Uart.o)
 .ARM.attributes
                0x0000036a       0x32 C:\Users\Hunter\DOCUME~1\Work\Venom\DEVELO~1\CIRCUI~2\BLINK0~3\BLINK0~1\ARDUIN~1\Debug\libArduinoCore.a(CDC.o)
 .ARM.attributes
                0x0000039c       0x32 C:\Users\Hunter\DOCUME~1\Work\Venom\DEVELO~1\CIRCUI~2\BLINK0~3\BLINK0~1\ARDUIN~1\Debug\libArduinoCore.a(PluggableUSB.o)
 .ARM.attributes
                0x000003ce       0x32 C:\Users\Hunter\DOCUME~1\Work\Venom\DEVELO~1\CIRCUI~2\BLINK0~3\BLINK0~1\ARDUIN~1\Debug\libArduinoCore.a(Print.o)
 .ARM.attributes
                0x00000400       0x1e c:/program files (x86)/atmel/studio/7.0/toolchain/arm/arm-gnu-toolchain/bin/../lib/gcc/arm-none-eabi/6.3.1/thumb/v6-m\libgcc.a(_thumb1_case_uqi.o)
 .ARM.attributes
                0x0000041e       0x1e c:/program files (x86)/atmel/studio/7.0/toolchain/arm/arm-gnu-toolchain/bin/../lib/gcc/arm-none-eabi/6.3.1/thumb/v6-m\libgcc.a(_udivsi3.o)
 .ARM.attributes
                0x0000043c       0x1e c:/program files (x86)/atmel/studio/7.0/toolchain/arm/arm-gnu-toolchain/bin/../lib/gcc/arm-none-eabi/6.3.1/thumb/v6-m\libgcc.a(_dvmd_tls.o)
 .ARM.attributes
                0x0000045a       0x2c c:/program files (x86)/atmel/studio/7.0/toolchain/arm/arm-gnu-toolchain/bin/../lib/gcc/arm-none-eabi/6.3.1/../../../../arm-none-eabi/lib/thumb/v6-m\libc_nano.a(lib_a-impure.o)
 .ARM.attributes
                0x00000486       0x2c c:/program files (x86)/atmel/studio/7.0/toolchain/arm/arm-gnu-toolchain/bin/../lib/gcc/arm-none-eabi/6.3.1/../../../../arm-none-eabi/lib/thumb/v6-m\libc_nano.a(lib_a-init.o)
 .ARM.attributes
                0x000004b2       0x2c c:/program files (x86)/atmel/studio/7.0/toolchain/arm/arm-gnu-toolchain/bin/../lib/gcc/arm-none-eabi/6.3.1/../../../../arm-none-eabi/lib/thumb/v6-m\libc_nano.a(lib_a-malloc.o)
 .ARM.attributes
                0x000004de       0x2c c:/program files (x86)/atmel/studio/7.0/toolchain/arm/arm-gnu-toolchain/bin/../lib/gcc/arm-none-eabi/6.3.1/../../../../arm-none-eabi/lib/thumb/v6-m\libc_nano.a(lib_a-memcpy-stub.o)
 .ARM.attributes
                0x0000050a       0x2c c:/program files (x86)/atmel/studio/7.0/toolchain/arm/arm-gnu-toolchain/bin/../lib/gcc/arm-none-eabi/6.3.1/../../../../arm-none-eabi/lib/thumb/v6-m\libc_nano.a(lib_a-memset.o)
 .ARM.attributes
                0x00000536       0x2c c:/program files (x86)/atmel/studio/7.0/toolchain/arm/arm-gnu-toolchain/bin/../lib/gcc/arm-none-eabi/6.3.1/../../../../arm-none-eabi/lib/thumb/v6-m\libc_nano.a(lib_a-nano-freer.o)
 .ARM.attributes
                0x00000562       0x2c c:/program files (x86)/atmel/studio/7.0/toolchain/arm/arm-gnu-toolchain/bin/../lib/gcc/arm-none-eabi/6.3.1/../../../../arm-none-eabi/lib/thumb/v6-m\libc_nano.a(lib_a-nano-mallocr.o)
 .ARM.attributes
                0x0000058e       0x2c c:/program files (x86)/atmel/studio/7.0/toolchain/arm/arm-gnu-toolchain/bin/../lib/gcc/arm-none-eabi/6.3.1/../../../../arm-none-eabi/lib/thumb/v6-m\libc_nano.a(lib_a-sbrkr.o)
 .ARM.attributes
                0x000005ba       0x1c c:/program files (x86)/atmel/studio/7.0/toolchain/arm/arm-gnu-toolchain/bin/../lib/gcc/arm-none-eabi/6.3.1/../../../../arm-none-eabi/lib/thumb/v6-m\libc_nano.a(lib_a-strlen.o)
 .ARM.attributes
                0x000005d6       0x2c c:/program files (x86)/atmel/studio/7.0/toolchain/arm/arm-gnu-toolchain/bin/../lib/gcc/arm-none-eabi/6.3.1/../../../../arm-none-eabi/lib/thumb/v6-m\libc_nano.a(lib_a-mlock.o)
 .ARM.attributes
                0x00000602       0x2c c:/program files (x86)/atmel/studio/7.0/toolchain/arm/arm-gnu-toolchain/bin/../lib/gcc/arm-none-eabi/6.3.1/../../../../arm-none-eabi/lib/thumb/v6-m\libc_nano.a(lib_a-reent.o)
 .ARM.attributes
                0x0000062e       0x2c c:/program files (x86)/atmel/studio/7.0/toolchain/arm/arm-gnu-toolchain/bin/../lib/gcc/arm-none-eabi/6.3.1/../../../../arm-none-eabi/lib/thumb/v6-m\libnosys.a(sbrk.o)
 .ARM.attributes
                0x0000065a       0x2c c:/program files (x86)/atmel/studio/7.0/toolchain/arm/arm-gnu-toolchain/bin/../lib/gcc/arm-none-eabi/6.3.1/thumb/v6-m/crtend.o
 .ARM.attributes
                0x00000686       0x1e c:/program files (x86)/atmel/studio/7.0/toolchain/arm/arm-gnu-toolchain/bin/../lib/gcc/arm-none-eabi/6.3.1/thumb/v6-m/crtn.o

.comment        0x00000000       0x59
 .comment       0x00000000       0x59 Sketch.o
                                 0x5a (size before relaxing)
 .comment       0x00000059       0x5a C:\Users\Hunter\DOCUME~1\Work\Venom\DEVELO~1\CIRCUI~2\BLINK0~3\BLINK0~1\ARDUIN~1\Debug\libArduinoCore.a(cortex_handlers.o)
 .comment       0x00000059       0x5a C:\Users\Hunter\DOCUME~1\Work\Venom\DEVELO~1\CIRCUI~2\BLINK0~3\BLINK0~1\ARDUIN~1\Debug\libArduinoCore.a(delay.o)
 .comment       0x00000059       0x5a C:\Users\Hunter\DOCUME~1\Work\Venom\DEVELO~1\CIRCUI~2\BLINK0~3\BLINK0~1\ARDUIN~1\Debug\libArduinoCore.a(hooks.o)
 .comment       0x00000059       0x5a C:\Users\Hunter\DOCUME~1\Work\Venom\DEVELO~1\CIRCUI~2\BLINK0~3\BLINK0~1\ARDUIN~1\Debug\libArduinoCore.a(main.o)
 .comment       0x00000059       0x5a C:\Users\Hunter\DOCUME~1\Work\Venom\DEVELO~1\CIRCUI~2\BLINK0~3\BLINK0~1\ARDUIN~1\Debug\libArduinoCore.a(Reset.o)
 .comment       0x00000059       0x5a C:\Users\Hunter\DOCUME~1\Work\Venom\DEVELO~1\CIRCUI~2\BLINK0~3\BLINK0~1\ARDUIN~1\Debug\libArduinoCore.a(startup.o)
 .comment       0x00000059       0x5a C:\Users\Hunter\DOCUME~1\Work\Venom\DEVELO~1\CIRCUI~2\BLINK0~3\BLINK0~1\ARDUIN~1\Debug\libArduinoCore.a(USBCore.o)
 .comment       0x00000059       0x5a C:\Users\Hunter\DOCUME~1\Work\Venom\DEVELO~1\CIRCUI~2\BLINK0~3\BLINK0~1\ARDUIN~1\Debug\libArduinoCore.a(wiring.o)
 .comment       0x00000059       0x5a C:\Users\Hunter\DOCUME~1\Work\Venom\DEVELO~1\CIRCUI~2\BLINK0~3\BLINK0~1\ARDUIN~1\Debug\libArduinoCore.a(wiring_analog.o)
 .comment       0x00000059       0x5a C:\Users\Hunter\DOCUME~1\Work\Venom\DEVELO~1\CIRCUI~2\BLINK0~3\BLINK0~1\ARDUIN~1\Debug\libArduinoCore.a(wiring_digital.o)
 .comment       0x00000059       0x5a C:\Users\Hunter\DOCUME~1\Work\Venom\DEVELO~1\CIRCUI~2\BLINK0~3\BLINK0~1\ARDUIN~1\Debug\libArduinoCore.a(wiring_private.o)
 .comment       0x00000059       0x5a C:\Users\Hunter\DOCUME~1\Work\Venom\DEVELO~1\CIRCUI~2\BLINK0~3\BLINK0~1\ARDUIN~1\Debug\libArduinoCore.a(variant.o)
 .comment       0x00000059       0x5a C:\Users\Hunter\DOCUME~1\Work\Venom\DEVELO~1\CIRCUI~2\BLINK0~3\BLINK0~1\ARDUIN~1\Debug\libArduinoCore.a(new.o)
 .comment       0x00000059       0x5a C:\Users\Hunter\DOCUME~1\Work\Venom\DEVELO~1\CIRCUI~2\BLINK0~3\BLINK0~1\ARDUIN~1\Debug\libArduinoCore.a(SERCOM.o)
 .comment       0x00000059       0x5a C:\Users\Hunter\DOCUME~1\Work\Venom\DEVELO~1\CIRCUI~2\BLINK0~3\BLINK0~1\ARDUIN~1\Debug\libArduinoCore.a(Uart.o)
 .comment       0x00000059       0x5a C:\Users\Hunter\DOCUME~1\Work\Venom\DEVELO~1\CIRCUI~2\BLINK0~3\BLINK0~1\ARDUIN~1\Debug\libArduinoCore.a(CDC.o)
 .comment       0x00000059       0x5a C:\Users\Hunter\DOCUME~1\Work\Venom\DEVELO~1\CIRCUI~2\BLINK0~3\BLINK0~1\ARDUIN~1\Debug\libArduinoCore.a(PluggableUSB.o)
 .comment       0x00000059       0x5a C:\Users\Hunter\DOCUME~1\Work\Venom\DEVELO~1\CIRCUI~2\BLINK0~3\BLINK0~1\ARDUIN~1\Debug\libArduinoCore.a(Print.o)

.debug_info     0x00000000    0x540f4
 .debug_info    0x00000000     0x483e Sketch.o
 .debug_info    0x0000483e     0x12a8 C:\Users\Hunter\DOCUME~1\Work\Venom\DEVELO~1\CIRCUI~2\BLINK0~3\BLINK0~1\ARDUIN~1\Debug\libArduinoCore.a(cortex_handlers.o)
 .debug_info    0x00005ae6     0x1515 C:\Users\Hunter\DOCUME~1\Work\Venom\DEVELO~1\CIRCUI~2\BLINK0~3\BLINK0~1\ARDUIN~1\Debug\libArduinoCore.a(delay.o)
 .debug_info    0x00006ffb       0x72 C:\Users\Hunter\DOCUME~1\Work\Venom\DEVELO~1\CIRCUI~2\BLINK0~3\BLINK0~1\ARDUIN~1\Debug\libArduinoCore.a(hooks.o)
 .debug_info    0x0000706d     0x4874 C:\Users\Hunter\DOCUME~1\Work\Venom\DEVELO~1\CIRCUI~2\BLINK0~3\BLINK0~1\ARDUIN~1\Debug\libArduinoCore.a(main.o)
 .debug_info    0x0000b8e1     0x4e76 C:\Users\Hunter\DOCUME~1\Work\Venom\DEVELO~1\CIRCUI~2\BLINK0~3\BLINK0~1\ARDUIN~1\Debug\libArduinoCore.a(Reset.o)
 .debug_info    0x00010757     0x38b6 C:\Users\Hunter\DOCUME~1\Work\Venom\DEVELO~1\CIRCUI~2\BLINK0~3\BLINK0~1\ARDUIN~1\Debug\libArduinoCore.a(startup.o)
 .debug_info    0x0001400d     0xcbe7 C:\Users\Hunter\DOCUME~1\Work\Venom\DEVELO~1\CIRCUI~2\BLINK0~3\BLINK0~1\ARDUIN~1\Debug\libArduinoCore.a(USBCore.o)
 .debug_info    0x00020bf4     0x307b C:\Users\Hunter\DOCUME~1\Work\Venom\DEVELO~1\CIRCUI~2\BLINK0~3\BLINK0~1\ARDUIN~1\Debug\libArduinoCore.a(wiring.o)
 .debug_info    0x00023c6f     0x54af C:\Users\Hunter\DOCUME~1\Work\Venom\DEVELO~1\CIRCUI~2\BLINK0~3\BLINK0~1\ARDUIN~1\Debug\libArduinoCore.a(wiring_analog.o)
 .debug_info    0x0002911e     0x199c C:\Users\Hunter\DOCUME~1\Work\Venom\DEVELO~1\CIRCUI~2\BLINK0~3\BLINK0~1\ARDUIN~1\Debug\libArduinoCore.a(wiring_digital.o)
 .debug_info    0x0002aaba     0x197f C:\Users\Hunter\DOCUME~1\Work\Venom\DEVELO~1\CIRCUI~2\BLINK0~3\BLINK0~1\ARDUIN~1\Debug\libArduinoCore.a(wiring_private.o)
 .debug_info    0x0002c439     0x6b04 C:\Users\Hunter\DOCUME~1\Work\Venom\DEVELO~1\CIRCUI~2\BLINK0~3\BLINK0~1\ARDUIN~1\Debug\libArduinoCore.a(variant.o)
 .debug_info    0x00032f3d     0x107d C:\Users\Hunter\DOCUME~1\Work\Venom\DEVELO~1\CIRCUI~2\BLINK0~3\BLINK0~1\ARDUIN~1\Debug\libArduinoCore.a(new.o)
 .debug_info    0x00033fba     0x5e56 C:\Users\Hunter\DOCUME~1\Work\Venom\DEVELO~1\CIRCUI~2\BLINK0~3\BLINK0~1\ARDUIN~1\Debug\libArduinoCore.a(SERCOM.o)
 .debug_info    0x00039e10     0x79ed C:\Users\Hunter\DOCUME~1\Work\Venom\DEVELO~1\CIRCUI~2\BLINK0~3\BLINK0~1\ARDUIN~1\Debug\libArduinoCore.a(Uart.o)
 .debug_info    0x000417fd     0x9c2d C:\Users\Hunter\DOCUME~1\Work\Venom\DEVELO~1\CIRCUI~2\BLINK0~3\BLINK0~1\ARDUIN~1\Debug\libArduinoCore.a(CDC.o)
 .debug_info    0x0004b42a     0x1c76 C:\Users\Hunter\DOCUME~1\Work\Venom\DEVELO~1\CIRCUI~2\BLINK0~3\BLINK0~1\ARDUIN~1\Debug\libArduinoCore.a(PluggableUSB.o)
 .debug_info    0x0004d0a0     0x7054 C:\Users\Hunter\DOCUME~1\Work\Venom\DEVELO~1\CIRCUI~2\BLINK0~3\BLINK0~1\ARDUIN~1\Debug\libArduinoCore.a(Print.o)

.debug_abbrev   0x00000000     0x5f1f
 .debug_abbrev  0x00000000      0x4aa Sketch.o
 .debug_abbrev  0x000004aa      0x298 C:\Users\Hunter\DOCUME~1\Work\Venom\DEVELO~1\CIRCUI~2\BLINK0~3\BLINK0~1\ARDUIN~1\Debug\libArduinoCore.a(cortex_handlers.o)
 .debug_abbrev  0x00000742      0x2d2 C:\Users\Hunter\DOCUME~1\Work\Venom\DEVELO~1\CIRCUI~2\BLINK0~3\BLINK0~1\ARDUIN~1\Debug\libArduinoCore.a(delay.o)
 .debug_abbrev  0x00000a14       0x4e C:\Users\Hunter\DOCUME~1\Work\Venom\DEVELO~1\CIRCUI~2\BLINK0~3\BLINK0~1\ARDUIN~1\Debug\libArduinoCore.a(hooks.o)
 .debug_abbrev  0x00000a62      0x4da C:\Users\Hunter\DOCUME~1\Work\Venom\DEVELO~1\CIRCUI~2\BLINK0~3\BLINK0~1\ARDUIN~1\Debug\libArduinoCore.a(main.o)
 .debug_abbrev  0x00000f3c      0x589 C:\Users\Hunter\DOCUME~1\Work\Venom\DEVELO~1\CIRCUI~2\BLINK0~3\BLINK0~1\ARDUIN~1\Debug\libArduinoCore.a(Reset.o)
 .debug_abbrev  0x000014c5      0x28f C:\Users\Hunter\DOCUME~1\Work\Venom\DEVELO~1\CIRCUI~2\BLINK0~3\BLINK0~1\ARDUIN~1\Debug\libArduinoCore.a(startup.o)
 .debug_abbrev  0x00001754      0xbf5 C:\Users\Hunter\DOCUME~1\Work\Venom\DEVELO~1\CIRCUI~2\BLINK0~3\BLINK0~1\ARDUIN~1\Debug\libArduinoCore.a(USBCore.o)
 .debug_abbrev  0x00002349      0x35c C:\Users\Hunter\DOCUME~1\Work\Venom\DEVELO~1\CIRCUI~2\BLINK0~3\BLINK0~1\ARDUIN~1\Debug\libArduinoCore.a(wiring.o)
 .debug_abbrev  0x000026a5      0x450 C:\Users\Hunter\DOCUME~1\Work\Venom\DEVELO~1\CIRCUI~2\BLINK0~3\BLINK0~1\ARDUIN~1\Debug\libArduinoCore.a(wiring_analog.o)
 .debug_abbrev  0x00002af5      0x2fd C:\Users\Hunter\DOCUME~1\Work\Venom\DEVELO~1\CIRCUI~2\BLINK0~3\BLINK0~1\ARDUIN~1\Debug\libArduinoCore.a(wiring_digital.o)
 .debug_abbrev  0x00002df2      0x2ea C:\Users\Hunter\DOCUME~1\Work\Venom\DEVELO~1\CIRCUI~2\BLINK0~3\BLINK0~1\ARDUIN~1\Debug\libArduinoCore.a(wiring_private.o)
 .debug_abbrev  0x000030dc      0x4f4 C:\Users\Hunter\DOCUME~1\Work\Venom\DEVELO~1\CIRCUI~2\BLINK0~3\BLINK0~1\ARDUIN~1\Debug\libArduinoCore.a(variant.o)
 .debug_abbrev  0x000035d0      0x2e5 C:\Users\Hunter\DOCUME~1\Work\Venom\DEVELO~1\CIRCUI~2\BLINK0~3\BLINK0~1\ARDUIN~1\Debug\libArduinoCore.a(new.o)
 .debug_abbrev  0x000038b5      0x75a C:\Users\Hunter\DOCUME~1\Work\Venom\DEVELO~1\CIRCUI~2\BLINK0~3\BLINK0~1\ARDUIN~1\Debug\libArduinoCore.a(SERCOM.o)
 .debug_abbrev  0x0000400f      0x815 C:\Users\Hunter\DOCUME~1\Work\Venom\DEVELO~1\CIRCUI~2\BLINK0~3\BLINK0~1\ARDUIN~1\Debug\libArduinoCore.a(Uart.o)
 .debug_abbrev  0x00004824      0xa50 C:\Users\Hunter\DOCUME~1\Work\Venom\DEVELO~1\CIRCUI~2\BLINK0~3\BLINK0~1\ARDUIN~1\Debug\libArduinoCore.a(CDC.o)
 .debug_abbrev  0x00005274      0x51c C:\Users\Hunter\DOCUME~1\Work\Venom\DEVELO~1\CIRCUI~2\BLINK0~3\BLINK0~1\ARDUIN~1\Debug\libArduinoCore.a(PluggableUSB.o)
 .debug_abbrev  0x00005790      0x78f C:\Users\Hunter\DOCUME~1\Work\Venom\DEVELO~1\CIRCUI~2\BLINK0~3\BLINK0~1\ARDUIN~1\Debug\libArduinoCore.a(Print.o)

.debug_loc      0x00000000     0x7785
 .debug_loc     0x00000000       0x40 Sketch.o
 .debug_loc     0x00000040       0x9c C:\Users\Hunter\DOCUME~1\Work\Venom\DEVELO~1\CIRCUI~2\BLINK0~3\BLINK0~1\ARDUIN~1\Debug\libArduinoCore.a(cortex_handlers.o)
 .debug_loc     0x000000dc      0x15b C:\Users\Hunter\DOCUME~1\Work\Venom\DEVELO~1\CIRCUI~2\BLINK0~3\BLINK0~1\ARDUIN~1\Debug\libArduinoCore.a(delay.o)
 .debug_loc     0x00000237       0x20 C:\Users\Hunter\DOCUME~1\Work\Venom\DEVELO~1\CIRCUI~2\BLINK0~3\BLINK0~1\ARDUIN~1\Debug\libArduinoCore.a(main.o)
 .debug_loc     0x00000257       0x6d C:\Users\Hunter\DOCUME~1\Work\Venom\DEVELO~1\CIRCUI~2\BLINK0~3\BLINK0~1\ARDUIN~1\Debug\libArduinoCore.a(Reset.o)
 .debug_loc     0x000002c4       0x4e C:\Users\Hunter\DOCUME~1\Work\Venom\DEVELO~1\CIRCUI~2\BLINK0~3\BLINK0~1\ARDUIN~1\Debug\libArduinoCore.a(startup.o)
 .debug_loc     0x00000312     0x2b8b C:\Users\Hunter\DOCUME~1\Work\Venom\DEVELO~1\CIRCUI~2\BLINK0~3\BLINK0~1\ARDUIN~1\Debug\libArduinoCore.a(USBCore.o)
 .debug_loc     0x00002e9d       0xcb C:\Users\Hunter\DOCUME~1\Work\Venom\DEVELO~1\CIRCUI~2\BLINK0~3\BLINK0~1\ARDUIN~1\Debug\libArduinoCore.a(wiring.o)
 .debug_loc     0x00002f68      0x5d7 C:\Users\Hunter\DOCUME~1\Work\Venom\DEVELO~1\CIRCUI~2\BLINK0~3\BLINK0~1\ARDUIN~1\Debug\libArduinoCore.a(wiring_analog.o)
 .debug_loc     0x0000353f      0x18c C:\Users\Hunter\DOCUME~1\Work\Venom\DEVELO~1\CIRCUI~2\BLINK0~3\BLINK0~1\ARDUIN~1\Debug\libArduinoCore.a(wiring_digital.o)
 .debug_loc     0x000036cb      0x14e C:\Users\Hunter\DOCUME~1\Work\Venom\DEVELO~1\CIRCUI~2\BLINK0~3\BLINK0~1\ARDUIN~1\Debug\libArduinoCore.a(wiring_private.o)
 .debug_loc     0x00003819       0x6a C:\Users\Hunter\DOCUME~1\Work\Venom\DEVELO~1\CIRCUI~2\BLINK0~3\BLINK0~1\ARDUIN~1\Debug\libArduinoCore.a(variant.o)
 .debug_loc     0x00003883       0x82 C:\Users\Hunter\DOCUME~1\Work\Venom\DEVELO~1\CIRCUI~2\BLINK0~3\BLINK0~1\ARDUIN~1\Debug\libArduinoCore.a(new.o)
 .debug_loc     0x00003905      0xd9d C:\Users\Hunter\DOCUME~1\Work\Venom\DEVELO~1\CIRCUI~2\BLINK0~3\BLINK0~1\ARDUIN~1\Debug\libArduinoCore.a(SERCOM.o)
 .debug_loc     0x000046a2      0xbde C:\Users\Hunter\DOCUME~1\Work\Venom\DEVELO~1\CIRCUI~2\BLINK0~3\BLINK0~1\ARDUIN~1\Debug\libArduinoCore.a(Uart.o)
 .debug_loc     0x00005280      0xa78 C:\Users\Hunter\DOCUME~1\Work\Venom\DEVELO~1\CIRCUI~2\BLINK0~3\BLINK0~1\ARDUIN~1\Debug\libArduinoCore.a(CDC.o)
 .debug_loc     0x00005cf8      0x392 C:\Users\Hunter\DOCUME~1\Work\Venom\DEVELO~1\CIRCUI~2\BLINK0~3\BLINK0~1\ARDUIN~1\Debug\libArduinoCore.a(PluggableUSB.o)
 .debug_loc     0x0000608a     0x16fb C:\Users\Hunter\DOCUME~1\Work\Venom\DEVELO~1\CIRCUI~2\BLINK0~3\BLINK0~1\ARDUIN~1\Debug\libArduinoCore.a(Print.o)

.debug_aranges  0x00000000      0x908
 .debug_aranges
                0x00000000       0x28 Sketch.o
 .debug_aranges
                0x00000028       0x40 C:\Users\Hunter\DOCUME~1\Work\Venom\DEVELO~1\CIRCUI~2\BLINK0~3\BLINK0~1\ARDUIN~1\Debug\libArduinoCore.a(cortex_handlers.o)
 .debug_aranges
                0x00000068       0x40 C:\Users\Hunter\DOCUME~1\Work\Venom\DEVELO~1\CIRCUI~2\BLINK0~3\BLINK0~1\ARDUIN~1\Debug\libArduinoCore.a(delay.o)
 .debug_aranges
                0x000000a8       0x30 C:\Users\Hunter\DOCUME~1\Work\Venom\DEVELO~1\CIRCUI~2\BLINK0~3\BLINK0~1\ARDUIN~1\Debug\libArduinoCore.a(hooks.o)
 .debug_aranges
                0x000000d8       0x28 C:\Users\Hunter\DOCUME~1\Work\Venom\DEVELO~1\CIRCUI~2\BLINK0~3\BLINK0~1\ARDUIN~1\Debug\libArduinoCore.a(main.o)
 .debug_aranges
                0x00000100       0x38 C:\Users\Hunter\DOCUME~1\Work\Venom\DEVELO~1\CIRCUI~2\BLINK0~3\BLINK0~1\ARDUIN~1\Debug\libArduinoCore.a(Reset.o)
 .debug_aranges
                0x00000138       0x20 C:\Users\Hunter\DOCUME~1\Work\Venom\DEVELO~1\CIRCUI~2\BLINK0~3\BLINK0~1\ARDUIN~1\Debug\libArduinoCore.a(startup.o)
 .debug_aranges
                0x00000158      0x178 C:\Users\Hunter\DOCUME~1\Work\Venom\DEVELO~1\CIRCUI~2\BLINK0~3\BLINK0~1\ARDUIN~1\Debug\libArduinoCore.a(USBCore.o)
 .debug_aranges
                0x000002d0       0x20 C:\Users\Hunter\DOCUME~1\Work\Venom\DEVELO~1\CIRCUI~2\BLINK0~3\BLINK0~1\ARDUIN~1\Debug\libArduinoCore.a(wiring.o)
 .debug_aranges
                0x000002f0       0x48 C:\Users\Hunter\DOCUME~1\Work\Venom\DEVELO~1\CIRCUI~2\BLINK0~3\BLINK0~1\ARDUIN~1\Debug\libArduinoCore.a(wiring_analog.o)
 .debug_aranges
                0x00000338       0x30 C:\Users\Hunter\DOCUME~1\Work\Venom\DEVELO~1\CIRCUI~2\BLINK0~3\BLINK0~1\ARDUIN~1\Debug\libArduinoCore.a(wiring_digital.o)
 .debug_aranges
                0x00000368       0x20 C:\Users\Hunter\DOCUME~1\Work\Venom\DEVELO~1\CIRCUI~2\BLINK0~3\BLINK0~1\ARDUIN~1\Debug\libArduinoCore.a(wiring_private.o)
 .debug_aranges
                0x00000388       0x30 C:\Users\Hunter\DOCUME~1\Work\Venom\DEVELO~1\CIRCUI~2\BLINK0~3\BLINK0~1\ARDUIN~1\Debug\libArduinoCore.a(variant.o)
 .debug_aranges
                0x000003b8       0x28 C:\Users\Hunter\DOCUME~1\Work\Venom\DEVELO~1\CIRCUI~2\BLINK0~3\BLINK0~1\ARDUIN~1\Debug\libArduinoCore.a(new.o)
 .debug_aranges
                0x000003e0      0x1f0 C:\Users\Hunter\DOCUME~1\Work\Venom\DEVELO~1\CIRCUI~2\BLINK0~3\BLINK0~1\ARDUIN~1\Debug\libArduinoCore.a(SERCOM.o)
 .debug_aranges
                0x000005d0       0xb0 C:\Users\Hunter\DOCUME~1\Work\Venom\DEVELO~1\CIRCUI~2\BLINK0~3\BLINK0~1\ARDUIN~1\Debug\libArduinoCore.a(Uart.o)
 .debug_aranges
                0x00000680      0x130 C:\Users\Hunter\DOCUME~1\Work\Venom\DEVELO~1\CIRCUI~2\BLINK0~3\BLINK0~1\ARDUIN~1\Debug\libArduinoCore.a(CDC.o)
 .debug_aranges
                0x000007b0       0x58 C:\Users\Hunter\DOCUME~1\Work\Venom\DEVELO~1\CIRCUI~2\BLINK0~3\BLINK0~1\ARDUIN~1\Debug\libArduinoCore.a(PluggableUSB.o)
 .debug_aranges
                0x00000808      0x100 C:\Users\Hunter\DOCUME~1\Work\Venom\DEVELO~1\CIRCUI~2\BLINK0~3\BLINK0~1\ARDUIN~1\Debug\libArduinoCore.a(Print.o)

.debug_ranges   0x00000000     0x1388
 .debug_ranges  0x00000000       0x18 Sketch.o
 .debug_ranges  0x00000018       0x30 C:\Users\Hunter\DOCUME~1\Work\Venom\DEVELO~1\CIRCUI~2\BLINK0~3\BLINK0~1\ARDUIN~1\Debug\libArduinoCore.a(cortex_handlers.o)
 .debug_ranges  0x00000048       0x30 C:\Users\Hunter\DOCUME~1\Work\Venom\DEVELO~1\CIRCUI~2\BLINK0~3\BLINK0~1\ARDUIN~1\Debug\libArduinoCore.a(delay.o)
 .debug_ranges  0x00000078       0x20 C:\Users\Hunter\DOCUME~1\Work\Venom\DEVELO~1\CIRCUI~2\BLINK0~3\BLINK0~1\ARDUIN~1\Debug\libArduinoCore.a(hooks.o)
 .debug_ranges  0x00000098       0x18 C:\Users\Hunter\DOCUME~1\Work\Venom\DEVELO~1\CIRCUI~2\BLINK0~3\BLINK0~1\ARDUIN~1\Debug\libArduinoCore.a(main.o)
 .debug_ranges  0x000000b0       0x40 C:\Users\Hunter\DOCUME~1\Work\Venom\DEVELO~1\CIRCUI~2\BLINK0~3\BLINK0~1\ARDUIN~1\Debug\libArduinoCore.a(Reset.o)
 .debug_ranges  0x000000f0       0x10 C:\Users\Hunter\DOCUME~1\Work\Venom\DEVELO~1\CIRCUI~2\BLINK0~3\BLINK0~1\ARDUIN~1\Debug\libArduinoCore.a(startup.o)
 .debug_ranges  0x00000100      0x8e8 C:\Users\Hunter\DOCUME~1\Work\Venom\DEVELO~1\CIRCUI~2\BLINK0~3\BLINK0~1\ARDUIN~1\Debug\libArduinoCore.a(USBCore.o)
 .debug_ranges  0x000009e8       0x28 C:\Users\Hunter\DOCUME~1\Work\Venom\DEVELO~1\CIRCUI~2\BLINK0~3\BLINK0~1\ARDUIN~1\Debug\libArduinoCore.a(wiring.o)
 .debug_ranges  0x00000a10       0x98 C:\Users\Hunter\DOCUME~1\Work\Venom\DEVELO~1\CIRCUI~2\BLINK0~3\BLINK0~1\ARDUIN~1\Debug\libArduinoCore.a(wiring_analog.o)
 .debug_ranges  0x00000aa8       0x20 C:\Users\Hunter\DOCUME~1\Work\Venom\DEVELO~1\CIRCUI~2\BLINK0~3\BLINK0~1\ARDUIN~1\Debug\libArduinoCore.a(wiring_digital.o)
 .debug_ranges  0x00000ac8       0x30 C:\Users\Hunter\DOCUME~1\Work\Venom\DEVELO~1\CIRCUI~2\BLINK0~3\BLINK0~1\ARDUIN~1\Debug\libArduinoCore.a(wiring_private.o)
 .debug_ranges  0x00000af8       0x20 C:\Users\Hunter\DOCUME~1\Work\Venom\DEVELO~1\CIRCUI~2\BLINK0~3\BLINK0~1\ARDUIN~1\Debug\libArduinoCore.a(variant.o)
 .debug_ranges  0x00000b18       0x18 C:\Users\Hunter\DOCUME~1\Work\Venom\DEVELO~1\CIRCUI~2\BLINK0~3\BLINK0~1\ARDUIN~1\Debug\libArduinoCore.a(new.o)
 .debug_ranges  0x00000b30      0x2b0 C:\Users\Hunter\DOCUME~1\Work\Venom\DEVELO~1\CIRCUI~2\BLINK0~3\BLINK0~1\ARDUIN~1\Debug\libArduinoCore.a(SERCOM.o)
 .debug_ranges  0x00000de0      0x1d8 C:\Users\Hunter\DOCUME~1\Work\Venom\DEVELO~1\CIRCUI~2\BLINK0~3\BLINK0~1\ARDUIN~1\Debug\libArduinoCore.a(Uart.o)
 .debug_ranges  0x00000fb8      0x1f0 C:\Users\Hunter\DOCUME~1\Work\Venom\DEVELO~1\CIRCUI~2\BLINK0~3\BLINK0~1\ARDUIN~1\Debug\libArduinoCore.a(CDC.o)
 .debug_ranges  0x000011a8       0x60 C:\Users\Hunter\DOCUME~1\Work\Venom\DEVELO~1\CIRCUI~2\BLINK0~3\BLINK0~1\ARDUIN~1\Debug\libArduinoCore.a(PluggableUSB.o)
 .debug_ranges  0x00001208      0x180 C:\Users\Hunter\DOCUME~1\Work\Venom\DEVELO~1\CIRCUI~2\BLINK0~3\BLINK0~1\ARDUIN~1\Debug\libArduinoCore.a(Print.o)

.debug_macro    0x00000000    0x1ca72
 .debug_macro   0x00000000      0x6d8 Sketch.o
 .debug_macro   0x000006d8      0x97c Sketch.o
 .debug_macro   0x00001054       0x16 Sketch.o
 .debug_macro   0x0000106a       0x1c Sketch.o
 .debug_macro   0x00001086       0x22 Sketch.o
 .debug_macro   0x000010a8       0x87 Sketch.o
 .debug_macro   0x0000112f       0x51 Sketch.o
 .debug_macro   0x00001180       0xef Sketch.o
 .debug_macro   0x0000126f       0x6a Sketch.o
 .debug_macro   0x000012d9      0x1df Sketch.o
 .debug_macro   0x000014b8      0x143 Sketch.o
 .debug_macro   0x000015fb       0x10 Sketch.o
 .debug_macro   0x0000160b      0x3c3 Sketch.o
 .debug_macro   0x000019ce       0x10 Sketch.o
 .debug_macro   0x000019de       0x58 Sketch.o
 .debug_macro   0x00001a36       0x35 Sketch.o
 .debug_macro   0x00001a6b       0x9c Sketch.o
 .debug_macro   0x00001b07       0x16 Sketch.o
 .debug_macro   0x00001b1d      0x10e Sketch.o
 .debug_macro   0x00001c2b       0x94 Sketch.o
 .debug_macro   0x00001cbf       0x58 Sketch.o
 .debug_macro   0x00001d17       0x1f Sketch.o
 .debug_macro   0x00001d36       0x43 Sketch.o
 .debug_macro   0x00001d79       0x20 Sketch.o
 .debug_macro   0x00001d99      0x187 Sketch.o
 .debug_macro   0x00001f20      0x353 Sketch.o
 .debug_macro   0x00002273       0x16 Sketch.o
 .debug_macro   0x00002289       0x29 Sketch.o
 .debug_macro   0x000022b2       0xea Sketch.o
 .debug_macro   0x0000239c       0x16 Sketch.o
 .debug_macro   0x000023b2       0x35 Sketch.o
 .debug_macro   0x000023e7       0x18 Sketch.o
 .debug_macro   0x000023ff      0x1da Sketch.o
 .debug_macro   0x000025d9      0x3d3 Sketch.o
 .debug_macro   0x000029ac       0x10 Sketch.o
 .debug_macro   0x000029bc      0x45d Sketch.o
 .debug_macro   0x00002e19      0x190 Sketch.o
 .debug_macro   0x00002fa9       0x1c Sketch.o
 .debug_macro   0x00002fc5      0xd93 Sketch.o
 .debug_macro   0x00003d58       0x3f Sketch.o
 .debug_macro   0x00003d97       0x1c Sketch.o
 .debug_macro   0x00003db3       0x22 Sketch.o
 .debug_macro   0x00003dd5       0xaf Sketch.o
 .debug_macro   0x00003e84      0x3ad Sketch.o
 .debug_macro   0x00004231      0x67e Sketch.o
 .debug_macro   0x000048af      0x8b1 Sketch.o
 .debug_macro   0x00005160      0x22e Sketch.o
 .debug_macro   0x0000538e      0xd5c Sketch.o
 .debug_macro   0x000060ea      0x4dc Sketch.o
 .debug_macro   0x000065c6      0x9f6 Sketch.o
 .debug_macro   0x00006fbc      0x82b Sketch.o
 .debug_macro   0x000077e7      0x45f Sketch.o
 .debug_macro   0x00007c46       0x5e Sketch.o
 .debug_macro   0x00007ca4      0x8f9 Sketch.o
 .debug_macro   0x0000859d      0x21c Sketch.o
 .debug_macro   0x000087b9      0x735 Sketch.o
 .debug_macro   0x00008eee       0x5e Sketch.o
 .debug_macro   0x00008f4c      0x632 Sketch.o
 .debug_macro   0x0000957e      0x3ac Sketch.o
 .debug_macro   0x0000992a      0xc76 Sketch.o
 .debug_macro   0x0000a5a0     0x1092 Sketch.o
 .debug_macro   0x0000b632      0xc4a Sketch.o
 .debug_macro   0x0000c27c      0x6ba Sketch.o
 .debug_macro   0x0000c936     0x1b3d Sketch.o
 .debug_macro   0x0000e473     0x143c Sketch.o
 .debug_macro   0x0000f8af      0x340 Sketch.o
 .debug_macro   0x0000fbef       0x7c Sketch.o
 .debug_macro   0x0000fc6b       0xa0 Sketch.o
 .debug_macro   0x0000fd0b       0x4c Sketch.o
 .debug_macro   0x0000fd57       0xca Sketch.o
 .debug_macro   0x0000fe21       0x94 Sketch.o
 .debug_macro   0x0000feb5       0x58 Sketch.o
 .debug_macro   0x0000ff0d      0x341 Sketch.o
 .debug_macro   0x0001024e       0x82 Sketch.o
 .debug_macro   0x000102d0      0x189 Sketch.o
 .debug_macro   0x00010459       0xb8 Sketch.o
 .debug_macro   0x00010511       0xa0 Sketch.o
 .debug_macro   0x000105b1       0xb2 Sketch.o
 .debug_macro   0x00010663       0x1c Sketch.o
 .debug_macro   0x0001067f       0x1c Sketch.o
 .debug_macro   0x0001069b       0x1c Sketch.o
 .debug_macro   0x000106b7       0x7c Sketch.o
 .debug_macro   0x00010733      0x15a Sketch.o
 .debug_macro   0x0001088d       0x10 Sketch.o
 .debug_macro   0x0001089d       0xdc Sketch.o
 .debug_macro   0x00010979      0x124 Sketch.o
 .debug_macro   0x00010a9d      0x124 Sketch.o
 .debug_macro   0x00010bc1      0x124 Sketch.o
 .debug_macro   0x00010ce5      0x124 Sketch.o
 .debug_macro   0x00010e09      0x124 Sketch.o
 .debug_macro   0x00010f2d      0x124 Sketch.o
 .debug_macro   0x00011051      0x124 Sketch.o
 .debug_macro   0x00011175       0xe2 Sketch.o
 .debug_macro   0x00011257       0xe2 Sketch.o
 .debug_macro   0x00011339       0xe2 Sketch.o
 .debug_macro   0x0001141b      0x12a Sketch.o
 .debug_macro   0x00011545      0x100 Sketch.o
 .debug_macro   0x00011645       0xf4 Sketch.o
 .debug_macro   0x00011739      0x40f Sketch.o
 .debug_macro   0x00011b48       0x40 Sketch.o
 .debug_macro   0x00011b88      0x376 Sketch.o
 .debug_macro   0x00011efe     0x17df Sketch.o
 .debug_macro   0x000136dd       0x6d Sketch.o
 .debug_macro   0x0001374a       0x5e Sketch.o
 .debug_macro   0x000137a8       0x16 Sketch.o
 .debug_macro   0x000137be      0x151 Sketch.o
 .debug_macro   0x0001390f       0x4c Sketch.o
 .debug_macro   0x0001395b       0x10 Sketch.o
 .debug_macro   0x0001396b       0x1c Sketch.o
 .debug_macro   0x00013987       0x10 Sketch.o
 .debug_macro   0x00013997       0x10 Sketch.o
 .debug_macro   0x000139a7       0x1c Sketch.o
 .debug_macro   0x000139c3       0x52 Sketch.o
 .debug_macro   0x00013a15       0x40 Sketch.o
 .debug_macro   0x00013a55       0x10 Sketch.o
 .debug_macro   0x00013a65       0x40 Sketch.o
 .debug_macro   0x00013aa5       0xd7 Sketch.o
 .debug_macro   0x00013b7c       0x16 Sketch.o
 .debug_macro   0x00013b92      0x18b Sketch.o
 .debug_macro   0x00013d1d       0x1c Sketch.o
 .debug_macro   0x00013d39       0x11 Sketch.o
 .debug_macro   0x00013d4a       0xe2 Sketch.o
 .debug_macro   0x00013e2c      0x13d Sketch.o
 .debug_macro   0x00013f69       0x16 Sketch.o
 .debug_macro   0x00013f7f       0x10 Sketch.o
 .debug_macro   0x00013f8f       0x28 Sketch.o
 .debug_macro   0x00013fb7       0x43 Sketch.o
 .debug_macro   0x00013ffa       0x28 Sketch.o
 .debug_macro   0x00014022       0x70 Sketch.o
 .debug_macro   0x00014092       0x2e Sketch.o
 .debug_macro   0x000140c0      0x19d Sketch.o
 .debug_macro   0x0001425d       0x2e Sketch.o
 .debug_macro   0x0001428b      0x17e Sketch.o
 .debug_macro   0x00014409       0x22 Sketch.o
 .debug_macro   0x0001442b       0x40 Sketch.o
 .debug_macro   0x0001446b      0x462 C:\Users\Hunter\DOCUME~1\Work\Venom\DEVELO~1\CIRCUI~2\BLINK0~3\BLINK0~1\ARDUIN~1\Debug\libArduinoCore.a(cortex_handlers.o)
 .debug_macro   0x000148cd      0x8da C:\Users\Hunter\DOCUME~1\Work\Venom\DEVELO~1\CIRCUI~2\BLINK0~3\BLINK0~1\ARDUIN~1\Debug\libArduinoCore.a(cortex_handlers.o)
 .debug_macro   0x000151a7       0x39 C:\Users\Hunter\DOCUME~1\Work\Venom\DEVELO~1\CIRCUI~2\BLINK0~3\BLINK0~1\ARDUIN~1\Debug\libArduinoCore.a(cortex_handlers.o)
 .debug_macro   0x000151e0       0xb5 C:\Users\Hunter\DOCUME~1\Work\Venom\DEVELO~1\CIRCUI~2\BLINK0~3\BLINK0~1\ARDUIN~1\Debug\libArduinoCore.a(cortex_handlers.o)
 .debug_macro   0x00015295      0x3ad C:\Users\Hunter\DOCUME~1\Work\Venom\DEVELO~1\CIRCUI~2\BLINK0~3\BLINK0~1\ARDUIN~1\Debug\libArduinoCore.a(cortex_handlers.o)
 .debug_macro   0x00015642      0x15a C:\Users\Hunter\DOCUME~1\Work\Venom\DEVELO~1\CIRCUI~2\BLINK0~3\BLINK0~1\ARDUIN~1\Debug\libArduinoCore.a(cortex_handlers.o)
 .debug_macro   0x0001579c       0x9c C:\Users\Hunter\DOCUME~1\Work\Venom\DEVELO~1\CIRCUI~2\BLINK0~3\BLINK0~1\ARDUIN~1\Debug\libArduinoCore.a(cortex_handlers.o)
 .debug_macro   0x00015838       0x16 C:\Users\Hunter\DOCUME~1\Work\Venom\DEVELO~1\CIRCUI~2\BLINK0~3\BLINK0~1\ARDUIN~1\Debug\libArduinoCore.a(cortex_handlers.o)
 .debug_macro   0x0001584e       0x97 C:\Users\Hunter\DOCUME~1\Work\Venom\DEVELO~1\CIRCUI~2\BLINK0~3\BLINK0~1\ARDUIN~1\Debug\libArduinoCore.a(cortex_handlers.o)
 .debug_macro   0x000158e5      0x32a C:\Users\Hunter\DOCUME~1\Work\Venom\DEVELO~1\CIRCUI~2\BLINK0~3\BLINK0~1\ARDUIN~1\Debug\libArduinoCore.a(cortex_handlers.o)
 .debug_macro   0x00015c0f       0xfd C:\Users\Hunter\DOCUME~1\Work\Venom\DEVELO~1\CIRCUI~2\BLINK0~3\BLINK0~1\ARDUIN~1\Debug\libArduinoCore.a(cortex_handlers.o)
 .debug_macro   0x00015d0c       0x43 C:\Users\Hunter\DOCUME~1\Work\Venom\DEVELO~1\CIRCUI~2\BLINK0~3\BLINK0~1\ARDUIN~1\Debug\libArduinoCore.a(cortex_handlers.o)
 .debug_macro   0x00015d4f      0x4db C:\Users\Hunter\DOCUME~1\Work\Venom\DEVELO~1\CIRCUI~2\BLINK0~3\BLINK0~1\ARDUIN~1\Debug\libArduinoCore.a(delay.o)
 .debug_macro   0x0001622a       0x22 C:\Users\Hunter\DOCUME~1\Work\Venom\DEVELO~1\CIRCUI~2\BLINK0~3\BLINK0~1\ARDUIN~1\Debug\libArduinoCore.a(delay.o)
 .debug_macro   0x0001624c      0x10e C:\Users\Hunter\DOCUME~1\Work\Venom\DEVELO~1\CIRCUI~2\BLINK0~3\BLINK0~1\ARDUIN~1\Debug\libArduinoCore.a(delay.o)
 .debug_macro   0x0001635a       0x8d C:\Users\Hunter\DOCUME~1\Work\Venom\DEVELO~1\CIRCUI~2\BLINK0~3\BLINK0~1\ARDUIN~1\Debug\libArduinoCore.a(delay.o)
 .debug_macro   0x000163e7       0x35 C:\Users\Hunter\DOCUME~1\Work\Venom\DEVELO~1\CIRCUI~2\BLINK0~3\BLINK0~1\ARDUIN~1\Debug\libArduinoCore.a(delay.o)
 .debug_macro   0x0001641c      0x1e1 C:\Users\Hunter\DOCUME~1\Work\Venom\DEVELO~1\CIRCUI~2\BLINK0~3\BLINK0~1\ARDUIN~1\Debug\libArduinoCore.a(delay.o)
 .debug_macro   0x000165fd       0x11 C:\Users\Hunter\DOCUME~1\Work\Venom\DEVELO~1\CIRCUI~2\BLINK0~3\BLINK0~1\ARDUIN~1\Debug\libArduinoCore.a(hooks.o)
 .debug_macro   0x0001660e      0x6de C:\Users\Hunter\DOCUME~1\Work\Venom\DEVELO~1\CIRCUI~2\BLINK0~3\BLINK0~1\ARDUIN~1\Debug\libArduinoCore.a(main.o)
 .debug_macro   0x00016cec      0x6e9 C:\Users\Hunter\DOCUME~1\Work\Venom\DEVELO~1\CIRCUI~2\BLINK0~3\BLINK0~1\ARDUIN~1\Debug\libArduinoCore.a(Reset.o)
 .debug_macro   0x000173d5      0x486 C:\Users\Hunter\DOCUME~1\Work\Venom\DEVELO~1\CIRCUI~2\BLINK0~3\BLINK0~1\ARDUIN~1\Debug\libArduinoCore.a(startup.o)
 .debug_macro   0x0001785b      0x73a C:\Users\Hunter\DOCUME~1\Work\Venom\DEVELO~1\CIRCUI~2\BLINK0~3\BLINK0~1\ARDUIN~1\Debug\libArduinoCore.a(USBCore.o)
 .debug_macro   0x00017f95       0x2b C:\Users\Hunter\DOCUME~1\Work\Venom\DEVELO~1\CIRCUI~2\BLINK0~3\BLINK0~1\ARDUIN~1\Debug\libArduinoCore.a(USBCore.o)
 .debug_macro   0x00017fc0       0xee C:\Users\Hunter\DOCUME~1\Work\Venom\DEVELO~1\CIRCUI~2\BLINK0~3\BLINK0~1\ARDUIN~1\Debug\libArduinoCore.a(USBCore.o)
 .debug_macro   0x000180ae      0x4cd C:\Users\Hunter\DOCUME~1\Work\Venom\DEVELO~1\CIRCUI~2\BLINK0~3\BLINK0~1\ARDUIN~1\Debug\libArduinoCore.a(wiring.o)
 .debug_macro   0x0001857b      0x330 C:\Users\Hunter\DOCUME~1\Work\Venom\DEVELO~1\CIRCUI~2\BLINK0~3\BLINK0~1\ARDUIN~1\Debug\libArduinoCore.a(wiring.o)
 .debug_macro   0x000188ab      0x160 C:\Users\Hunter\DOCUME~1\Work\Venom\DEVELO~1\CIRCUI~2\BLINK0~3\BLINK0~1\ARDUIN~1\Debug\libArduinoCore.a(wiring.o)
 .debug_macro   0x00018a0b      0x591 C:\Users\Hunter\DOCUME~1\Work\Venom\DEVELO~1\CIRCUI~2\BLINK0~3\BLINK0~1\ARDUIN~1\Debug\libArduinoCore.a(wiring_analog.o)
 .debug_macro   0x00018f9c       0x4c C:\Users\Hunter\DOCUME~1\Work\Venom\DEVELO~1\CIRCUI~2\BLINK0~3\BLINK0~1\ARDUIN~1\Debug\libArduinoCore.a(wiring_analog.o)
 .debug_macro   0x00018fe8      0x4cd C:\Users\Hunter\DOCUME~1\Work\Venom\DEVELO~1\CIRCUI~2\BLINK0~3\BLINK0~1\ARDUIN~1\Debug\libArduinoCore.a(wiring_digital.o)
 .debug_macro   0x000194b5      0x591 C:\Users\Hunter\DOCUME~1\Work\Venom\DEVELO~1\CIRCUI~2\BLINK0~3\BLINK0~1\ARDUIN~1\Debug\libArduinoCore.a(wiring_private.o)
 .debug_macro   0x00019a46      0x594 C:\Users\Hunter\DOCUME~1\Work\Venom\DEVELO~1\CIRCUI~2\BLINK0~3\BLINK0~1\ARDUIN~1\Debug\libArduinoCore.a(variant.o)
 .debug_macro   0x00019fda      0x137 C:\Users\Hunter\DOCUME~1\Work\Venom\DEVELO~1\CIRCUI~2\BLINK0~3\BLINK0~1\ARDUIN~1\Debug\libArduinoCore.a(variant.o)
 .debug_macro   0x0001a111       0x82 C:\Users\Hunter\DOCUME~1\Work\Venom\DEVELO~1\CIRCUI~2\BLINK0~3\BLINK0~1\ARDUIN~1\Debug\libArduinoCore.a(variant.o)
 .debug_macro   0x0001a193       0xa2 C:\Users\Hunter\DOCUME~1\Work\Venom\DEVELO~1\CIRCUI~2\BLINK0~3\BLINK0~1\ARDUIN~1\Debug\libArduinoCore.a(variant.o)
 .debug_macro   0x0001a235       0x97 C:\Users\Hunter\DOCUME~1\Work\Venom\DEVELO~1\CIRCUI~2\BLINK0~3\BLINK0~1\ARDUIN~1\Debug\libArduinoCore.a(variant.o)
 .debug_macro   0x0001a2cc      0x34d C:\Users\Hunter\DOCUME~1\Work\Venom\DEVELO~1\CIRCUI~2\BLINK0~3\BLINK0~1\ARDUIN~1\Debug\libArduinoCore.a(variant.o)
 .debug_macro   0x0001a619      0x196 C:\Users\Hunter\DOCUME~1\Work\Venom\DEVELO~1\CIRCUI~2\BLINK0~3\BLINK0~1\ARDUIN~1\Debug\libArduinoCore.a(variant.o)
 .debug_macro   0x0001a7af      0x132 C:\Users\Hunter\DOCUME~1\Work\Venom\DEVELO~1\CIRCUI~2\BLINK0~3\BLINK0~1\ARDUIN~1\Debug\libArduinoCore.a(new.o)
 .debug_macro   0x0001a8e1       0x52 C:\Users\Hunter\DOCUME~1\Work\Venom\DEVELO~1\CIRCUI~2\BLINK0~3\BLINK0~1\ARDUIN~1\Debug\libArduinoCore.a(new.o)
 .debug_macro   0x0001a933       0x8d C:\Users\Hunter\DOCUME~1\Work\Venom\DEVELO~1\CIRCUI~2\BLINK0~3\BLINK0~1\ARDUIN~1\Debug\libArduinoCore.a(new.o)
 .debug_macro   0x0001a9c0       0x57 C:\Users\Hunter\DOCUME~1\Work\Venom\DEVELO~1\CIRCUI~2\BLINK0~3\BLINK0~1\ARDUIN~1\Debug\libArduinoCore.a(new.o)
 .debug_macro   0x0001aa17      0x6de C:\Users\Hunter\DOCUME~1\Work\Venom\DEVELO~1\CIRCUI~2\BLINK0~3\BLINK0~1\ARDUIN~1\Debug\libArduinoCore.a(SERCOM.o)
 .debug_macro   0x0001b0f5      0x6f8 C:\Users\Hunter\DOCUME~1\Work\Venom\DEVELO~1\CIRCUI~2\BLINK0~3\BLINK0~1\ARDUIN~1\Debug\libArduinoCore.a(Uart.o)
 .debug_macro   0x0001b7ed      0x74f C:\Users\Hunter\DOCUME~1\Work\Venom\DEVELO~1\CIRCUI~2\BLINK0~3\BLINK0~1\ARDUIN~1\Debug\libArduinoCore.a(CDC.o)
 .debug_macro   0x0001bf3c      0x2e1 C:\Users\Hunter\DOCUME~1\Work\Venom\DEVELO~1\CIRCUI~2\BLINK0~3\BLINK0~1\ARDUIN~1\Debug\libArduinoCore.a(PluggableUSB.o)
 .debug_macro   0x0001c21d      0x6da C:\Users\Hunter\DOCUME~1\Work\Venom\DEVELO~1\CIRCUI~2\BLINK0~3\BLINK0~1\ARDUIN~1\Debug\libArduinoCore.a(Print.o)
 .debug_macro   0x0001c8f7      0x17b C:\Users\Hunter\DOCUME~1\Work\Venom\DEVELO~1\CIRCUI~2\BLINK0~3\BLINK0~1\ARDUIN~1\Debug\libArduinoCore.a(Print.o)

.debug_line     0x00000000     0xdd48
 .debug_line    0x00000000      0xd2a Sketch.o
 .debug_line    0x00000d2a      0x89c C:\Users\Hunter\DOCUME~1\Work\Venom\DEVELO~1\CIRCUI~2\BLINK0~3\BLINK0~1\ARDUIN~1\Debug\libArduinoCore.a(cortex_handlers.o)
 .debug_line    0x000015c6      0x9a2 C:\Users\Hunter\DOCUME~1\Work\Venom\DEVELO~1\CIRCUI~2\BLINK0~3\BLINK0~1\ARDUIN~1\Debug\libArduinoCore.a(delay.o)
 .debug_line    0x00001f68       0x63 C:\Users\Hunter\DOCUME~1\Work\Venom\DEVELO~1\CIRCUI~2\BLINK0~3\BLINK0~1\ARDUIN~1\Debug\libArduinoCore.a(hooks.o)
 .debug_line    0x00001fcb      0xcf5 C:\Users\Hunter\DOCUME~1\Work\Venom\DEVELO~1\CIRCUI~2\BLINK0~3\BLINK0~1\ARDUIN~1\Debug\libArduinoCore.a(main.o)
 .debug_line    0x00002cc0      0xd67 C:\Users\Hunter\DOCUME~1\Work\Venom\DEVELO~1\CIRCUI~2\BLINK0~3\BLINK0~1\ARDUIN~1\Debug\libArduinoCore.a(Reset.o)
 .debug_line    0x00003a27      0x8be C:\Users\Hunter\DOCUME~1\Work\Venom\DEVELO~1\CIRCUI~2\BLINK0~3\BLINK0~1\ARDUIN~1\Debug\libArduinoCore.a(startup.o)
 .debug_line    0x000042e5     0x1924 C:\Users\Hunter\DOCUME~1\Work\Venom\DEVELO~1\CIRCUI~2\BLINK0~3\BLINK0~1\ARDUIN~1\Debug\libArduinoCore.a(USBCore.o)
 .debug_line    0x00005c09      0x976 C:\Users\Hunter\DOCUME~1\Work\Venom\DEVELO~1\CIRCUI~2\BLINK0~3\BLINK0~1\ARDUIN~1\Debug\libArduinoCore.a(wiring.o)
 .debug_line    0x0000657f      0xb83 C:\Users\Hunter\DOCUME~1\Work\Venom\DEVELO~1\CIRCUI~2\BLINK0~3\BLINK0~1\ARDUIN~1\Debug\libArduinoCore.a(wiring_analog.o)
 .debug_line    0x00007102      0x967 C:\Users\Hunter\DOCUME~1\Work\Venom\DEVELO~1\CIRCUI~2\BLINK0~3\BLINK0~1\ARDUIN~1\Debug\libArduinoCore.a(wiring_digital.o)
 .debug_line    0x00007a69      0xa03 C:\Users\Hunter\DOCUME~1\Work\Venom\DEVELO~1\CIRCUI~2\BLINK0~3\BLINK0~1\ARDUIN~1\Debug\libArduinoCore.a(wiring_private.o)
 .debug_line    0x0000846c      0xa8d C:\Users\Hunter\DOCUME~1\Work\Venom\DEVELO~1\CIRCUI~2\BLINK0~3\BLINK0~1\ARDUIN~1\Debug\libArduinoCore.a(variant.o)
 .debug_line    0x00008ef9      0x3fb C:\Users\Hunter\DOCUME~1\Work\Venom\DEVELO~1\CIRCUI~2\BLINK0~3\BLINK0~1\ARDUIN~1\Debug\libArduinoCore.a(new.o)
 .debug_line    0x000092f4     0x12d3 C:\Users\Hunter\DOCUME~1\Work\Venom\DEVELO~1\CIRCUI~2\BLINK0~3\BLINK0~1\ARDUIN~1\Debug\libArduinoCore.a(SERCOM.o)
 .debug_line    0x0000a5c7      0xfae C:\Users\Hunter\DOCUME~1\Work\Venom\DEVELO~1\CIRCUI~2\BLINK0~3\BLINK0~1\ARDUIN~1\Debug\libArduinoCore.a(Uart.o)
 .debug_line    0x0000b575     0x10c4 C:\Users\Hunter\DOCUME~1\Work\Venom\DEVELO~1\CIRCUI~2\BLINK0~3\BLINK0~1\ARDUIN~1\Debug\libArduinoCore.a(CDC.o)
 .debug_line    0x0000c639      0x706 C:\Users\Hunter\DOCUME~1\Work\Venom\DEVELO~1\CIRCUI~2\BLINK0~3\BLINK0~1\ARDUIN~1\Debug\libArduinoCore.a(PluggableUSB.o)
 .debug_line    0x0000cd3f     0x1009 C:\Users\Hunter\DOCUME~1\Work\Venom\DEVELO~1\CIRCUI~2\BLINK0~3\BLINK0~1\ARDUIN~1\Debug\libArduinoCore.a(Print.o)

.debug_str      0x00000000    0x83849
 .debug_str     0x00000000    0x7c40d Sketch.o
                              0x7d154 (size before relaxing)
 .debug_str     0x0007c40d      0x703 C:\Users\Hunter\DOCUME~1\Work\Venom\DEVELO~1\CIRCUI~2\BLINK0~3\BLINK0~1\ARDUIN~1\Debug\libArduinoCore.a(cortex_handlers.o)
                              0x72650 (size before relaxing)
 .debug_str     0x0007cb10       0xe3 C:\Users\Hunter\DOCUME~1\Work\Venom\DEVELO~1\CIRCUI~2\BLINK0~3\BLINK0~1\ARDUIN~1\Debug\libArduinoCore.a(delay.o)
                              0x77197 (size before relaxing)
 .debug_str     0x0007cbf3       0x2b C:\Users\Hunter\DOCUME~1\Work\Venom\DEVELO~1\CIRCUI~2\BLINK0~3\BLINK0~1\ARDUIN~1\Debug\libArduinoCore.a(hooks.o)
                               0x2653 (size before relaxing)
 .debug_str     0x0007cc1e       0x75 C:\Users\Hunter\DOCUME~1\Work\Venom\DEVELO~1\CIRCUI~2\BLINK0~3\BLINK0~1\ARDUIN~1\Debug\libArduinoCore.a(main.o)
                              0x7d1af (size before relaxing)
 .debug_str     0x0007cc93      0x1fb C:\Users\Hunter\DOCUME~1\Work\Venom\DEVELO~1\CIRCUI~2\BLINK0~3\BLINK0~1\ARDUIN~1\Debug\libArduinoCore.a(Reset.o)
                              0x7d451 (size before relaxing)
 .debug_str     0x0007ce8e      0x8d1 C:\Users\Hunter\DOCUME~1\Work\Venom\DEVELO~1\CIRCUI~2\BLINK0~3\BLINK0~1\ARDUIN~1\Debug\libArduinoCore.a(startup.o)
                              0x72e67 (size before relaxing)
 .debug_str     0x0007d75f     0x33a0 C:\Users\Hunter\DOCUME~1\Work\Venom\DEVELO~1\CIRCUI~2\BLINK0~3\BLINK0~1\ARDUIN~1\Debug\libArduinoCore.a(USBCore.o)
                              0x80f15 (size before relaxing)
 .debug_str     0x00080aff      0x158 C:\Users\Hunter\DOCUME~1\Work\Venom\DEVELO~1\CIRCUI~2\BLINK0~3\BLINK0~1\ARDUIN~1\Debug\libArduinoCore.a(wiring.o)
                              0x77a62 (size before relaxing)
 .debug_str     0x00080c57      0x6c2 C:\Users\Hunter\DOCUME~1\Work\Venom\DEVELO~1\CIRCUI~2\BLINK0~3\BLINK0~1\ARDUIN~1\Debug\libArduinoCore.a(wiring_analog.o)
                              0x7912d (size before relaxing)
 .debug_str     0x00081319       0x43 C:\Users\Hunter\DOCUME~1\Work\Venom\DEVELO~1\CIRCUI~2\BLINK0~3\BLINK0~1\ARDUIN~1\Debug\libArduinoCore.a(wiring_digital.o)
                              0x77289 (size before relaxing)
 .debug_str     0x0008135c       0x2f C:\Users\Hunter\DOCUME~1\Work\Venom\DEVELO~1\CIRCUI~2\BLINK0~3\BLINK0~1\ARDUIN~1\Debug\libArduinoCore.a(wiring_private.o)
                              0x784fb (size before relaxing)
 .debug_str     0x0008138b      0x386 C:\Users\Hunter\DOCUME~1\Work\Venom\DEVELO~1\CIRCUI~2\BLINK0~3\BLINK0~1\ARDUIN~1\Debug\libArduinoCore.a(variant.o)
                              0x78c73 (size before relaxing)
 .debug_str     0x00081711       0x44 C:\Users\Hunter\DOCUME~1\Work\Venom\DEVELO~1\CIRCUI~2\BLINK0~3\BLINK0~1\ARDUIN~1\Debug\libArduinoCore.a(new.o)
                               0x74be (size before relaxing)
 .debug_str     0x00081755      0x1a0 C:\Users\Hunter\DOCUME~1\Work\Venom\DEVELO~1\CIRCUI~2\BLINK0~3\BLINK0~1\ARDUIN~1\Debug\libArduinoCore.a(SERCOM.o)
                              0x7d633 (size before relaxing)
 .debug_str     0x000818f5     0x12c9 C:\Users\Hunter\DOCUME~1\Work\Venom\DEVELO~1\CIRCUI~2\BLINK0~3\BLINK0~1\ARDUIN~1\Debug\libArduinoCore.a(Uart.o)
                              0x7ec7e (size before relaxing)
 .debug_str     0x00082bbe      0x896 C:\Users\Hunter\DOCUME~1\Work\Venom\DEVELO~1\CIRCUI~2\BLINK0~3\BLINK0~1\ARDUIN~1\Debug\libArduinoCore.a(CDC.o)
                              0x811fd (size before relaxing)
 .debug_str     0x00083454       0x48 C:\Users\Hunter\DOCUME~1\Work\Venom\DEVELO~1\CIRCUI~2\BLINK0~3\BLINK0~1\ARDUIN~1\Debug\libArduinoCore.a(PluggableUSB.o)
                               0xc3ed (size before relaxing)
 .debug_str     0x0008349c      0x3ad C:\Users\Hunter\DOCUME~1\Work\Venom\DEVELO~1\CIRCUI~2\BLINK0~3\BLINK0~1\ARDUIN~1\Debug\libArduinoCore.a(Print.o)
                              0x7e0e4 (size before relaxing)

.debug_frame    0x00000000     0x17cc
 .debug_frame   0x00000000       0x40 Sketch.o
 .debug_frame   0x00000040       0x7c C:\Users\Hunter\DOCUME~1\Work\Venom\DEVELO~1\CIRCUI~2\BLINK0~3\BLINK0~1\ARDUIN~1\Debug\libArduinoCore.a(cortex_handlers.o)
 .debug_frame   0x000000bc       0x88 C:\Users\Hunter\DOCUME~1\Work\Venom\DEVELO~1\CIRCUI~2\BLINK0~3\BLINK0~1\ARDUIN~1\Debug\libArduinoCore.a(delay.o)
 .debug_frame   0x00000144       0x40 C:\Users\Hunter\DOCUME~1\Work\Venom\DEVELO~1\CIRCUI~2\BLINK0~3\BLINK0~1\ARDUIN~1\Debug\libArduinoCore.a(hooks.o)
 .debug_frame   0x00000184       0x38 C:\Users\Hunter\DOCUME~1\Work\Venom\DEVELO~1\CIRCUI~2\BLINK0~3\BLINK0~1\ARDUIN~1\Debug\libArduinoCore.a(main.o)
 .debug_frame   0x000001bc       0x60 C:\Users\Hunter\DOCUME~1\Work\Venom\DEVELO~1\CIRCUI~2\BLINK0~3\BLINK0~1\ARDUIN~1\Debug\libArduinoCore.a(Reset.o)
 .debug_frame   0x0000021c       0x2c C:\Users\Hunter\DOCUME~1\Work\Venom\DEVELO~1\CIRCUI~2\BLINK0~3\BLINK0~1\ARDUIN~1\Debug\libArduinoCore.a(startup.o)
 .debug_frame   0x00000248      0x470 C:\Users\Hunter\DOCUME~1\Work\Venom\DEVELO~1\CIRCUI~2\BLINK0~3\BLINK0~1\ARDUIN~1\Debug\libArduinoCore.a(USBCore.o)
 .debug_frame   0x000006b8       0x28 C:\Users\Hunter\DOCUME~1\Work\Venom\DEVELO~1\CIRCUI~2\BLINK0~3\BLINK0~1\ARDUIN~1\Debug\libArduinoCore.a(wiring.o)
 .debug_frame   0x000006e0       0x90 C:\Users\Hunter\DOCUME~1\Work\Venom\DEVELO~1\CIRCUI~2\BLINK0~3\BLINK0~1\ARDUIN~1\Debug\libArduinoCore.a(wiring_analog.o)
 .debug_frame   0x00000770       0x64 C:\Users\Hunter\DOCUME~1\Work\Venom\DEVELO~1\CIRCUI~2\BLINK0~3\BLINK0~1\ARDUIN~1\Debug\libArduinoCore.a(wiring_digital.o)
 .debug_frame   0x000007d4       0x30 C:\Users\Hunter\DOCUME~1\Work\Venom\DEVELO~1\CIRCUI~2\BLINK0~3\BLINK0~1\ARDUIN~1\Debug\libArduinoCore.a(wiring_private.o)
 .debug_frame   0x00000804       0x54 C:\Users\Hunter\DOCUME~1\Work\Venom\DEVELO~1\CIRCUI~2\BLINK0~3\BLINK0~1\ARDUIN~1\Debug\libArduinoCore.a(variant.o)
 .debug_frame   0x00000858       0x70 C:\Users\Hunter\DOCUME~1\Work\Venom\DEVELO~1\CIRCUI~2\BLINK0~3\BLINK0~1\ARDUIN~1\Debug\libArduinoCore.a(new.o)
 .debug_frame   0x000008c8      0x46c C:\Users\Hunter\DOCUME~1\Work\Venom\DEVELO~1\CIRCUI~2\BLINK0~3\BLINK0~1\ARDUIN~1\Debug\libArduinoCore.a(SERCOM.o)
 .debug_frame   0x00000d34      0x1c4 C:\Users\Hunter\DOCUME~1\Work\Venom\DEVELO~1\CIRCUI~2\BLINK0~3\BLINK0~1\ARDUIN~1\Debug\libArduinoCore.a(Uart.o)
 .debug_frame   0x00000ef8      0x2f0 C:\Users\Hunter\DOCUME~1\Work\Venom\DEVELO~1\CIRCUI~2\BLINK0~3\BLINK0~1\ARDUIN~1\Debug\libArduinoCore.a(CDC.o)
 .debug_frame   0x000011e8       0xdc C:\Users\Hunter\DOCUME~1\Work\Venom\DEVELO~1\CIRCUI~2\BLINK0~3\BLINK0~1\ARDUIN~1\Debug\libArduinoCore.a(PluggableUSB.o)
 .debug_frame   0x000012c4      0x318 C:\Users\Hunter\DOCUME~1\Work\Venom\DEVELO~1\CIRCUI~2\BLINK0~3\BLINK0~1\ARDUIN~1\Debug\libArduinoCore.a(Print.o)
 .debug_frame   0x000015dc       0x20 c:/program files (x86)/atmel/studio/7.0/toolchain/arm/arm-gnu-toolchain/bin/../lib/gcc/arm-none-eabi/6.3.1/thumb/v6-m\libgcc.a(_udivsi3.o)
 .debug_frame   0x000015fc       0x2c c:/program files (x86)/atmel/studio/7.0/toolchain/arm/arm-gnu-toolchain/bin/../lib/gcc/arm-none-eabi/6.3.1/../../../../arm-none-eabi/lib/thumb/v6-m\libc_nano.a(lib_a-init.o)
 .debug_frame   0x00001628       0x40 c:/program files (x86)/atmel/studio/7.0/toolchain/arm/arm-gnu-toolchain/bin/../lib/gcc/arm-none-eabi/6.3.1/../../../../arm-none-eabi/lib/thumb/v6-m\libc_nano.a(lib_a-malloc.o)
 .debug_frame   0x00001668       0x28 c:/program files (x86)/atmel/studio/7.0/toolchain/arm/arm-gnu-toolchain/bin/../lib/gcc/arm-none-eabi/6.3.1/../../../../arm-none-eabi/lib/thumb/v6-m\libc_nano.a(lib_a-memcpy-stub.o)
 .debug_frame   0x00001690       0x20 c:/program files (x86)/atmel/studio/7.0/toolchain/arm/arm-gnu-toolchain/bin/../lib/gcc/arm-none-eabi/6.3.1/../../../../arm-none-eabi/lib/thumb/v6-m\libc_nano.a(lib_a-memset.o)
 .debug_frame   0x000016b0       0x2c c:/program files (x86)/atmel/studio/7.0/toolchain/arm/arm-gnu-toolchain/bin/../lib/gcc/arm-none-eabi/6.3.1/../../../../arm-none-eabi/lib/thumb/v6-m\libc_nano.a(lib_a-nano-freer.o)
 .debug_frame   0x000016dc       0x2c c:/program files (x86)/atmel/studio/7.0/toolchain/arm/arm-gnu-toolchain/bin/../lib/gcc/arm-none-eabi/6.3.1/../../../../arm-none-eabi/lib/thumb/v6-m\libc_nano.a(lib_a-nano-mallocr.o)
 .debug_frame   0x00001708       0x2c c:/program files (x86)/atmel/studio/7.0/toolchain/arm/arm-gnu-toolchain/bin/../lib/gcc/arm-none-eabi/6.3.1/../../../../arm-none-eabi/lib/thumb/v6-m\libc_nano.a(lib_a-sbrkr.o)
 .debug_frame   0x00001734       0x30 c:/program files (x86)/atmel/studio/7.0/toolchain/arm/arm-gnu-toolchain/bin/../lib/gcc/arm-none-eabi/6.3.1/../../../../arm-none-eabi/lib/thumb/v6-m\libc_nano.a(lib_a-mlock.o)
 .debug_frame   0x00001764       0x48 c:/program files (x86)/atmel/studio/7.0/toolchain/arm/arm-gnu-toolchain/bin/../lib/gcc/arm-none-eabi/6.3.1/../../../../arm-none-eabi/lib/thumb/v6-m\libc_nano.a(lib_a-reent.o)
 .debug_frame   0x000017ac       0x20 c:/program files (x86)/atmel/studio/7.0/toolchain/arm/arm-gnu-toolchain/bin/../lib/gcc/arm-none-eabi/6.3.1/../../../../arm-none-eabi/lib/thumb/v6-m\libnosys.a(sbrk.o)

Cross Reference Table

Symbol                                            File
AC_Handler                                        C:\Users\Hunter\DOCUME~1\Work\Venom\DEVELO~1\CIRCUI~2\BLINK0~3\BLINK0~1\ARDUIN~1\Debug\libArduinoCore.a(cortex_handlers.o)
ADC_Handler                                       C:\Users\Hunter\DOCUME~1\Work\Venom\DEVELO~1\CIRCUI~2\BLINK0~3\BLINK0~1\ARDUIN~1\Debug\libArduinoCore.a(cortex_handlers.o)
DAC_Handler                                       C:\Users\Hunter\DOCUME~1\Work\Venom\DEVELO~1\CIRCUI~2\BLINK0~3\BLINK0~1\ARDUIN~1\Debug\libArduinoCore.a(cortex_handlers.o)
DMAC_Handler                                      C:\Users\Hunter\DOCUME~1\Work\Venom\DEVELO~1\CIRCUI~2\BLINK0~3\BLINK0~1\ARDUIN~1\Debug\libArduinoCore.a(cortex_handlers.o)
DoubleBufferedEPOutHandler::_available() const    C:\Users\Hunter\DOCUME~1\Work\Venom\DEVELO~1\CIRCUI~2\BLINK0~3\BLINK0~1\ARDUIN~1\Debug\libArduinoCore.a(USBCore.o)
DoubleBufferedEPOutHandler::_recv()               C:\Users\Hunter\DOCUME~1\Work\Venom\DEVELO~1\CIRCUI~2\BLINK0~3\BLINK0~1\ARDUIN~1\Debug\libArduinoCore.a(USBCore.o)
DoubleBufferedEPOutHandler::available()           C:\Users\Hunter\DOCUME~1\Work\Venom\DEVELO~1\CIRCUI~2\BLINK0~3\BLINK0~1\ARDUIN~1\Debug\libArduinoCore.a(USBCore.o)
DoubleBufferedEPOutHandler::handleEndpoint()      C:\Users\Hunter\DOCUME~1\Work\Venom\DEVELO~1\CIRCUI~2\BLINK0~3\BLINK0~1\ARDUIN~1\Debug\libArduinoCore.a(USBCore.o)
DoubleBufferedEPOutHandler::peek()                C:\Users\Hunter\DOCUME~1\Work\Venom\DEVELO~1\CIRCUI~2\BLINK0~3\BLINK0~1\ARDUIN~1\Debug\libArduinoCore.a(USBCore.o)
DoubleBufferedEPOutHandler::recv(void*, unsigned long) C:\Users\Hunter\DOCUME~1\Work\Venom\DEVELO~1\CIRCUI~2\BLINK0~3\BLINK0~1\ARDUIN~1\Debug\libArduinoCore.a(USBCore.o)
DoubleBufferedEPOutHandler::release()             C:\Users\Hunter\DOCUME~1\Work\Venom\DEVELO~1\CIRCUI~2\BLINK0~3\BLINK0~1\ARDUIN~1\Debug\libArduinoCore.a(USBCore.o)
DoubleBufferedEPOutHandler::~DoubleBufferedEPOutHandler() C:\Users\Hunter\DOCUME~1\Work\Venom\DEVELO~1\CIRCUI~2\BLINK0~3\BLINK0~1\ARDUIN~1\Debug\libArduinoCore.a(USBCore.o)
DoubleBufferedEPOutHandler::~DoubleBufferedEPOutHandler() C:\Users\Hunter\DOCUME~1\Work\Venom\DEVELO~1\CIRCUI~2\BLINK0~3\BLINK0~1\ARDUIN~1\Debug\libArduinoCore.a(USBCore.o)
DoubleBufferedEPOutHandler::~DoubleBufferedEPOutHandler() C:\Users\Hunter\DOCUME~1\Work\Venom\DEVELO~1\CIRCUI~2\BLINK0~3\BLINK0~1\ARDUIN~1\Debug\libArduinoCore.a(USBCore.o)
Dummy_Handler                                     C:\Users\Hunter\DOCUME~1\Work\Venom\DEVELO~1\CIRCUI~2\BLINK0~3\BLINK0~1\ARDUIN~1\Debug\libArduinoCore.a(cortex_handlers.o)
EIC_Handler                                       C:\Users\Hunter\DOCUME~1\Work\Venom\DEVELO~1\CIRCUI~2\BLINK0~3\BLINK0~1\ARDUIN~1\Debug\libArduinoCore.a(cortex_handlers.o)
EVSYS_Handler                                     C:\Users\Hunter\DOCUME~1\Work\Venom\DEVELO~1\CIRCUI~2\BLINK0~3\BLINK0~1\ARDUIN~1\Debug\libArduinoCore.a(cortex_handlers.o)
EndPoints                                         C:\Users\Hunter\DOCUME~1\Work\Venom\DEVELO~1\CIRCUI~2\BLINK0~3\BLINK0~1\ARDUIN~1\Debug\libArduinoCore.a(USBCore.o)
                                                  C:\Users\Hunter\DOCUME~1\Work\Venom\DEVELO~1\CIRCUI~2\BLINK0~3\BLINK0~1\ARDUIN~1\Debug\libArduinoCore.a(PluggableUSB.o)
HardFault_Handler                                 C:\Users\Hunter\DOCUME~1\Work\Venom\DEVELO~1\CIRCUI~2\BLINK0~3\BLINK0~1\ARDUIN~1\Debug\libArduinoCore.a(cortex_handlers.o)
I2S_Handler                                       C:\Users\Hunter\DOCUME~1\Work\Venom\DEVELO~1\CIRCUI~2\BLINK0~3\BLINK0~1\ARDUIN~1\Debug\libArduinoCore.a(cortex_handlers.o)
NMI_Handler                                       C:\Users\Hunter\DOCUME~1\Work\Venom\DEVELO~1\CIRCUI~2\BLINK0~3\BLINK0~1\ARDUIN~1\Debug\libArduinoCore.a(cortex_handlers.o)
NVMCTRL_Handler                                   C:\Users\Hunter\DOCUME~1\Work\Venom\DEVELO~1\CIRCUI~2\BLINK0~3\BLINK0~1\ARDUIN~1\Debug\libArduinoCore.a(cortex_handlers.o)
PINCOUNT_fn                                       C:\Users\Hunter\DOCUME~1\Work\Venom\DEVELO~1\CIRCUI~2\BLINK0~3\BLINK0~1\ARDUIN~1\Debug\libArduinoCore.a(variant.o)
PM_Handler                                        C:\Users\Hunter\DOCUME~1\Work\Venom\DEVELO~1\CIRCUI~2\BLINK0~3\BLINK0~1\ARDUIN~1\Debug\libArduinoCore.a(cortex_handlers.o)
PTC_Handler                                       C:\Users\Hunter\DOCUME~1\Work\Venom\DEVELO~1\CIRCUI~2\BLINK0~3\BLINK0~1\ARDUIN~1\Debug\libArduinoCore.a(cortex_handlers.o)
PendSV_Handler                                    C:\Users\Hunter\DOCUME~1\Work\Venom\DEVELO~1\CIRCUI~2\BLINK0~3\BLINK0~1\ARDUIN~1\Debug\libArduinoCore.a(cortex_handlers.o)
PluggableUSB()                                    C:\Users\Hunter\DOCUME~1\Work\Venom\DEVELO~1\CIRCUI~2\BLINK0~3\BLINK0~1\ARDUIN~1\Debug\libArduinoCore.a(PluggableUSB.o)
                                                  C:\Users\Hunter\DOCUME~1\Work\Venom\DEVELO~1\CIRCUI~2\BLINK0~3\BLINK0~1\ARDUIN~1\Debug\libArduinoCore.a(CDC.o)
                                                  C:\Users\Hunter\DOCUME~1\Work\Venom\DEVELO~1\CIRCUI~2\BLINK0~3\BLINK0~1\ARDUIN~1\Debug\libArduinoCore.a(USBCore.o)
PluggableUSB_::PluggableUSB_()                    C:\Users\Hunter\DOCUME~1\Work\Venom\DEVELO~1\CIRCUI~2\BLINK0~3\BLINK0~1\ARDUIN~1\Debug\libArduinoCore.a(PluggableUSB.o)
PluggableUSB_::PluggableUSB_()                    C:\Users\Hunter\DOCUME~1\Work\Venom\DEVELO~1\CIRCUI~2\BLINK0~3\BLINK0~1\ARDUIN~1\Debug\libArduinoCore.a(PluggableUSB.o)
PluggableUSB_::getDescriptor(USBSetup&)           C:\Users\Hunter\DOCUME~1\Work\Venom\DEVELO~1\CIRCUI~2\BLINK0~3\BLINK0~1\ARDUIN~1\Debug\libArduinoCore.a(PluggableUSB.o)
                                                  C:\Users\Hunter\DOCUME~1\Work\Venom\DEVELO~1\CIRCUI~2\BLINK0~3\BLINK0~1\ARDUIN~1\Debug\libArduinoCore.a(USBCore.o)
PluggableUSB_::getInterface(unsigned char*)       C:\Users\Hunter\DOCUME~1\Work\Venom\DEVELO~1\CIRCUI~2\BLINK0~3\BLINK0~1\ARDUIN~1\Debug\libArduinoCore.a(PluggableUSB.o)
                                                  C:\Users\Hunter\DOCUME~1\Work\Venom\DEVELO~1\CIRCUI~2\BLINK0~3\BLINK0~1\ARDUIN~1\Debug\libArduinoCore.a(USBCore.o)
PluggableUSB_::getShortName(char*)                C:\Users\Hunter\DOCUME~1\Work\Venom\DEVELO~1\CIRCUI~2\BLINK0~3\BLINK0~1\ARDUIN~1\Debug\libArduinoCore.a(PluggableUSB.o)
                                                  C:\Users\Hunter\DOCUME~1\Work\Venom\DEVELO~1\CIRCUI~2\BLINK0~3\BLINK0~1\ARDUIN~1\Debug\libArduinoCore.a(USBCore.o)
PluggableUSB_::handleEndpoint(int)                C:\Users\Hunter\DOCUME~1\Work\Venom\DEVELO~1\CIRCUI~2\BLINK0~3\BLINK0~1\ARDUIN~1\Debug\libArduinoCore.a(PluggableUSB.o)
                                                  C:\Users\Hunter\DOCUME~1\Work\Venom\DEVELO~1\CIRCUI~2\BLINK0~3\BLINK0~1\ARDUIN~1\Debug\libArduinoCore.a(USBCore.o)
PluggableUSB_::plug(PluggableUSBModule*)          C:\Users\Hunter\DOCUME~1\Work\Venom\DEVELO~1\CIRCUI~2\BLINK0~3\BLINK0~1\ARDUIN~1\Debug\libArduinoCore.a(PluggableUSB.o)
                                                  C:\Users\Hunter\DOCUME~1\Work\Venom\DEVELO~1\CIRCUI~2\BLINK0~3\BLINK0~1\ARDUIN~1\Debug\libArduinoCore.a(CDC.o)
PluggableUSB_::setup(USBSetup&)                   C:\Users\Hunter\DOCUME~1\Work\Venom\DEVELO~1\CIRCUI~2\BLINK0~3\BLINK0~1\ARDUIN~1\Debug\libArduinoCore.a(PluggableUSB.o)
                                                  C:\Users\Hunter\DOCUME~1\Work\Venom\DEVELO~1\CIRCUI~2\BLINK0~3\BLINK0~1\ARDUIN~1\Debug\libArduinoCore.a(USBCore.o)
Print::availableForWrite()                        C:\Users\Hunter\DOCUME~1\Work\Venom\DEVELO~1\CIRCUI~2\BLINK0~3\BLINK0~1\ARDUIN~1\Debug\libArduinoCore.a(Print.o)
Print::flush()                                    C:\Users\Hunter\DOCUME~1\Work\Venom\DEVELO~1\CIRCUI~2\BLINK0~3\BLINK0~1\ARDUIN~1\Debug\libArduinoCore.a(Print.o)
Print::print(Printable const&)                    C:\Users\Hunter\DOCUME~1\Work\Venom\DEVELO~1\CIRCUI~2\BLINK0~3\BLINK0~1\ARDUIN~1\Debug\libArduinoCore.a(Print.o)
Print::print(String const&)                       C:\Users\Hunter\DOCUME~1\Work\Venom\DEVELO~1\CIRCUI~2\BLINK0~3\BLINK0~1\ARDUIN~1\Debug\libArduinoCore.a(Print.o)
Print::print(__FlashStringHelper const*)          C:\Users\Hunter\DOCUME~1\Work\Venom\DEVELO~1\CIRCUI~2\BLINK0~3\BLINK0~1\ARDUIN~1\Debug\libArduinoCore.a(Print.o)
Print::print(char const*)                         C:\Users\Hunter\DOCUME~1\Work\Venom\DEVELO~1\CIRCUI~2\BLINK0~3\BLINK0~1\ARDUIN~1\Debug\libArduinoCore.a(Print.o)
Print::print(char)                                C:\Users\Hunter\DOCUME~1\Work\Venom\DEVELO~1\CIRCUI~2\BLINK0~3\BLINK0~1\ARDUIN~1\Debug\libArduinoCore.a(Print.o)
Print::print(double, int)                         C:\Users\Hunter\DOCUME~1\Work\Venom\DEVELO~1\CIRCUI~2\BLINK0~3\BLINK0~1\ARDUIN~1\Debug\libArduinoCore.a(Print.o)
Print::print(int, int)                            C:\Users\Hunter\DOCUME~1\Work\Venom\DEVELO~1\CIRCUI~2\BLINK0~3\BLINK0~1\ARDUIN~1\Debug\libArduinoCore.a(Print.o)
Print::print(long, int)                           C:\Users\Hunter\DOCUME~1\Work\Venom\DEVELO~1\CIRCUI~2\BLINK0~3\BLINK0~1\ARDUIN~1\Debug\libArduinoCore.a(Print.o)
Print::print(unsigned char, int)                  C:\Users\Hunter\DOCUME~1\Work\Venom\DEVELO~1\CIRCUI~2\BLINK0~3\BLINK0~1\ARDUIN~1\Debug\libArduinoCore.a(Print.o)
Print::print(unsigned int, int)                   C:\Users\Hunter\DOCUME~1\Work\Venom\DEVELO~1\CIRCUI~2\BLINK0~3\BLINK0~1\ARDUIN~1\Debug\libArduinoCore.a(Print.o)
Print::print(unsigned long, int)                  C:\Users\Hunter\DOCUME~1\Work\Venom\DEVELO~1\CIRCUI~2\BLINK0~3\BLINK0~1\ARDUIN~1\Debug\libArduinoCore.a(Print.o)
Print::printFloat(double, unsigned char)          C:\Users\Hunter\DOCUME~1\Work\Venom\DEVELO~1\CIRCUI~2\BLINK0~3\BLINK0~1\ARDUIN~1\Debug\libArduinoCore.a(Print.o)
Print::printNumber(unsigned long, unsigned char)  C:\Users\Hunter\DOCUME~1\Work\Venom\DEVELO~1\CIRCUI~2\BLINK0~3\BLINK0~1\ARDUIN~1\Debug\libArduinoCore.a(Print.o)
Print::println()                                  C:\Users\Hunter\DOCUME~1\Work\Venom\DEVELO~1\CIRCUI~2\BLINK0~3\BLINK0~1\ARDUIN~1\Debug\libArduinoCore.a(Print.o)
Print::println(Printable const&)                  C:\Users\Hunter\DOCUME~1\Work\Venom\DEVELO~1\CIRCUI~2\BLINK0~3\BLINK0~1\ARDUIN~1\Debug\libArduinoCore.a(Print.o)
Print::println(String const&)                     C:\Users\Hunter\DOCUME~1\Work\Venom\DEVELO~1\CIRCUI~2\BLINK0~3\BLINK0~1\ARDUIN~1\Debug\libArduinoCore.a(Print.o)
Print::println(__FlashStringHelper const*)        C:\Users\Hunter\DOCUME~1\Work\Venom\DEVELO~1\CIRCUI~2\BLINK0~3\BLINK0~1\ARDUIN~1\Debug\libArduinoCore.a(Print.o)
Print::println(char const*)                       C:\Users\Hunter\DOCUME~1\Work\Venom\DEVELO~1\CIRCUI~2\BLINK0~3\BLINK0~1\ARDUIN~1\Debug\libArduinoCore.a(Print.o)
Print::println(char)                              C:\Users\Hunter\DOCUME~1\Work\Venom\DEVELO~1\CIRCUI~2\BLINK0~3\BLINK0~1\ARDUIN~1\Debug\libArduinoCore.a(Print.o)
Print::println(double, int)                       C:\Users\Hunter\DOCUME~1\Work\Venom\DEVELO~1\CIRCUI~2\BLINK0~3\BLINK0~1\ARDUIN~1\Debug\libArduinoCore.a(Print.o)
Print::println(int, int)                          C:\Users\Hunter\DOCUME~1\Work\Venom\DEVELO~1\CIRCUI~2\BLINK0~3\BLINK0~1\ARDUIN~1\Debug\libArduinoCore.a(Print.o)
Print::println(long, int)                         C:\Users\Hunter\DOCUME~1\Work\Venom\DEVELO~1\CIRCUI~2\BLINK0~3\BLINK0~1\ARDUIN~1\Debug\libArduinoCore.a(Print.o)
Print::println(unsigned char, int)                C:\Users\Hunter\DOCUME~1\Work\Venom\DEVELO~1\CIRCUI~2\BLINK0~3\BLINK0~1\ARDUIN~1\Debug\libArduinoCore.a(Print.o)
Print::println(unsigned int, int)                 C:\Users\Hunter\DOCUME~1\Work\Venom\DEVELO~1\CIRCUI~2\BLINK0~3\BLINK0~1\ARDUIN~1\Debug\libArduinoCore.a(Print.o)
Print::println(unsigned long, int)                C:\Users\Hunter\DOCUME~1\Work\Venom\DEVELO~1\CIRCUI~2\BLINK0~3\BLINK0~1\ARDUIN~1\Debug\libArduinoCore.a(Print.o)
Print::write(char const*)                         C:\Users\Hunter\DOCUME~1\Work\Venom\DEVELO~1\CIRCUI~2\BLINK0~3\BLINK0~1\ARDUIN~1\Debug\libArduinoCore.a(Print.o)
Print::write(unsigned char const*, unsigned int)  C:\Users\Hunter\DOCUME~1\Work\Venom\DEVELO~1\CIRCUI~2\BLINK0~3\BLINK0~1\ARDUIN~1\Debug\libArduinoCore.a(Print.o)
                                                  C:\Users\Hunter\DOCUME~1\Work\Venom\DEVELO~1\CIRCUI~2\BLINK0~3\BLINK0~1\ARDUIN~1\Debug\libArduinoCore.a(Uart.o)
RTC_Handler                                       C:\Users\Hunter\DOCUME~1\Work\Venom\DEVELO~1\CIRCUI~2\BLINK0~3\BLINK0~1\ARDUIN~1\Debug\libArduinoCore.a(cortex_handlers.o)
Reset_Handler                                     C:\Users\Hunter\DOCUME~1\Work\Venom\DEVELO~1\CIRCUI~2\BLINK0~3\BLINK0~1\ARDUIN~1\Debug\libArduinoCore.a(cortex_handlers.o)
RingBufferN<256>::RingBufferN()                   C:\Users\Hunter\DOCUME~1\Work\Venom\DEVELO~1\CIRCUI~2\BLINK0~3\BLINK0~1\ARDUIN~1\Debug\libArduinoCore.a(Uart.o)
RingBufferN<256>::RingBufferN()                   C:\Users\Hunter\DOCUME~1\Work\Venom\DEVELO~1\CIRCUI~2\BLINK0~3\BLINK0~1\ARDUIN~1\Debug\libArduinoCore.a(Uart.o)
RingBufferN<256>::available()                     C:\Users\Hunter\DOCUME~1\Work\Venom\DEVELO~1\CIRCUI~2\BLINK0~3\BLINK0~1\ARDUIN~1\Debug\libArduinoCore.a(Uart.o)
RingBufferN<256>::availableForStore()             C:\Users\Hunter\DOCUME~1\Work\Venom\DEVELO~1\CIRCUI~2\BLINK0~3\BLINK0~1\ARDUIN~1\Debug\libArduinoCore.a(Uart.o)
SERCOM0_Handler                                   C:\Users\Hunter\DOCUME~1\Work\Venom\DEVELO~1\CIRCUI~2\BLINK0~3\BLINK0~1\ARDUIN~1\Debug\libArduinoCore.a(cortex_handlers.o)
SERCOM1_Handler                                   C:\Users\Hunter\DOCUME~1\Work\Venom\DEVELO~1\CIRCUI~2\BLINK0~3\BLINK0~1\ARDUIN~1\Debug\libArduinoCore.a(cortex_handlers.o)
SERCOM2_Handler                                   C:\Users\Hunter\DOCUME~1\Work\Venom\DEVELO~1\CIRCUI~2\BLINK0~3\BLINK0~1\ARDUIN~1\Debug\libArduinoCore.a(cortex_handlers.o)
SERCOM3_Handler                                   C:\Users\Hunter\DOCUME~1\Work\Venom\DEVELO~1\CIRCUI~2\BLINK0~3\BLINK0~1\ARDUIN~1\Debug\libArduinoCore.a(cortex_handlers.o)
SERCOM4_Handler                                   C:\Users\Hunter\DOCUME~1\Work\Venom\DEVELO~1\CIRCUI~2\BLINK0~3\BLINK0~1\ARDUIN~1\Debug\libArduinoCore.a(variant.o)
                                                  C:\Users\Hunter\DOCUME~1\Work\Venom\DEVELO~1\CIRCUI~2\BLINK0~3\BLINK0~1\ARDUIN~1\Debug\libArduinoCore.a(cortex_handlers.o)
SERCOM5_Handler                                   C:\Users\Hunter\DOCUME~1\Work\Venom\DEVELO~1\CIRCUI~2\BLINK0~3\BLINK0~1\ARDUIN~1\Debug\libArduinoCore.a(cortex_handlers.o)
SERCOM::SERCOM(Sercom*)                           C:\Users\Hunter\DOCUME~1\Work\Venom\DEVELO~1\CIRCUI~2\BLINK0~3\BLINK0~1\ARDUIN~1\Debug\libArduinoCore.a(SERCOM.o)
SERCOM::SERCOM(Sercom*)                           C:\Users\Hunter\DOCUME~1\Work\Venom\DEVELO~1\CIRCUI~2\BLINK0~3\BLINK0~1\ARDUIN~1\Debug\libArduinoCore.a(SERCOM.o)
                                                  C:\Users\Hunter\DOCUME~1\Work\Venom\DEVELO~1\CIRCUI~2\BLINK0~3\BLINK0~1\ARDUIN~1\Debug\libArduinoCore.a(variant.o)
SERCOM::acknowledgeUARTError()                    C:\Users\Hunter\DOCUME~1\Work\Venom\DEVELO~1\CIRCUI~2\BLINK0~3\BLINK0~1\ARDUIN~1\Debug\libArduinoCore.a(SERCOM.o)
                                                  C:\Users\Hunter\DOCUME~1\Work\Venom\DEVELO~1\CIRCUI~2\BLINK0~3\BLINK0~1\ARDUIN~1\Debug\libArduinoCore.a(Uart.o)
SERCOM::availableDataUART()                       C:\Users\Hunter\DOCUME~1\Work\Venom\DEVELO~1\CIRCUI~2\BLINK0~3\BLINK0~1\ARDUIN~1\Debug\libArduinoCore.a(SERCOM.o)
                                                  C:\Users\Hunter\DOCUME~1\Work\Venom\DEVELO~1\CIRCUI~2\BLINK0~3\BLINK0~1\ARDUIN~1\Debug\libArduinoCore.a(Uart.o)
SERCOM::availableWIRE()                           C:\Users\Hunter\DOCUME~1\Work\Venom\DEVELO~1\CIRCUI~2\BLINK0~3\BLINK0~1\ARDUIN~1\Debug\libArduinoCore.a(SERCOM.o)
SERCOM::calculateBaudrateSynchronous(unsigned long) C:\Users\Hunter\DOCUME~1\Work\Venom\DEVELO~1\CIRCUI~2\BLINK0~3\BLINK0~1\ARDUIN~1\Debug\libArduinoCore.a(SERCOM.o)
SERCOM::clearFrameErrorUART()                     C:\Users\Hunter\DOCUME~1\Work\Venom\DEVELO~1\CIRCUI~2\BLINK0~3\BLINK0~1\ARDUIN~1\Debug\libArduinoCore.a(SERCOM.o)
                                                  C:\Users\Hunter\DOCUME~1\Work\Venom\DEVELO~1\CIRCUI~2\BLINK0~3\BLINK0~1\ARDUIN~1\Debug\libArduinoCore.a(Uart.o)
SERCOM::clearStatusUART()                         C:\Users\Hunter\DOCUME~1\Work\Venom\DEVELO~1\CIRCUI~2\BLINK0~3\BLINK0~1\ARDUIN~1\Debug\libArduinoCore.a(SERCOM.o)
                                                  C:\Users\Hunter\DOCUME~1\Work\Venom\DEVELO~1\CIRCUI~2\BLINK0~3\BLINK0~1\ARDUIN~1\Debug\libArduinoCore.a(Uart.o)
SERCOM::disableDataRegisterEmptyInterruptUART()   C:\Users\Hunter\DOCUME~1\Work\Venom\DEVELO~1\CIRCUI~2\BLINK0~3\BLINK0~1\ARDUIN~1\Debug\libArduinoCore.a(SERCOM.o)
                                                  C:\Users\Hunter\DOCUME~1\Work\Venom\DEVELO~1\CIRCUI~2\BLINK0~3\BLINK0~1\ARDUIN~1\Debug\libArduinoCore.a(Uart.o)
SERCOM::disableSPI()                              C:\Users\Hunter\DOCUME~1\Work\Venom\DEVELO~1\CIRCUI~2\BLINK0~3\BLINK0~1\ARDUIN~1\Debug\libArduinoCore.a(SERCOM.o)
SERCOM::disableWIRE()                             C:\Users\Hunter\DOCUME~1\Work\Venom\DEVELO~1\CIRCUI~2\BLINK0~3\BLINK0~1\ARDUIN~1\Debug\libArduinoCore.a(SERCOM.o)
SERCOM::enableDataRegisterEmptyInterruptUART()    C:\Users\Hunter\DOCUME~1\Work\Venom\DEVELO~1\CIRCUI~2\BLINK0~3\BLINK0~1\ARDUIN~1\Debug\libArduinoCore.a(SERCOM.o)
                                                  C:\Users\Hunter\DOCUME~1\Work\Venom\DEVELO~1\CIRCUI~2\BLINK0~3\BLINK0~1\ARDUIN~1\Debug\libArduinoCore.a(Uart.o)
SERCOM::enableSPI()                               C:\Users\Hunter\DOCUME~1\Work\Venom\DEVELO~1\CIRCUI~2\BLINK0~3\BLINK0~1\ARDUIN~1\Debug\libArduinoCore.a(SERCOM.o)
SERCOM::enableUART()                              C:\Users\Hunter\DOCUME~1\Work\Venom\DEVELO~1\CIRCUI~2\BLINK0~3\BLINK0~1\ARDUIN~1\Debug\libArduinoCore.a(SERCOM.o)
                                                  C:\Users\Hunter\DOCUME~1\Work\Venom\DEVELO~1\CIRCUI~2\BLINK0~3\BLINK0~1\ARDUIN~1\Debug\libArduinoCore.a(Uart.o)
SERCOM::enableWIRE()                              C:\Users\Hunter\DOCUME~1\Work\Venom\DEVELO~1\CIRCUI~2\BLINK0~3\BLINK0~1\ARDUIN~1\Debug\libArduinoCore.a(SERCOM.o)
SERCOM::flushUART()                               C:\Users\Hunter\DOCUME~1\Work\Venom\DEVELO~1\CIRCUI~2\BLINK0~3\BLINK0~1\ARDUIN~1\Debug\libArduinoCore.a(SERCOM.o)
                                                  C:\Users\Hunter\DOCUME~1\Work\Venom\DEVELO~1\CIRCUI~2\BLINK0~3\BLINK0~1\ARDUIN~1\Debug\libArduinoCore.a(Uart.o)
SERCOM::getDataOrderSPI()                         C:\Users\Hunter\DOCUME~1\Work\Venom\DEVELO~1\CIRCUI~2\BLINK0~3\BLINK0~1\ARDUIN~1\Debug\libArduinoCore.a(SERCOM.o)
SERCOM::initClockNVIC()                           C:\Users\Hunter\DOCUME~1\Work\Venom\DEVELO~1\CIRCUI~2\BLINK0~3\BLINK0~1\ARDUIN~1\Debug\libArduinoCore.a(SERCOM.o)
SERCOM::initFrame(SercomUartCharSize, SercomDataOrder, SercomParityMode, SercomNumberStopBit) C:\Users\Hunter\DOCUME~1\Work\Venom\DEVELO~1\CIRCUI~2\BLINK0~3\BLINK0~1\ARDUIN~1\Debug\libArduinoCore.a(SERCOM.o)
                                                  C:\Users\Hunter\DOCUME~1\Work\Venom\DEVELO~1\CIRCUI~2\BLINK0~3\BLINK0~1\ARDUIN~1\Debug\libArduinoCore.a(Uart.o)
SERCOM::initMasterWIRE(unsigned long)             C:\Users\Hunter\DOCUME~1\Work\Venom\DEVELO~1\CIRCUI~2\BLINK0~3\BLINK0~1\ARDUIN~1\Debug\libArduinoCore.a(SERCOM.o)
SERCOM::initPads(SercomUartTXPad, SercomRXPad)    C:\Users\Hunter\DOCUME~1\Work\Venom\DEVELO~1\CIRCUI~2\BLINK0~3\BLINK0~1\ARDUIN~1\Debug\libArduinoCore.a(SERCOM.o)
                                                  C:\Users\Hunter\DOCUME~1\Work\Venom\DEVELO~1\CIRCUI~2\BLINK0~3\BLINK0~1\ARDUIN~1\Debug\libArduinoCore.a(Uart.o)
SERCOM::initSPI(SercomSpiTXPad, SercomRXPad, SercomSpiCharSize, SercomDataOrder) C:\Users\Hunter\DOCUME~1\Work\Venom\DEVELO~1\CIRCUI~2\BLINK0~3\BLINK0~1\ARDUIN~1\Debug\libArduinoCore.a(SERCOM.o)
SERCOM::initSPIClock(SercomSpiClockMode, unsigned long) C:\Users\Hunter\DOCUME~1\Work\Venom\DEVELO~1\CIRCUI~2\BLINK0~3\BLINK0~1\ARDUIN~1\Debug\libArduinoCore.a(SERCOM.o)
SERCOM::initSlaveWIRE(unsigned char, bool)        C:\Users\Hunter\DOCUME~1\Work\Venom\DEVELO~1\CIRCUI~2\BLINK0~3\BLINK0~1\ARDUIN~1\Debug\libArduinoCore.a(SERCOM.o)
SERCOM::initUART(SercomUartMode, SercomUartSampleRate, unsigned long) C:\Users\Hunter\DOCUME~1\Work\Venom\DEVELO~1\CIRCUI~2\BLINK0~3\BLINK0~1\ARDUIN~1\Debug\libArduinoCore.a(SERCOM.o)
                                                  C:\Users\Hunter\DOCUME~1\Work\Venom\DEVELO~1\CIRCUI~2\BLINK0~3\BLINK0~1\ARDUIN~1\Debug\libArduinoCore.a(Uart.o)
SERCOM::isAddressMatch()                          C:\Users\Hunter\DOCUME~1\Work\Venom\DEVELO~1\CIRCUI~2\BLINK0~3\BLINK0~1\ARDUIN~1\Debug\libArduinoCore.a(SERCOM.o)
SERCOM::isArbLostWIRE()                           C:\Users\Hunter\DOCUME~1\Work\Venom\DEVELO~1\CIRCUI~2\BLINK0~3\BLINK0~1\ARDUIN~1\Debug\libArduinoCore.a(SERCOM.o)
SERCOM::isBufferOverflowErrorSPI()                C:\Users\Hunter\DOCUME~1\Work\Venom\DEVELO~1\CIRCUI~2\BLINK0~3\BLINK0~1\ARDUIN~1\Debug\libArduinoCore.a(SERCOM.o)
SERCOM::isBufferOverflowErrorUART()               C:\Users\Hunter\DOCUME~1\Work\Venom\DEVELO~1\CIRCUI~2\BLINK0~3\BLINK0~1\ARDUIN~1\Debug\libArduinoCore.a(SERCOM.o)
SERCOM::isBusBusyWIRE()                           C:\Users\Hunter\DOCUME~1\Work\Venom\DEVELO~1\CIRCUI~2\BLINK0~3\BLINK0~1\ARDUIN~1\Debug\libArduinoCore.a(SERCOM.o)
SERCOM::isBusIdleWIRE()                           C:\Users\Hunter\DOCUME~1\Work\Venom\DEVELO~1\CIRCUI~2\BLINK0~3\BLINK0~1\ARDUIN~1\Debug\libArduinoCore.a(SERCOM.o)
SERCOM::isBusOwnerWIRE()                          C:\Users\Hunter\DOCUME~1\Work\Venom\DEVELO~1\CIRCUI~2\BLINK0~3\BLINK0~1\ARDUIN~1\Debug\libArduinoCore.a(SERCOM.o)
SERCOM::isDataReadyWIRE()                         C:\Users\Hunter\DOCUME~1\Work\Venom\DEVELO~1\CIRCUI~2\BLINK0~3\BLINK0~1\ARDUIN~1\Debug\libArduinoCore.a(SERCOM.o)
SERCOM::isDataRegisterEmptySPI()                  C:\Users\Hunter\DOCUME~1\Work\Venom\DEVELO~1\CIRCUI~2\BLINK0~3\BLINK0~1\ARDUIN~1\Debug\libArduinoCore.a(SERCOM.o)
SERCOM::isDataRegisterEmptyUART()                 C:\Users\Hunter\DOCUME~1\Work\Venom\DEVELO~1\CIRCUI~2\BLINK0~3\BLINK0~1\ARDUIN~1\Debug\libArduinoCore.a(SERCOM.o)
                                                  C:\Users\Hunter\DOCUME~1\Work\Venom\DEVELO~1\CIRCUI~2\BLINK0~3\BLINK0~1\ARDUIN~1\Debug\libArduinoCore.a(Uart.o)
SERCOM::isFrameErrorUART()                        C:\Users\Hunter\DOCUME~1\Work\Venom\DEVELO~1\CIRCUI~2\BLINK0~3\BLINK0~1\ARDUIN~1\Debug\libArduinoCore.a(SERCOM.o)
                                                  C:\Users\Hunter\DOCUME~1\Work\Venom\DEVELO~1\CIRCUI~2\BLINK0~3\BLINK0~1\ARDUIN~1\Debug\libArduinoCore.a(Uart.o)
SERCOM::isMasterReadOperationWIRE()               C:\Users\Hunter\DOCUME~1\Work\Venom\DEVELO~1\CIRCUI~2\BLINK0~3\BLINK0~1\ARDUIN~1\Debug\libArduinoCore.a(SERCOM.o)
SERCOM::isMasterWIRE()                            C:\Users\Hunter\DOCUME~1\Work\Venom\DEVELO~1\CIRCUI~2\BLINK0~3\BLINK0~1\ARDUIN~1\Debug\libArduinoCore.a(SERCOM.o)
SERCOM::isParityErrorUART()                       C:\Users\Hunter\DOCUME~1\Work\Venom\DEVELO~1\CIRCUI~2\BLINK0~3\BLINK0~1\ARDUIN~1\Debug\libArduinoCore.a(SERCOM.o)
SERCOM::isRXNackReceivedWIRE()                    C:\Users\Hunter\DOCUME~1\Work\Venom\DEVELO~1\CIRCUI~2\BLINK0~3\BLINK0~1\ARDUIN~1\Debug\libArduinoCore.a(SERCOM.o)
SERCOM::isRestartDetectedWIRE()                   C:\Users\Hunter\DOCUME~1\Work\Venom\DEVELO~1\CIRCUI~2\BLINK0~3\BLINK0~1\ARDUIN~1\Debug\libArduinoCore.a(SERCOM.o)
SERCOM::isSlaveWIRE()                             C:\Users\Hunter\DOCUME~1\Work\Venom\DEVELO~1\CIRCUI~2\BLINK0~3\BLINK0~1\ARDUIN~1\Debug\libArduinoCore.a(SERCOM.o)
SERCOM::isStopDetectedWIRE()                      C:\Users\Hunter\DOCUME~1\Work\Venom\DEVELO~1\CIRCUI~2\BLINK0~3\BLINK0~1\ARDUIN~1\Debug\libArduinoCore.a(SERCOM.o)
SERCOM::isUARTError()                             C:\Users\Hunter\DOCUME~1\Work\Venom\DEVELO~1\CIRCUI~2\BLINK0~3\BLINK0~1\ARDUIN~1\Debug\libArduinoCore.a(SERCOM.o)
                                                  C:\Users\Hunter\DOCUME~1\Work\Venom\DEVELO~1\CIRCUI~2\BLINK0~3\BLINK0~1\ARDUIN~1\Debug\libArduinoCore.a(Uart.o)
SERCOM::prepareAckBitWIRE()                       C:\Users\Hunter\DOCUME~1\Work\Venom\DEVELO~1\CIRCUI~2\BLINK0~3\BLINK0~1\ARDUIN~1\Debug\libArduinoCore.a(SERCOM.o)
SERCOM::prepareCommandBitsWire(unsigned char)     C:\Users\Hunter\DOCUME~1\Work\Venom\DEVELO~1\CIRCUI~2\BLINK0~3\BLINK0~1\ARDUIN~1\Debug\libArduinoCore.a(SERCOM.o)
SERCOM::prepareNackBitWIRE()                      C:\Users\Hunter\DOCUME~1\Work\Venom\DEVELO~1\CIRCUI~2\BLINK0~3\BLINK0~1\ARDUIN~1\Debug\libArduinoCore.a(SERCOM.o)
SERCOM::readDataUART()                            C:\Users\Hunter\DOCUME~1\Work\Venom\DEVELO~1\CIRCUI~2\BLINK0~3\BLINK0~1\ARDUIN~1\Debug\libArduinoCore.a(SERCOM.o)
                                                  C:\Users\Hunter\DOCUME~1\Work\Venom\DEVELO~1\CIRCUI~2\BLINK0~3\BLINK0~1\ARDUIN~1\Debug\libArduinoCore.a(Uart.o)
SERCOM::readDataWIRE()                            C:\Users\Hunter\DOCUME~1\Work\Venom\DEVELO~1\CIRCUI~2\BLINK0~3\BLINK0~1\ARDUIN~1\Debug\libArduinoCore.a(SERCOM.o)
SERCOM::resetSPI()                                C:\Users\Hunter\DOCUME~1\Work\Venom\DEVELO~1\CIRCUI~2\BLINK0~3\BLINK0~1\ARDUIN~1\Debug\libArduinoCore.a(SERCOM.o)
SERCOM::resetUART()                               C:\Users\Hunter\DOCUME~1\Work\Venom\DEVELO~1\CIRCUI~2\BLINK0~3\BLINK0~1\ARDUIN~1\Debug\libArduinoCore.a(SERCOM.o)
                                                  C:\Users\Hunter\DOCUME~1\Work\Venom\DEVELO~1\CIRCUI~2\BLINK0~3\BLINK0~1\ARDUIN~1\Debug\libArduinoCore.a(Uart.o)
SERCOM::resetWIRE()                               C:\Users\Hunter\DOCUME~1\Work\Venom\DEVELO~1\CIRCUI~2\BLINK0~3\BLINK0~1\ARDUIN~1\Debug\libArduinoCore.a(SERCOM.o)
SERCOM::sendDataMasterWIRE(unsigned char)         C:\Users\Hunter\DOCUME~1\Work\Venom\DEVELO~1\CIRCUI~2\BLINK0~3\BLINK0~1\ARDUIN~1\Debug\libArduinoCore.a(SERCOM.o)
SERCOM::sendDataSlaveWIRE(unsigned char)          C:\Users\Hunter\DOCUME~1\Work\Venom\DEVELO~1\CIRCUI~2\BLINK0~3\BLINK0~1\ARDUIN~1\Debug\libArduinoCore.a(SERCOM.o)
SERCOM::setBaudrateSPI(unsigned char)             C:\Users\Hunter\DOCUME~1\Work\Venom\DEVELO~1\CIRCUI~2\BLINK0~3\BLINK0~1\ARDUIN~1\Debug\libArduinoCore.a(SERCOM.o)
SERCOM::setClockModeSPI(SercomSpiClockMode)       C:\Users\Hunter\DOCUME~1\Work\Venom\DEVELO~1\CIRCUI~2\BLINK0~3\BLINK0~1\ARDUIN~1\Debug\libArduinoCore.a(SERCOM.o)
SERCOM::setDataOrderSPI(SercomDataOrder)          C:\Users\Hunter\DOCUME~1\Work\Venom\DEVELO~1\CIRCUI~2\BLINK0~3\BLINK0~1\ARDUIN~1\Debug\libArduinoCore.a(SERCOM.o)
SERCOM::startTransmissionWIRE(unsigned char, SercomWireReadWriteFlag) C:\Users\Hunter\DOCUME~1\Work\Venom\DEVELO~1\CIRCUI~2\BLINK0~3\BLINK0~1\ARDUIN~1\Debug\libArduinoCore.a(SERCOM.o)
SERCOM::transferDataSPI(unsigned char)            C:\Users\Hunter\DOCUME~1\Work\Venom\DEVELO~1\CIRCUI~2\BLINK0~3\BLINK0~1\ARDUIN~1\Debug\libArduinoCore.a(SERCOM.o)
SERCOM::writeDataUART(unsigned char)              C:\Users\Hunter\DOCUME~1\Work\Venom\DEVELO~1\CIRCUI~2\BLINK0~3\BLINK0~1\ARDUIN~1\Debug\libArduinoCore.a(SERCOM.o)
                                                  C:\Users\Hunter\DOCUME~1\Work\Venom\DEVELO~1\CIRCUI~2\BLINK0~3\BLINK0~1\ARDUIN~1\Debug\libArduinoCore.a(Uart.o)
SVC_Handler                                       C:\Users\Hunter\DOCUME~1\Work\Venom\DEVELO~1\CIRCUI~2\BLINK0~3\BLINK0~1\ARDUIN~1\Debug\libArduinoCore.a(cortex_handlers.o)
SYSCTRL_Handler                                   C:\Users\Hunter\DOCUME~1\Work\Venom\DEVELO~1\CIRCUI~2\BLINK0~3\BLINK0~1\ARDUIN~1\Debug\libArduinoCore.a(cortex_handlers.o)
Serial1                                           C:\Users\Hunter\DOCUME~1\Work\Venom\DEVELO~1\CIRCUI~2\BLINK0~3\BLINK0~1\ARDUIN~1\Debug\libArduinoCore.a(variant.o)
SerialUSB                                         C:\Users\Hunter\DOCUME~1\Work\Venom\DEVELO~1\CIRCUI~2\BLINK0~3\BLINK0~1\ARDUIN~1\Debug\libArduinoCore.a(CDC.o)
                                                  C:\Users\Hunter\DOCUME~1\Work\Venom\DEVELO~1\CIRCUI~2\BLINK0~3\BLINK0~1\ARDUIN~1\Debug\libArduinoCore.a(USBCore.o)
Serial_::Serial_(USBDeviceClass&)                 C:\Users\Hunter\DOCUME~1\Work\Venom\DEVELO~1\CIRCUI~2\BLINK0~3\BLINK0~1\ARDUIN~1\Debug\libArduinoCore.a(CDC.o)
Serial_::Serial_(USBDeviceClass&)                 C:\Users\Hunter\DOCUME~1\Work\Venom\DEVELO~1\CIRCUI~2\BLINK0~3\BLINK0~1\ARDUIN~1\Debug\libArduinoCore.a(CDC.o)
Serial_::available()                              C:\Users\Hunter\DOCUME~1\Work\Venom\DEVELO~1\CIRCUI~2\BLINK0~3\BLINK0~1\ARDUIN~1\Debug\libArduinoCore.a(CDC.o)
Serial_::availableForWrite()                      C:\Users\Hunter\DOCUME~1\Work\Venom\DEVELO~1\CIRCUI~2\BLINK0~3\BLINK0~1\ARDUIN~1\Debug\libArduinoCore.a(CDC.o)
Serial_::baud()                                   C:\Users\Hunter\DOCUME~1\Work\Venom\DEVELO~1\CIRCUI~2\BLINK0~3\BLINK0~1\ARDUIN~1\Debug\libArduinoCore.a(CDC.o)
Serial_::begin(unsigned long)                     C:\Users\Hunter\DOCUME~1\Work\Venom\DEVELO~1\CIRCUI~2\BLINK0~3\BLINK0~1\ARDUIN~1\Debug\libArduinoCore.a(CDC.o)
                                                  C:\Users\Hunter\DOCUME~1\Work\Venom\DEVELO~1\CIRCUI~2\BLINK0~3\BLINK0~1\ARDUIN~1\Debug\libArduinoCore.a(USBCore.o)
Serial_::begin(unsigned long, unsigned char)      C:\Users\Hunter\DOCUME~1\Work\Venom\DEVELO~1\CIRCUI~2\BLINK0~3\BLINK0~1\ARDUIN~1\Debug\libArduinoCore.a(CDC.o)
Serial_::clear()                                  C:\Users\Hunter\DOCUME~1\Work\Venom\DEVELO~1\CIRCUI~2\BLINK0~3\BLINK0~1\ARDUIN~1\Debug\libArduinoCore.a(CDC.o)
Serial_::dtr()                                    C:\Users\Hunter\DOCUME~1\Work\Venom\DEVELO~1\CIRCUI~2\BLINK0~3\BLINK0~1\ARDUIN~1\Debug\libArduinoCore.a(CDC.o)
Serial_::enableInterrupt()                        C:\Users\Hunter\DOCUME~1\Work\Venom\DEVELO~1\CIRCUI~2\BLINK0~3\BLINK0~1\ARDUIN~1\Debug\libArduinoCore.a(CDC.o)
                                                  C:\Users\Hunter\DOCUME~1\Work\Venom\DEVELO~1\CIRCUI~2\BLINK0~3\BLINK0~1\ARDUIN~1\Debug\libArduinoCore.a(USBCore.o)
Serial_::end()                                    C:\Users\Hunter\DOCUME~1\Work\Venom\DEVELO~1\CIRCUI~2\BLINK0~3\BLINK0~1\ARDUIN~1\Debug\libArduinoCore.a(CDC.o)
Serial_::flush()                                  C:\Users\Hunter\DOCUME~1\Work\Venom\DEVELO~1\CIRCUI~2\BLINK0~3\BLINK0~1\ARDUIN~1\Debug\libArduinoCore.a(CDC.o)
Serial_::getDescriptor(USBSetup&)                 C:\Users\Hunter\DOCUME~1\Work\Venom\DEVELO~1\CIRCUI~2\BLINK0~3\BLINK0~1\ARDUIN~1\Debug\libArduinoCore.a(CDC.o)
Serial_::getInterface(unsigned char*)             C:\Users\Hunter\DOCUME~1\Work\Venom\DEVELO~1\CIRCUI~2\BLINK0~3\BLINK0~1\ARDUIN~1\Debug\libArduinoCore.a(CDC.o)
Serial_::getShortName(char*)                      C:\Users\Hunter\DOCUME~1\Work\Venom\DEVELO~1\CIRCUI~2\BLINK0~3\BLINK0~1\ARDUIN~1\Debug\libArduinoCore.a(CDC.o)
Serial_::handleEndpoint(int)                      C:\Users\Hunter\DOCUME~1\Work\Venom\DEVELO~1\CIRCUI~2\BLINK0~3\BLINK0~1\ARDUIN~1\Debug\libArduinoCore.a(CDC.o)
Serial_::numbits()                                C:\Users\Hunter\DOCUME~1\Work\Venom\DEVELO~1\CIRCUI~2\BLINK0~3\BLINK0~1\ARDUIN~1\Debug\libArduinoCore.a(CDC.o)
Serial_::operator bool()                          C:\Users\Hunter\DOCUME~1\Work\Venom\DEVELO~1\CIRCUI~2\BLINK0~3\BLINK0~1\ARDUIN~1\Debug\libArduinoCore.a(CDC.o)
Serial_::paritytype()                             C:\Users\Hunter\DOCUME~1\Work\Venom\DEVELO~1\CIRCUI~2\BLINK0~3\BLINK0~1\ARDUIN~1\Debug\libArduinoCore.a(CDC.o)
Serial_::peek()                                   C:\Users\Hunter\DOCUME~1\Work\Venom\DEVELO~1\CIRCUI~2\BLINK0~3\BLINK0~1\ARDUIN~1\Debug\libArduinoCore.a(CDC.o)
Serial_::read()                                   C:\Users\Hunter\DOCUME~1\Work\Venom\DEVELO~1\CIRCUI~2\BLINK0~3\BLINK0~1\ARDUIN~1\Debug\libArduinoCore.a(CDC.o)
Serial_::readBreak()                              C:\Users\Hunter\DOCUME~1\Work\Venom\DEVELO~1\CIRCUI~2\BLINK0~3\BLINK0~1\ARDUIN~1\Debug\libArduinoCore.a(CDC.o)
Serial_::readBytes(char*, unsigned int)           C:\Users\Hunter\DOCUME~1\Work\Venom\DEVELO~1\CIRCUI~2\BLINK0~3\BLINK0~1\ARDUIN~1\Debug\libArduinoCore.a(CDC.o)
Serial_::rts()                                    C:\Users\Hunter\DOCUME~1\Work\Venom\DEVELO~1\CIRCUI~2\BLINK0~3\BLINK0~1\ARDUIN~1\Debug\libArduinoCore.a(CDC.o)
Serial_::setup(USBSetup&)                         C:\Users\Hunter\DOCUME~1\Work\Venom\DEVELO~1\CIRCUI~2\BLINK0~3\BLINK0~1\ARDUIN~1\Debug\libArduinoCore.a(CDC.o)
Serial_::stopbits()                               C:\Users\Hunter\DOCUME~1\Work\Venom\DEVELO~1\CIRCUI~2\BLINK0~3\BLINK0~1\ARDUIN~1\Debug\libArduinoCore.a(CDC.o)
Serial_::write(unsigned char const*, unsigned int) C:\Users\Hunter\DOCUME~1\Work\Venom\DEVELO~1\CIRCUI~2\BLINK0~3\BLINK0~1\ARDUIN~1\Debug\libArduinoCore.a(CDC.o)
Serial_::write(unsigned char)                     C:\Users\Hunter\DOCUME~1\Work\Venom\DEVELO~1\CIRCUI~2\BLINK0~3\BLINK0~1\ARDUIN~1\Debug\libArduinoCore.a(CDC.o)
SysTick_DefaultHandler                            C:\Users\Hunter\DOCUME~1\Work\Venom\DEVELO~1\CIRCUI~2\BLINK0~3\BLINK0~1\ARDUIN~1\Debug\libArduinoCore.a(delay.o)
                                                  C:\Users\Hunter\DOCUME~1\Work\Venom\DEVELO~1\CIRCUI~2\BLINK0~3\BLINK0~1\ARDUIN~1\Debug\libArduinoCore.a(cortex_handlers.o)
SysTick_Handler                                   C:\Users\Hunter\DOCUME~1\Work\Venom\DEVELO~1\CIRCUI~2\BLINK0~3\BLINK0~1\ARDUIN~1\Debug\libArduinoCore.a(cortex_handlers.o)
SystemCoreClock                                   C:\Users\Hunter\DOCUME~1\Work\Venom\DEVELO~1\CIRCUI~2\BLINK0~3\BLINK0~1\ARDUIN~1\Debug\libArduinoCore.a(wiring.o)
                                                  C:\Users\Hunter\DOCUME~1\Work\Venom\DEVELO~1\CIRCUI~2\BLINK0~3\BLINK0~1\ARDUIN~1\Debug\libArduinoCore.a(SERCOM.o)
                                                  C:\Users\Hunter\DOCUME~1\Work\Venom\DEVELO~1\CIRCUI~2\BLINK0~3\BLINK0~1\ARDUIN~1\Debug\libArduinoCore.a(USBCore.o)
                                                  C:\Users\Hunter\DOCUME~1\Work\Venom\DEVELO~1\CIRCUI~2\BLINK0~3\BLINK0~1\ARDUIN~1\Debug\libArduinoCore.a(startup.o)
SystemInit                                        C:\Users\Hunter\DOCUME~1\Work\Venom\DEVELO~1\CIRCUI~2\BLINK0~3\BLINK0~1\ARDUIN~1\Debug\libArduinoCore.a(startup.o)
                                                  C:\Users\Hunter\DOCUME~1\Work\Venom\DEVELO~1\CIRCUI~2\BLINK0~3\BLINK0~1\ARDUIN~1\Debug\libArduinoCore.a(cortex_handlers.o)
TC3_Handler                                       C:\Users\Hunter\DOCUME~1\Work\Venom\DEVELO~1\CIRCUI~2\BLINK0~3\BLINK0~1\ARDUIN~1\Debug\libArduinoCore.a(cortex_handlers.o)
TC4_Handler                                       C:\Users\Hunter\DOCUME~1\Work\Venom\DEVELO~1\CIRCUI~2\BLINK0~3\BLINK0~1\ARDUIN~1\Debug\libArduinoCore.a(cortex_handlers.o)
TC5_Handler                                       C:\Users\Hunter\DOCUME~1\Work\Venom\DEVELO~1\CIRCUI~2\BLINK0~3\BLINK0~1\ARDUIN~1\Debug\libArduinoCore.a(cortex_handlers.o)
TC6_Handler                                       C:\Users\Hunter\DOCUME~1\Work\Venom\DEVELO~1\CIRCUI~2\BLINK0~3\BLINK0~1\ARDUIN~1\Debug\libArduinoCore.a(cortex_handlers.o)
TC7_Handler                                       C:\Users\Hunter\DOCUME~1\Work\Venom\DEVELO~1\CIRCUI~2\BLINK0~3\BLINK0~1\ARDUIN~1\Debug\libArduinoCore.a(cortex_handlers.o)
TCC0_Handler                                      C:\Users\Hunter\DOCUME~1\Work\Venom\DEVELO~1\CIRCUI~2\BLINK0~3\BLINK0~1\ARDUIN~1\Debug\libArduinoCore.a(cortex_handlers.o)
TCC1_Handler                                      C:\Users\Hunter\DOCUME~1\Work\Venom\DEVELO~1\CIRCUI~2\BLINK0~3\BLINK0~1\ARDUIN~1\Debug\libArduinoCore.a(cortex_handlers.o)
TCC2_Handler                                      C:\Users\Hunter\DOCUME~1\Work\Venom\DEVELO~1\CIRCUI~2\BLINK0~3\BLINK0~1\ARDUIN~1\Debug\libArduinoCore.a(cortex_handlers.o)
UDD_Handler                                       C:\Users\Hunter\DOCUME~1\Work\Venom\DEVELO~1\CIRCUI~2\BLINK0~3\BLINK0~1\ARDUIN~1\Debug\libArduinoCore.a(USBCore.o)
USBDevice                                         C:\Users\Hunter\DOCUME~1\Work\Venom\DEVELO~1\CIRCUI~2\BLINK0~3\BLINK0~1\ARDUIN~1\Debug\libArduinoCore.a(USBCore.o)
                                                  C:\Users\Hunter\DOCUME~1\Work\Venom\DEVELO~1\CIRCUI~2\BLINK0~3\BLINK0~1\ARDUIN~1\Debug\libArduinoCore.a(CDC.o)
                                                  C:\Users\Hunter\DOCUME~1\Work\Venom\DEVELO~1\CIRCUI~2\BLINK0~3\BLINK0~1\ARDUIN~1\Debug\libArduinoCore.a(main.o)
USBDeviceClass::ISRHandler()                      C:\Users\Hunter\DOCUME~1\Work\Venom\DEVELO~1\CIRCUI~2\BLINK0~3\BLINK0~1\ARDUIN~1\Debug\libArduinoCore.a(USBCore.o)
USBDeviceClass::SendInterfaces(unsigned long*)    C:\Users\Hunter\DOCUME~1\Work\Venom\DEVELO~1\CIRCUI~2\BLINK0~3\BLINK0~1\ARDUIN~1\Debug\libArduinoCore.a(USBCore.o)
USBDeviceClass::armRecvCtrlOUT(unsigned long)     C:\Users\Hunter\DOCUME~1\Work\Venom\DEVELO~1\CIRCUI~2\BLINK0~3\BLINK0~1\ARDUIN~1\Debug\libArduinoCore.a(USBCore.o)
USBDeviceClass::armSend(unsigned long, void const*, unsigned long) C:\Users\Hunter\DOCUME~1\Work\Venom\DEVELO~1\CIRCUI~2\BLINK0~3\BLINK0~1\ARDUIN~1\Debug\libArduinoCore.a(USBCore.o)
USBDeviceClass::attach()                          C:\Users\Hunter\DOCUME~1\Work\Venom\DEVELO~1\CIRCUI~2\BLINK0~3\BLINK0~1\ARDUIN~1\Debug\libArduinoCore.a(USBCore.o)
                                                  C:\Users\Hunter\DOCUME~1\Work\Venom\DEVELO~1\CIRCUI~2\BLINK0~3\BLINK0~1\ARDUIN~1\Debug\libArduinoCore.a(main.o)
USBDeviceClass::available(unsigned long)          C:\Users\Hunter\DOCUME~1\Work\Venom\DEVELO~1\CIRCUI~2\BLINK0~3\BLINK0~1\ARDUIN~1\Debug\libArduinoCore.a(USBCore.o)
                                                  C:\Users\Hunter\DOCUME~1\Work\Venom\DEVELO~1\CIRCUI~2\BLINK0~3\BLINK0~1\ARDUIN~1\Debug\libArduinoCore.a(CDC.o)
USBDeviceClass::clear(unsigned long)              C:\Users\Hunter\DOCUME~1\Work\Venom\DEVELO~1\CIRCUI~2\BLINK0~3\BLINK0~1\ARDUIN~1\Debug\libArduinoCore.a(USBCore.o)
                                                  C:\Users\Hunter\DOCUME~1\Work\Venom\DEVELO~1\CIRCUI~2\BLINK0~3\BLINK0~1\ARDUIN~1\Debug\libArduinoCore.a(CDC.o)
USBDeviceClass::configured()                      C:\Users\Hunter\DOCUME~1\Work\Venom\DEVELO~1\CIRCUI~2\BLINK0~3\BLINK0~1\ARDUIN~1\Debug\libArduinoCore.a(USBCore.o)
USBDeviceClass::connected()                       C:\Users\Hunter\DOCUME~1\Work\Venom\DEVELO~1\CIRCUI~2\BLINK0~3\BLINK0~1\ARDUIN~1\Debug\libArduinoCore.a(USBCore.o)
USBDeviceClass::detach()                          C:\Users\Hunter\DOCUME~1\Work\Venom\DEVELO~1\CIRCUI~2\BLINK0~3\BLINK0~1\ARDUIN~1\Debug\libArduinoCore.a(USBCore.o)
USBDeviceClass::end()                             C:\Users\Hunter\DOCUME~1\Work\Venom\DEVELO~1\CIRCUI~2\BLINK0~3\BLINK0~1\ARDUIN~1\Debug\libArduinoCore.a(USBCore.o)
USBDeviceClass::flush(unsigned long)              C:\Users\Hunter\DOCUME~1\Work\Venom\DEVELO~1\CIRCUI~2\BLINK0~3\BLINK0~1\ARDUIN~1\Debug\libArduinoCore.a(USBCore.o)
                                                  C:\Users\Hunter\DOCUME~1\Work\Venom\DEVELO~1\CIRCUI~2\BLINK0~3\BLINK0~1\ARDUIN~1\Debug\libArduinoCore.a(CDC.o)
USBDeviceClass::handleClassInterfaceSetup(USBSetup&) C:\Users\Hunter\DOCUME~1\Work\Venom\DEVELO~1\CIRCUI~2\BLINK0~3\BLINK0~1\ARDUIN~1\Debug\libArduinoCore.a(USBCore.o)
USBDeviceClass::handleStandardSetup(USBSetup&)    C:\Users\Hunter\DOCUME~1\Work\Venom\DEVELO~1\CIRCUI~2\BLINK0~3\BLINK0~1\ARDUIN~1\Debug\libArduinoCore.a(USBCore.o)
USBDeviceClass::init()                            C:\Users\Hunter\DOCUME~1\Work\Venom\DEVELO~1\CIRCUI~2\BLINK0~3\BLINK0~1\ARDUIN~1\Debug\libArduinoCore.a(USBCore.o)
                                                  C:\Users\Hunter\DOCUME~1\Work\Venom\DEVELO~1\CIRCUI~2\BLINK0~3\BLINK0~1\ARDUIN~1\Debug\libArduinoCore.a(main.o)
USBDeviceClass::initEP(unsigned long, unsigned long) C:\Users\Hunter\DOCUME~1\Work\Venom\DEVELO~1\CIRCUI~2\BLINK0~3\BLINK0~1\ARDUIN~1\Debug\libArduinoCore.a(USBCore.o)
USBDeviceClass::initEndpoints()                   C:\Users\Hunter\DOCUME~1\Work\Venom\DEVELO~1\CIRCUI~2\BLINK0~3\BLINK0~1\ARDUIN~1\Debug\libArduinoCore.a(USBCore.o)
USBDeviceClass::packMessages(bool)                C:\Users\Hunter\DOCUME~1\Work\Venom\DEVELO~1\CIRCUI~2\BLINK0~3\BLINK0~1\ARDUIN~1\Debug\libArduinoCore.a(USBCore.o)
USBDeviceClass::recv(unsigned long)               C:\Users\Hunter\DOCUME~1\Work\Venom\DEVELO~1\CIRCUI~2\BLINK0~3\BLINK0~1\ARDUIN~1\Debug\libArduinoCore.a(USBCore.o)
                                                  C:\Users\Hunter\DOCUME~1\Work\Venom\DEVELO~1\CIRCUI~2\BLINK0~3\BLINK0~1\ARDUIN~1\Debug\libArduinoCore.a(CDC.o)
USBDeviceClass::recv(unsigned long, void*, unsigned long) C:\Users\Hunter\DOCUME~1\Work\Venom\DEVELO~1\CIRCUI~2\BLINK0~3\BLINK0~1\ARDUIN~1\Debug\libArduinoCore.a(USBCore.o)
                                                  C:\Users\Hunter\DOCUME~1\Work\Venom\DEVELO~1\CIRCUI~2\BLINK0~3\BLINK0~1\ARDUIN~1\Debug\libArduinoCore.a(CDC.o)
USBDeviceClass::recvControl(void*, unsigned long) C:\Users\Hunter\DOCUME~1\Work\Venom\DEVELO~1\CIRCUI~2\BLINK0~3\BLINK0~1\ARDUIN~1\Debug\libArduinoCore.a(USBCore.o)
                                                  C:\Users\Hunter\DOCUME~1\Work\Venom\DEVELO~1\CIRCUI~2\BLINK0~3\BLINK0~1\ARDUIN~1\Debug\libArduinoCore.a(CDC.o)
USBDeviceClass::send(unsigned long, void const*, unsigned long) C:\Users\Hunter\DOCUME~1\Work\Venom\DEVELO~1\CIRCUI~2\BLINK0~3\BLINK0~1\ARDUIN~1\Debug\libArduinoCore.a(USBCore.o)
                                                  C:\Users\Hunter\DOCUME~1\Work\Venom\DEVELO~1\CIRCUI~2\BLINK0~3\BLINK0~1\ARDUIN~1\Debug\libArduinoCore.a(CDC.o)
USBDeviceClass::sendConfiguration(unsigned long)  C:\Users\Hunter\DOCUME~1\Work\Venom\DEVELO~1\CIRCUI~2\BLINK0~3\BLINK0~1\ARDUIN~1\Debug\libArduinoCore.a(USBCore.o)
USBDeviceClass::sendControl(void const*, unsigned long) C:\Users\Hunter\DOCUME~1\Work\Venom\DEVELO~1\CIRCUI~2\BLINK0~3\BLINK0~1\ARDUIN~1\Debug\libArduinoCore.a(USBCore.o)
                                                  C:\Users\Hunter\DOCUME~1\Work\Venom\DEVELO~1\CIRCUI~2\BLINK0~3\BLINK0~1\ARDUIN~1\Debug\libArduinoCore.a(CDC.o)
USBDeviceClass::sendDescriptor(USBSetup&)         C:\Users\Hunter\DOCUME~1\Work\Venom\DEVELO~1\CIRCUI~2\BLINK0~3\BLINK0~1\ARDUIN~1\Debug\libArduinoCore.a(USBCore.o)
USBDeviceClass::sendStringDescriptor(unsigned char const*, unsigned long) C:\Users\Hunter\DOCUME~1\Work\Venom\DEVELO~1\CIRCUI~2\BLINK0~3\BLINK0~1\ARDUIN~1\Debug\libArduinoCore.a(USBCore.o)
USBDeviceClass::sendZlp(unsigned long)            C:\Users\Hunter\DOCUME~1\Work\Venom\DEVELO~1\CIRCUI~2\BLINK0~3\BLINK0~1\ARDUIN~1\Debug\libArduinoCore.a(USBCore.o)
                                                  C:\Users\Hunter\DOCUME~1\Work\Venom\DEVELO~1\CIRCUI~2\BLINK0~3\BLINK0~1\ARDUIN~1\Debug\libArduinoCore.a(CDC.o)
USBDeviceClass::setAddress(unsigned long)         C:\Users\Hunter\DOCUME~1\Work\Venom\DEVELO~1\CIRCUI~2\BLINK0~3\BLINK0~1\ARDUIN~1\Debug\libArduinoCore.a(USBCore.o)
USBDeviceClass::stall(unsigned long)              C:\Users\Hunter\DOCUME~1\Work\Venom\DEVELO~1\CIRCUI~2\BLINK0~3\BLINK0~1\ARDUIN~1\Debug\libArduinoCore.a(USBCore.o)
USBDeviceClass::standby()                         C:\Users\Hunter\DOCUME~1\Work\Venom\DEVELO~1\CIRCUI~2\BLINK0~3\BLINK0~1\ARDUIN~1\Debug\libArduinoCore.a(USBCore.o)
USB_Handler                                       C:\Users\Hunter\DOCUME~1\Work\Venom\DEVELO~1\CIRCUI~2\BLINK0~3\BLINK0~1\ARDUIN~1\Debug\libArduinoCore.a(cortex_handlers.o)
USB_SetHandler                                    C:\Users\Hunter\DOCUME~1\Work\Venom\DEVELO~1\CIRCUI~2\BLINK0~3\BLINK0~1\ARDUIN~1\Debug\libArduinoCore.a(cortex_handlers.o)
                                                  C:\Users\Hunter\DOCUME~1\Work\Venom\DEVELO~1\CIRCUI~2\BLINK0~3\BLINK0~1\ARDUIN~1\Debug\libArduinoCore.a(USBCore.o)
Uart::IrqHandler()                                C:\Users\Hunter\DOCUME~1\Work\Venom\DEVELO~1\CIRCUI~2\BLINK0~3\BLINK0~1\ARDUIN~1\Debug\libArduinoCore.a(Uart.o)
                                                  C:\Users\Hunter\DOCUME~1\Work\Venom\DEVELO~1\CIRCUI~2\BLINK0~3\BLINK0~1\ARDUIN~1\Debug\libArduinoCore.a(variant.o)
Uart::Uart(SERCOM*, unsigned char, unsigned char, SercomRXPad, SercomUartTXPad) C:\Users\Hunter\DOCUME~1\Work\Venom\DEVELO~1\CIRCUI~2\BLINK0~3\BLINK0~1\ARDUIN~1\Debug\libArduinoCore.a(Uart.o)
Uart::Uart(SERCOM*, unsigned char, unsigned char, SercomRXPad, SercomUartTXPad) C:\Users\Hunter\DOCUME~1\Work\Venom\DEVELO~1\CIRCUI~2\BLINK0~3\BLINK0~1\ARDUIN~1\Debug\libArduinoCore.a(Uart.o)
                                                  C:\Users\Hunter\DOCUME~1\Work\Venom\DEVELO~1\CIRCUI~2\BLINK0~3\BLINK0~1\ARDUIN~1\Debug\libArduinoCore.a(variant.o)
Uart::Uart(SERCOM*, unsigned char, unsigned char, SercomRXPad, SercomUartTXPad, unsigned char, unsigned char) C:\Users\Hunter\DOCUME~1\Work\Venom\DEVELO~1\CIRCUI~2\BLINK0~3\BLINK0~1\ARDUIN~1\Debug\libArduinoCore.a(Uart.o)
Uart::Uart(SERCOM*, unsigned char, unsigned char, SercomRXPad, SercomUartTXPad, unsigned char, unsigned char) C:\Users\Hunter\DOCUME~1\Work\Venom\DEVELO~1\CIRCUI~2\BLINK0~3\BLINK0~1\ARDUIN~1\Debug\libArduinoCore.a(Uart.o)
Uart::available()                                 C:\Users\Hunter\DOCUME~1\Work\Venom\DEVELO~1\CIRCUI~2\BLINK0~3\BLINK0~1\ARDUIN~1\Debug\libArduinoCore.a(Uart.o)
Uart::availableForWrite()                         C:\Users\Hunter\DOCUME~1\Work\Venom\DEVELO~1\CIRCUI~2\BLINK0~3\BLINK0~1\ARDUIN~1\Debug\libArduinoCore.a(Uart.o)
Uart::begin(unsigned long)                        C:\Users\Hunter\DOCUME~1\Work\Venom\DEVELO~1\CIRCUI~2\BLINK0~3\BLINK0~1\ARDUIN~1\Debug\libArduinoCore.a(Uart.o)
Uart::begin(unsigned long, unsigned short)        C:\Users\Hunter\DOCUME~1\Work\Venom\DEVELO~1\CIRCUI~2\BLINK0~3\BLINK0~1\ARDUIN~1\Debug\libArduinoCore.a(Uart.o)
Uart::end()                                       C:\Users\Hunter\DOCUME~1\Work\Venom\DEVELO~1\CIRCUI~2\BLINK0~3\BLINK0~1\ARDUIN~1\Debug\libArduinoCore.a(Uart.o)
Uart::extractCharSize(unsigned short)             C:\Users\Hunter\DOCUME~1\Work\Venom\DEVELO~1\CIRCUI~2\BLINK0~3\BLINK0~1\ARDUIN~1\Debug\libArduinoCore.a(Uart.o)
Uart::extractNbStopBit(unsigned short)            C:\Users\Hunter\DOCUME~1\Work\Venom\DEVELO~1\CIRCUI~2\BLINK0~3\BLINK0~1\ARDUIN~1\Debug\libArduinoCore.a(Uart.o)
Uart::extractParity(unsigned short)               C:\Users\Hunter\DOCUME~1\Work\Venom\DEVELO~1\CIRCUI~2\BLINK0~3\BLINK0~1\ARDUIN~1\Debug\libArduinoCore.a(Uart.o)
Uart::flush()                                     C:\Users\Hunter\DOCUME~1\Work\Venom\DEVELO~1\CIRCUI~2\BLINK0~3\BLINK0~1\ARDUIN~1\Debug\libArduinoCore.a(Uart.o)
Uart::operator bool()                             C:\Users\Hunter\DOCUME~1\Work\Venom\DEVELO~1\CIRCUI~2\BLINK0~3\BLINK0~1\ARDUIN~1\Debug\libArduinoCore.a(Uart.o)
Uart::peek()                                      C:\Users\Hunter\DOCUME~1\Work\Venom\DEVELO~1\CIRCUI~2\BLINK0~3\BLINK0~1\ARDUIN~1\Debug\libArduinoCore.a(Uart.o)
Uart::read()                                      C:\Users\Hunter\DOCUME~1\Work\Venom\DEVELO~1\CIRCUI~2\BLINK0~3\BLINK0~1\ARDUIN~1\Debug\libArduinoCore.a(Uart.o)
Uart::write(unsigned char)                        C:\Users\Hunter\DOCUME~1\Work\Venom\DEVELO~1\CIRCUI~2\BLINK0~3\BLINK0~1\ARDUIN~1\Debug\libArduinoCore.a(Uart.o)
WDT_Handler                                       C:\Users\Hunter\DOCUME~1\Work\Venom\DEVELO~1\CIRCUI~2\BLINK0~3\BLINK0~1\ARDUIN~1\Debug\libArduinoCore.a(cortex_handlers.o)
_Jv_RegisterClasses                               c:/program files (x86)/atmel/studio/7.0/toolchain/arm/arm-gnu-toolchain/bin/../lib/gcc/arm-none-eabi/6.3.1/thumb/v6-m/crtbegin.o
__Guard::__Guard()                                C:\Users\Hunter\DOCUME~1\Work\Venom\DEVELO~1\CIRCUI~2\BLINK0~3\BLINK0~1\ARDUIN~1\Debug\libArduinoCore.a(USBCore.o)
__Guard::__Guard()                                C:\Users\Hunter\DOCUME~1\Work\Venom\DEVELO~1\CIRCUI~2\BLINK0~3\BLINK0~1\ARDUIN~1\Debug\libArduinoCore.a(USBCore.o)
__Guard::~__Guard()                               C:\Users\Hunter\DOCUME~1\Work\Venom\DEVELO~1\CIRCUI~2\BLINK0~3\BLINK0~1\ARDUIN~1\Debug\libArduinoCore.a(USBCore.o)
__Guard::~__Guard()                               C:\Users\Hunter\DOCUME~1\Work\Venom\DEVELO~1\CIRCUI~2\BLINK0~3\BLINK0~1\ARDUIN~1\Debug\libArduinoCore.a(USBCore.o)
__StackTop                                        C:\Users\Hunter\DOCUME~1\Work\Venom\DEVELO~1\CIRCUI~2\BLINK0~3\BLINK0~1\ARDUIN~1\Debug\libArduinoCore.a(cortex_handlers.o)
__aeabi_cdcmpeq                                   c:/program files (x86)/atmel/studio/7.0/toolchain/arm/arm-gnu-toolchain/bin/../lib/gcc/arm-none-eabi/6.3.1/thumb/v6-m\libgcc.a(_arm_cmpdf2.o)
__aeabi_cdcmple                                   c:/program files (x86)/atmel/studio/7.0/toolchain/arm/arm-gnu-toolchain/bin/../lib/gcc/arm-none-eabi/6.3.1/thumb/v6-m\libgcc.a(_arm_cmpdf2.o)
__aeabi_cdrcmple                                  c:/program files (x86)/atmel/studio/7.0/toolchain/arm/arm-gnu-toolchain/bin/../lib/gcc/arm-none-eabi/6.3.1/thumb/v6-m\libgcc.a(_arm_cmpdf2.o)
__aeabi_d2iz                                      c:/program files (x86)/atmel/studio/7.0/toolchain/arm/arm-gnu-toolchain/bin/../lib/gcc/arm-none-eabi/6.3.1/thumb/v6-m\libgcc.a(fixdfsi.o)
                                                  c:/program files (x86)/atmel/studio/7.0/toolchain/arm/arm-gnu-toolchain/bin/../lib/gcc/arm-none-eabi/6.3.1/thumb/v6-m\libgcc.a(_fixunsdfsi.o)
__aeabi_d2uiz                                     c:/program files (x86)/atmel/studio/7.0/toolchain/arm/arm-gnu-toolchain/bin/../lib/gcc/arm-none-eabi/6.3.1/thumb/v6-m\libgcc.a(_fixunsdfsi.o)
                                                  C:\Users\Hunter\DOCUME~1\Work\Venom\DEVELO~1\CIRCUI~2\BLINK0~3\BLINK0~1\ARDUIN~1\Debug\libArduinoCore.a(Print.o)
__aeabi_dadd                                      c:/program files (x86)/atmel/studio/7.0/toolchain/arm/arm-gnu-toolchain/bin/../lib/gcc/arm-none-eabi/6.3.1/thumb/v6-m\libgcc.a(adddf3.o)
                                                  C:\Users\Hunter\DOCUME~1\Work\Venom\DEVELO~1\CIRCUI~2\BLINK0~3\BLINK0~1\ARDUIN~1\Debug\libArduinoCore.a(Print.o)
__aeabi_dcmpeq                                    c:/program files (x86)/atmel/studio/7.0/toolchain/arm/arm-gnu-toolchain/bin/../lib/gcc/arm-none-eabi/6.3.1/thumb/v6-m\libgcc.a(_arm_cmpdf2.o)
__aeabi_dcmpge                                    c:/program files (x86)/atmel/studio/7.0/toolchain/arm/arm-gnu-toolchain/bin/../lib/gcc/arm-none-eabi/6.3.1/thumb/v6-m\libgcc.a(_arm_cmpdf2.o)
                                                  c:/program files (x86)/atmel/studio/7.0/toolchain/arm/arm-gnu-toolchain/bin/../lib/gcc/arm-none-eabi/6.3.1/thumb/v6-m\libgcc.a(_fixunsdfsi.o)
__aeabi_dcmpgt                                    c:/program files (x86)/atmel/studio/7.0/toolchain/arm/arm-gnu-toolchain/bin/../lib/gcc/arm-none-eabi/6.3.1/thumb/v6-m\libgcc.a(_arm_cmpdf2.o)
                                                  C:\Users\Hunter\DOCUME~1\Work\Venom\DEVELO~1\CIRCUI~2\BLINK0~3\BLINK0~1\ARDUIN~1\Debug\libArduinoCore.a(Print.o)
__aeabi_dcmple                                    c:/program files (x86)/atmel/studio/7.0/toolchain/arm/arm-gnu-toolchain/bin/../lib/gcc/arm-none-eabi/6.3.1/thumb/v6-m\libgcc.a(_arm_cmpdf2.o)
                                                  C:\Users\Hunter\DOCUME~1\Work\Venom\DEVELO~1\CIRCUI~2\BLINK0~3\BLINK0~1\ARDUIN~1\Debug\libArduinoCore.a(Print.o)
__aeabi_dcmplt                                    c:/program files (x86)/atmel/studio/7.0/toolchain/arm/arm-gnu-toolchain/bin/../lib/gcc/arm-none-eabi/6.3.1/thumb/v6-m\libgcc.a(_arm_cmpdf2.o)
                                                  C:\Users\Hunter\DOCUME~1\Work\Venom\DEVELO~1\CIRCUI~2\BLINK0~3\BLINK0~1\ARDUIN~1\Debug\libArduinoCore.a(Print.o)
__aeabi_dcmpun                                    c:/program files (x86)/atmel/studio/7.0/toolchain/arm/arm-gnu-toolchain/bin/../lib/gcc/arm-none-eabi/6.3.1/thumb/v6-m\libgcc.a(unorddf2.o)
                                                  C:\Users\Hunter\DOCUME~1\Work\Venom\DEVELO~1\CIRCUI~2\BLINK0~3\BLINK0~1\ARDUIN~1\Debug\libArduinoCore.a(Print.o)
__aeabi_ddiv                                      c:/program files (x86)/atmel/studio/7.0/toolchain/arm/arm-gnu-toolchain/bin/../lib/gcc/arm-none-eabi/6.3.1/thumb/v6-m\libgcc.a(divdf3.o)
                                                  C:\Users\Hunter\DOCUME~1\Work\Venom\DEVELO~1\CIRCUI~2\BLINK0~3\BLINK0~1\ARDUIN~1\Debug\libArduinoCore.a(Print.o)
__aeabi_dmul                                      c:/program files (x86)/atmel/studio/7.0/toolchain/arm/arm-gnu-toolchain/bin/../lib/gcc/arm-none-eabi/6.3.1/thumb/v6-m\libgcc.a(muldf3.o)
                                                  C:\Users\Hunter\DOCUME~1\Work\Venom\DEVELO~1\CIRCUI~2\BLINK0~3\BLINK0~1\ARDUIN~1\Debug\libArduinoCore.a(Print.o)
__aeabi_dsub                                      c:/program files (x86)/atmel/studio/7.0/toolchain/arm/arm-gnu-toolchain/bin/../lib/gcc/arm-none-eabi/6.3.1/thumb/v6-m\libgcc.a(subdf3.o)
                                                  c:/program files (x86)/atmel/studio/7.0/toolchain/arm/arm-gnu-toolchain/bin/../lib/gcc/arm-none-eabi/6.3.1/thumb/v6-m\libgcc.a(_fixunsdfsi.o)
                                                  C:\Users\Hunter\DOCUME~1\Work\Venom\DEVELO~1\CIRCUI~2\BLINK0~3\BLINK0~1\ARDUIN~1\Debug\libArduinoCore.a(Print.o)
__aeabi_idiv                                      c:/program files (x86)/atmel/studio/7.0/toolchain/arm/arm-gnu-toolchain/bin/../lib/gcc/arm-none-eabi/6.3.1/thumb/v6-m\libgcc.a(_divsi3.o)
                                                  C:\Users\Hunter\DOCUME~1\Work\Venom\DEVELO~1\CIRCUI~2\BLINK0~3\BLINK0~1\ARDUIN~1\Debug\libArduinoCore.a(SERCOM.o)
__aeabi_idiv0                                     c:/program files (x86)/atmel/studio/7.0/toolchain/arm/arm-gnu-toolchain/bin/../lib/gcc/arm-none-eabi/6.3.1/thumb/v6-m\libgcc.a(_dvmd_tls.o)
                                                  c:/program files (x86)/atmel/studio/7.0/toolchain/arm/arm-gnu-toolchain/bin/../lib/gcc/arm-none-eabi/6.3.1/thumb/v6-m\libgcc.a(_divsi3.o)
                                                  c:/program files (x86)/atmel/studio/7.0/toolchain/arm/arm-gnu-toolchain/bin/../lib/gcc/arm-none-eabi/6.3.1/thumb/v6-m\libgcc.a(_udivsi3.o)
__aeabi_idivmod                                   c:/program files (x86)/atmel/studio/7.0/toolchain/arm/arm-gnu-toolchain/bin/../lib/gcc/arm-none-eabi/6.3.1/thumb/v6-m\libgcc.a(_divsi3.o)
__aeabi_ldiv0                                     c:/program files (x86)/atmel/studio/7.0/toolchain/arm/arm-gnu-toolchain/bin/../lib/gcc/arm-none-eabi/6.3.1/thumb/v6-m\libgcc.a(_dvmd_tls.o)
__aeabi_ui2d                                      c:/program files (x86)/atmel/studio/7.0/toolchain/arm/arm-gnu-toolchain/bin/../lib/gcc/arm-none-eabi/6.3.1/thumb/v6-m\libgcc.a(floatunsidf.o)
                                                  C:\Users\Hunter\DOCUME~1\Work\Venom\DEVELO~1\CIRCUI~2\BLINK0~3\BLINK0~1\ARDUIN~1\Debug\libArduinoCore.a(Print.o)
__aeabi_uidiv                                     c:/program files (x86)/atmel/studio/7.0/toolchain/arm/arm-gnu-toolchain/bin/../lib/gcc/arm-none-eabi/6.3.1/thumb/v6-m\libgcc.a(_udivsi3.o)
                                                  c:/program files (x86)/atmel/studio/7.0/toolchain/arm/arm-gnu-toolchain/bin/../lib/gcc/arm-none-eabi/6.3.1/thumb/v6-m\libgcc.a(divdf3.o)
                                                  C:\Users\Hunter\DOCUME~1\Work\Venom\DEVELO~1\CIRCUI~2\BLINK0~3\BLINK0~1\ARDUIN~1\Debug\libArduinoCore.a(Print.o)
                                                  C:\Users\Hunter\DOCUME~1\Work\Venom\DEVELO~1\CIRCUI~2\BLINK0~3\BLINK0~1\ARDUIN~1\Debug\libArduinoCore.a(SERCOM.o)
                                                  C:\Users\Hunter\DOCUME~1\Work\Venom\DEVELO~1\CIRCUI~2\BLINK0~3\BLINK0~1\ARDUIN~1\Debug\libArduinoCore.a(wiring.o)
                                                  C:\Users\Hunter\DOCUME~1\Work\Venom\DEVELO~1\CIRCUI~2\BLINK0~3\BLINK0~1\ARDUIN~1\Debug\libArduinoCore.a(USBCore.o)
__aeabi_uidivmod                                  c:/program files (x86)/atmel/studio/7.0/toolchain/arm/arm-gnu-toolchain/bin/../lib/gcc/arm-none-eabi/6.3.1/thumb/v6-m\libgcc.a(_udivsi3.o)
                                                  c:/program files (x86)/atmel/studio/7.0/toolchain/arm/arm-gnu-toolchain/bin/../lib/gcc/arm-none-eabi/6.3.1/thumb/v6-m\libgcc.a(divdf3.o)
                                                  C:\Users\Hunter\DOCUME~1\Work\Venom\DEVELO~1\CIRCUI~2\BLINK0~3\BLINK0~1\ARDUIN~1\Debug\libArduinoCore.a(Print.o)
__bss_end__                                       C:\Users\Hunter\DOCUME~1\Work\Venom\DEVELO~1\CIRCUI~2\BLINK0~3\BLINK0~1\ARDUIN~1\Debug\libArduinoCore.a(cortex_handlers.o)
                                                  c:/program files (x86)/atmel/studio/7.0/toolchain/arm/arm-gnu-toolchain/bin/../lib/gcc/arm-none-eabi/6.3.1/../../../../arm-none-eabi/lib/thumb/v6-m/crt0.o
__bss_start__                                     C:\Users\Hunter\DOCUME~1\Work\Venom\DEVELO~1\CIRCUI~2\BLINK0~3\BLINK0~1\ARDUIN~1\Debug\libArduinoCore.a(cortex_handlers.o)
                                                  c:/program files (x86)/atmel/studio/7.0/toolchain/arm/arm-gnu-toolchain/bin/../lib/gcc/arm-none-eabi/6.3.1/../../../../arm-none-eabi/lib/thumb/v6-m/crt0.o
__call_exitprocs                                  c:/program files (x86)/atmel/studio/7.0/toolchain/arm/arm-gnu-toolchain/bin/../lib/gcc/arm-none-eabi/6.3.1/../../../../arm-none-eabi/lib/thumb/v6-m\libc_nano.a(lib_a-exit.o)
__clzsi2                                          c:/program files (x86)/atmel/studio/7.0/toolchain/arm/arm-gnu-toolchain/bin/../lib/gcc/arm-none-eabi/6.3.1/thumb/v6-m\libgcc.a(_clzsi2.o)
                                                  c:/program files (x86)/atmel/studio/7.0/toolchain/arm/arm-gnu-toolchain/bin/../lib/gcc/arm-none-eabi/6.3.1/thumb/v6-m\libgcc.a(floatunsidf.o)
                                                  c:/program files (x86)/atmel/studio/7.0/toolchain/arm/arm-gnu-toolchain/bin/../lib/gcc/arm-none-eabi/6.3.1/thumb/v6-m\libgcc.a(subdf3.o)
                                                  c:/program files (x86)/atmel/studio/7.0/toolchain/arm/arm-gnu-toolchain/bin/../lib/gcc/arm-none-eabi/6.3.1/thumb/v6-m\libgcc.a(muldf3.o)
                                                  c:/program files (x86)/atmel/studio/7.0/toolchain/arm/arm-gnu-toolchain/bin/../lib/gcc/arm-none-eabi/6.3.1/thumb/v6-m\libgcc.a(divdf3.o)
                                                  c:/program files (x86)/atmel/studio/7.0/toolchain/arm/arm-gnu-toolchain/bin/../lib/gcc/arm-none-eabi/6.3.1/thumb/v6-m\libgcc.a(adddf3.o)
__cxa_deleted_virtual                             C:\Users\Hunter\DOCUME~1\Work\Venom\DEVELO~1\CIRCUI~2\BLINK0~3\BLINK0~1\ARDUIN~1\Debug\libArduinoCore.a(abi.o)
__cxa_pure_virtual                                C:\Users\Hunter\DOCUME~1\Work\Venom\DEVELO~1\CIRCUI~2\BLINK0~3\BLINK0~1\ARDUIN~1\Debug\libArduinoCore.a(abi.o)
                                                  C:\Users\Hunter\DOCUME~1\Work\Venom\DEVELO~1\CIRCUI~2\BLINK0~3\BLINK0~1\ARDUIN~1\Debug\libArduinoCore.a(Print.o)
__data_end__                                      C:\Users\Hunter\DOCUME~1\Work\Venom\DEVELO~1\CIRCUI~2\BLINK0~3\BLINK0~1\ARDUIN~1\Debug\libArduinoCore.a(cortex_handlers.o)
__data_start__                                    C:\Users\Hunter\DOCUME~1\Work\Venom\DEVELO~1\CIRCUI~2\BLINK0~3\BLINK0~1\ARDUIN~1\Debug\libArduinoCore.a(cortex_handlers.o)
__deregister_frame_info                           c:/program files (x86)/atmel/studio/7.0/toolchain/arm/arm-gnu-toolchain/bin/../lib/gcc/arm-none-eabi/6.3.1/thumb/v6-m/crtbegin.o
__divsi3                                          c:/program files (x86)/atmel/studio/7.0/toolchain/arm/arm-gnu-toolchain/bin/../lib/gcc/arm-none-eabi/6.3.1/thumb/v6-m\libgcc.a(_divsi3.o)
__dso_handle                                      c:/program files (x86)/atmel/studio/7.0/toolchain/arm/arm-gnu-toolchain/bin/../lib/gcc/arm-none-eabi/6.3.1/thumb/v6-m/crtbegin.o
__eqdf2                                           c:/program files (x86)/atmel/studio/7.0/toolchain/arm/arm-gnu-toolchain/bin/../lib/gcc/arm-none-eabi/6.3.1/thumb/v6-m\libgcc.a(eqdf2.o)
                                                  c:/program files (x86)/atmel/studio/7.0/toolchain/arm/arm-gnu-toolchain/bin/../lib/gcc/arm-none-eabi/6.3.1/thumb/v6-m\libgcc.a(_arm_cmpdf2.o)
__etext                                           C:\Users\Hunter\DOCUME~1\Work\Venom\DEVELO~1\CIRCUI~2\BLINK0~3\BLINK0~1\ARDUIN~1\Debug\libArduinoCore.a(cortex_handlers.o)
__fixunsdfsi                                      c:/program files (x86)/atmel/studio/7.0/toolchain/arm/arm-gnu-toolchain/bin/../lib/gcc/arm-none-eabi/6.3.1/thumb/v6-m\libgcc.a(_fixunsdfsi.o)
__gedf2                                           c:/program files (x86)/atmel/studio/7.0/toolchain/arm/arm-gnu-toolchain/bin/../lib/gcc/arm-none-eabi/6.3.1/thumb/v6-m\libgcc.a(gedf2.o)
                                                  c:/program files (x86)/atmel/studio/7.0/toolchain/arm/arm-gnu-toolchain/bin/../lib/gcc/arm-none-eabi/6.3.1/thumb/v6-m\libgcc.a(_arm_cmpdf2.o)
__gnu_thumb1_case_uqi                             c:/program files (x86)/atmel/studio/7.0/toolchain/arm/arm-gnu-toolchain/bin/../lib/gcc/arm-none-eabi/6.3.1/thumb/v6-m\libgcc.a(_thumb1_case_uqi.o)
                                                  C:\Users\Hunter\DOCUME~1\Work\Venom\DEVELO~1\CIRCUI~2\BLINK0~3\BLINK0~1\ARDUIN~1\Debug\libArduinoCore.a(wiring_private.o)
                                                  C:\Users\Hunter\DOCUME~1\Work\Venom\DEVELO~1\CIRCUI~2\BLINK0~3\BLINK0~1\ARDUIN~1\Debug\libArduinoCore.a(wiring_digital.o)
                                                  C:\Users\Hunter\DOCUME~1\Work\Venom\DEVELO~1\CIRCUI~2\BLINK0~3\BLINK0~1\ARDUIN~1\Debug\libArduinoCore.a(wiring_analog.o)
                                                  C:\Users\Hunter\DOCUME~1\Work\Venom\DEVELO~1\CIRCUI~2\BLINK0~3\BLINK0~1\ARDUIN~1\Debug\libArduinoCore.a(USBCore.o)
__gtdf2                                           c:/program files (x86)/atmel/studio/7.0/toolchain/arm/arm-gnu-toolchain/bin/../lib/gcc/arm-none-eabi/6.3.1/thumb/v6-m\libgcc.a(gedf2.o)
__init_array_end                                  c:/program files (x86)/atmel/studio/7.0/toolchain/arm/arm-gnu-toolchain/bin/../lib/gcc/arm-none-eabi/6.3.1/../../../../arm-none-eabi/lib/thumb/v6-m\libc_nano.a(lib_a-init.o)
__init_array_start                                c:/program files (x86)/atmel/studio/7.0/toolchain/arm/arm-gnu-toolchain/bin/../lib/gcc/arm-none-eabi/6.3.1/../../../../arm-none-eabi/lib/thumb/v6-m\libc_nano.a(lib_a-init.o)
__ledf2                                           c:/program files (x86)/atmel/studio/7.0/toolchain/arm/arm-gnu-toolchain/bin/../lib/gcc/arm-none-eabi/6.3.1/thumb/v6-m\libgcc.a(ledf2.o)
                                                  c:/program files (x86)/atmel/studio/7.0/toolchain/arm/arm-gnu-toolchain/bin/../lib/gcc/arm-none-eabi/6.3.1/thumb/v6-m\libgcc.a(_arm_cmpdf2.o)
__libc_fini_array                                 c:/program files (x86)/atmel/studio/7.0/toolchain/arm/arm-gnu-toolchain/bin/../lib/gcc/arm-none-eabi/6.3.1/../../../../arm-none-eabi/lib/thumb/v6-m/crt0.o
__libc_init_array                                 c:/program files (x86)/atmel/studio/7.0/toolchain/arm/arm-gnu-toolchain/bin/../lib/gcc/arm-none-eabi/6.3.1/../../../../arm-none-eabi/lib/thumb/v6-m\libc_nano.a(lib_a-init.o)
                                                  C:\Users\Hunter\DOCUME~1\Work\Venom\DEVELO~1\CIRCUI~2\BLINK0~3\BLINK0~1\ARDUIN~1\Debug\libArduinoCore.a(main.o)
                                                  c:/program files (x86)/atmel/studio/7.0/toolchain/arm/arm-gnu-toolchain/bin/../lib/gcc/arm-none-eabi/6.3.1/../../../../arm-none-eabi/lib/thumb/v6-m/crt0.o
__ltdf2                                           c:/program files (x86)/atmel/studio/7.0/toolchain/arm/arm-gnu-toolchain/bin/../lib/gcc/arm-none-eabi/6.3.1/thumb/v6-m\libgcc.a(ledf2.o)
__malloc_free_list                                c:/program files (x86)/atmel/studio/7.0/toolchain/arm/arm-gnu-toolchain/bin/../lib/gcc/arm-none-eabi/6.3.1/../../../../arm-none-eabi/lib/thumb/v6-m\libc_nano.a(lib_a-nano-mallocr.o)
                                                  c:/program files (x86)/atmel/studio/7.0/toolchain/arm/arm-gnu-toolchain/bin/../lib/gcc/arm-none-eabi/6.3.1/../../../../arm-none-eabi/lib/thumb/v6-m\libc_nano.a(lib_a-nano-freer.o)
__malloc_lock                                     c:/program files (x86)/atmel/studio/7.0/toolchain/arm/arm-gnu-toolchain/bin/../lib/gcc/arm-none-eabi/6.3.1/../../../../arm-none-eabi/lib/thumb/v6-m\libc_nano.a(lib_a-mlock.o)
                                                  c:/program files (x86)/atmel/studio/7.0/toolchain/arm/arm-gnu-toolchain/bin/../lib/gcc/arm-none-eabi/6.3.1/../../../../arm-none-eabi/lib/thumb/v6-m\libc_nano.a(lib_a-nano-mallocr.o)
                                                  c:/program files (x86)/atmel/studio/7.0/toolchain/arm/arm-gnu-toolchain/bin/../lib/gcc/arm-none-eabi/6.3.1/../../../../arm-none-eabi/lib/thumb/v6-m\libc_nano.a(lib_a-nano-freer.o)
__malloc_sbrk_start                               c:/program files (x86)/atmel/studio/7.0/toolchain/arm/arm-gnu-toolchain/bin/../lib/gcc/arm-none-eabi/6.3.1/../../../../arm-none-eabi/lib/thumb/v6-m\libc_nano.a(lib_a-nano-mallocr.o)
__malloc_unlock                                   c:/program files (x86)/atmel/studio/7.0/toolchain/arm/arm-gnu-toolchain/bin/../lib/gcc/arm-none-eabi/6.3.1/../../../../arm-none-eabi/lib/thumb/v6-m\libc_nano.a(lib_a-mlock.o)
                                                  c:/program files (x86)/atmel/studio/7.0/toolchain/arm/arm-gnu-toolchain/bin/../lib/gcc/arm-none-eabi/6.3.1/../../../../arm-none-eabi/lib/thumb/v6-m\libc_nano.a(lib_a-nano-mallocr.o)
                                                  c:/program files (x86)/atmel/studio/7.0/toolchain/arm/arm-gnu-toolchain/bin/../lib/gcc/arm-none-eabi/6.3.1/../../../../arm-none-eabi/lib/thumb/v6-m\libc_nano.a(lib_a-nano-freer.o)
__nedf2                                           c:/program files (x86)/atmel/studio/7.0/toolchain/arm/arm-gnu-toolchain/bin/../lib/gcc/arm-none-eabi/6.3.1/thumb/v6-m\libgcc.a(eqdf2.o)
__preinit_array_end                               c:/program files (x86)/atmel/studio/7.0/toolchain/arm/arm-gnu-toolchain/bin/../lib/gcc/arm-none-eabi/6.3.1/../../../../arm-none-eabi/lib/thumb/v6-m\libc_nano.a(lib_a-init.o)
__preinit_array_start                             c:/program files (x86)/atmel/studio/7.0/toolchain/arm/arm-gnu-toolchain/bin/../lib/gcc/arm-none-eabi/6.3.1/../../../../arm-none-eabi/lib/thumb/v6-m\libc_nano.a(lib_a-init.o)
__register_frame_info                             c:/program files (x86)/atmel/studio/7.0/toolchain/arm/arm-gnu-toolchain/bin/../lib/gcc/arm-none-eabi/6.3.1/thumb/v6-m/crtbegin.o
__sf_fake_stderr                                  c:/program files (x86)/atmel/studio/7.0/toolchain/arm/arm-gnu-toolchain/bin/../lib/gcc/arm-none-eabi/6.3.1/../../../../arm-none-eabi/lib/thumb/v6-m\libc_nano.a(lib_a-impure.o)
__sf_fake_stdin                                   c:/program files (x86)/atmel/studio/7.0/toolchain/arm/arm-gnu-toolchain/bin/../lib/gcc/arm-none-eabi/6.3.1/../../../../arm-none-eabi/lib/thumb/v6-m\libc_nano.a(lib_a-impure.o)
__sf_fake_stdout                                  c:/program files (x86)/atmel/studio/7.0/toolchain/arm/arm-gnu-toolchain/bin/../lib/gcc/arm-none-eabi/6.3.1/../../../../arm-none-eabi/lib/thumb/v6-m\libc_nano.a(lib_a-impure.o)
__stack                                           c:/program files (x86)/atmel/studio/7.0/toolchain/arm/arm-gnu-toolchain/bin/../lib/gcc/arm-none-eabi/6.3.1/../../../../arm-none-eabi/lib/thumb/v6-m/crt0.o
__text_start__                                    C:\Users\Hunter\DOCUME~1\Work\Venom\DEVELO~1\CIRCUI~2\BLINK0~3\BLINK0~1\ARDUIN~1\Debug\libArduinoCore.a(Reset.o)
__udivsi3                                         c:/program files (x86)/atmel/studio/7.0/toolchain/arm/arm-gnu-toolchain/bin/../lib/gcc/arm-none-eabi/6.3.1/thumb/v6-m\libgcc.a(_udivsi3.o)
_dry_run                                          C:\Users\Hunter\DOCUME~1\Work\Venom\DEVELO~1\CIRCUI~2\BLINK0~3\BLINK0~1\ARDUIN~1\Debug\libArduinoCore.a(USBCore.o)
_exit                                             c:/program files (x86)/atmel/studio/7.0/toolchain/arm/arm-gnu-toolchain/bin/../lib/gcc/arm-none-eabi/6.3.1/../../../../arm-none-eabi/lib/thumb/v6-m\libnosys.a(_exit.o)
                                                  c:/program files (x86)/atmel/studio/7.0/toolchain/arm/arm-gnu-toolchain/bin/../lib/gcc/arm-none-eabi/6.3.1/../../../../arm-none-eabi/lib/thumb/v6-m\libc_nano.a(lib_a-exit.o)
_fini                                             c:/program files (x86)/atmel/studio/7.0/toolchain/arm/arm-gnu-toolchain/bin/../lib/gcc/arm-none-eabi/6.3.1/thumb/v6-m/crti.o
_free_r                                           c:/program files (x86)/atmel/studio/7.0/toolchain/arm/arm-gnu-toolchain/bin/../lib/gcc/arm-none-eabi/6.3.1/../../../../arm-none-eabi/lib/thumb/v6-m\libc_nano.a(lib_a-nano-freer.o)
                                                  c:/program files (x86)/atmel/studio/7.0/toolchain/arm/arm-gnu-toolchain/bin/../lib/gcc/arm-none-eabi/6.3.1/../../../../arm-none-eabi/lib/thumb/v6-m\libc_nano.a(lib_a-reent.o)
                                                  c:/program files (x86)/atmel/studio/7.0/toolchain/arm/arm-gnu-toolchain/bin/../lib/gcc/arm-none-eabi/6.3.1/../../../../arm-none-eabi/lib/thumb/v6-m\libc_nano.a(lib_a-malloc.o)
_global_impure_ptr                                c:/program files (x86)/atmel/studio/7.0/toolchain/arm/arm-gnu-toolchain/bin/../lib/gcc/arm-none-eabi/6.3.1/../../../../arm-none-eabi/lib/thumb/v6-m\libc_nano.a(lib_a-impure.o)
                                                  c:/program files (x86)/atmel/studio/7.0/toolchain/arm/arm-gnu-toolchain/bin/../lib/gcc/arm-none-eabi/6.3.1/../../../../arm-none-eabi/lib/thumb/v6-m\libc_nano.a(lib_a-exit.o)
_impure_ptr                                       c:/program files (x86)/atmel/studio/7.0/toolchain/arm/arm-gnu-toolchain/bin/../lib/gcc/arm-none-eabi/6.3.1/../../../../arm-none-eabi/lib/thumb/v6-m\libc_nano.a(lib_a-impure.o)
                                                  c:/program files (x86)/atmel/studio/7.0/toolchain/arm/arm-gnu-toolchain/bin/../lib/gcc/arm-none-eabi/6.3.1/../../../../arm-none-eabi/lib/thumb/v6-m\libc_nano.a(lib_a-reent.o)
                                                  c:/program files (x86)/atmel/studio/7.0/toolchain/arm/arm-gnu-toolchain/bin/../lib/gcc/arm-none-eabi/6.3.1/../../../../arm-none-eabi/lib/thumb/v6-m\libc_nano.a(lib_a-malloc.o)
_init                                             c:/program files (x86)/atmel/studio/7.0/toolchain/arm/arm-gnu-toolchain/bin/../lib/gcc/arm-none-eabi/6.3.1/thumb/v6-m/crti.o
                                                  c:/program files (x86)/atmel/studio/7.0/toolchain/arm/arm-gnu-toolchain/bin/../lib/gcc/arm-none-eabi/6.3.1/../../../../arm-none-eabi/lib/thumb/v6-m\libc_nano.a(lib_a-init.o)
