
Blink.elf:     file format elf32-littlearm

Sections:
Idx Name          Size      VMA       LMA       File off  Algn
  0 .text         00002b74  00000000  00000000  00010000  2**2
                  CONTENTS, ALLOC, LOAD, READONLY, CODE
  1 .data         00000094  20000000  00002b74  00020000  2**2
                  CONTENTS, ALLOC, LOAD, DATA
  2 .bss          000008ac  20000094  00002c08  00020094  2**2
                  ALLOC
  3 .ARM.attributes 00000028  00000000  00000000  00020094  2**0
                  CONTENTS, READONLY
  4 .comment      00000059  00000000  00000000  000200bc  2**0
                  CONTENTS, READONLY
  5 .debug_info   000540f4  00000000  00000000  00020115  2**0
                  CONTENTS, READONLY, DEBUGGING
  6 .debug_abbrev 00005f1f  00000000  00000000  00074209  2**0
                  CONTENTS, READONLY, DEBUGGING
  7 .debug_loc    00007785  00000000  00000000  0007a128  2**0
                  CONTENTS, READONLY, DEBUGGING
  8 .debug_aranges 00000908  00000000  00000000  000818ad  2**0
                  CONTENTS, READONLY, DEBUGGING
  9 .debug_ranges 00001388  00000000  00000000  000821b5  2**0
                  CONTENTS, READONLY, DEBUGGING
 10 .debug_macro  0001ca72  00000000  00000000  0008353d  2**0
                  CONTENTS, READONLY, DEBUGGING
 11 .debug_line   0000dd48  00000000  00000000  0009ffaf  2**0
                  CONTENTS, READONLY, DEBUGGING
 12 .debug_str    00083849  00000000  00000000  000adcf7  2**0
                  CONTENTS, READONLY, DEBUGGING
 13 .debug_frame  000017cc  00000000  00000000  00131540  2**2
                  CONTENTS, READONLY, DEBUGGING

Disassembly of section .text:

00000000 <exception_table>:

void *operator new(size_t size) {
  return malloc(size);
}

void *operator new[](size_t size) {
       0:	00 80 00 20 5d 01 00 00 45 01 00 00 45 01 00 00     ... ]...E...E...
	...
      2c:	45 01 00 00 00 00 00 00 00 00 00 00 45 01 00 00     E...........E...
      3c:	b1 01 00 00 45 01 00 00 45 01 00 00 45 01 00 00     ....E...E...E...
      4c:	45 01 00 00 45 01 00 00 45 01 00 00 45 01 00 00     E...E...E...E...
      5c:	49 01 00 00 45 01 00 00 45 01 00 00 45 01 00 00     I...E...E...E...
      6c:	45 01 00 00 45 01 00 00 3d 17 00 00 45 01 00 00     E...E...=...E...
      7c:	45 01 00 00 45 01 00 00 45 01 00 00 45 01 00 00     E...E...E...E...
      8c:	45 01 00 00 00 00 00 00 45 01 00 00 45 01 00 00     E.......E...E...
      9c:	45 01 00 00 45 01 00 00 45 01 00 00 45 01 00 00     E...E...E...E...
      ac:	45 01 00 00 00 00 00 00                             E.......

000000b4 <__do_global_dtors_aux>:
      b4:	b510      	push	{r4, lr}
      b6:	4c06      	ldr	r4, [pc, #24]	; (d0 <__do_global_dtors_aux+0x1c>)
      b8:	7823      	ldrb	r3, [r4, #0]
      ba:	2b00      	cmp	r3, #0
      bc:	d107      	bne.n	ce <__do_global_dtors_aux+0x1a>
      be:	4b05      	ldr	r3, [pc, #20]	; (d4 <__do_global_dtors_aux+0x20>)
      c0:	2b00      	cmp	r3, #0
      c2:	d002      	beq.n	ca <__do_global_dtors_aux+0x16>
      c4:	4804      	ldr	r0, [pc, #16]	; (d8 <__do_global_dtors_aux+0x24>)
      c6:	e000      	b.n	ca <__do_global_dtors_aux+0x16>
      c8:	bf00      	nop
      ca:	2301      	movs	r3, #1
      cc:	7023      	strb	r3, [r4, #0]
      ce:	bd10      	pop	{r4, pc}
      d0:	20000094 	.word	0x20000094
      d4:	00000000 	.word	0x00000000
      d8:	00002b70 	.word	0x00002b70

000000dc <frame_dummy>:
      dc:	4b08      	ldr	r3, [pc, #32]	; (100 <frame_dummy+0x24>)
      de:	b510      	push	{r4, lr}
      e0:	2b00      	cmp	r3, #0
      e2:	d003      	beq.n	ec <frame_dummy+0x10>
      e4:	4907      	ldr	r1, [pc, #28]	; (104 <frame_dummy+0x28>)
      e6:	4808      	ldr	r0, [pc, #32]	; (108 <frame_dummy+0x2c>)
      e8:	e000      	b.n	ec <frame_dummy+0x10>
      ea:	bf00      	nop
      ec:	4807      	ldr	r0, [pc, #28]	; (10c <frame_dummy+0x30>)
      ee:	6803      	ldr	r3, [r0, #0]
      f0:	2b00      	cmp	r3, #0
      f2:	d100      	bne.n	f6 <frame_dummy+0x1a>
      f4:	bd10      	pop	{r4, pc}
      f6:	4b06      	ldr	r3, [pc, #24]	; (110 <frame_dummy+0x34>)
      f8:	2b00      	cmp	r3, #0
      fa:	d0fb      	beq.n	f4 <frame_dummy+0x18>
      fc:	4798      	blx	r3
      fe:	e7f9      	b.n	f4 <frame_dummy+0x18>
     100:	00000000 	.word	0x00000000
     104:	20000098 	.word	0x20000098
     108:	00002b70 	.word	0x00002b70
     10c:	20000090 	.word	0x20000090
     110:	00000000 	.word	0x00000000

00000114 <setup>:

  http://www.arduino.cc/en/Tutorial/Blink
*/

// the setup function runs once when you press reset or power the board
void setup() {
     114:	b510      	push	{r4, lr}
  // initialize digital pin LED_BUILTIN as an output.
  pinMode(LED_BUILTIN, OUTPUT);
     116:	2101      	movs	r1, #1
     118:	200d      	movs	r0, #13
     11a:	f001 fa39 	bl	1590 <pinMode>
}
     11e:	bd10      	pop	{r4, pc}

00000120 <loop>:

// the loop function runs over and over again forever
void loop() {
     120:	b510      	push	{r4, lr}
  digitalWrite(LED_BUILTIN, HIGH);   // turn the LED on (HIGH is the voltage level)
  delay(1000);                       // wait for a second
     122:	24fa      	movs	r4, #250	; 0xfa
  digitalWrite(LED_BUILTIN, HIGH);   // turn the LED on (HIGH is the voltage level)
     124:	2101      	movs	r1, #1
  delay(1000);                       // wait for a second
     126:	00a4      	lsls	r4, r4, #2
  digitalWrite(LED_BUILTIN, HIGH);   // turn the LED on (HIGH is the voltage level)
     128:	200d      	movs	r0, #13
     12a:	f001 fa7d 	bl	1628 <digitalWrite>
  delay(1000);                       // wait for a second
     12e:	0020      	movs	r0, r4
     130:	f000 f87c 	bl	22c <delay>
  digitalWrite(LED_BUILTIN, LOW);    // turn the LED off by making the voltage LOW
     134:	2100      	movs	r1, #0
     136:	200d      	movs	r0, #13
     138:	f001 fa76 	bl	1628 <digitalWrite>
  delay(1000);                       // wait for a second
     13c:	0020      	movs	r0, r4
     13e:	f000 f875 	bl	22c <delay>
}
     142:	bd10      	pop	{r4, pc}

00000144 <Dummy_Handler>:

/* Default empty handler */
void Dummy_Handler(void)
{
#if defined DEBUG
  __BKPT(3);
     144:	be03      	bkpt	0x0003
     146:	e7fe      	b.n	146 <Dummy_Handler+0x2>

00000148 <USB_Handler>:

static void (*usb_isr)(void) = NULL;

void USB_Handler(void)
{
  if (usb_isr)
     148:	4b03      	ldr	r3, [pc, #12]	; (158 <USB_Handler+0x10>)
{
     14a:	b510      	push	{r4, lr}
  if (usb_isr)
     14c:	681b      	ldr	r3, [r3, #0]
     14e:	2b00      	cmp	r3, #0
     150:	d000      	beq.n	154 <USB_Handler+0xc>
    usb_isr();
     152:	4798      	blx	r3
}
     154:	bd10      	pop	{r4, pc}
     156:	46c0      	nop			; (mov r8, r8)
     158:	200000b0 	.word	0x200000b0

0000015c <Reset_Handler>:
{
     15c:	b570      	push	{r4, r5, r6, lr}
  if ((&__data_start__ != &__data_end__) && (pSrc != pDest)) {
     15e:	490f      	ldr	r1, [pc, #60]	; (19c <Reset_Handler+0x40>)
     160:	4c0f      	ldr	r4, [pc, #60]	; (1a0 <Reset_Handler+0x44>)
     162:	42a1      	cmp	r1, r4
     164:	d104      	bne.n	170 <Reset_Handler+0x14>
  SystemInit();
     166:	f000 f8f7 	bl	358 <SystemInit>
  main();
     16a:	f000 f887 	bl	27c <main>
     16e:	e7fe      	b.n	16e <Reset_Handler+0x12>
  if ((&__data_start__ != &__data_end__) && (pSrc != pDest)) {
     170:	4d0c      	ldr	r5, [pc, #48]	; (1a4 <Reset_Handler+0x48>)
     172:	2300      	movs	r3, #0
     174:	428d      	cmp	r5, r1
     176:	d0f6      	beq.n	166 <Reset_Handler+0xa>
     178:	18ca      	adds	r2, r1, r3
     17a:	18e8      	adds	r0, r5, r3
    for (; pDest < &__data_end__; pDest++, pSrc++)
     17c:	42a2      	cmp	r2, r4
     17e:	d305      	bcc.n	18c <Reset_Handler+0x30>
  if ((&__data_start__ != &__data_end__) && (pSrc != pDest)) {
     180:	4290      	cmp	r0, r2
     182:	d0f0      	beq.n	166 <Reset_Handler+0xa>
     184:	4b08      	ldr	r3, [pc, #32]	; (1a8 <Reset_Handler+0x4c>)
    for (pDest = &__bss_start__; pDest < &__bss_end__; pDest++)
     186:	4909      	ldr	r1, [pc, #36]	; (1ac <Reset_Handler+0x50>)
      *pDest = 0;
     188:	2200      	movs	r2, #0
     18a:	e004      	b.n	196 <Reset_Handler+0x3a>
      *pDest = *pSrc;
     18c:	6800      	ldr	r0, [r0, #0]
     18e:	3304      	adds	r3, #4
     190:	6010      	str	r0, [r2, #0]
     192:	e7f1      	b.n	178 <Reset_Handler+0x1c>
      *pDest = 0;
     194:	c304      	stmia	r3!, {r2}
    for (pDest = &__bss_start__; pDest < &__bss_end__; pDest++)
     196:	428b      	cmp	r3, r1
     198:	d3fc      	bcc.n	194 <Reset_Handler+0x38>
     19a:	e7e4      	b.n	166 <Reset_Handler+0xa>
     19c:	20000000 	.word	0x20000000
     1a0:	20000094 	.word	0x20000094
     1a4:	00002b74 	.word	0x00002b74
     1a8:	20000094 	.word	0x20000094
     1ac:	20000940 	.word	0x20000940

000001b0 <SysTick_Handler>:
{
     1b0:	b510      	push	{r4, lr}
  if (sysTickHook())
     1b2:	f000 f860 	bl	276 <sysTickHook>
     1b6:	2800      	cmp	r0, #0
     1b8:	d101      	bne.n	1be <SysTick_Handler+0xe>
  SysTick_DefaultHandler();
     1ba:	f000 f851 	bl	260 <SysTick_DefaultHandler>
}
     1be:	bd10      	pop	{r4, pc}

000001c0 <USB_SetHandler>:

void USB_SetHandler(void (*new_usb_isr)(void))
{
  usb_isr = new_usb_isr;
     1c0:	4b01      	ldr	r3, [pc, #4]	; (1c8 <USB_SetHandler+0x8>)
     1c2:	6018      	str	r0, [r3, #0]
}
     1c4:	4770      	bx	lr
     1c6:	46c0      	nop			; (mov r8, r8)
     1c8:	200000b0 	.word	0x200000b0

000001cc <micros>:
// Interrupt-compatible version of micros
// Theory: repeatedly take readings of SysTick counter, millis counter and SysTick interrupt pending flag.
// When it appears that millis counter and pending is stable and SysTick hasn't rolled over, use these
// values to calculate micros. If there is a pending SysTick, add one to the millis counter in the calculation.
unsigned long micros( void )
{
     1cc:	b5f7      	push	{r0, r1, r2, r4, r5, r6, r7, lr}
  uint32_t pend, pend2;
  uint32_t count, count2;

  ticks2  = SysTick->VAL;
  pend2   = !!(SCB->ICSR & SCB_ICSR_PENDSTSET_Msk)  ;
  count2  = _ulTickCount ;
     1ce:	4813      	ldr	r0, [pc, #76]	; (21c <micros+0x50>)
  pend2   = !!(SCB->ICSR & SCB_ICSR_PENDSTSET_Msk)  ;
     1d0:	2201      	movs	r2, #1
  count2  = _ulTickCount ;
     1d2:	4684      	mov	ip, r0
  ticks2  = SysTick->VAL;
     1d4:	4912      	ldr	r1, [pc, #72]	; (220 <micros+0x54>)
  pend2   = !!(SCB->ICSR & SCB_ICSR_PENDSTSET_Msk)  ;
     1d6:	4c13      	ldr	r4, [pc, #76]	; (224 <micros+0x58>)
  ticks2  = SysTick->VAL;
     1d8:	688e      	ldr	r6, [r1, #8]
  pend2   = !!(SCB->ICSR & SCB_ICSR_PENDSTSET_Msk)  ;
     1da:	6863      	ldr	r3, [r4, #4]
  count2  = _ulTickCount ;
     1dc:	6805      	ldr	r5, [r0, #0]
  pend2   = !!(SCB->ICSR & SCB_ICSR_PENDSTSET_Msk)  ;
     1de:	0e9b      	lsrs	r3, r3, #26
     1e0:	4013      	ands	r3, r2
  {
    ticks=ticks2;
    pend=pend2;
    count=count2;
    ticks2  = SysTick->VAL;
    pend2   = !!(SCB->ICSR & SCB_ICSR_PENDSTSET_Msk)  ;
     1e2:	9201      	str	r2, [sp, #4]
    ticks2  = SysTick->VAL;
     1e4:	6888      	ldr	r0, [r1, #8]
    pend2   = !!(SCB->ICSR & SCB_ICSR_PENDSTSET_Msk)  ;
     1e6:	6862      	ldr	r2, [r4, #4]
     1e8:	9f01      	ldr	r7, [sp, #4]
     1ea:	0e92      	lsrs	r2, r2, #26
     1ec:	403a      	ands	r2, r7
    count2  = _ulTickCount ;
     1ee:	4667      	mov	r7, ip
     1f0:	683f      	ldr	r7, [r7, #0]
  } while ((pend != pend2) || (count != count2) || (ticks < ticks2));
     1f2:	4293      	cmp	r3, r2
     1f4:	d10e      	bne.n	214 <micros+0x48>
     1f6:	42bd      	cmp	r5, r7
     1f8:	d10c      	bne.n	214 <micros+0x48>
     1fa:	4286      	cmp	r6, r0
     1fc:	d30a      	bcc.n	214 <micros+0x48>

  return ((count+pend) * 1000) + (((SysTick->LOAD  - ticks)*(1048576/(VARIANT_MCK/1000000)))>>20) ;
     1fe:	195b      	adds	r3, r3, r5
     200:	25fa      	movs	r5, #250	; 0xfa
     202:	6848      	ldr	r0, [r1, #4]
     204:	00ad      	lsls	r5, r5, #2
     206:	1b86      	subs	r6, r0, r6
     208:	4807      	ldr	r0, [pc, #28]	; (228 <micros+0x5c>)
     20a:	436b      	muls	r3, r5
     20c:	4370      	muls	r0, r6
     20e:	0d00      	lsrs	r0, r0, #20
     210:	18c0      	adds	r0, r0, r3
  // this is an optimization to turn a runtime division into two compile-time divisions and
  // a runtime multiplication and shift, saving a few cycles
}
     212:	bdfe      	pop	{r1, r2, r3, r4, r5, r6, r7, pc}
{
     214:	003d      	movs	r5, r7
     216:	0013      	movs	r3, r2
     218:	0006      	movs	r6, r0
     21a:	e7e3      	b.n	1e4 <micros+0x18>
     21c:	200000b4 	.word	0x200000b4
     220:	e000e010 	.word	0xe000e010
     224:	e000ed00 	.word	0xe000ed00
     228:	00005555 	.word	0x00005555

0000022c <delay>:

void delay( unsigned long ms )
{
     22c:	b570      	push	{r4, r5, r6, lr}
     22e:	1e04      	subs	r4, r0, #0
  if (ms == 0)
     230:	d010      	beq.n	254 <delay+0x28>
  {
    return;
  }

  uint32_t start = micros();
     232:	f7ff ffcb 	bl	1cc <micros>
     236:	0005      	movs	r5, r0

  while (ms > 0)
  {
    yield();
     238:	f000 f81c 	bl	274 <yield>
    while (ms > 0 && (micros() - start) >= 1000)
     23c:	f7ff ffc6 	bl	1cc <micros>
     240:	4b05      	ldr	r3, [pc, #20]	; (258 <delay+0x2c>)
     242:	1b40      	subs	r0, r0, r5
     244:	4298      	cmp	r0, r3
     246:	d9f7      	bls.n	238 <delay+0xc>
    {
      ms--;
      start += 1000;
     248:	23fa      	movs	r3, #250	; 0xfa
      ms--;
     24a:	3c01      	subs	r4, #1
      start += 1000;
     24c:	009b      	lsls	r3, r3, #2
     24e:	18ed      	adds	r5, r5, r3
    while (ms > 0 && (micros() - start) >= 1000)
     250:	2c00      	cmp	r4, #0
     252:	d1f3      	bne.n	23c <delay+0x10>
    }
  }
}
     254:	bd70      	pop	{r4, r5, r6, pc}
     256:	46c0      	nop			; (mov r8, r8)
     258:	000003e7 	.word	0x000003e7

0000025c <resetExternalChip>:

void initiateReset(int ms);
void tickReset();
void cancelReset();

 __attribute__ ((weak)) void resetExternalChip() {};
     25c:	4770      	bx	lr
	...

00000260 <SysTick_DefaultHandler>:

#include "Reset.h" // for tickReset()

void SysTick_DefaultHandler(void)
{
     260:	b510      	push	{r4, lr}
  // Increment tick count each ms
  _ulTickCount++;
     262:	4a03      	ldr	r2, [pc, #12]	; (270 <SysTick_DefaultHandler+0x10>)
     264:	6813      	ldr	r3, [r2, #0]
     266:	3301      	adds	r3, #1
     268:	6013      	str	r3, [r2, #0]
  tickReset();
     26a:	f000 f839 	bl	2e0 <tickReset>
}
     26e:	bd10      	pop	{r4, pc}
     270:	200000b4 	.word	0x200000b4

00000274 <yield>:
 * Its defined as a weak symbol and it can be redefined to implement a
 * real cooperative scheduler.
 */
static void __empty() {
	// Empty
}
     274:	4770      	bx	lr

00000276 <sysTickHook>:
 * handler provided by Arduino.
 */
static int __false() {
	// Return false
	return 0;
}
     276:	2000      	movs	r0, #0
     278:	4770      	bx	lr

0000027a <_Z11initVariantv>:
#include "Arduino.h"

// Weak empty variant initialization function.
// May be redefined by variant files.
void initVariant() __attribute__((weak));
void initVariant() { }
     27a:	4770      	bx	lr

0000027c <main>:

/*
 * \brief Main entry point of Arduino application
 */
int main( void )
{
     27c:	b510      	push	{r4, lr}
  init();
     27e:	f001 f8dd 	bl	143c <init>

  __libc_init_array();
     282:	f002 f903 	bl	248c <__libc_init_array>

  initVariant();
     286:	f7ff fff8 	bl	27a <_Z11initVariantv>

  delay(1);
     28a:	2001      	movs	r0, #1
     28c:	f7ff ffce 	bl	22c <delay>
#if defined(USBCON)
  USBDevice.init();
     290:	4c08      	ldr	r4, [pc, #32]	; (2b4 <main+0x38>)
     292:	0020      	movs	r0, r4
     294:	f000 fb80 	bl	998 <_ZN14USBDeviceClass4initEv>
  USBDevice.attach();
     298:	0020      	movs	r0, r4
     29a:	f000 fc17 	bl	acc <_ZN14USBDeviceClass6attachEv>
#endif

  setup();
     29e:	f7ff ff39 	bl	114 <setup>

  for (;;)
  {
    loop();
     2a2:	f7ff ff3d 	bl	120 <loop>
    if (serialEventRun) serialEventRun();
     2a6:	4b04      	ldr	r3, [pc, #16]	; (2b8 <main+0x3c>)
     2a8:	2b00      	cmp	r3, #0
     2aa:	d0fa      	beq.n	2a2 <main+0x26>
     2ac:	e000      	b.n	2b0 <main+0x34>
     2ae:	bf00      	nop
     2b0:	e7f7      	b.n	2a2 <main+0x26>
     2b2:	46c0      	nop			; (mov r8, r8)
     2b4:	200000e0 	.word	0x200000e0
     2b8:	00000000 	.word	0x00000000

000002bc <initiateReset>:
	while (true);
}

static int ticks = -1;

void initiateReset(int _ticks) {
     2bc:	b510      	push	{r4, lr}
     2be:	0004      	movs	r4, r0
	resetExternalChip();
     2c0:	f7ff ffcc 	bl	25c <resetExternalChip>
	ticks = _ticks;
     2c4:	4b01      	ldr	r3, [pc, #4]	; (2cc <initiateReset+0x10>)
     2c6:	601c      	str	r4, [r3, #0]
}
     2c8:	bd10      	pop	{r4, pc}
     2ca:	46c0      	nop			; (mov r8, r8)
     2cc:	20000000 	.word	0x20000000

000002d0 <cancelReset>:

void cancelReset() {
	ticks = -1;
     2d0:	2201      	movs	r2, #1
     2d2:	4b02      	ldr	r3, [pc, #8]	; (2dc <cancelReset+0xc>)
     2d4:	4252      	negs	r2, r2
     2d6:	601a      	str	r2, [r3, #0]
}
     2d8:	4770      	bx	lr
     2da:	46c0      	nop			; (mov r8, r8)
     2dc:	20000000 	.word	0x20000000

000002e0 <tickReset>:

void tickReset() {
	if (ticks == -1)
     2e0:	4a16      	ldr	r2, [pc, #88]	; (33c <tickReset+0x5c>)
void tickReset() {
     2e2:	b510      	push	{r4, lr}
	if (ticks == -1)
     2e4:	6813      	ldr	r3, [r2, #0]
     2e6:	1c59      	adds	r1, r3, #1
     2e8:	d027      	beq.n	33a <tickReset+0x5a>
		return;
	ticks--;
     2ea:	3b01      	subs	r3, #1
     2ec:	6013      	str	r3, [r2, #0]
	if (ticks == 0)
     2ee:	2b00      	cmp	r3, #0
     2f0:	d123      	bne.n	33a <tickReset+0x5a>
  \details Disables IRQ interrupts by setting the I-bit in the CPSR.
           Can only be executed in Privileged modes.
 */
__STATIC_FORCEINLINE void __disable_irq(void)
{
  __ASM volatile ("cpsid i" : : : "memory");
     2f2:	b672      	cpsid	i
	if (APP_START < (0x200 + 4)) {
     2f4:	4b12      	ldr	r3, [pc, #72]	; (340 <tickReset+0x60>)
     2f6:	4a13      	ldr	r2, [pc, #76]	; (344 <tickReset+0x64>)
     2f8:	3304      	adds	r3, #4
     2fa:	4293      	cmp	r3, r2
     2fc:	d808      	bhi.n	310 <tickReset+0x30>
  \details Acts as a special kind of Data Memory Barrier.
           It completes when all explicit memory accesses before this instruction complete.
 */
__STATIC_FORCEINLINE void __DSB(void)
{
  __ASM volatile ("dsb 0xF":::"memory");
     2fe:	f3bf 8f4f 	dsb	sy
 */
__NO_RETURN __STATIC_INLINE void __NVIC_SystemReset(void)
{
  __DSB();                                                          /* Ensure all outstanding memory accesses included
                                                                       buffered write are completed before reset */
  SCB->AIRCR  = ((0x5FAUL << SCB_AIRCR_VECTKEY_Pos) |
     302:	4a11      	ldr	r2, [pc, #68]	; (348 <tickReset+0x68>)
     304:	4b11      	ldr	r3, [pc, #68]	; (34c <tickReset+0x6c>)
     306:	60da      	str	r2, [r3, #12]
     308:	f3bf 8f4f 	dsb	sy
                 SCB_AIRCR_SYSRESETREQ_Msk);
  __DSB();                                                          /* Ensure completion of memory access */

  for(;;)                                                           /* wait until reset */
  {
    __NOP();
     30c:	46c0      	nop			; (mov r8, r8)
     30e:	e7fd      	b.n	30c <tickReset+0x2c>
        return NVMCTRL->INTFLAG.reg & NVMCTRL_INTFLAG_READY;
     310:	4a0f      	ldr	r2, [pc, #60]	; (350 <tickReset+0x70>)
	while (!nvmReady())
     312:	2101      	movs	r1, #1
     314:	0010      	movs	r0, r2
        return NVMCTRL->INTFLAG.reg & NVMCTRL_INTFLAG_READY;
     316:	7d14      	ldrb	r4, [r2, #20]
	while (!nvmReady())
     318:	420c      	tst	r4, r1
     31a:	d0fc      	beq.n	316 <tickReset+0x36>
	NVMCTRL->STATUS.reg |= NVMCTRL_STATUS_MASK;
     31c:	2120      	movs	r1, #32
     31e:	8b14      	ldrh	r4, [r2, #24]
     320:	31ff      	adds	r1, #255	; 0xff
	NVMCTRL->ADDR.reg  = (uintptr_t)&NVM_MEMORY[APP_START / 4];
     322:	089b      	lsrs	r3, r3, #2
     324:	005b      	lsls	r3, r3, #1
	NVMCTRL->STATUS.reg |= NVMCTRL_STATUS_MASK;
     326:	4321      	orrs	r1, r4
     328:	8311      	strh	r1, [r2, #24]
	NVMCTRL->ADDR.reg  = (uintptr_t)&NVM_MEMORY[APP_START / 4];
     32a:	61d3      	str	r3, [r2, #28]
	NVMCTRL->CTRLA.reg = NVMCTRL_CTRLA_CMD_ER | NVMCTRL_CTRLA_CMDEX_KEY;
     32c:	4b09      	ldr	r3, [pc, #36]	; (354 <tickReset+0x74>)
     32e:	8013      	strh	r3, [r2, #0]
	while (!nvmReady())
     330:	2301      	movs	r3, #1
        return NVMCTRL->INTFLAG.reg & NVMCTRL_INTFLAG_READY;
     332:	7d02      	ldrb	r2, [r0, #20]
	while (!nvmReady())
     334:	421a      	tst	r2, r3
     336:	d0fc      	beq.n	332 <tickReset+0x52>
     338:	e7e1      	b.n	2fe <tickReset+0x1e>
		banzai();
}
     33a:	bd10      	pop	{r4, pc}
     33c:	20000000 	.word	0x20000000
     340:	00000000 	.word	0x00000000
     344:	00000203 	.word	0x00000203
     348:	05fa0004 	.word	0x05fa0004
     34c:	e000ed00 	.word	0xe000ed00
     350:	41004000 	.word	0x41004000
     354:	ffffa502 	.word	0xffffa502

00000358 <SystemInit>:
#define GENERIC_CLOCK_MULTIPLEXER_DFLL48M (0u)

void SystemInit( void )
{
  /* Set 1 Flash Wait State for 48MHz, cf tables 20.9 and 35.27 in SAMD21 Datasheet */
  NVMCTRL->CTRLB.bit.RWS = NVMCTRL_CTRLB_RWS_HALF_Val ;
     358:	221e      	movs	r2, #30
{
     35a:	b570      	push	{r4, r5, r6, lr}
  NVMCTRL->CTRLB.bit.RWS = NVMCTRL_CTRLB_RWS_HALF_Val ;
     35c:	4846      	ldr	r0, [pc, #280]	; (478 <SystemInit+0x120>)

  /* Turn on the digital interface clock */
  PM->APBAMASK.reg |= PM_APBAMASK_GCLK ;
     35e:	4947      	ldr	r1, [pc, #284]	; (47c <SystemInit+0x124>)
  NVMCTRL->CTRLB.bit.RWS = NVMCTRL_CTRLB_RWS_HALF_Val ;
     360:	6843      	ldr	r3, [r0, #4]
     362:	4393      	bics	r3, r2
     364:	3a1c      	subs	r2, #28
     366:	4313      	orrs	r3, r2
     368:	6043      	str	r3, [r0, #4]
  PM->APBAMASK.reg |= PM_APBAMASK_GCLK ;
     36a:	2308      	movs	r3, #8
     36c:	698c      	ldr	r4, [r1, #24]
     36e:	4323      	orrs	r3, r4
     370:	618b      	str	r3, [r1, #24]
#else // has crystal

  /* ----------------------------------------------------------------------------------------------
   * 1) Enable XOSC32K clock (External on-board 32.768Hz oscillator)
   */
  SYSCTRL->XOSC32K.reg = SYSCTRL_XOSC32K_STARTUP( 0x6u ) | /* cf table 15.10 of product datasheet in chapter 15.8.6 */
     372:	4c43      	ldr	r4, [pc, #268]	; (480 <SystemInit+0x128>)
     374:	4b43      	ldr	r3, [pc, #268]	; (484 <SystemInit+0x12c>)
     376:	829c      	strh	r4, [r3, #20]
                         SYSCTRL_XOSC32K_XTALEN | SYSCTRL_XOSC32K_EN32K ;
  SYSCTRL->XOSC32K.bit.ENABLE = 1 ; /* separate call, as described in chapter 15.6.3 */
     378:	8a9c      	ldrh	r4, [r3, #20]
     37a:	4314      	orrs	r4, r2
     37c:	829c      	strh	r4, [r3, #20]

  while ( (SYSCTRL->PCLKSR.reg & SYSCTRL_PCLKSR_XOSC32KRDY) == 0 )
     37e:	68dc      	ldr	r4, [r3, #12]
     380:	4214      	tst	r4, r2
     382:	d0fc      	beq.n	37e <SystemInit+0x26>

  /* Software reset the module to ensure it is re-initialized correctly */
  /* Note: Due to synchronization, there is a delay from writing CTRL.SWRST until the reset is complete.
   * CTRL.SWRST and STATUS.SYNCBUSY will both be cleared when the reset is complete, as described in chapter 13.8.1
   */
  GCLK->CTRL.reg = GCLK_CTRL_SWRST ;
     384:	2401      	movs	r4, #1
     386:	4a40      	ldr	r2, [pc, #256]	; (488 <SystemInit+0x130>)
     388:	7014      	strb	r4, [r2, #0]

  while ( (GCLK->CTRL.reg & GCLK_CTRL_SWRST) && (GCLK->STATUS.reg & GCLK_STATUS_SYNCBUSY) )
     38a:	7815      	ldrb	r5, [r2, #0]
     38c:	4225      	tst	r5, r4
     38e:	d003      	beq.n	398 <SystemInit+0x40>
     390:	7855      	ldrb	r5, [r2, #1]
     392:	b26d      	sxtb	r5, r5
     394:	2d00      	cmp	r5, #0
     396:	dbf8      	blt.n	38a <SystemInit+0x32>
  }

  /* ----------------------------------------------------------------------------------------------
   * 2) Put XOSC32K as source of Generic Clock Generator 1
   */
  GCLK->GENDIV.reg = GCLK_GENDIV_ID( GENERIC_CLOCK_GENERATOR_XOSC32K ) ; // Generic Clock Generator 1
     398:	2401      	movs	r4, #1
     39a:	6094      	str	r4, [r2, #8]

  while ( GCLK->STATUS.reg & GCLK_STATUS_SYNCBUSY )
     39c:	7854      	ldrb	r4, [r2, #1]
     39e:	b264      	sxtb	r4, r4
     3a0:	2c00      	cmp	r4, #0
     3a2:	dbfb      	blt.n	39c <SystemInit+0x44>
  {
    /* Wait for synchronization */
  }

  /* Write Generic Clock Generator 1 configuration */
  GCLK->GENCTRL.reg = GCLK_GENCTRL_ID( GENERIC_CLOCK_GENERATOR_OSC32K ) | // Generic Clock Generator 1
     3a4:	4c39      	ldr	r4, [pc, #228]	; (48c <SystemInit+0x134>)
     3a6:	6054      	str	r4, [r2, #4]
                      GCLK_GENCTRL_SRC_XOSC32K | // Selected source is External 32KHz Oscillator
#endif
//                      GCLK_GENCTRL_OE | // Output clock to a pin for tests
                      GCLK_GENCTRL_GENEN ;

  while ( GCLK->STATUS.reg & GCLK_STATUS_SYNCBUSY )
     3a8:	7854      	ldrb	r4, [r2, #1]
     3aa:	b264      	sxtb	r4, r4
     3ac:	2c00      	cmp	r4, #0
     3ae:	dbfb      	blt.n	3a8 <SystemInit+0x50>
  }

  /* ----------------------------------------------------------------------------------------------
   * 3) Put Generic Clock Generator 1 as source for Generic Clock Multiplexer 0 (DFLL48M reference)
   */
  GCLK->CLKCTRL.reg = GCLK_CLKCTRL_ID( GENERIC_CLOCK_MULTIPLEXER_DFLL48M ) | // Generic Clock Multiplexer 0
     3b0:	2482      	movs	r4, #130	; 0x82
     3b2:	01e4      	lsls	r4, r4, #7
     3b4:	8054      	strh	r4, [r2, #2]
                      GCLK_CLKCTRL_GEN_GCLK1 | // Generic Clock Generator 1 is source
                      GCLK_CLKCTRL_CLKEN ;

  while ( GCLK->STATUS.reg & GCLK_STATUS_SYNCBUSY )
     3b6:	7854      	ldrb	r4, [r2, #1]
     3b8:	b264      	sxtb	r4, r4
     3ba:	2c00      	cmp	r4, #0
     3bc:	dbfb      	blt.n	3b6 <SystemInit+0x5e>
   */

  /* DFLL Configuration in Closed Loop mode, cf product datasheet chapter 15.6.7.1 - Closed-Loop Operation */

  /* Remove the OnDemand mode, Bug http://avr32.icgroup.norway.atmel.com/bugzilla/show_bug.cgi?id=9905 */
  SYSCTRL->DFLLCTRL.reg = SYSCTRL_DFLLCTRL_ENABLE;
     3be:	2402      	movs	r4, #2
     3c0:	849c      	strh	r4, [r3, #36]	; 0x24

  while ( (SYSCTRL->PCLKSR.reg & SYSCTRL_PCLKSR_DFLLRDY) == 0 )
     3c2:	340e      	adds	r4, #14
     3c4:	68dd      	ldr	r5, [r3, #12]
     3c6:	4225      	tst	r5, r4
     3c8:	d0fc      	beq.n	3c4 <SystemInit+0x6c>
  {
    /* Wait for synchronization */
  }

  SYSCTRL->DFLLMUL.reg = SYSCTRL_DFLLMUL_CSTEP( 31 ) | // Coarse step is 31, half of the max value
     3ca:	4c31      	ldr	r4, [pc, #196]	; (490 <SystemInit+0x138>)
     3cc:	62dc      	str	r4, [r3, #44]	; 0x2c
                         SYSCTRL_DFLLMUL_FSTEP( 511 ) | // Fine step is 511, half of the max value
                         SYSCTRL_DFLLMUL_MUL( (VARIANT_MCK + VARIANT_MAINOSC/2) / VARIANT_MAINOSC ) ; // External 32KHz is the reference

  while ( (SYSCTRL->PCLKSR.reg & SYSCTRL_PCLKSR_DFLLRDY) == 0 )
     3ce:	2410      	movs	r4, #16
     3d0:	68dd      	ldr	r5, [r3, #12]
     3d2:	4225      	tst	r5, r4
     3d4:	d0fc      	beq.n	3d0 <SystemInit+0x78>
  SYSCTRL->DFLLCTRL.reg |= SYSCTRL_DFLLCTRL_ENABLE ;

#else   // has crystal

  /* Write full configuration to DFLL control register */
  SYSCTRL->DFLLCTRL.reg |= SYSCTRL_DFLLCTRL_MODE | /* Enable the closed loop mode */
     3d6:	8c9d      	ldrh	r5, [r3, #36]	; 0x24
     3d8:	4c2e      	ldr	r4, [pc, #184]	; (494 <SystemInit+0x13c>)
     3da:	432c      	orrs	r4, r5
     3dc:	849c      	strh	r4, [r3, #36]	; 0x24
                           SYSCTRL_DFLLCTRL_WAITLOCK |
                           SYSCTRL_DFLLCTRL_QLDIS ; /* Disable Quick lock */

  while ( (SYSCTRL->PCLKSR.reg & SYSCTRL_PCLKSR_DFLLRDY) == 0 )
     3de:	2410      	movs	r4, #16
     3e0:	68dd      	ldr	r5, [r3, #12]
     3e2:	4225      	tst	r5, r4
     3e4:	d0fc      	beq.n	3e0 <SystemInit+0x88>
  {
    /* Wait for synchronization */
  }

  /* Enable the DFLL */
  SYSCTRL->DFLLCTRL.reg |= SYSCTRL_DFLLCTRL_ENABLE ;
     3e6:	2402      	movs	r4, #2
     3e8:	8c9d      	ldrh	r5, [r3, #36]	; 0x24

  while ( (SYSCTRL->PCLKSR.reg & SYSCTRL_PCLKSR_DFLLLCKC) == 0 ||
     3ea:	2680      	movs	r6, #128	; 0x80
  SYSCTRL->DFLLCTRL.reg |= SYSCTRL_DFLLCTRL_ENABLE ;
     3ec:	432c      	orrs	r4, r5
     3ee:	849c      	strh	r4, [r3, #36]	; 0x24
          (SYSCTRL->PCLKSR.reg & SYSCTRL_PCLKSR_DFLLLCKF) == 0 )
     3f0:	2440      	movs	r4, #64	; 0x40
  while ( (SYSCTRL->PCLKSR.reg & SYSCTRL_PCLKSR_DFLLLCKC) == 0 ||
     3f2:	68dd      	ldr	r5, [r3, #12]
     3f4:	4235      	tst	r5, r6
     3f6:	d0fc      	beq.n	3f2 <SystemInit+0x9a>
          (SYSCTRL->PCLKSR.reg & SYSCTRL_PCLKSR_DFLLLCKF) == 0 )
     3f8:	68dd      	ldr	r5, [r3, #12]
  while ( (SYSCTRL->PCLKSR.reg & SYSCTRL_PCLKSR_DFLLLCKC) == 0 ||
     3fa:	4225      	tst	r5, r4
     3fc:	d0f9      	beq.n	3f2 <SystemInit+0x9a>
    /* Wait for locks flags */
  }

#endif

  while ( (SYSCTRL->PCLKSR.reg & SYSCTRL_PCLKSR_DFLLRDY) == 0 )
     3fe:	2410      	movs	r4, #16
     400:	68dd      	ldr	r5, [r3, #12]
     402:	4225      	tst	r5, r4
     404:	d0fc      	beq.n	400 <SystemInit+0xa8>
  }

  /* ----------------------------------------------------------------------------------------------
   * 5) Switch Generic Clock Generator 0 to DFLL48M. CPU will run at 48MHz.
   */
  GCLK->GENDIV.reg = GCLK_GENDIV_ID( GENERIC_CLOCK_GENERATOR_MAIN ) ; // Generic Clock Generator 0
     406:	2400      	movs	r4, #0
     408:	6094      	str	r4, [r2, #8]

  while ( GCLK->STATUS.reg & GCLK_STATUS_SYNCBUSY )
     40a:	7854      	ldrb	r4, [r2, #1]
     40c:	b264      	sxtb	r4, r4
     40e:	2c00      	cmp	r4, #0
     410:	dbfb      	blt.n	40a <SystemInit+0xb2>
  {
    /* Wait for synchronization */
  }

  /* Write Generic Clock Generator 0 configuration */
  GCLK->GENCTRL.reg = GCLK_GENCTRL_ID( GENERIC_CLOCK_GENERATOR_MAIN ) | // Generic Clock Generator 0
     412:	4c21      	ldr	r4, [pc, #132]	; (498 <SystemInit+0x140>)
     414:	6054      	str	r4, [r2, #4]
                      GCLK_GENCTRL_SRC_DFLL48M | // Selected source is DFLL 48MHz
//                      GCLK_GENCTRL_OE | // Output clock to a pin for tests
                      GCLK_GENCTRL_IDC | // Set 50/50 duty cycle
                      GCLK_GENCTRL_GENEN ;

  while ( GCLK->STATUS.reg & GCLK_STATUS_SYNCBUSY )
     416:	7854      	ldrb	r4, [r2, #1]
     418:	b264      	sxtb	r4, r4
     41a:	2c00      	cmp	r4, #0
     41c:	dbfb      	blt.n	416 <SystemInit+0xbe>
  }

  /* ----------------------------------------------------------------------------------------------
   * 6) Modify PRESCaler value of OSC8M to have 8MHz
   */
  SYSCTRL->OSC8M.bit.PRESC = SYSCTRL_OSC8M_PRESC_0_Val ;  //CMSIS 4.5 changed the prescaler defines
     41e:	6a1c      	ldr	r4, [r3, #32]
     420:	4d1e      	ldr	r5, [pc, #120]	; (49c <SystemInit+0x144>)
     422:	402c      	ands	r4, r5
  SYSCTRL->OSC8M.bit.ONDEMAND = 0 ;
     424:	2580      	movs	r5, #128	; 0x80
  SYSCTRL->OSC8M.bit.PRESC = SYSCTRL_OSC8M_PRESC_0_Val ;  //CMSIS 4.5 changed the prescaler defines
     426:	621c      	str	r4, [r3, #32]
  SYSCTRL->OSC8M.bit.ONDEMAND = 0 ;
     428:	6a1c      	ldr	r4, [r3, #32]
     42a:	43ac      	bics	r4, r5
     42c:	621c      	str	r4, [r3, #32]

  /* ----------------------------------------------------------------------------------------------
   * 7) Put OSC8M as source for Generic Clock Generator 3
   */
  GCLK->GENDIV.reg = GCLK_GENDIV_ID( GENERIC_CLOCK_GENERATOR_OSC8M ) ; // Generic Clock Generator 3
     42e:	2303      	movs	r3, #3
     430:	6093      	str	r3, [r2, #8]

  /* Write Generic Clock Generator 3 configuration */
  GCLK->GENCTRL.reg = GCLK_GENCTRL_ID( GENERIC_CLOCK_GENERATOR_OSC8M ) | // Generic Clock Generator 3
     432:	4b1b      	ldr	r3, [pc, #108]	; (4a0 <SystemInit+0x148>)
     434:	6053      	str	r3, [r2, #4]
                      GCLK_GENCTRL_SRC_OSC8M | // Selected source is RC OSC 8MHz (already enabled at reset)
//                      GCLK_GENCTRL_OE | // Output clock to a pin for tests
                      GCLK_GENCTRL_GENEN ;

  while ( GCLK->STATUS.reg & GCLK_STATUS_SYNCBUSY )
     436:	7853      	ldrb	r3, [r2, #1]
     438:	b25b      	sxtb	r3, r3
     43a:	2b00      	cmp	r3, #0
     43c:	dbfb      	blt.n	436 <SystemInit+0xde>

  /*
   * Now that all system clocks are configured, we can set CPU and APBx BUS clocks.
   * There values are normally the one present after Reset.
   */
  PM->CPUSEL.reg  = PM_CPUSEL_CPUDIV_DIV1 ;
     43e:	2300      	movs	r3, #0

  // ADC Linearity bits 4:0
  uint32_t linearity = (*((uint32_t *) ADC_FUSES_LINEARITY_0_ADDR) & ADC_FUSES_LINEARITY_0_Msk) >> ADC_FUSES_LINEARITY_0_Pos;

  // ADC Linearity bits 7:5
  linearity |= ((*((uint32_t *) ADC_FUSES_LINEARITY_1_ADDR) & ADC_FUSES_LINEARITY_1_Msk) >> ADC_FUSES_LINEARITY_1_Pos) << 5;
     440:	24ff      	movs	r4, #255	; 0xff
  PM->CPUSEL.reg  = PM_CPUSEL_CPUDIV_DIV1 ;
     442:	720b      	strb	r3, [r1, #8]
  SystemCoreClock=VARIANT_MCK ;
     444:	4a17      	ldr	r2, [pc, #92]	; (4a4 <SystemInit+0x14c>)
  PM->APBASEL.reg = PM_APBASEL_APBADIV_DIV1_Val ;
     446:	724b      	strb	r3, [r1, #9]
  PM->APBBSEL.reg = PM_APBBSEL_APBBDIV_DIV1_Val ;
     448:	728b      	strb	r3, [r1, #10]
  PM->APBCSEL.reg = PM_APBCSEL_APBCDIV_DIV1_Val ;
     44a:	72cb      	strb	r3, [r1, #11]
  SystemCoreClock=VARIANT_MCK ;
     44c:	4b16      	ldr	r3, [pc, #88]	; (4a8 <SystemInit+0x150>)
     44e:	601a      	str	r2, [r3, #0]
  uint32_t bias = (*((uint32_t *) ADC_FUSES_BIASCAL_ADDR) & ADC_FUSES_BIASCAL_Msk) >> ADC_FUSES_BIASCAL_Pos;
     450:	4b16      	ldr	r3, [pc, #88]	; (4ac <SystemInit+0x154>)
  uint32_t linearity = (*((uint32_t *) ADC_FUSES_LINEARITY_0_ADDR) & ADC_FUSES_LINEARITY_0_Msk) >> ADC_FUSES_LINEARITY_0_Pos;
     452:	4a17      	ldr	r2, [pc, #92]	; (4b0 <SystemInit+0x158>)
  uint32_t bias = (*((uint32_t *) ADC_FUSES_BIASCAL_ADDR) & ADC_FUSES_BIASCAL_Msk) >> ADC_FUSES_BIASCAL_Pos;
     454:	681b      	ldr	r3, [r3, #0]
  uint32_t linearity = (*((uint32_t *) ADC_FUSES_LINEARITY_0_ADDR) & ADC_FUSES_LINEARITY_0_Msk) >> ADC_FUSES_LINEARITY_0_Pos;
     456:	6811      	ldr	r1, [r2, #0]
  uint32_t bias = (*((uint32_t *) ADC_FUSES_BIASCAL_ADDR) & ADC_FUSES_BIASCAL_Msk) >> ADC_FUSES_BIASCAL_Pos;
     458:	069a      	lsls	r2, r3, #26
  linearity |= ((*((uint32_t *) ADC_FUSES_LINEARITY_1_ADDR) & ADC_FUSES_LINEARITY_1_Msk) >> ADC_FUSES_LINEARITY_1_Pos) << 5;
     45a:	015b      	lsls	r3, r3, #5
  uint32_t linearity = (*((uint32_t *) ADC_FUSES_LINEARITY_0_ADDR) & ADC_FUSES_LINEARITY_0_Msk) >> ADC_FUSES_LINEARITY_0_Pos;
     45c:	0ec9      	lsrs	r1, r1, #27
  linearity |= ((*((uint32_t *) ADC_FUSES_LINEARITY_1_ADDR) & ADC_FUSES_LINEARITY_1_Msk) >> ADC_FUSES_LINEARITY_1_Pos) << 5;
     45e:	4023      	ands	r3, r4
  uint32_t bias = (*((uint32_t *) ADC_FUSES_BIASCAL_ADDR) & ADC_FUSES_BIASCAL_Msk) >> ADC_FUSES_BIASCAL_Pos;
     460:	0f52      	lsrs	r2, r2, #29

  ADC->CALIB.reg = ADC_CALIB_BIAS_CAL(bias) | ADC_CALIB_LINEARITY_CAL(linearity);
     462:	0212      	lsls	r2, r2, #8
  linearity |= ((*((uint32_t *) ADC_FUSES_LINEARITY_1_ADDR) & ADC_FUSES_LINEARITY_1_Msk) >> ADC_FUSES_LINEARITY_1_Pos) << 5;
     464:	430b      	orrs	r3, r1
  ADC->CALIB.reg = ADC_CALIB_BIAS_CAL(bias) | ADC_CALIB_LINEARITY_CAL(linearity);
     466:	4313      	orrs	r3, r2
     468:	4a12      	ldr	r2, [pc, #72]	; (4b4 <SystemInit+0x15c>)
     46a:	8513      	strh	r3, [r2, #40]	; 0x28

  /*
   * 9) Disable automatic NVM write operations
   */
  NVMCTRL->CTRLB.bit.MANW = 1;
     46c:	2380      	movs	r3, #128	; 0x80
     46e:	6842      	ldr	r2, [r0, #4]
     470:	4313      	orrs	r3, r2
     472:	6043      	str	r3, [r0, #4]
}
     474:	bd70      	pop	{r4, r5, r6, pc}
     476:	46c0      	nop			; (mov r8, r8)
     478:	41004000 	.word	0x41004000
     47c:	40000400 	.word	0x40000400
     480:	0000060c 	.word	0x0000060c
     484:	40000800 	.word	0x40000800
     488:	40000c00 	.word	0x40000c00
     48c:	00010501 	.word	0x00010501
     490:	7dff05b9 	.word	0x7dff05b9
     494:	00000a04 	.word	0x00000a04
     498:	00030700 	.word	0x00030700
     49c:	fffffcff 	.word	0xfffffcff
     4a0:	00010603 	.word	0x00010603
     4a4:	02dc6c00 	.word	0x02dc6c00
     4a8:	20000004 	.word	0x20000004
     4ac:	00806024 	.word	0x00806024
     4b0:	00806020 	.word	0x00806020
     4b4:	42004000 	.word	0x42004000

000004b8 <_ZN26DoubleBufferedEPOutHandlerD1Ev>:

		release();
	}

	virtual ~DoubleBufferedEPOutHandler() {
	}
     4b8:	4770      	bx	lr

000004ba <_ZN26DoubleBufferedEPOutHandlerD0Ev>:
	virtual ~DoubleBufferedEPOutHandler() {
     4ba:	b510      	push	{r4, lr}
     4bc:	0004      	movs	r4, r0
	}
     4be:	f001 f987 	bl	17d0 <_ZdlPv>
     4c2:	0020      	movs	r0, r4
     4c4:	bd10      	pop	{r4, pc}
	...

000004c8 <_ZN14USBDeviceClass6initEPEmm.part.7>:
	for (uint8_t i = 1; (i < EP_ARRAY_SIZE) && (EndPoints[i] != 0); i++) {
		initEP(i, EndPoints[i]);
	}
}

void USBDeviceClass::initEP(uint32_t ep, uint32_t config)
     4c8:	b5f0      	push	{r4, r5, r6, r7, lr}
		if (epHandlers[ep] != NULL) {
			delete (DoubleBufferedEPOutHandler*)epHandlers[ep];
		}
		epHandlers[ep] = new DoubleBufferedEPOutHandler(usbd, ep);
	}
	else if (config == (USB_ENDPOINT_TYPE_BULK | USB_ENDPOINT_IN(0)))
     4ca:	2982      	cmp	r1, #130	; 0x82
     4cc:	d119      	bne.n	502 <_ZN14USBDeviceClass6initEPEmm.part.7+0x3a>
	inline void epBank1SetSize(ep_t ep, uint16_t size) { EP[ep].DeviceDescBank[1].PCKSIZE.bit.SIZE = EP_PCKSIZE_SIZE(size); }
     4ce:	b2c3      	uxtb	r3, r0
     4d0:	4d29      	ldr	r5, [pc, #164]	; (578 <_ZN14USBDeviceClass6initEPEmm.part.7+0xb0>)
     4d2:	015a      	lsls	r2, r3, #5
     4d4:	18aa      	adds	r2, r5, r2
     4d6:	6991      	ldr	r1, [r2, #24]
     4d8:	4c28      	ldr	r4, [pc, #160]	; (57c <_ZN14USBDeviceClass6initEPEmm.part.7+0xb4>)
	{
		usbd.epBank1SetSize(ep, 64);
		usbd.epBank1SetAddress(ep, &udd_ep_in_cache_buffer[ep]);
     4da:	0180      	lsls	r0, r0, #6
     4dc:	400c      	ands	r4, r1
     4de:	21c0      	movs	r1, #192	; 0xc0
     4e0:	0589      	lsls	r1, r1, #22
     4e2:	4321      	orrs	r1, r4
     4e4:	6191      	str	r1, [r2, #24]
     4e6:	4926      	ldr	r1, [pc, #152]	; (580 <_ZN14USBDeviceClass6initEPEmm.part.7+0xb8>)
	inline void epBank1SetType(ep_t ep, uint8_t type) { usb.DeviceEndpoint[ep].EPCFG.bit.EPTYPE1 = type; }
     4e8:	3308      	adds	r3, #8
     4ea:	1808      	adds	r0, r1, r0
     4ec:	2170      	movs	r1, #112	; 0x70
	inline void epBank1SetAddress(ep_t ep, void *addr) { EP[ep].DeviceDescBank[1].ADDR.reg = (uint32_t)addr; }
     4ee:	6150      	str	r0, [r2, #20]
	inline void epBank1SetType(ep_t ep, uint8_t type) { usb.DeviceEndpoint[ep].EPCFG.bit.EPTYPE1 = type; }
     4f0:	6828      	ldr	r0, [r5, #0]
     4f2:	015b      	lsls	r3, r3, #5
     4f4:	5c1a      	ldrb	r2, [r3, r0]
     4f6:	438a      	bics	r2, r1
     4f8:	0011      	movs	r1, r2
     4fa:	2230      	movs	r2, #48	; 0x30
     4fc:	430a      	orrs	r2, r1
     4fe:	541a      	strb	r2, [r3, r0]
		usbd.epBank1SetType(ep, 1); // CONTROL IN

		// Release OUT EP
		usbd.epReleaseOutBank0(ep, 64);
	}
}
     500:	bdf0      	pop	{r4, r5, r6, r7, pc}
	else if (config == USB_ENDPOINT_TYPE_CONTROL)
     502:	2900      	cmp	r1, #0
     504:	d1fc      	bne.n	500 <_ZN14USBDeviceClass6initEPEmm.part.7+0x38>
	inline void epBank0SetSize(ep_t ep, uint16_t size) { EP[ep].DeviceDescBank[0].PCKSIZE.bit.SIZE = EP_PCKSIZE_SIZE(size); }
     506:	26c0      	movs	r6, #192	; 0xc0
     508:	b2c1      	uxtb	r1, r0
     50a:	4c1b      	ldr	r4, [pc, #108]	; (578 <_ZN14USBDeviceClass6initEPEmm.part.7+0xb0>)
     50c:	014b      	lsls	r3, r1, #5
     50e:	18e3      	adds	r3, r4, r3
     510:	689a      	ldr	r2, [r3, #8]
     512:	4d1a      	ldr	r5, [pc, #104]	; (57c <_ZN14USBDeviceClass6initEPEmm.part.7+0xb4>)
     514:	05b6      	lsls	r6, r6, #22
     516:	402a      	ands	r2, r5
     518:	4332      	orrs	r2, r6
     51a:	609a      	str	r2, [r3, #8]
		usbd.epBank0SetAddress(ep, &udd_ep_out_cache_buffer[ep]);
     51c:	4a19      	ldr	r2, [pc, #100]	; (584 <_ZN14USBDeviceClass6initEPEmm.part.7+0xbc>)
     51e:	0180      	lsls	r0, r0, #6
     520:	1812      	adds	r2, r2, r0
	inline void epBank0SetAddress(ep_t ep, void *addr) { EP[ep].DeviceDescBank[0].ADDR.reg = (uint32_t)addr; }
     522:	605a      	str	r2, [r3, #4]
	inline void epBank0SetType(ep_t ep, uint8_t type) { usb.DeviceEndpoint[ep].EPCFG.bit.EPTYPE0 = type; }
     524:	000a      	movs	r2, r1
     526:	2707      	movs	r7, #7
     528:	6824      	ldr	r4, [r4, #0]
     52a:	3208      	adds	r2, #8
     52c:	0152      	lsls	r2, r2, #5
     52e:	5d11      	ldrb	r1, [r2, r4]
     530:	43b9      	bics	r1, r7
     532:	000f      	movs	r7, r1
     534:	2101      	movs	r1, #1
     536:	4339      	orrs	r1, r7
     538:	5511      	strb	r1, [r2, r4]
	inline void epBank1SetSize(ep_t ep, uint16_t size) { EP[ep].DeviceDescBank[1].PCKSIZE.bit.SIZE = EP_PCKSIZE_SIZE(size); }
     53a:	699f      	ldr	r7, [r3, #24]
		usbd.epBank1SetAddress(ep, &udd_ep_in_cache_buffer[ep]);
     53c:	4910      	ldr	r1, [pc, #64]	; (580 <_ZN14USBDeviceClass6initEPEmm.part.7+0xb8>)
     53e:	403d      	ands	r5, r7
     540:	1808      	adds	r0, r1, r0
     542:	432e      	orrs	r6, r5
     544:	619e      	str	r6, [r3, #24]
	inline void epBank1SetAddress(ep_t ep, void *addr) { EP[ep].DeviceDescBank[1].ADDR.reg = (uint32_t)addr; }
     546:	6158      	str	r0, [r3, #20]
	inline void epBank1SetType(ep_t ep, uint8_t type) { usb.DeviceEndpoint[ep].EPCFG.bit.EPTYPE1 = type; }
     548:	2070      	movs	r0, #112	; 0x70
     54a:	5d11      	ldrb	r1, [r2, r4]
     54c:	4381      	bics	r1, r0
     54e:	0008      	movs	r0, r1
     550:	2110      	movs	r1, #16
     552:	4301      	orrs	r1, r0
     554:	5511      	strb	r1, [r2, r4]
	inline void epBank0SetMultiPacketSize(ep_t ep, uint16_t s) { EP[ep].DeviceDescBank[0].PCKSIZE.bit.MULTI_PACKET_SIZE = s; }
     556:	6899      	ldr	r1, [r3, #8]
     558:	480b      	ldr	r0, [pc, #44]	; (588 <_ZN14USBDeviceClass6initEPEmm.part.7+0xc0>)
	inline void epBank0ResetReady(ep_t ep) { usb.DeviceEndpoint[ep].EPSTATUSCLR.bit.BK0RDY = 1; }
     55a:	18a2      	adds	r2, r4, r2
	inline void epBank0SetMultiPacketSize(ep_t ep, uint16_t s) { EP[ep].DeviceDescBank[0].PCKSIZE.bit.MULTI_PACKET_SIZE = s; }
     55c:	4008      	ands	r0, r1
     55e:	2180      	movs	r1, #128	; 0x80
     560:	0349      	lsls	r1, r1, #13
     562:	4301      	orrs	r1, r0
     564:	6099      	str	r1, [r3, #8]
	inline void epBank0SetByteCount(ep_t ep, uint16_t bc) { EP[ep].DeviceDescBank[0].PCKSIZE.bit.BYTE_COUNT = bc; }
     566:	6899      	ldr	r1, [r3, #8]
     568:	0b89      	lsrs	r1, r1, #14
     56a:	0389      	lsls	r1, r1, #14
     56c:	6099      	str	r1, [r3, #8]
	inline void epBank0ResetReady(ep_t ep) { usb.DeviceEndpoint[ep].EPSTATUSCLR.bit.BK0RDY = 1; }
     56e:	2340      	movs	r3, #64	; 0x40
     570:	7911      	ldrb	r1, [r2, #4]
     572:	430b      	orrs	r3, r1
     574:	7113      	strb	r3, [r2, #4]
     576:	e7c3      	b.n	500 <_ZN14USBDeviceClass6initEPEmm.part.7+0x38>
     578:	20000598 	.word	0x20000598
     57c:	8fffffff 	.word	0x8fffffff
     580:	2000010c 	.word	0x2000010c
     584:	200002cc 	.word	0x200002cc
     588:	f0003fff 	.word	0xf0003fff

0000058c <_ZN7__GuardC1Ev>:
  __ASM volatile ("MRS %0, primask" : "=r" (result) :: "memory");
     58c:	f3ef 8310 	mrs	r3, PRIMASK
	__Guard() : primask(__get_PRIMASK()), loops(1) {
     590:	6003      	str	r3, [r0, #0]
     592:	2301      	movs	r3, #1
     594:	6043      	str	r3, [r0, #4]
  __ASM volatile ("cpsid i" : : : "memory");
     596:	b672      	cpsid	i
	}
     598:	4770      	bx	lr

0000059a <_ZN7__GuardD1Ev>:
		if (primask == 0) {
     59a:	6803      	ldr	r3, [r0, #0]
     59c:	2b00      	cmp	r3, #0
     59e:	d102      	bne.n	5a6 <_ZN7__GuardD1Ev+0xc>
  __ASM volatile ("cpsie i" : : : "memory");
     5a0:	b662      	cpsie	i
  __ASM volatile ("isb 0xF":::"memory");
     5a2:	f3bf 8f6f 	isb	sy
	}
     5a6:	4770      	bx	lr

000005a8 <_ZNK26DoubleBufferedEPOutHandler10_availableEv>:
			}
		}
		return i;
	}

	virtual uint32_t _available() const {
     5a8:	b5f7      	push	{r0, r1, r2, r4, r5, r6, r7, lr}
		if (current == 0) {
     5aa:	0006      	movs	r6, r0
     5ac:	36fc      	adds	r6, #252	; 0xfc
     5ae:	69b3      	ldr	r3, [r6, #24]
	virtual uint32_t _available() const {
     5b0:	0004      	movs	r4, r0
		if (current == 0) {
     5b2:	2b00      	cmp	r3, #0
     5b4:	d118      	bne.n	5e8 <_ZNK26DoubleBufferedEPOutHandler10_availableEv+0x40>
			bool ready = ready0;
     5b6:	27b2      	movs	r7, #178	; 0xb2
     5b8:	007f      	lsls	r7, r7, #1
     5ba:	5dc5      	ldrb	r5, [r0, r7]
			synchronized {
     5bc:	4668      	mov	r0, sp
     5be:	f7ff ffe5 	bl	58c <_ZN7__GuardC1Ev>
     5c2:	9b01      	ldr	r3, [sp, #4]
			bool ready = ready0;
     5c4:	b2ed      	uxtb	r5, r5
			synchronized {
     5c6:	3b01      	subs	r3, #1
     5c8:	d302      	bcc.n	5d0 <_ZNK26DoubleBufferedEPOutHandler10_availableEv+0x28>
				ready = ready0;
     5ca:	5de5      	ldrb	r5, [r4, r7]
     5cc:	b2ed      	uxtb	r5, r5
     5ce:	e7fa      	b.n	5c6 <_ZNK26DoubleBufferedEPOutHandler10_availableEv+0x1e>
			synchronized {
     5d0:	4668      	mov	r0, sp
     5d2:	9301      	str	r3, [sp, #4]
     5d4:	f7ff ffe1 	bl	59a <_ZN7__GuardD1Ev>
			}
			return ready ? (last0 - first0) : 0;
     5d8:	2d00      	cmp	r5, #0
     5da:	d101      	bne.n	5e0 <_ZNK26DoubleBufferedEPOutHandler10_availableEv+0x38>
     5dc:	2000      	movs	r0, #0
			synchronized {
				ready = ready1;
			}
			return ready ? (last1 - first1) : 0;
		}
	}
     5de:	bdfe      	pop	{r1, r2, r3, r4, r5, r6, r7, pc}
			return ready ? (last0 - first0) : 0;
     5e0:	6e70      	ldr	r0, [r6, #100]	; 0x64
     5e2:	6e33      	ldr	r3, [r6, #96]	; 0x60
			return ready ? (last1 - first1) : 0;
     5e4:	1ac0      	subs	r0, r0, r3
     5e6:	e7fa      	b.n	5de <_ZNK26DoubleBufferedEPOutHandler10_availableEv+0x36>
			synchronized {
     5e8:	4668      	mov	r0, sp
     5ea:	f7ff ffcf 	bl	58c <_ZN7__GuardC1Ev>
				ready = ready1;
     5ee:	22d8      	movs	r2, #216	; 0xd8
			bool ready = false;
     5f0:	2500      	movs	r5, #0
     5f2:	9b01      	ldr	r3, [sp, #4]
				ready = ready1;
     5f4:	0052      	lsls	r2, r2, #1
			synchronized {
     5f6:	3b01      	subs	r3, #1
     5f8:	d302      	bcc.n	600 <_ZNK26DoubleBufferedEPOutHandler10_availableEv+0x58>
				ready = ready1;
     5fa:	5ca5      	ldrb	r5, [r4, r2]
     5fc:	b2ed      	uxtb	r5, r5
			synchronized {
     5fe:	e7fa      	b.n	5f6 <_ZNK26DoubleBufferedEPOutHandler10_availableEv+0x4e>
     600:	4668      	mov	r0, sp
     602:	9301      	str	r3, [sp, #4]
     604:	f7ff ffc9 	bl	59a <_ZN7__GuardD1Ev>
			return ready ? (last1 - first1) : 0;
     608:	2d00      	cmp	r5, #0
     60a:	d0e7      	beq.n	5dc <_ZNK26DoubleBufferedEPOutHandler10_availableEv+0x34>
     60c:	23d6      	movs	r3, #214	; 0xd6
     60e:	005b      	lsls	r3, r3, #1
     610:	58e0      	ldr	r0, [r4, r3]
     612:	3b04      	subs	r3, #4
     614:	58e3      	ldr	r3, [r4, r3]
     616:	e7e5      	b.n	5e4 <_ZNK26DoubleBufferedEPOutHandler10_availableEv+0x3c>

00000618 <_ZN26DoubleBufferedEPOutHandler7releaseEv>:
	virtual int peek() {
		_recv();
		return _rx_buffer.peek();
	}

	void release() {
     618:	b510      	push	{r4, lr}
		usbd.epReleaseOutBank0(ep, size);
     61a:	6844      	ldr	r4, [r0, #4]
     61c:	30fc      	adds	r0, #252	; 0xfc
	inline void epBank0SetMultiPacketSize(ep_t ep, uint16_t s) { EP[ep].DeviceDescBank[0].PCKSIZE.bit.MULTI_PACKET_SIZE = s; }
     61e:	6943      	ldr	r3, [r0, #20]
     620:	480b      	ldr	r0, [pc, #44]	; (650 <_ZN26DoubleBufferedEPOutHandler7releaseEv+0x38>)
     622:	b2db      	uxtb	r3, r3
     624:	015a      	lsls	r2, r3, #5
     626:	18a2      	adds	r2, r4, r2
     628:	6891      	ldr	r1, [r2, #8]
	inline void epBank0ResetReady(ep_t ep) { usb.DeviceEndpoint[ep].EPSTATUSCLR.bit.BK0RDY = 1; }
     62a:	3308      	adds	r3, #8
	inline void epBank0SetMultiPacketSize(ep_t ep, uint16_t s) { EP[ep].DeviceDescBank[0].PCKSIZE.bit.MULTI_PACKET_SIZE = s; }
     62c:	4008      	ands	r0, r1
     62e:	2180      	movs	r1, #128	; 0x80
     630:	0349      	lsls	r1, r1, #13
     632:	4301      	orrs	r1, r0
     634:	6091      	str	r1, [r2, #8]
	inline void epBank0SetByteCount(ep_t ep, uint16_t bc) { EP[ep].DeviceDescBank[0].PCKSIZE.bit.BYTE_COUNT = bc; }
     636:	6891      	ldr	r1, [r2, #8]
	inline void epBank0ResetReady(ep_t ep) { usb.DeviceEndpoint[ep].EPSTATUSCLR.bit.BK0RDY = 1; }
     638:	015b      	lsls	r3, r3, #5
	inline void epBank0SetByteCount(ep_t ep, uint16_t bc) { EP[ep].DeviceDescBank[0].PCKSIZE.bit.BYTE_COUNT = bc; }
     63a:	0b89      	lsrs	r1, r1, #14
     63c:	0389      	lsls	r1, r1, #14
     63e:	6091      	str	r1, [r2, #8]
	inline void epBank0ResetReady(ep_t ep) { usb.DeviceEndpoint[ep].EPSTATUSCLR.bit.BK0RDY = 1; }
     640:	6822      	ldr	r2, [r4, #0]
     642:	18d3      	adds	r3, r2, r3
     644:	2240      	movs	r2, #64	; 0x40
     646:	7919      	ldrb	r1, [r3, #4]
     648:	430a      	orrs	r2, r1
     64a:	711a      	strb	r2, [r3, #4]
	}
     64c:	bd10      	pop	{r4, pc}
     64e:	46c0      	nop			; (mov r8, r8)
     650:	f0003fff 	.word	0xf0003fff

00000654 <_ZN26DoubleBufferedEPOutHandler14handleEndpointEv>:
	virtual void handleEndpoint()
     654:	b5f7      	push	{r0, r1, r2, r4, r5, r6, r7, lr}
		if (usbd.epBank0IsTransferComplete(ep))
     656:	0005      	movs	r5, r0
     658:	35fc      	adds	r5, #252	; 0xfc
	inline bool epBank0IsTransferComplete(ep_t ep)  { return usb.DeviceEndpoint[ep].EPINTFLAG.bit.TRCPT0; }
     65a:	7d2b      	ldrb	r3, [r5, #20]
		if (usbd.epBank0IsTransferComplete(ep))
     65c:	6842      	ldr	r2, [r0, #4]
	inline bool epBank0IsTransferComplete(ep_t ep)  { return usb.DeviceEndpoint[ep].EPINTFLAG.bit.TRCPT0; }
     65e:	0019      	movs	r1, r3
	virtual void handleEndpoint()
     660:	0004      	movs	r4, r0
	inline bool epBank0IsTransferComplete(ep_t ep)  { return usb.DeviceEndpoint[ep].EPINTFLAG.bit.TRCPT0; }
     662:	3108      	adds	r1, #8
     664:	6810      	ldr	r0, [r2, #0]
     666:	0149      	lsls	r1, r1, #5
     668:	1841      	adds	r1, r0, r1
     66a:	79c9      	ldrb	r1, [r1, #7]
		if (usbd.epBank0IsTransferComplete(ep))
     66c:	07c9      	lsls	r1, r1, #31
     66e:	d511      	bpl.n	694 <_ZN26DoubleBufferedEPOutHandler14handleEndpointEv+0x40>
	inline uint16_t epBank0ByteCount(ep_t ep) { return EP[ep].DeviceDescBank[0].PCKSIZE.bit.BYTE_COUNT; }
     670:	015b      	lsls	r3, r3, #5
     672:	18d2      	adds	r2, r2, r3
     674:	6893      	ldr	r3, [r2, #8]
     676:	049b      	lsls	r3, r3, #18
     678:	0c9b      	lsrs	r3, r3, #18
			if (received == 0) {
     67a:	d10c      	bne.n	696 <_ZN26DoubleBufferedEPOutHandler14handleEndpointEv+0x42>
				release();
     67c:	0020      	movs	r0, r4
     67e:	f7ff ffcb 	bl	618 <_ZN26DoubleBufferedEPOutHandler7releaseEv>
	inline void epAckPendingInterrupts(ep_t ep)     { usb.DeviceEndpoint[ep].EPINTFLAG.reg = 0x7F; }
     682:	6863      	ldr	r3, [r4, #4]
     684:	681a      	ldr	r2, [r3, #0]
     686:	696b      	ldr	r3, [r5, #20]
     688:	b2db      	uxtb	r3, r3
     68a:	3308      	adds	r3, #8
     68c:	015b      	lsls	r3, r3, #5
     68e:	18d3      	adds	r3, r2, r3
     690:	227f      	movs	r2, #127	; 0x7f
     692:	71da      	strb	r2, [r3, #7]
	}
     694:	bdf7      	pop	{r0, r1, r2, r4, r5, r6, r7, pc}
			} else if (incoming == 0) {
     696:	69e9      	ldr	r1, [r5, #28]
     698:	2900      	cmp	r1, #0
     69a:	d123      	bne.n	6e4 <_ZN26DoubleBufferedEPOutHandler14handleEndpointEv+0x90>
				last0 = received;
     69c:	666b      	str	r3, [r5, #100]	; 0x64
				usbd.epBank0SetAddress(ep, const_cast<uint8_t *>(data1));
     69e:	0023      	movs	r3, r4
				incoming = 1;
     6a0:	2601      	movs	r6, #1
				usbd.epBank0SetAddress(ep, const_cast<uint8_t *>(data1));
     6a2:	3369      	adds	r3, #105	; 0x69
     6a4:	33ff      	adds	r3, #255	; 0xff
				incoming = 1;
     6a6:	61ee      	str	r6, [r5, #28]
				synchronized {
     6a8:	4668      	mov	r0, sp
	inline void epBank0SetAddress(ep_t ep, void *addr) { EP[ep].DeviceDescBank[0].ADDR.reg = (uint32_t)addr; }
     6aa:	6053      	str	r3, [r2, #4]
					ready0 = true;
     6ac:	27b2      	movs	r7, #178	; 0xb2
				synchronized {
     6ae:	f7ff ff6d 	bl	58c <_ZN7__GuardC1Ev>
					ready0 = true;
     6b2:	007f      	lsls	r7, r7, #1
					notify = ready1;
     6b4:	21b2      	movs	r1, #178	; 0xb2
     6b6:	9b01      	ldr	r3, [sp, #4]
     6b8:	31ff      	adds	r1, #255	; 0xff
     6ba:	3b01      	subs	r3, #1
				synchronized {
     6bc:	1c5a      	adds	r2, r3, #1
     6be:	d038      	beq.n	732 <_ZN26DoubleBufferedEPOutHandler14handleEndpointEv+0xde>
					notify = ready1;
     6c0:	22d8      	movs	r2, #216	; 0xd8
					ready0 = true;
     6c2:	55e6      	strb	r6, [r4, r7]
					notify = ready1;
     6c4:	0052      	lsls	r2, r2, #1
     6c6:	5ca2      	ldrb	r2, [r4, r2]
     6c8:	1e58      	subs	r0, r3, #1
     6ca:	b2d2      	uxtb	r2, r2
     6cc:	5462      	strb	r2, [r4, r1]
					if (!notify) {
     6ce:	5c62      	ldrb	r2, [r4, r1]
     6d0:	4684      	mov	ip, r0
     6d2:	2a00      	cmp	r2, #0
     6d4:	d104      	bne.n	6e0 <_ZN26DoubleBufferedEPOutHandler14handleEndpointEv+0x8c>
						release();
     6d6:	0020      	movs	r0, r4
     6d8:	9301      	str	r3, [sp, #4]
     6da:	f7ff ff9d 	bl	618 <_ZN26DoubleBufferedEPOutHandler7releaseEv>
     6de:	e7e9      	b.n	6b4 <_ZN26DoubleBufferedEPOutHandler14handleEndpointEv+0x60>
     6e0:	4663      	mov	r3, ip
     6e2:	e7eb      	b.n	6bc <_ZN26DoubleBufferedEPOutHandler14handleEndpointEv+0x68>
				last1 = received;
     6e4:	21d6      	movs	r1, #214	; 0xd6
     6e6:	0049      	lsls	r1, r1, #1
     6e8:	5063      	str	r3, [r4, r1]
				incoming = 0;
     6ea:	2300      	movs	r3, #0
     6ec:	61eb      	str	r3, [r5, #28]
				usbd.epBank0SetAddress(ep, const_cast<uint8_t *>(data0));
     6ee:	0023      	movs	r3, r4
     6f0:	331d      	adds	r3, #29
     6f2:	33ff      	adds	r3, #255	; 0xff
	inline void epBank0SetAddress(ep_t ep, void *addr) { EP[ep].DeviceDescBank[0].ADDR.reg = (uint32_t)addr; }
     6f4:	6053      	str	r3, [r2, #4]
				synchronized {
     6f6:	4668      	mov	r0, sp
					ready1 = true;
     6f8:	26d8      	movs	r6, #216	; 0xd8
				synchronized {
     6fa:	f7ff ff47 	bl	58c <_ZN7__GuardC1Ev>
					ready1 = true;
     6fe:	2701      	movs	r7, #1
     700:	0076      	lsls	r6, r6, #1
					notify = ready0;
     702:	21b2      	movs	r1, #178	; 0xb2
     704:	9b01      	ldr	r3, [sp, #4]
     706:	31ff      	adds	r1, #255	; 0xff
     708:	3b01      	subs	r3, #1
				synchronized {
     70a:	1c5a      	adds	r2, r3, #1
     70c:	d011      	beq.n	732 <_ZN26DoubleBufferedEPOutHandler14handleEndpointEv+0xde>
					notify = ready0;
     70e:	22b2      	movs	r2, #178	; 0xb2
					ready1 = true;
     710:	55a7      	strb	r7, [r4, r6]
					notify = ready0;
     712:	0052      	lsls	r2, r2, #1
     714:	5ca2      	ldrb	r2, [r4, r2]
     716:	1e58      	subs	r0, r3, #1
     718:	b2d2      	uxtb	r2, r2
     71a:	5462      	strb	r2, [r4, r1]
					if (!notify) {
     71c:	5c62      	ldrb	r2, [r4, r1]
     71e:	4684      	mov	ip, r0
     720:	2a00      	cmp	r2, #0
     722:	d104      	bne.n	72e <_ZN26DoubleBufferedEPOutHandler14handleEndpointEv+0xda>
						release();
     724:	0020      	movs	r0, r4
     726:	9301      	str	r3, [sp, #4]
     728:	f7ff ff76 	bl	618 <_ZN26DoubleBufferedEPOutHandler7releaseEv>
     72c:	e7e9      	b.n	702 <_ZN26DoubleBufferedEPOutHandler14handleEndpointEv+0xae>
     72e:	4663      	mov	r3, ip
     730:	e7eb      	b.n	70a <_ZN26DoubleBufferedEPOutHandler14handleEndpointEv+0xb6>
				synchronized {
     732:	4668      	mov	r0, sp
     734:	9301      	str	r3, [sp, #4]
     736:	f7ff ff30 	bl	59a <_ZN7__GuardD1Ev>
     73a:	e7a2      	b.n	682 <_ZN26DoubleBufferedEPOutHandler14handleEndpointEv+0x2e>

0000073c <_ZN26DoubleBufferedEPOutHandler5_recvEv>:
	uint32_t _recv()
     73c:	b5f7      	push	{r0, r1, r2, r4, r5, r6, r7, lr}
     73e:	0005      	movs	r5, r0
		synchronized {
     740:	4668      	mov	r0, sp
     742:	002c      	movs	r4, r5
     744:	f7ff ff22 	bl	58c <_ZN7__GuardC1Ev>
		uint32_t len = 0;
     748:	2700      	movs	r7, #0

template <int N>
int RingBufferN<N>::availableForStore()
{
  if (_iHead >= _iTail)
    return N - 1 - _iHead + _iTail;
     74a:	22ff      	movs	r2, #255	; 0xff
     74c:	9b01      	ldr	r3, [sp, #4]
     74e:	34fc      	adds	r4, #252	; 0xfc
		synchronized {
     750:	3b01      	subs	r3, #1
     752:	d30d      	bcc.n	770 <_ZN26DoubleBufferedEPOutHandler5_recvEv+0x34>
  if (_iHead >= _iTail)
     754:	68e0      	ldr	r0, [r4, #12]
     756:	6921      	ldr	r1, [r4, #16]
     758:	4288      	cmp	r0, r1
     75a:	db04      	blt.n	766 <_ZN26DoubleBufferedEPOutHandler5_recvEv+0x2a>
    return N - 1 - _iHead + _iTail;
     75c:	68e7      	ldr	r7, [r4, #12]
     75e:	6920      	ldr	r0, [r4, #16]
     760:	1bd7      	subs	r7, r2, r7
     762:	183f      	adds	r7, r7, r0
     764:	e7f4      	b.n	750 <_ZN26DoubleBufferedEPOutHandler5_recvEv+0x14>
  else
    return _iTail - _iHead - 1;
     766:	6927      	ldr	r7, [r4, #16]
     768:	68e1      	ldr	r1, [r4, #12]
     76a:	1a7f      	subs	r7, r7, r1
     76c:	3f01      	subs	r7, #1
     76e:	e7ef      	b.n	750 <_ZN26DoubleBufferedEPOutHandler5_recvEv+0x14>
     770:	4668      	mov	r0, sp
     772:	9301      	str	r3, [sp, #4]
     774:	f7ff ff11 	bl	59a <_ZN7__GuardD1Ev>
		if (current == 0) {
     778:	69a3      	ldr	r3, [r4, #24]
			synchronized {
     77a:	4668      	mov	r0, sp
		if (current == 0) {
     77c:	2b00      	cmp	r3, #0
     77e:	d141      	bne.n	804 <_ZN26DoubleBufferedEPOutHandler5_recvEv+0xc8>
			synchronized {
     780:	f7ff ff04 	bl	58c <_ZN7__GuardC1Ev>
				if (!ready0) {
     784:	21b2      	movs	r1, #178	; 0xb2
     786:	9b01      	ldr	r3, [sp, #4]
     788:	0049      	lsls	r1, r1, #1
     78a:	3b01      	subs	r3, #1
			synchronized {
     78c:	1c5a      	adds	r2, r3, #1
     78e:	d00c      	beq.n	7aa <_ZN26DoubleBufferedEPOutHandler5_recvEv+0x6e>
				if (!ready0) {
     790:	5c6e      	ldrb	r6, [r5, r1]
     792:	1e5a      	subs	r2, r3, #1
     794:	b2f6      	uxtb	r6, r6
     796:	2e00      	cmp	r6, #0
     798:	d105      	bne.n	7a6 <_ZN26DoubleBufferedEPOutHandler5_recvEv+0x6a>
				synchronized {
     79a:	4668      	mov	r0, sp
     79c:	9301      	str	r3, [sp, #4]
     79e:	f7ff fefc 	bl	59a <_ZN7__GuardD1Ev>
	}
     7a2:	0030      	movs	r0, r6
     7a4:	bdfe      	pop	{r1, r2, r3, r4, r5, r6, r7, pc}
     7a6:	0013      	movs	r3, r2
     7a8:	e7f0      	b.n	78c <_ZN26DoubleBufferedEPOutHandler5_recvEv+0x50>
			synchronized {
     7aa:	4668      	mov	r0, sp
     7ac:	9301      	str	r3, [sp, #4]
		uint32_t i = 0;
     7ae:	2600      	movs	r6, #0
			synchronized {
     7b0:	f7ff fef3 	bl	59a <_ZN7__GuardD1Ev>
}

template <int N>
int RingBufferN<N>::nextIndex(int index)
{
  return (uint32_t)(index + 1) % N;
     7b4:	22ff      	movs	r2, #255	; 0xff
			for (; i<len && first0 < last0; i++) {
     7b6:	42be      	cmp	r6, r7
     7b8:	d003      	beq.n	7c2 <_ZN26DoubleBufferedEPOutHandler5_recvEv+0x86>
     7ba:	6e23      	ldr	r3, [r4, #96]	; 0x60
     7bc:	6e61      	ldr	r1, [r4, #100]	; 0x64
     7be:	428b      	cmp	r3, r1
     7c0:	d360      	bcc.n	884 <_ZN26DoubleBufferedEPOutHandler5_recvEv+0x148>
			if (first0 == last0) {
     7c2:	6e63      	ldr	r3, [r4, #100]	; 0x64
     7c4:	6e22      	ldr	r2, [r4, #96]	; 0x60
     7c6:	429a      	cmp	r2, r3
     7c8:	d1eb      	bne.n	7a2 <_ZN26DoubleBufferedEPOutHandler5_recvEv+0x66>
				first0 = 0;
     7ca:	2300      	movs	r3, #0
     7cc:	6623      	str	r3, [r4, #96]	; 0x60
				current = 1;
     7ce:	3301      	adds	r3, #1
     7d0:	61a3      	str	r3, [r4, #24]
				synchronized {
     7d2:	4668      	mov	r0, sp
					ready0 = false;
     7d4:	24b2      	movs	r4, #178	; 0xb2
				synchronized {
     7d6:	f7ff fed9 	bl	58c <_ZN7__GuardC1Ev>
					ready0 = false;
     7da:	0064      	lsls	r4, r4, #1
					if (notify) {
     7dc:	22b2      	movs	r2, #178	; 0xb2
					ready0 = false;
     7de:	2100      	movs	r1, #0
     7e0:	9b01      	ldr	r3, [sp, #4]
					if (notify) {
     7e2:	32ff      	adds	r2, #255	; 0xff
     7e4:	3b01      	subs	r3, #1
				synchronized {
     7e6:	1c58      	adds	r0, r3, #1
     7e8:	d0d7      	beq.n	79a <_ZN26DoubleBufferedEPOutHandler5_recvEv+0x5e>
					ready0 = false;
     7ea:	5529      	strb	r1, [r5, r4]
					if (notify) {
     7ec:	5ca8      	ldrb	r0, [r5, r2]
     7ee:	1e5f      	subs	r7, r3, #1
     7f0:	2800      	cmp	r0, #0
     7f2:	d005      	beq.n	800 <_ZN26DoubleBufferedEPOutHandler5_recvEv+0xc4>
						notify = false;
     7f4:	54a9      	strb	r1, [r5, r2]
						release();
     7f6:	0028      	movs	r0, r5
     7f8:	9301      	str	r3, [sp, #4]
     7fa:	f7ff ff0d 	bl	618 <_ZN26DoubleBufferedEPOutHandler7releaseEv>
     7fe:	e7ed      	b.n	7dc <_ZN26DoubleBufferedEPOutHandler5_recvEv+0xa0>
     800:	003b      	movs	r3, r7
     802:	e7f0      	b.n	7e6 <_ZN26DoubleBufferedEPOutHandler5_recvEv+0xaa>
			synchronized {
     804:	f7ff fec2 	bl	58c <_ZN7__GuardC1Ev>
				if (!ready1) {
     808:	21d8      	movs	r1, #216	; 0xd8
     80a:	9b01      	ldr	r3, [sp, #4]
     80c:	0049      	lsls	r1, r1, #1
     80e:	3b01      	subs	r3, #1
			synchronized {
     810:	1c5a      	adds	r2, r3, #1
     812:	d006      	beq.n	822 <_ZN26DoubleBufferedEPOutHandler5_recvEv+0xe6>
				if (!ready1) {
     814:	5c6e      	ldrb	r6, [r5, r1]
     816:	1e5a      	subs	r2, r3, #1
     818:	b2f6      	uxtb	r6, r6
     81a:	2e00      	cmp	r6, #0
     81c:	d0bd      	beq.n	79a <_ZN26DoubleBufferedEPOutHandler5_recvEv+0x5e>
     81e:	0013      	movs	r3, r2
     820:	e7f6      	b.n	810 <_ZN26DoubleBufferedEPOutHandler5_recvEv+0xd4>
			synchronized {
     822:	4668      	mov	r0, sp
     824:	9301      	str	r3, [sp, #4]
     826:	f7ff feb8 	bl	59a <_ZN7__GuardD1Ev>
     82a:	22d4      	movs	r2, #212	; 0xd4
		uint32_t i = 0;
     82c:	2600      	movs	r6, #0
     82e:	0052      	lsls	r2, r2, #1
			for (; i<len && first1 < last1; i++) {
     830:	42be      	cmp	r6, r7
     832:	d005      	beq.n	840 <_ZN26DoubleBufferedEPOutHandler5_recvEv+0x104>
     834:	21d6      	movs	r1, #214	; 0xd6
     836:	0049      	lsls	r1, r1, #1
     838:	58ab      	ldr	r3, [r5, r2]
     83a:	5869      	ldr	r1, [r5, r1]
     83c:	428b      	cmp	r3, r1
     83e:	d332      	bcc.n	8a6 <_ZN26DoubleBufferedEPOutHandler5_recvEv+0x16a>
			if (first1 == last1) {
     840:	23d6      	movs	r3, #214	; 0xd6
     842:	005b      	lsls	r3, r3, #1
     844:	58eb      	ldr	r3, [r5, r3]
     846:	58a9      	ldr	r1, [r5, r2]
     848:	4299      	cmp	r1, r3
     84a:	d1aa      	bne.n	7a2 <_ZN26DoubleBufferedEPOutHandler5_recvEv+0x66>
				first1 = 0;
     84c:	2300      	movs	r3, #0
				synchronized {
     84e:	4668      	mov	r0, sp
				first1 = 0;
     850:	50ab      	str	r3, [r5, r2]
				current = 0;
     852:	61a3      	str	r3, [r4, #24]
					ready1 = false;
     854:	24d8      	movs	r4, #216	; 0xd8
				synchronized {
     856:	f7ff fe99 	bl	58c <_ZN7__GuardC1Ev>
					ready1 = false;
     85a:	0064      	lsls	r4, r4, #1
					if (notify) {
     85c:	22b2      	movs	r2, #178	; 0xb2
					ready1 = false;
     85e:	2100      	movs	r1, #0
     860:	9b01      	ldr	r3, [sp, #4]
					if (notify) {
     862:	32ff      	adds	r2, #255	; 0xff
     864:	3b01      	subs	r3, #1
				synchronized {
     866:	1c58      	adds	r0, r3, #1
     868:	d097      	beq.n	79a <_ZN26DoubleBufferedEPOutHandler5_recvEv+0x5e>
					ready1 = false;
     86a:	5529      	strb	r1, [r5, r4]
					if (notify) {
     86c:	5ca8      	ldrb	r0, [r5, r2]
     86e:	1e5f      	subs	r7, r3, #1
     870:	2800      	cmp	r0, #0
     872:	d005      	beq.n	880 <_ZN26DoubleBufferedEPOutHandler5_recvEv+0x144>
						notify = false;
     874:	54a9      	strb	r1, [r5, r2]
						release();
     876:	0028      	movs	r0, r5
     878:	9301      	str	r3, [sp, #4]
     87a:	f7ff fecd 	bl	618 <_ZN26DoubleBufferedEPOutHandler7releaseEv>
     87e:	e7ed      	b.n	85c <_ZN26DoubleBufferedEPOutHandler5_recvEv+0x120>
     880:	003b      	movs	r3, r7
     882:	e7f0      	b.n	866 <_ZN26DoubleBufferedEPOutHandler5_recvEv+0x12a>
				_rx_buffer.store_char(data0[first0++]);
     884:	1c59      	adds	r1, r3, #1
     886:	18eb      	adds	r3, r5, r3
     888:	33ff      	adds	r3, #255	; 0xff
     88a:	6621      	str	r1, [r4, #96]	; 0x60
     88c:	7f59      	ldrb	r1, [r3, #29]
  int i = nextIndex(_iHead);
     88e:	68e3      	ldr	r3, [r4, #12]
  if ( i != _iTail )
     890:	6920      	ldr	r0, [r4, #16]
  return (uint32_t)(index + 1) % N;
     892:	3301      	adds	r3, #1
     894:	4013      	ands	r3, r2
  if ( i != _iTail )
     896:	4283      	cmp	r3, r0
     898:	d003      	beq.n	8a2 <_ZN26DoubleBufferedEPOutHandler5_recvEv+0x166>
    _aucBuffer[_iHead] = c ;
     89a:	68e0      	ldr	r0, [r4, #12]
     89c:	1828      	adds	r0, r5, r0
     89e:	7201      	strb	r1, [r0, #8]
    _iHead = i ;
     8a0:	60e3      	str	r3, [r4, #12]
			for (; i<len && first0 < last0; i++) {
     8a2:	3601      	adds	r6, #1
     8a4:	e787      	b.n	7b6 <_ZN26DoubleBufferedEPOutHandler5_recvEv+0x7a>
				_rx_buffer.store_char(data1[first1++]);
     8a6:	1c59      	adds	r1, r3, #1
     8a8:	50a9      	str	r1, [r5, r2]
  return (uint32_t)(index + 1) % N;
     8aa:	21ff      	movs	r1, #255	; 0xff
     8ac:	18eb      	adds	r3, r5, r3
     8ae:	3369      	adds	r3, #105	; 0x69
     8b0:	33ff      	adds	r3, #255	; 0xff
     8b2:	781b      	ldrb	r3, [r3, #0]
     8b4:	469c      	mov	ip, r3
  int i = nextIndex(_iHead);
     8b6:	68e3      	ldr	r3, [r4, #12]
  return (uint32_t)(index + 1) % N;
     8b8:	3301      	adds	r3, #1
     8ba:	400b      	ands	r3, r1
  if ( i != _iTail )
     8bc:	6921      	ldr	r1, [r4, #16]
     8be:	428b      	cmp	r3, r1
     8c0:	d004      	beq.n	8cc <_ZN26DoubleBufferedEPOutHandler5_recvEv+0x190>
    _aucBuffer[_iHead] = c ;
     8c2:	4660      	mov	r0, ip
     8c4:	68e1      	ldr	r1, [r4, #12]
     8c6:	1869      	adds	r1, r5, r1
     8c8:	7208      	strb	r0, [r1, #8]
    _iHead = i ;
     8ca:	60e3      	str	r3, [r4, #12]
			for (; i<len && first1 < last1; i++) {
     8cc:	3601      	adds	r6, #1
     8ce:	e7af      	b.n	830 <_ZN26DoubleBufferedEPOutHandler5_recvEv+0xf4>

000008d0 <_ZN26DoubleBufferedEPOutHandler4peekEv>:
	virtual int peek() {
     8d0:	b510      	push	{r4, lr}
     8d2:	0004      	movs	r4, r0
		_recv();
     8d4:	f7ff ff32 	bl	73c <_ZN26DoubleBufferedEPOutHandler5_recvEv>
  if(_iTail == _iHead)
     8d8:	0023      	movs	r3, r4
     8da:	33fc      	adds	r3, #252	; 0xfc
     8dc:	6919      	ldr	r1, [r3, #16]
     8de:	68da      	ldr	r2, [r3, #12]
     8e0:	4291      	cmp	r1, r2
     8e2:	d003      	beq.n	8ec <_ZN26DoubleBufferedEPOutHandler4peekEv+0x1c>
  return _aucBuffer[_iTail];
     8e4:	691b      	ldr	r3, [r3, #16]
     8e6:	18e4      	adds	r4, r4, r3
     8e8:	7a20      	ldrb	r0, [r4, #8]
	}
     8ea:	bd10      	pop	{r4, pc}
    return -1;
     8ec:	2001      	movs	r0, #1
     8ee:	4240      	negs	r0, r0
		return _rx_buffer.peek();
     8f0:	e7fb      	b.n	8ea <_ZN26DoubleBufferedEPOutHandler4peekEv+0x1a>

000008f2 <_ZN26DoubleBufferedEPOutHandler9availableEv>:
	virtual uint32_t available() {
     8f2:	b510      	push	{r4, lr}
     8f4:	0004      	movs	r4, r0
  int delta = _iHead - _iTail;
     8f6:	34fc      	adds	r4, #252	; 0xfc
		_recv();
     8f8:	f7ff ff20 	bl	73c <_ZN26DoubleBufferedEPOutHandler5_recvEv>
     8fc:	68e0      	ldr	r0, [r4, #12]
     8fe:	6923      	ldr	r3, [r4, #16]
     900:	1ac0      	subs	r0, r0, r3
  if(delta < 0)
     902:	d501      	bpl.n	908 <_ZN26DoubleBufferedEPOutHandler9availableEv+0x16>
    return N + delta;
     904:	3001      	adds	r0, #1
     906:	30ff      	adds	r0, #255	; 0xff
	}
     908:	bd10      	pop	{r4, pc}

0000090a <_ZN26DoubleBufferedEPOutHandler4recvEPvm>:
	virtual uint32_t recv(void *_data, uint32_t len) {
     90a:	b5f0      	push	{r4, r5, r6, r7, lr}
     90c:	b085      	sub	sp, #20
     90e:	9201      	str	r2, [sp, #4]
     910:	9100      	str	r1, [sp, #0]
     912:	0005      	movs	r5, r0
		_recv();
     914:	f7ff ff12 	bl	73c <_ZN26DoubleBufferedEPOutHandler5_recvEv>
		synchronized {
     918:	a802      	add	r0, sp, #8
     91a:	f7ff fe37 	bl	58c <_ZN7__GuardC1Ev>
    return -1;
     91e:	2001      	movs	r0, #1
		uint32_t i = 0;
     920:	2400      	movs	r4, #0
  return (uint32_t)(index + 1) % N;
     922:	26ff      	movs	r6, #255	; 0xff
     924:	9a03      	ldr	r2, [sp, #12]
    return -1;
     926:	4240      	negs	r0, r0
		synchronized {
     928:	3a01      	subs	r2, #1
     92a:	d31d      	bcc.n	968 <_ZN26DoubleBufferedEPOutHandler4recvEPvm+0x5e>
  int delta = _iHead - _iTail;
     92c:	002b      	movs	r3, r5
     92e:	33fc      	adds	r3, #252	; 0xfc
			for (; i < len && _rx_buffer.available(); i++) {
     930:	9901      	ldr	r1, [sp, #4]
     932:	428c      	cmp	r4, r1
     934:	d2f8      	bcs.n	928 <_ZN26DoubleBufferedEPOutHandler4recvEPvm+0x1e>
     936:	68d9      	ldr	r1, [r3, #12]
     938:	691f      	ldr	r7, [r3, #16]
     93a:	1bc9      	subs	r1, r1, r7
  if(delta < 0)
     93c:	d501      	bpl.n	942 <_ZN26DoubleBufferedEPOutHandler4recvEPvm+0x38>
    return N + delta;
     93e:	3101      	adds	r1, #1
     940:	31ff      	adds	r1, #255	; 0xff
     942:	2900      	cmp	r1, #0
     944:	d0f0      	beq.n	928 <_ZN26DoubleBufferedEPOutHandler4recvEPvm+0x1e>
  if(_iTail == _iHead)
     946:	6919      	ldr	r1, [r3, #16]
     948:	68df      	ldr	r7, [r3, #12]
     94a:	468c      	mov	ip, r1
    return -1;
     94c:	0001      	movs	r1, r0
  if(_iTail == _iHead)
     94e:	45bc      	cmp	ip, r7
     950:	d006      	beq.n	960 <_ZN26DoubleBufferedEPOutHandler4recvEPvm+0x56>
  uint8_t value = _aucBuffer[_iTail];
     952:	6919      	ldr	r1, [r3, #16]
  _iTail = nextIndex(_iTail);
     954:	691f      	ldr	r7, [r3, #16]
  uint8_t value = _aucBuffer[_iTail];
     956:	1869      	adds	r1, r5, r1
  return (uint32_t)(index + 1) % N;
     958:	3701      	adds	r7, #1
     95a:	4037      	ands	r7, r6
  uint8_t value = _aucBuffer[_iTail];
     95c:	7a09      	ldrb	r1, [r1, #8]
  _iTail = nextIndex(_iTail);
     95e:	611f      	str	r7, [r3, #16]
				data[i] = _rx_buffer.read_char();
     960:	9f00      	ldr	r7, [sp, #0]
     962:	5539      	strb	r1, [r7, r4]
			for (; i < len && _rx_buffer.available(); i++) {
     964:	3401      	adds	r4, #1
     966:	e7e3      	b.n	930 <_ZN26DoubleBufferedEPOutHandler4recvEPvm+0x26>
		synchronized {
     968:	a802      	add	r0, sp, #8
     96a:	9203      	str	r2, [sp, #12]
     96c:	f7ff fe15 	bl	59a <_ZN7__GuardD1Ev>
	}
     970:	0020      	movs	r0, r4
     972:	b005      	add	sp, #20
     974:	bdf0      	pop	{r4, r5, r6, r7, pc}

00000976 <_ZN14USBDeviceClass14SendInterfacesEPm>:
{
     976:	b537      	push	{r0, r1, r2, r4, r5, lr}
	uint8_t interfaces = 0;
     978:	466b      	mov	r3, sp
     97a:	1ddc      	adds	r4, r3, #7
     97c:	2300      	movs	r3, #0
{
     97e:	000d      	movs	r5, r1
	uint8_t interfaces = 0;
     980:	7023      	strb	r3, [r4, #0]
	total[0] += PluggableUSB().getInterface(&interfaces);
     982:	f001 fcc9 	bl	2318 <_Z12PluggableUSBv>
     986:	0021      	movs	r1, r4
     988:	f001 fc46 	bl	2218 <_ZN13PluggableUSB_12getInterfaceEPh>
     98c:	682b      	ldr	r3, [r5, #0]
     98e:	1818      	adds	r0, r3, r0
     990:	6028      	str	r0, [r5, #0]
	return interfaces;
     992:	7820      	ldrb	r0, [r4, #0]
}
     994:	bd3e      	pop	{r1, r2, r3, r4, r5, pc}
	...

00000998 <_ZN14USBDeviceClass4initEv>:
{
     998:	b5f8      	push	{r3, r4, r5, r6, r7, lr}
	PM->APBBMASK.reg |= PM_APBBMASK_USB;
     99a:	2320      	movs	r3, #32
     99c:	4a3e      	ldr	r2, [pc, #248]	; (a98 <_ZN14USBDeviceClass4initEv+0x100>)
{
     99e:	0005      	movs	r5, r0
	PM->APBBMASK.reg |= PM_APBBMASK_USB;
     9a0:	69d1      	ldr	r1, [r2, #28]
	PORT->Group[0].PMUX[PIN_PA24G_USB_DM/2].reg &= ~(0xF << (4 * (PIN_PA24G_USB_DM & 0x01u)));
     9a2:	200f      	movs	r0, #15
	PM->APBBMASK.reg |= PM_APBBMASK_USB;
     9a4:	430b      	orrs	r3, r1
     9a6:	61d3      	str	r3, [r2, #28]
	PORT->Group[0].PINCFG[PIN_PA24G_USB_DM].bit.PMUXEN = 1;
     9a8:	2201      	movs	r2, #1
     9aa:	493c      	ldr	r1, [pc, #240]	; (a9c <_ZN14USBDeviceClass4initEv+0x104>)
     9ac:	780b      	ldrb	r3, [r1, #0]
     9ae:	4313      	orrs	r3, r2
     9b0:	700b      	strb	r3, [r1, #0]
	PORT->Group[0].PMUX[PIN_PA24G_USB_DM/2].reg &= ~(0xF << (4 * (PIN_PA24G_USB_DM & 0x01u)));
     9b2:	4b3b      	ldr	r3, [pc, #236]	; (aa0 <_ZN14USBDeviceClass4initEv+0x108>)
     9b4:	7819      	ldrb	r1, [r3, #0]
     9b6:	4381      	bics	r1, r0
     9b8:	7019      	strb	r1, [r3, #0]
	PORT->Group[0].PMUX[PIN_PA24G_USB_DM/2].reg |= MUX_PA24G_USB_DM << (4 * (PIN_PA24G_USB_DM & 0x01u));
     9ba:	2106      	movs	r1, #6
     9bc:	781c      	ldrb	r4, [r3, #0]
     9be:	4321      	orrs	r1, r4
     9c0:	7019      	strb	r1, [r3, #0]
	PORT->Group[0].PINCFG[PIN_PA25G_USB_DP].bit.PMUXEN = 1;
     9c2:	4938      	ldr	r1, [pc, #224]	; (aa4 <_ZN14USBDeviceClass4initEv+0x10c>)
     9c4:	780c      	ldrb	r4, [r1, #0]
     9c6:	4322      	orrs	r2, r4
     9c8:	700a      	strb	r2, [r1, #0]
	PORT->Group[0].PMUX[PIN_PA25G_USB_DP/2].reg &= ~(0xF << (4 * (PIN_PA25G_USB_DP & 0x01u)));
     9ca:	781a      	ldrb	r2, [r3, #0]
     9cc:	4002      	ands	r2, r0
     9ce:	701a      	strb	r2, [r3, #0]
	PORT->Group[0].PMUX[PIN_PA25G_USB_DP/2].reg |= MUX_PA25G_USB_DP << (4 * (PIN_PA25G_USB_DP & 0x01u));
     9d0:	2260      	movs	r2, #96	; 0x60
     9d2:	7819      	ldrb	r1, [r3, #0]
     9d4:	430a      	orrs	r2, r1
     9d6:	701a      	strb	r2, [r3, #0]
	GCLK->CLKCTRL.reg = GCLK_CLKCTRL_ID(6)     | // Generic Clock Multiplexer 6
     9d8:	4b33      	ldr	r3, [pc, #204]	; (aa8 <_ZN14USBDeviceClass4initEv+0x110>)
     9da:	4a34      	ldr	r2, [pc, #208]	; (aac <_ZN14USBDeviceClass4initEv+0x114>)
     9dc:	805a      	strh	r2, [r3, #2]
	while (GCLK->STATUS.bit.SYNCBUSY)
     9de:	785f      	ldrb	r7, [r3, #1]
     9e0:	09ff      	lsrs	r7, r7, #7
     9e2:	d1fc      	bne.n	9de <_ZN14USBDeviceClass4initEv+0x46>
	USB_SetHandler(&UDD_Handler);
     9e4:	4832      	ldr	r0, [pc, #200]	; (ab0 <_ZN14USBDeviceClass4initEv+0x118>)
     9e6:	f7ff fbeb 	bl	1c0 <USB_SetHandler>
	usb.CTRLA.bit.SWRST = 1;
     9ea:	4e32      	ldr	r6, [pc, #200]	; (ab4 <_ZN14USBDeviceClass4initEv+0x11c>)
     9ec:	2301      	movs	r3, #1
     9ee:	0030      	movs	r0, r6
     9f0:	c810      	ldmia	r0!, {r4}
	memset(EP, 0, sizeof(EP));
     9f2:	0039      	movs	r1, r7
	usb.CTRLA.bit.SWRST = 1;
     9f4:	7822      	ldrb	r2, [r4, #0]
     9f6:	4313      	orrs	r3, r2
	memset(EP, 0, sizeof(EP));
     9f8:	2280      	movs	r2, #128	; 0x80
	usb.CTRLA.bit.SWRST = 1;
     9fa:	7023      	strb	r3, [r4, #0]
	memset(EP, 0, sizeof(EP));
     9fc:	0052      	lsls	r2, r2, #1
     9fe:	f001 fd86 	bl	250e <memset>
	while (usb.SYNCBUSY.bit.SWRST) {}
     a02:	78a3      	ldrb	r3, [r4, #2]
     a04:	07db      	lsls	r3, r3, #31
     a06:	d4fc      	bmi.n	a02 <_ZN14USBDeviceClass4initEv+0x6a>
	uint32_t pad_transn = (*pad_transn_p & USB_FUSES_TRANSN_Msk) >> USB_FUSES_TRANSN_Pos;
     a08:	201f      	movs	r0, #31
	usb.DESCADD.reg = (uint32_t)(&EP);
     a0a:	3604      	adds	r6, #4
	uint32_t pad_transn = (*pad_transn_p & USB_FUSES_TRANSN_Msk) >> USB_FUSES_TRANSN_Pos;
     a0c:	4b2a      	ldr	r3, [pc, #168]	; (ab8 <_ZN14USBDeviceClass4initEv+0x120>)
	usb.DESCADD.reg = (uint32_t)(&EP);
     a0e:	6266      	str	r6, [r4, #36]	; 0x24
	uint32_t pad_transn = (*pad_transn_p & USB_FUSES_TRANSN_Msk) >> USB_FUSES_TRANSN_Pos;
     a10:	681b      	ldr	r3, [r3, #0]
     a12:	0b5a      	lsrs	r2, r3, #13
	uint32_t pad_transp = (*pad_transp_p & USB_FUSES_TRANSP_Msk) >> USB_FUSES_TRANSP_Pos;
     a14:	0c99      	lsrs	r1, r3, #18
	uint32_t pad_trim   = (*pad_trim_p   & USB_FUSES_TRIM_Msk  ) >> USB_FUSES_TRIM_Pos;
     a16:	019b      	lsls	r3, r3, #6
	uint32_t pad_transn = (*pad_transn_p & USB_FUSES_TRANSN_Msk) >> USB_FUSES_TRANSN_Pos;
     a18:	4002      	ands	r2, r0
	uint32_t pad_transp = (*pad_transp_p & USB_FUSES_TRANSP_Msk) >> USB_FUSES_TRANSP_Pos;
     a1a:	4001      	ands	r1, r0
	uint32_t pad_trim   = (*pad_trim_p   & USB_FUSES_TRIM_Msk  ) >> USB_FUSES_TRIM_Pos;
     a1c:	0f5b      	lsrs	r3, r3, #29
	if (pad_transn == 0x1F)  // maximum value (31)
     a1e:	4282      	cmp	r2, r0
     a20:	d100      	bne.n	a24 <_ZN14USBDeviceClass4initEv+0x8c>
		pad_transn = 5;
     a22:	2205      	movs	r2, #5
	if (pad_transp == 0x1F)  // maximum value (31)
     a24:	291f      	cmp	r1, #31
     a26:	d100      	bne.n	a2a <_ZN14USBDeviceClass4initEv+0x92>
		pad_transp = 29;
     a28:	3902      	subs	r1, #2
	if (pad_trim == 0x7)     // maximum value (7)
     a2a:	2b07      	cmp	r3, #7
     a2c:	d100      	bne.n	a30 <_ZN14USBDeviceClass4initEv+0x98>
		pad_trim = 3;
     a2e:	3b04      	subs	r3, #4
	usb.PADCAL.bit.TRANSN = pad_transn;
     a30:	8d26      	ldrh	r6, [r4, #40]	; 0x28
     a32:	4f22      	ldr	r7, [pc, #136]	; (abc <_ZN14USBDeviceClass4initEv+0x124>)
     a34:	4002      	ands	r2, r0
     a36:	403e      	ands	r6, r7
     a38:	0192      	lsls	r2, r2, #6
     a3a:	4332      	orrs	r2, r6
     a3c:	8522      	strh	r2, [r4, #40]	; 0x28
	usb.PADCAL.bit.TRANSP = pad_transp;
     a3e:	8d22      	ldrh	r2, [r4, #40]	; 0x28
     a40:	4001      	ands	r1, r0
     a42:	4382      	bics	r2, r0
     a44:	000e      	movs	r6, r1
     a46:	0011      	movs	r1, r2
     a48:	4331      	orrs	r1, r6
     a4a:	8521      	strh	r1, [r4, #40]	; 0x28
	usb.PADCAL.bit.TRIM   = pad_trim;
     a4c:	8d22      	ldrh	r2, [r4, #40]	; 0x28
     a4e:	0319      	lsls	r1, r3, #12
     a50:	4b1b      	ldr	r3, [pc, #108]	; (ac0 <_ZN14USBDeviceClass4initEv+0x128>)
	SerialUSB.begin(0);
     a52:	481c      	ldr	r0, [pc, #112]	; (ac4 <_ZN14USBDeviceClass4initEv+0x12c>)
     a54:	4013      	ands	r3, r2
	inline void setUSBDeviceMode() { usb.CTRLA.bit.MODE = USB_CTRLA_MODE_DEVICE_Val; }
     a56:	227f      	movs	r2, #127	; 0x7f
	usb.PADCAL.bit.TRIM   = pad_trim;
     a58:	430b      	orrs	r3, r1
     a5a:	8523      	strh	r3, [r4, #40]	; 0x28
	inline void setUSBDeviceMode() { usb.CTRLA.bit.MODE = USB_CTRLA_MODE_DEVICE_Val; }
     a5c:	7823      	ldrb	r3, [r4, #0]
    NVIC->IP[_IP_IDX(IRQn)]  = ((uint32_t)(NVIC->IP[_IP_IDX(IRQn)]  & ~(0xFFUL << _BIT_SHIFT(IRQn))) |
     a5e:	21c1      	movs	r1, #193	; 0xc1
     a60:	4013      	ands	r3, r2
     a62:	7023      	strb	r3, [r4, #0]
	inline void runInStandby()   { usb.CTRLA.bit.RUNSTDBY = 1; }
     a64:	2304      	movs	r3, #4
     a66:	7822      	ldrb	r2, [r4, #0]
     a68:	0089      	lsls	r1, r1, #2
     a6a:	4313      	orrs	r3, r2
	inline void setFullSpeed()       { usb.CTRLB.bit.SPDCONF = USB_DEVICE_CTRLB_SPDCONF_FS_Val;   }
     a6c:	220c      	movs	r2, #12
	inline void runInStandby()   { usb.CTRLA.bit.RUNSTDBY = 1; }
     a6e:	7023      	strb	r3, [r4, #0]
	inline void setFullSpeed()       { usb.CTRLB.bit.SPDCONF = USB_DEVICE_CTRLB_SPDCONF_FS_Val;   }
     a70:	8923      	ldrh	r3, [r4, #8]
     a72:	4393      	bics	r3, r2
     a74:	4a14      	ldr	r2, [pc, #80]	; (ac8 <_ZN14USBDeviceClass4initEv+0x130>)
     a76:	8123      	strh	r3, [r4, #8]
     a78:	5853      	ldr	r3, [r2, r1]
     a7a:	021b      	lsls	r3, r3, #8
     a7c:	0a1b      	lsrs	r3, r3, #8
     a7e:	5053      	str	r3, [r2, r1]
    NVIC->ISER[0U] = (uint32_t)(1UL << (((uint32_t)IRQn) & 0x1FUL));
     a80:	2380      	movs	r3, #128	; 0x80
     a82:	6013      	str	r3, [r2, #0]
	inline void enable()  { usb.CTRLA.bit.ENABLE = 1; }
     a84:	7822      	ldrb	r2, [r4, #0]
     a86:	3b7e      	subs	r3, #126	; 0x7e
     a88:	4313      	orrs	r3, r2
     a8a:	7023      	strb	r3, [r4, #0]
	initialized = true;
     a8c:	2301      	movs	r3, #1
	SerialUSB.begin(0);
     a8e:	2100      	movs	r1, #0
	initialized = true;
     a90:	702b      	strb	r3, [r5, #0]
	SerialUSB.begin(0);
     a92:	f001 fbb5 	bl	2200 <_ZN7Serial_5beginEm>
}
     a96:	bdf8      	pop	{r3, r4, r5, r6, r7, pc}
     a98:	40000400 	.word	0x40000400
     a9c:	41004458 	.word	0x41004458
     aa0:	4100443c 	.word	0x4100443c
     aa4:	41004459 	.word	0x41004459
     aa8:	40000c00 	.word	0x40000c00
     aac:	00004006 	.word	0x00004006
     ab0:	0000141d 	.word	0x0000141d
     ab4:	20000598 	.word	0x20000598
     ab8:	00806024 	.word	0x00806024
     abc:	fffff83f 	.word	0xfffff83f
     ac0:	ffff8fff 	.word	0xffff8fff
     ac4:	200008f0 	.word	0x200008f0
     ac8:	e000e100 	.word	0xe000e100

00000acc <_ZN14USBDeviceClass6attachEv>:
	if (!initialized)
     acc:	7800      	ldrb	r0, [r0, #0]
     ace:	2800      	cmp	r0, #0
     ad0:	d010      	beq.n	af4 <_ZN14USBDeviceClass6attachEv+0x28>
	inline void attach() { usb.CTRLB.bit.DETACH = 0; }
     ad2:	2101      	movs	r1, #1
     ad4:	4b08      	ldr	r3, [pc, #32]	; (af8 <_ZN14USBDeviceClass6attachEv+0x2c>)
     ad6:	681b      	ldr	r3, [r3, #0]
     ad8:	891a      	ldrh	r2, [r3, #8]
     ada:	438a      	bics	r2, r1
     adc:	811a      	strh	r2, [r3, #8]
	inline void enableEndOfResetInterrupt()    { usb.INTENSET.bit.EORST = 1; }
     ade:	2208      	movs	r2, #8
     ae0:	8b19      	ldrh	r1, [r3, #24]
     ae2:	430a      	orrs	r2, r1
     ae4:	831a      	strh	r2, [r3, #24]
	inline void enableStartOfFrameInterrupt()  { usb.INTENSET.bit.SOF = 1; }
     ae6:	2204      	movs	r2, #4
     ae8:	8b19      	ldrh	r1, [r3, #24]
     aea:	430a      	orrs	r2, r1
     aec:	831a      	strh	r2, [r3, #24]
	_usbConfiguration = 0;
     aee:	2200      	movs	r2, #0
     af0:	4b02      	ldr	r3, [pc, #8]	; (afc <_ZN14USBDeviceClass6attachEv+0x30>)
     af2:	601a      	str	r2, [r3, #0]
}
     af4:	4770      	bx	lr
     af6:	46c0      	nop			; (mov r8, r8)
     af8:	20000598 	.word	0x20000598
     afc:	20000590 	.word	0x20000590

00000b00 <_ZN14USBDeviceClass10setAddressEm>:
{
     b00:	b510      	push	{r4, lr}
	inline void epBank1SetByteCount(ep_t ep, uint16_t bc) { EP[ep].DeviceDescBank[1].PCKSIZE.bit.BYTE_COUNT = bc; }
     b02:	4a0f      	ldr	r2, [pc, #60]	; (b40 <_ZN14USBDeviceClass10setAddressEm+0x40>)
     b04:	6993      	ldr	r3, [r2, #24]
     b06:	0b9b      	lsrs	r3, r3, #14
     b08:	039b      	lsls	r3, r3, #14
     b0a:	6193      	str	r3, [r2, #24]
	inline void epBank1AckTransferComplete(ep_t ep) { usb.DeviceEndpoint[ep].EPINTFLAG.reg = USB_DEVICE_EPINTFLAG_TRCPT(2); }
     b0c:	6813      	ldr	r3, [r2, #0]
     b0e:	2202      	movs	r2, #2
     b10:	33ff      	adds	r3, #255	; 0xff
     b12:	721a      	strb	r2, [r3, #8]
	inline void epBank1SetReady(ep_t ep)   { usb.DeviceEndpoint[ep].EPSTATUSSET.bit.BK1RDY = 1; }
     b14:	7998      	ldrb	r0, [r3, #6]
     b16:	3a82      	subs	r2, #130	; 0x82
     b18:	4302      	orrs	r2, r0
     b1a:	719a      	strb	r2, [r3, #6]
	inline bool epBank1IsTransferComplete(ep_t ep)  { return usb.DeviceEndpoint[ep].EPINTFLAG.bit.TRCPT1; }
     b1c:	7a1a      	ldrb	r2, [r3, #8]
	while (!usbd.epBank1IsTransferComplete(0)) {}
     b1e:	0792      	lsls	r2, r2, #30
     b20:	d5fc      	bpl.n	b1c <_ZN14USBDeviceClass10setAddressEm+0x1c>
	USB->DEVICE.DADD.bit.DADD = addr; // Address
     b22:	247f      	movs	r4, #127	; 0x7f
     b24:	4a07      	ldr	r2, [pc, #28]	; (b44 <_ZN14USBDeviceClass10setAddressEm+0x44>)
     b26:	4021      	ands	r1, r4
     b28:	7a93      	ldrb	r3, [r2, #10]
     b2a:	0008      	movs	r0, r1
     b2c:	43a3      	bics	r3, r4
     b2e:	0019      	movs	r1, r3
	USB->DEVICE.DADD.bit.ADDEN = 1; // Enable
     b30:	2380      	movs	r3, #128	; 0x80
	USB->DEVICE.DADD.bit.DADD = addr; // Address
     b32:	4301      	orrs	r1, r0
     b34:	7291      	strb	r1, [r2, #10]
	USB->DEVICE.DADD.bit.ADDEN = 1; // Enable
     b36:	7a91      	ldrb	r1, [r2, #10]
     b38:	425b      	negs	r3, r3
     b3a:	430b      	orrs	r3, r1
     b3c:	7293      	strb	r3, [r2, #10]
}
     b3e:	bd10      	pop	{r4, pc}
     b40:	20000598 	.word	0x20000598
     b44:	41005000 	.word	0x41005000

00000b48 <_ZN14USBDeviceClass25handleClassInterfaceSetupER8USBSetup>:
{
     b48:	b510      	push	{r4, lr}
     b4a:	000c      	movs	r4, r1
	bool ret = PluggableUSB().setup(setup);
     b4c:	f001 fbe4 	bl	2318 <_Z12PluggableUSBv>
     b50:	0021      	movs	r1, r4
     b52:	f001 fb98 	bl	2286 <_ZN13PluggableUSB_5setupER8USBSetup>
	if ( ret == false) {
     b56:	2800      	cmp	r0, #0
     b58:	d104      	bne.n	b64 <_ZN14USBDeviceClass25handleClassInterfaceSetupER8USBSetup+0x1c>
	inline void epBank1SetByteCount(ep_t ep, uint16_t bc) { EP[ep].DeviceDescBank[1].PCKSIZE.bit.BYTE_COUNT = bc; }
     b5a:	4a03      	ldr	r2, [pc, #12]	; (b68 <_ZN14USBDeviceClass25handleClassInterfaceSetupER8USBSetup+0x20>)
     b5c:	6993      	ldr	r3, [r2, #24]
     b5e:	0b9b      	lsrs	r3, r3, #14
     b60:	039b      	lsls	r3, r3, #14
     b62:	6193      	str	r3, [r2, #24]
}
     b64:	bd10      	pop	{r4, pc}
     b66:	46c0      	nop			; (mov r8, r8)
     b68:	20000598 	.word	0x20000598

00000b6c <_ZN14USBDeviceClass6initEPEmm>:
{
     b6c:	b5f8      	push	{r3, r4, r5, r6, r7, lr}
     b6e:	000d      	movs	r5, r1
	if (config == (USB_ENDPOINT_TYPE_INTERRUPT | USB_ENDPOINT_IN(0)))
     b70:	2a83      	cmp	r2, #131	; 0x83
     b72:	d119      	bne.n	ba8 <_ZN14USBDeviceClass6initEPEmm+0x3c>
	inline void epBank1SetSize(ep_t ep, uint16_t size) { EP[ep].DeviceDescBank[1].PCKSIZE.bit.SIZE = EP_PCKSIZE_SIZE(size); }
     b74:	b2cb      	uxtb	r3, r1
     b76:	4c39      	ldr	r4, [pc, #228]	; (c5c <_ZN14USBDeviceClass6initEPEmm+0xf0>)
     b78:	015a      	lsls	r2, r3, #5
     b7a:	18a2      	adds	r2, r4, r2
     b7c:	6991      	ldr	r1, [r2, #24]
     b7e:	4838      	ldr	r0, [pc, #224]	; (c60 <_ZN14USBDeviceClass6initEPEmm+0xf4>)
		usbd.epBank1SetAddress(ep, &udd_ep_in_cache_buffer[ep]);
     b80:	01ad      	lsls	r5, r5, #6
     b82:	4008      	ands	r0, r1
     b84:	21c0      	movs	r1, #192	; 0xc0
     b86:	0589      	lsls	r1, r1, #22
     b88:	4301      	orrs	r1, r0
     b8a:	6191      	str	r1, [r2, #24]
     b8c:	4935      	ldr	r1, [pc, #212]	; (c64 <_ZN14USBDeviceClass6initEPEmm+0xf8>)
	inline void epBank1SetType(ep_t ep, uint8_t type) { usb.DeviceEndpoint[ep].EPCFG.bit.EPTYPE1 = type; }
     b8e:	6820      	ldr	r0, [r4, #0]
     b90:	194d      	adds	r5, r1, r5
     b92:	2170      	movs	r1, #112	; 0x70
     b94:	3308      	adds	r3, #8
	inline void epBank1SetAddress(ep_t ep, void *addr) { EP[ep].DeviceDescBank[1].ADDR.reg = (uint32_t)addr; }
     b96:	6155      	str	r5, [r2, #20]
	inline void epBank1SetType(ep_t ep, uint8_t type) { usb.DeviceEndpoint[ep].EPCFG.bit.EPTYPE1 = type; }
     b98:	015b      	lsls	r3, r3, #5
     b9a:	5c1a      	ldrb	r2, [r3, r0]
     b9c:	438a      	bics	r2, r1
     b9e:	0011      	movs	r1, r2
     ba0:	2240      	movs	r2, #64	; 0x40
     ba2:	430a      	orrs	r2, r1
     ba4:	541a      	strb	r2, [r3, r0]
}
     ba6:	bdf8      	pop	{r3, r4, r5, r6, r7, pc}
	else if (config == (USB_ENDPOINT_TYPE_BULK | USB_ENDPOINT_OUT(0)))
     ba8:	2a02      	cmp	r2, #2
     baa:	d152      	bne.n	c52 <_ZN14USBDeviceClass6initEPEmm+0xe6>
		if (epHandlers[ep] != NULL) {
     bac:	4a2e      	ldr	r2, [pc, #184]	; (c68 <_ZN14USBDeviceClass6initEPEmm+0xfc>)
     bae:	008b      	lsls	r3, r1, #2
     bb0:	5898      	ldr	r0, [r3, r2]
     bb2:	2800      	cmp	r0, #0
     bb4:	d002      	beq.n	bbc <_ZN14USBDeviceClass6initEPEmm+0x50>
			delete (DoubleBufferedEPOutHandler*)epHandlers[ep];
     bb6:	6803      	ldr	r3, [r0, #0]
     bb8:	695b      	ldr	r3, [r3, #20]
     bba:	4798      	blx	r3
		epHandlers[ep] = new DoubleBufferedEPOutHandler(usbd, ep);
     bbc:	20da      	movs	r0, #218	; 0xda
     bbe:	0040      	lsls	r0, r0, #1
     bc0:	f000 fe02 	bl	17c8 <_Znwj>
    memset( _aucBuffer, 0, N ) ;
     bc4:	2280      	movs	r2, #128	; 0x80
     bc6:	0004      	movs	r4, r0
		notify(false)
     bc8:	4e24      	ldr	r6, [pc, #144]	; (c5c <_ZN14USBDeviceClass6initEPEmm+0xf0>)
     bca:	4b28      	ldr	r3, [pc, #160]	; (c6c <_ZN14USBDeviceClass6initEPEmm+0x100>)
     bcc:	6046      	str	r6, [r0, #4]
     bce:	6003      	str	r3, [r0, #0]
     bd0:	0052      	lsls	r2, r2, #1
     bd2:	2100      	movs	r1, #0
     bd4:	3008      	adds	r0, #8
     bd6:	f001 fc9a 	bl	250e <memset>
  _iHead = 0;
     bda:	0022      	movs	r2, r4
     bdc:	2300      	movs	r3, #0
     bde:	32fc      	adds	r2, #252	; 0xfc
     be0:	60d3      	str	r3, [r2, #12]
     be2:	6155      	str	r5, [r2, #20]
  _iTail = 0;
     be4:	6113      	str	r3, [r2, #16]
     be6:	6613      	str	r3, [r2, #96]	; 0x60
     be8:	6193      	str	r3, [r2, #24]
     bea:	61d3      	str	r3, [r2, #28]
     bec:	6653      	str	r3, [r2, #100]	; 0x64
     bee:	22b2      	movs	r2, #178	; 0xb2
     bf0:	0052      	lsls	r2, r2, #1
     bf2:	54a3      	strb	r3, [r4, r2]
     bf4:	3244      	adds	r2, #68	; 0x44
     bf6:	50a3      	str	r3, [r4, r2]
     bf8:	3204      	adds	r2, #4
     bfa:	50a3      	str	r3, [r4, r2]
     bfc:	3204      	adds	r2, #4
     bfe:	54a3      	strb	r3, [r4, r2]
     c00:	22b2      	movs	r2, #178	; 0xb2
     c02:	32ff      	adds	r2, #255	; 0xff
     c04:	54a3      	strb	r3, [r4, r2]
	inline void epBank0SetSize(ep_t ep, uint16_t size) { EP[ep].DeviceDescBank[0].PCKSIZE.bit.SIZE = EP_PCKSIZE_SIZE(size); }
     c06:	b2ea      	uxtb	r2, r5
     c08:	0150      	lsls	r0, r2, #5
     c0a:	1831      	adds	r1, r6, r0
     c0c:	688b      	ldr	r3, [r1, #8]
     c0e:	4f14      	ldr	r7, [pc, #80]	; (c60 <_ZN14USBDeviceClass6initEPEmm+0xf4>)
	inline void epBank0SetType(ep_t ep, uint8_t type) { usb.DeviceEndpoint[ep].EPCFG.bit.EPTYPE0 = type; }
     c10:	3208      	adds	r2, #8
	inline void epBank0SetSize(ep_t ep, uint16_t size) { EP[ep].DeviceDescBank[0].PCKSIZE.bit.SIZE = EP_PCKSIZE_SIZE(size); }
     c12:	401f      	ands	r7, r3
     c14:	23c0      	movs	r3, #192	; 0xc0
     c16:	059b      	lsls	r3, r3, #22
     c18:	433b      	orrs	r3, r7
	inline void epBank0SetType(ep_t ep, uint8_t type) { usb.DeviceEndpoint[ep].EPCFG.bit.EPTYPE0 = type; }
     c1a:	2707      	movs	r7, #7
	inline void epBank0SetSize(ep_t ep, uint16_t size) { EP[ep].DeviceDescBank[0].PCKSIZE.bit.SIZE = EP_PCKSIZE_SIZE(size); }
     c1c:	608b      	str	r3, [r1, #8]
	inline void epBank0SetType(ep_t ep, uint8_t type) { usb.DeviceEndpoint[ep].EPCFG.bit.EPTYPE0 = type; }
     c1e:	6833      	ldr	r3, [r6, #0]
     c20:	0152      	lsls	r2, r2, #5
     c22:	5cd6      	ldrb	r6, [r2, r3]
     c24:	00ad      	lsls	r5, r5, #2
     c26:	43be      	bics	r6, r7
     c28:	46b4      	mov	ip, r6
     c2a:	2603      	movs	r6, #3
     c2c:	4667      	mov	r7, ip
     c2e:	433e      	orrs	r6, r7
     c30:	54d6      	strb	r6, [r2, r3]
		usbd.epBank0SetAddress(ep, const_cast<uint8_t *>(data0));
     c32:	0022      	movs	r2, r4
     c34:	321d      	adds	r2, #29
     c36:	32ff      	adds	r2, #255	; 0xff
	inline void epBank0SetAddress(ep_t ep, void *addr) { EP[ep].DeviceDescBank[0].ADDR.reg = (uint32_t)addr; }
     c38:	604a      	str	r2, [r1, #4]
	inline void epBank0EnableTransferComplete(ep_t ep) { usb.DeviceEndpoint[ep].EPINTENSET.bit.TRCPT0 = 1; }
     c3a:	2201      	movs	r2, #1
     c3c:	181b      	adds	r3, r3, r0
     c3e:	33ff      	adds	r3, #255	; 0xff
     c40:	7a99      	ldrb	r1, [r3, #10]
		release();
     c42:	0020      	movs	r0, r4
	inline void epBank0EnableTransferComplete(ep_t ep) { usb.DeviceEndpoint[ep].EPINTENSET.bit.TRCPT0 = 1; }
     c44:	430a      	orrs	r2, r1
     c46:	729a      	strb	r2, [r3, #10]
		release();
     c48:	f7ff fce6 	bl	618 <_ZN26DoubleBufferedEPOutHandler7releaseEv>
     c4c:	4b06      	ldr	r3, [pc, #24]	; (c68 <_ZN14USBDeviceClass6initEPEmm+0xfc>)
     c4e:	515c      	str	r4, [r3, r5]
     c50:	e7a9      	b.n	ba6 <_ZN14USBDeviceClass6initEPEmm+0x3a>
     c52:	0011      	movs	r1, r2
     c54:	0028      	movs	r0, r5
     c56:	f7ff fc37 	bl	4c8 <_ZN14USBDeviceClass6initEPEmm.part.7>
}
     c5a:	e7a4      	b.n	ba6 <_ZN14USBDeviceClass6initEPEmm+0x3a>
     c5c:	20000598 	.word	0x20000598
     c60:	8fffffff 	.word	0x8fffffff
     c64:	2000010c 	.word	0x2000010c
     c68:	200000e4 	.word	0x200000e4
     c6c:	000026e4 	.word	0x000026e4

00000c70 <_ZN14USBDeviceClass13initEndpointsEv>:
void USBDeviceClass::initEndpoints() {
     c70:	b570      	push	{r4, r5, r6, lr}
     c72:	0005      	movs	r5, r0
     c74:	2401      	movs	r4, #1
	for (uint8_t i = 1; (i < EP_ARRAY_SIZE) && (EndPoints[i] != 0); i++) {
     c76:	4b06      	ldr	r3, [pc, #24]	; (c90 <_ZN14USBDeviceClass13initEndpointsEv+0x20>)
     c78:	00a2      	lsls	r2, r4, #2
     c7a:	58d2      	ldr	r2, [r2, r3]
     c7c:	2a00      	cmp	r2, #0
     c7e:	d006      	beq.n	c8e <_ZN14USBDeviceClass13initEndpointsEv+0x1e>
		initEP(i, EndPoints[i]);
     c80:	0021      	movs	r1, r4
     c82:	0028      	movs	r0, r5
     c84:	3401      	adds	r4, #1
     c86:	f7ff ff71 	bl	b6c <_ZN14USBDeviceClass6initEPEmm>
	for (uint8_t i = 1; (i < EP_ARRAY_SIZE) && (EndPoints[i] != 0); i++) {
     c8a:	2c0a      	cmp	r4, #10
     c8c:	d1f3      	bne.n	c76 <_ZN14USBDeviceClass13initEndpointsEv+0x6>
}
     c8e:	bd70      	pop	{r4, r5, r6, pc}
     c90:	200000b8 	.word	0x200000b8

00000c94 <_ZN14USBDeviceClass5clearEm>:
		usbd.epBank1AckTransferComplete(ep);
	}
}

void USBDeviceClass::clear(uint32_t ep) {
	usbd.epBank1SetAddress(ep, &udd_ep_in_cache_buffer[ep]);
     c94:	4b0b      	ldr	r3, [pc, #44]	; (cc4 <_ZN14USBDeviceClass5clearEm+0x30>)
	inline void epBank1SetAddress(ep_t ep, void *addr) { EP[ep].DeviceDescBank[1].ADDR.reg = (uint32_t)addr; }
     c96:	b2ca      	uxtb	r2, r1
     c98:	480b      	ldr	r0, [pc, #44]	; (cc8 <_ZN14USBDeviceClass5clearEm+0x34>)
     c9a:	0189      	lsls	r1, r1, #6
     c9c:	1859      	adds	r1, r3, r1
     c9e:	0153      	lsls	r3, r2, #5
     ca0:	18c3      	adds	r3, r0, r3
     ca2:	6159      	str	r1, [r3, #20]
	inline void epBank1SetByteCount(ep_t ep, uint16_t bc) { EP[ep].DeviceDescBank[1].PCKSIZE.bit.BYTE_COUNT = bc; }
     ca4:	6999      	ldr	r1, [r3, #24]
	inline void epBank1AckTransferComplete(ep_t ep) { usb.DeviceEndpoint[ep].EPINTFLAG.reg = USB_DEVICE_EPINTFLAG_TRCPT(2); }
     ca6:	3208      	adds	r2, #8
	inline void epBank1SetByteCount(ep_t ep, uint16_t bc) { EP[ep].DeviceDescBank[1].PCKSIZE.bit.BYTE_COUNT = bc; }
     ca8:	0b89      	lsrs	r1, r1, #14
     caa:	0389      	lsls	r1, r1, #14
     cac:	6199      	str	r1, [r3, #24]
	inline void epBank1AckTransferComplete(ep_t ep) { usb.DeviceEndpoint[ep].EPINTFLAG.reg = USB_DEVICE_EPINTFLAG_TRCPT(2); }
     cae:	6803      	ldr	r3, [r0, #0]
     cb0:	0152      	lsls	r2, r2, #5
     cb2:	189a      	adds	r2, r3, r2
     cb4:	2302      	movs	r3, #2
     cb6:	71d3      	strb	r3, [r2, #7]
	inline void epBank1SetReady(ep_t ep)   { usb.DeviceEndpoint[ep].EPSTATUSSET.bit.BK1RDY = 1; }
     cb8:	7951      	ldrb	r1, [r2, #5]
     cba:	3b82      	subs	r3, #130	; 0x82
     cbc:	430b      	orrs	r3, r1
     cbe:	7153      	strb	r3, [r2, #5]
	// Clear the transfer complete flag
	usbd.epBank1AckTransferComplete(ep);

	// RAM buffer is full, we can send data (IN)
	usbd.epBank1SetReady(ep);
}
     cc0:	4770      	bx	lr
     cc2:	46c0      	nop			; (mov r8, r8)
     cc4:	2000010c 	.word	0x2000010c
     cc8:	20000598 	.word	0x20000598

00000ccc <_ZN14USBDeviceClass9availableEm>:
}

// Number of bytes, assumes a rx endpoint
uint32_t USBDeviceClass::available(uint32_t ep)
{
	if (epHandlers[ep]) {
     ccc:	4b08      	ldr	r3, [pc, #32]	; (cf0 <_ZN14USBDeviceClass9availableEm+0x24>)
     cce:	008a      	lsls	r2, r1, #2
     cd0:	58d0      	ldr	r0, [r2, r3]
{
     cd2:	b510      	push	{r4, lr}
	if (epHandlers[ep]) {
     cd4:	2800      	cmp	r0, #0
     cd6:	d003      	beq.n	ce0 <_ZN14USBDeviceClass9availableEm+0x14>
		return epHandlers[ep]->available();
     cd8:	6803      	ldr	r3, [r0, #0]
     cda:	689b      	ldr	r3, [r3, #8]
     cdc:	4798      	blx	r3
	} else {
		return usbd.epBank0ByteCount(ep);
	}
}
     cde:	bd10      	pop	{r4, pc}
	inline uint16_t epBank0ByteCount(ep_t ep) { return EP[ep].DeviceDescBank[0].PCKSIZE.bit.BYTE_COUNT; }
     ce0:	b2c9      	uxtb	r1, r1
     ce2:	4b04      	ldr	r3, [pc, #16]	; (cf4 <_ZN14USBDeviceClass9availableEm+0x28>)
     ce4:	0149      	lsls	r1, r1, #5
     ce6:	1859      	adds	r1, r3, r1
     ce8:	6888      	ldr	r0, [r1, #8]
     cea:	0480      	lsls	r0, r0, #18
     cec:	0c80      	lsrs	r0, r0, #18
		return usbd.epBank0ByteCount(ep);
     cee:	e7f6      	b.n	cde <_ZN14USBDeviceClass9availableEm+0x12>
     cf0:	200000e4 	.word	0x200000e4
     cf4:	20000598 	.word	0x20000598

00000cf8 <_ZN14USBDeviceClass5flushEm>:
{
     cf8:	b510      	push	{r4, lr}
     cfa:	000c      	movs	r4, r1
	if (available(ep)) {
     cfc:	f7ff ffe6 	bl	ccc <_ZN14USBDeviceClass9availableEm>
     d00:	2800      	cmp	r0, #0
     d02:	d00c      	beq.n	d1e <_ZN14USBDeviceClass5flushEm+0x26>
	inline void epBank1SetReady(ep_t ep)   { usb.DeviceEndpoint[ep].EPSTATUSSET.bit.BK1RDY = 1; }
     d04:	4b06      	ldr	r3, [pc, #24]	; (d20 <_ZN14USBDeviceClass5flushEm+0x28>)
     d06:	b2e4      	uxtb	r4, r4
     d08:	681b      	ldr	r3, [r3, #0]
     d0a:	3408      	adds	r4, #8
     d0c:	0164      	lsls	r4, r4, #5
     d0e:	191c      	adds	r4, r3, r4
     d10:	2380      	movs	r3, #128	; 0x80
     d12:	7962      	ldrb	r2, [r4, #5]
     d14:	425b      	negs	r3, r3
     d16:	4313      	orrs	r3, r2
     d18:	7163      	strb	r3, [r4, #5]
	inline void epBank1AckTransferComplete(ep_t ep) { usb.DeviceEndpoint[ep].EPINTFLAG.reg = USB_DEVICE_EPINTFLAG_TRCPT(2); }
     d1a:	2302      	movs	r3, #2
     d1c:	71e3      	strb	r3, [r4, #7]
}
     d1e:	bd10      	pop	{r4, pc}
     d20:	20000598 	.word	0x20000598

00000d24 <_ZN14USBDeviceClass4recvEmPvm>:

// Non Blocking receive
// Return number of bytes read
uint32_t USBDeviceClass::recv(uint32_t ep, void *_data, uint32_t len)
{
     d24:	b5f0      	push	{r4, r5, r6, r7, lr}
     d26:	001c      	movs	r4, r3
	if (!_usbConfiguration)
     d28:	4b2b      	ldr	r3, [pc, #172]	; (dd8 <_ZN14USBDeviceClass4recvEmPvm+0xb4>)
{
     d2a:	b085      	sub	sp, #20
	if (!_usbConfiguration)
     d2c:	681b      	ldr	r3, [r3, #0]
{
     d2e:	0007      	movs	r7, r0
     d30:	000d      	movs	r5, r1
     d32:	9202      	str	r2, [sp, #8]
	if (!_usbConfiguration)
     d34:	2b00      	cmp	r3, #0
     d36:	d04b      	beq.n	dd0 <_ZN14USBDeviceClass4recvEmPvm+0xac>
		digitalWrite(PIN_LED_RXL, LOW);

	rxLEDPulse = TX_RX_LED_PULSE_MS;
#endif

	if (epHandlers[ep]) {
     d38:	4b28      	ldr	r3, [pc, #160]	; (ddc <_ZN14USBDeviceClass4recvEmPvm+0xb8>)
     d3a:	008a      	lsls	r2, r1, #2
     d3c:	58d0      	ldr	r0, [r2, r3]
     d3e:	2800      	cmp	r0, #0
     d40:	d008      	beq.n	d54 <_ZN14USBDeviceClass4recvEmPvm+0x30>
		return epHandlers[ep]->recv(_data, len);
     d42:	6803      	ldr	r3, [r0, #0]
     d44:	0022      	movs	r2, r4
     d46:	685b      	ldr	r3, [r3, #4]
     d48:	9902      	ldr	r1, [sp, #8]
     d4a:	4798      	blx	r3
     d4c:	0004      	movs	r4, r0
		// Enable Transfer complete 0 interrupt
		usbd.epBank0EnableTransferComplete(ep);
	}

	return len;
}
     d4e:	0020      	movs	r0, r4
     d50:	b005      	add	sp, #20
     d52:	bdf0      	pop	{r4, r5, r6, r7, pc}
	if (available(ep) < len)
     d54:	0038      	movs	r0, r7
     d56:	f7ff ffb9 	bl	ccc <_ZN14USBDeviceClass9availableEm>
     d5a:	4284      	cmp	r4, r0
     d5c:	d904      	bls.n	d68 <_ZN14USBDeviceClass4recvEmPvm+0x44>
		len = available(ep);
     d5e:	0029      	movs	r1, r5
     d60:	0038      	movs	r0, r7
     d62:	f7ff ffb3 	bl	ccc <_ZN14USBDeviceClass9availableEm>
     d66:	0004      	movs	r4, r0
	inline void epBank0DisableTransferComplete(ep_t ep) { usb.DeviceEndpoint[ep].EPINTENCLR.bit.TRCPT0 = 1; }
     d68:	2101      	movs	r1, #1
	inline void epBank0SetByteCount(ep_t ep, uint16_t bc) { EP[ep].DeviceDescBank[0].PCKSIZE.bit.BYTE_COUNT = bc; }
     d6a:	b2eb      	uxtb	r3, r5
     d6c:	4e1c      	ldr	r6, [pc, #112]	; (de0 <_ZN14USBDeviceClass4recvEmPvm+0xbc>)
     d6e:	9303      	str	r3, [sp, #12]
     d70:	015b      	lsls	r3, r3, #5
     d72:	9301      	str	r3, [sp, #4]
     d74:	18f2      	adds	r2, r6, r3
     d76:	6893      	ldr	r3, [r2, #8]
     d78:	0b9b      	lsrs	r3, r3, #14
     d7a:	039b      	lsls	r3, r3, #14
     d7c:	6093      	str	r3, [r2, #8]
	inline void epBank0DisableTransferComplete(ep_t ep) { usb.DeviceEndpoint[ep].EPINTENCLR.bit.TRCPT0 = 1; }
     d7e:	9a01      	ldr	r2, [sp, #4]
     d80:	6833      	ldr	r3, [r6, #0]
	memcpy(_data, udd_ep_out_cache_buffer[ep], len);
     d82:	9802      	ldr	r0, [sp, #8]
     d84:	189b      	adds	r3, r3, r2
     d86:	33ff      	adds	r3, #255	; 0xff
     d88:	7a5a      	ldrb	r2, [r3, #9]
     d8a:	430a      	orrs	r2, r1
     d8c:	4915      	ldr	r1, [pc, #84]	; (de4 <_ZN14USBDeviceClass4recvEmPvm+0xc0>)
     d8e:	725a      	strb	r2, [r3, #9]
     d90:	01ab      	lsls	r3, r5, #6
     d92:	18c9      	adds	r1, r1, r3
     d94:	0022      	movs	r2, r4
     d96:	f001 fbb1 	bl	24fc <memcpy>
	if (len && !available(ep)) {
     d9a:	2c00      	cmp	r4, #0
     d9c:	d0d7      	beq.n	d4e <_ZN14USBDeviceClass4recvEmPvm+0x2a>
     d9e:	0029      	movs	r1, r5
     da0:	0038      	movs	r0, r7
     da2:	f7ff ff93 	bl	ccc <_ZN14USBDeviceClass9availableEm>
     da6:	2800      	cmp	r0, #0
     da8:	d1d1      	bne.n	d4e <_ZN14USBDeviceClass4recvEmPvm+0x2a>
	inline void epBank0ResetReady(ep_t ep) { usb.DeviceEndpoint[ep].EPSTATUSCLR.bit.BK0RDY = 1; }
     daa:	2140      	movs	r1, #64	; 0x40
     dac:	9b03      	ldr	r3, [sp, #12]
     dae:	6832      	ldr	r2, [r6, #0]
     db0:	3308      	adds	r3, #8
     db2:	015b      	lsls	r3, r3, #5
     db4:	18d3      	adds	r3, r2, r3
     db6:	7918      	ldrb	r0, [r3, #4]
     db8:	4301      	orrs	r1, r0
     dba:	7119      	strb	r1, [r3, #4]
	inline void epBank0AckTransferComplete(ep_t ep) { usb.DeviceEndpoint[ep].EPINTFLAG.reg = USB_DEVICE_EPINTFLAG_TRCPT(1); }
     dbc:	2101      	movs	r1, #1
     dbe:	71d9      	strb	r1, [r3, #7]
	inline void epBank0EnableTransferComplete(ep_t ep) { usb.DeviceEndpoint[ep].EPINTENSET.bit.TRCPT0 = 1; }
     dc0:	2101      	movs	r1, #1
     dc2:	9b01      	ldr	r3, [sp, #4]
     dc4:	18d3      	adds	r3, r2, r3
     dc6:	33ff      	adds	r3, #255	; 0xff
     dc8:	7a9a      	ldrb	r2, [r3, #10]
     dca:	430a      	orrs	r2, r1
     dcc:	729a      	strb	r2, [r3, #10]
     dce:	e7be      	b.n	d4e <_ZN14USBDeviceClass4recvEmPvm+0x2a>
		return -1;
     dd0:	2401      	movs	r4, #1
     dd2:	4264      	negs	r4, r4
     dd4:	e7bb      	b.n	d4e <_ZN14USBDeviceClass4recvEmPvm+0x2a>
     dd6:	46c0      	nop			; (mov r8, r8)
     dd8:	20000590 	.word	0x20000590
     ddc:	200000e4 	.word	0x200000e4
     de0:	20000598 	.word	0x20000598
     de4:	200002cc 	.word	0x200002cc

00000de8 <_ZN14USBDeviceClass4recvEm>:

// Recv 1 byte if ready
int USBDeviceClass::recv(uint32_t ep)
{
     de8:	b513      	push	{r0, r1, r4, lr}
	uint8_t c;
	if (recv(ep, &c, 1) != 1) {
     dea:	466b      	mov	r3, sp
     dec:	1ddc      	adds	r4, r3, #7
     dee:	0022      	movs	r2, r4
     df0:	2301      	movs	r3, #1
     df2:	f7ff ff97 	bl	d24 <_ZN14USBDeviceClass4recvEmPvm>
     df6:	2801      	cmp	r0, #1
     df8:	d101      	bne.n	dfe <_ZN14USBDeviceClass4recvEm+0x16>
		return -1;
	} else {
		return c;
     dfa:	7820      	ldrb	r0, [r4, #0]
	}
}
     dfc:	bd16      	pop	{r1, r2, r4, pc}
		return -1;
     dfe:	2001      	movs	r0, #1
     e00:	4240      	negs	r0, r0
     e02:	e7fb      	b.n	dfc <_ZN14USBDeviceClass4recvEm+0x14>

00000e04 <_ZN14USBDeviceClass14armRecvCtrlOUTEm>:

uint8_t USBDeviceClass::armRecvCtrlOUT(uint32_t ep)
{
     e04:	b570      	push	{r4, r5, r6, lr}
	// Get endpoint configuration from setting register
	usbd.epBank0SetAddress(ep, &udd_ep_out_cache_buffer[ep]);
     e06:	4b13      	ldr	r3, [pc, #76]	; (e54 <_ZN14USBDeviceClass14armRecvCtrlOUTEm+0x50>)
	inline void epBank0SetAddress(ep_t ep, void *addr) { EP[ep].DeviceDescBank[0].ADDR.reg = (uint32_t)addr; }
     e08:	b2cc      	uxtb	r4, r1
     e0a:	4a13      	ldr	r2, [pc, #76]	; (e58 <_ZN14USBDeviceClass14armRecvCtrlOUTEm+0x54>)
     e0c:	0160      	lsls	r0, r4, #5
     e0e:	0189      	lsls	r1, r1, #6
     e10:	1859      	adds	r1, r3, r1
     e12:	1813      	adds	r3, r2, r0
     e14:	6059      	str	r1, [r3, #4]
	inline void epBank0SetMultiPacketSize(ep_t ep, uint16_t s) { EP[ep].DeviceDescBank[0].PCKSIZE.bit.MULTI_PACKET_SIZE = s; }
     e16:	6899      	ldr	r1, [r3, #8]
     e18:	4d10      	ldr	r5, [pc, #64]	; (e5c <_ZN14USBDeviceClass14armRecvCtrlOUTEm+0x58>)
	inline void epBank0ResetReady(ep_t ep) { usb.DeviceEndpoint[ep].EPSTATUSCLR.bit.BK0RDY = 1; }
     e1a:	3408      	adds	r4, #8
	inline void epBank0SetMultiPacketSize(ep_t ep, uint16_t s) { EP[ep].DeviceDescBank[0].PCKSIZE.bit.MULTI_PACKET_SIZE = s; }
     e1c:	400d      	ands	r5, r1
     e1e:	2180      	movs	r1, #128	; 0x80
     e20:	0349      	lsls	r1, r1, #13
     e22:	4329      	orrs	r1, r5
	inline void epBank0ResetReady(ep_t ep) { usb.DeviceEndpoint[ep].EPSTATUSCLR.bit.BK0RDY = 1; }
     e24:	2540      	movs	r5, #64	; 0x40
	inline void epBank0SetMultiPacketSize(ep_t ep, uint16_t s) { EP[ep].DeviceDescBank[0].PCKSIZE.bit.MULTI_PACKET_SIZE = s; }
     e26:	6099      	str	r1, [r3, #8]
	inline void epBank0SetByteCount(ep_t ep, uint16_t bc) { EP[ep].DeviceDescBank[0].PCKSIZE.bit.BYTE_COUNT = bc; }
     e28:	6899      	ldr	r1, [r3, #8]
     e2a:	0b89      	lsrs	r1, r1, #14
     e2c:	0389      	lsls	r1, r1, #14
     e2e:	6099      	str	r1, [r3, #8]
	inline void epBank0ResetReady(ep_t ep) { usb.DeviceEndpoint[ep].EPSTATUSCLR.bit.BK0RDY = 1; }
     e30:	6811      	ldr	r1, [r2, #0]
     e32:	0163      	lsls	r3, r4, #5
     e34:	18cb      	adds	r3, r1, r3
     e36:	791e      	ldrb	r6, [r3, #4]
     e38:	4335      	orrs	r5, r6
     e3a:	711d      	strb	r5, [r3, #4]
	inline bool epBank0IsReady(ep_t ep)    { return usb.DeviceEndpoint[ep].EPSTATUS.bit.BK0RDY; }
     e3c:	799d      	ldrb	r5, [r3, #6]
	usbd.epBank0SetByteCount(ep, 0);

	usbd.epBank0ResetReady(ep);

	// Wait OUT
	while (!usbd.epBank0IsReady(ep)) {}
     e3e:	066d      	lsls	r5, r5, #25
     e40:	d5fc      	bpl.n	e3c <_ZN14USBDeviceClass14armRecvCtrlOUTEm+0x38>
	inline bool epBank0IsTransferComplete(ep_t ep)  { return usb.DeviceEndpoint[ep].EPINTFLAG.bit.TRCPT0; }
     e42:	0164      	lsls	r4, r4, #5
     e44:	1909      	adds	r1, r1, r4
     e46:	79cb      	ldrb	r3, [r1, #7]
	while (!usbd.epBank0IsTransferComplete(ep)) {}
     e48:	07db      	lsls	r3, r3, #31
     e4a:	d5fc      	bpl.n	e46 <_ZN14USBDeviceClass14armRecvCtrlOUTEm+0x42>
	inline uint16_t epBank0ByteCount(ep_t ep) { return EP[ep].DeviceDescBank[0].PCKSIZE.bit.BYTE_COUNT; }
     e4c:	1812      	adds	r2, r2, r0
     e4e:	6890      	ldr	r0, [r2, #8]
	return usbd.epBank0ByteCount(ep);
     e50:	b2c0      	uxtb	r0, r0
}
     e52:	bd70      	pop	{r4, r5, r6, pc}
     e54:	200002cc 	.word	0x200002cc
     e58:	20000598 	.word	0x20000598
     e5c:	f0003fff 	.word	0xf0003fff

00000e60 <_ZN14USBDeviceClass11recvControlEPvm>:
{
     e60:	b570      	push	{r4, r5, r6, lr}
     e62:	000d      	movs	r5, r1
	uint32_t read = armRecvCtrlOUT(0);
     e64:	2100      	movs	r1, #0
{
     e66:	0014      	movs	r4, r2
	uint32_t read = armRecvCtrlOUT(0);
     e68:	f7ff ffcc 	bl	e04 <_ZN14USBDeviceClass14armRecvCtrlOUTEm>
     e6c:	42a0      	cmp	r0, r4
     e6e:	d900      	bls.n	e72 <_ZN14USBDeviceClass11recvControlEPvm+0x12>
     e70:	0020      	movs	r0, r4
	for (uint32_t i=0; i<len; i++) {
     e72:	2300      	movs	r3, #0
		data[i] = buffer[i];
     e74:	4903      	ldr	r1, [pc, #12]	; (e84 <_ZN14USBDeviceClass11recvControlEPvm+0x24>)
	for (uint32_t i=0; i<len; i++) {
     e76:	42a3      	cmp	r3, r4
     e78:	d003      	beq.n	e82 <_ZN14USBDeviceClass11recvControlEPvm+0x22>
		data[i] = buffer[i];
     e7a:	5c5a      	ldrb	r2, [r3, r1]
     e7c:	54ea      	strb	r2, [r5, r3]
	for (uint32_t i=0; i<len; i++) {
     e7e:	3301      	adds	r3, #1
     e80:	e7f9      	b.n	e76 <_ZN14USBDeviceClass11recvControlEPvm+0x16>
}
     e82:	bd70      	pop	{r4, r5, r6, pc}
     e84:	200002cc 	.word	0x200002cc

00000e88 <_ZN14USBDeviceClass4sendEmPKvm>:
	0
};

// Blocking Send of data to an endpoint
uint32_t USBDeviceClass::send(uint32_t ep, const void *data, uint32_t len)
{
     e88:	b5f0      	push	{r4, r5, r6, r7, lr}
     e8a:	001e      	movs	r6, r3
	uint32_t written = 0;
	uint32_t length = 0;

	if (!_usbConfiguration)
     e8c:	4b3a      	ldr	r3, [pc, #232]	; (f78 <_ZN14USBDeviceClass4sendEmPKvm+0xf0>)
{
     e8e:	b085      	sub	sp, #20
	if (!_usbConfiguration)
     e90:	681b      	ldr	r3, [r3, #0]
{
     e92:	000f      	movs	r7, r1
     e94:	9201      	str	r2, [sp, #4]
	if (!_usbConfiguration)
     e96:	2b00      	cmp	r3, #0
     e98:	d035      	beq.n	f06 <_ZN14USBDeviceClass4sendEmPKvm+0x7e>
		return -1;
	if (len > 16384)
     e9a:	2380      	movs	r3, #128	; 0x80
     e9c:	01db      	lsls	r3, r3, #7
     e9e:	429e      	cmp	r6, r3
     ea0:	d831      	bhi.n	f06 <_ZN14USBDeviceClass4sendEmPKvm+0x7e>
	inline void epBank1SetAddress(ep_t ep, void *addr) { EP[ep].DeviceDescBank[1].ADDR.reg = (uint32_t)addr; }
     ea2:	2500      	movs	r5, #0
		} else {
			length = len;
		}

		/* memcopy could be safer in multi threaded environment */
		memcpy(&udd_ep_in_cache_buffer[ep], data, length);
     ea4:	4a35      	ldr	r2, [pc, #212]	; (f7c <_ZN14USBDeviceClass4sendEmPKvm+0xf4>)
     ea6:	018b      	lsls	r3, r1, #6
     ea8:	18d3      	adds	r3, r2, r3
     eaa:	9302      	str	r3, [sp, #8]
	while (len != 0)
     eac:	2e00      	cmp	r6, #0
     eae:	d02c      	beq.n	f0a <_ZN14USBDeviceClass4sendEmPKvm+0x82>
	inline bool epBank1IsReady(ep_t ep)    { return usb.DeviceEndpoint[ep].EPSTATUS.bit.BK1RDY; }
     eb0:	4b33      	ldr	r3, [pc, #204]	; (f80 <_ZN14USBDeviceClass4sendEmPKvm+0xf8>)
     eb2:	681b      	ldr	r3, [r3, #0]
     eb4:	9303      	str	r3, [sp, #12]
     eb6:	23ff      	movs	r3, #255	; 0xff
     eb8:	403b      	ands	r3, r7
     eba:	001c      	movs	r4, r3
     ebc:	9300      	str	r3, [sp, #0]
     ebe:	3408      	adds	r4, #8
     ec0:	9b03      	ldr	r3, [sp, #12]
     ec2:	0164      	lsls	r4, r4, #5
     ec4:	191c      	adds	r4, r3, r4
     ec6:	79a3      	ldrb	r3, [r4, #6]
     ec8:	09db      	lsrs	r3, r3, #7
		if (usbd.epBank1IsReady(ep)) {
     eca:	d021      	beq.n	f10 <_ZN14USBDeviceClass4sendEmPKvm+0x88>
			uint32_t timeout = microsecondsToClockCycles(TX_TIMEOUT_MS * 1000) / 23;
     ecc:	4b2d      	ldr	r3, [pc, #180]	; (f84 <_ZN14USBDeviceClass4sendEmPKvm+0xfc>)
     ece:	492e      	ldr	r1, [pc, #184]	; (f88 <_ZN14USBDeviceClass4sendEmPKvm+0x100>)
     ed0:	6818      	ldr	r0, [r3, #0]
     ed2:	f001 fa4f 	bl	2374 <__udivsi3>
     ed6:	4b2d      	ldr	r3, [pc, #180]	; (f8c <_ZN14USBDeviceClass4sendEmPKvm+0x104>)
     ed8:	2117      	movs	r1, #23
     eda:	4358      	muls	r0, r3
     edc:	f001 fa4a 	bl	2374 <__udivsi3>
				if (LastTransmitTimedOut[ep] || timeout-- == 0) {
     ee0:	4b2b      	ldr	r3, [pc, #172]	; (f90 <_ZN14USBDeviceClass4sendEmPKvm+0x108>)
	inline bool epBank1IsTransferComplete(ep_t ep)  { return usb.DeviceEndpoint[ep].EPINTFLAG.bit.TRCPT1; }
     ee2:	79e2      	ldrb	r2, [r4, #7]
			while (!usbd.epBank1IsTransferComplete(ep)) {
     ee4:	0792      	lsls	r2, r2, #30
     ee6:	d413      	bmi.n	f10 <_ZN14USBDeviceClass4sendEmPKvm+0x88>
				if (LastTransmitTimedOut[ep] || timeout-- == 0) {
     ee8:	5dda      	ldrb	r2, [r3, r7]
     eea:	2a00      	cmp	r2, #0
     eec:	d101      	bne.n	ef2 <_ZN14USBDeviceClass4sendEmPKvm+0x6a>
     eee:	3801      	subs	r0, #1
     ef0:	d2f7      	bcs.n	ee2 <_ZN14USBDeviceClass4sendEmPKvm+0x5a>
					LastTransmitTimedOut[ep] = 1;
     ef2:	2201      	movs	r2, #1
     ef4:	55da      	strb	r2, [r3, r7]
	inline void epBank1SetByteCount(ep_t ep, uint16_t bc) { EP[ep].DeviceDescBank[1].PCKSIZE.bit.BYTE_COUNT = bc; }
     ef6:	9b00      	ldr	r3, [sp, #0]
     ef8:	4a21      	ldr	r2, [pc, #132]	; (f80 <_ZN14USBDeviceClass4sendEmPKvm+0xf8>)
     efa:	015b      	lsls	r3, r3, #5
     efc:	18d3      	adds	r3, r2, r3
     efe:	699a      	ldr	r2, [r3, #24]
     f00:	0b92      	lsrs	r2, r2, #14
     f02:	0392      	lsls	r2, r2, #14
     f04:	619a      	str	r2, [r3, #24]
					return -1;
     f06:	2501      	movs	r5, #1
     f08:	426d      	negs	r5, r5
		written += length;
		len -= length;
		data = (char *)data + length;
	}
	return written;
}
     f0a:	0028      	movs	r0, r5
     f0c:	b005      	add	sp, #20
     f0e:	bdf0      	pop	{r4, r5, r6, r7, pc}
		LastTransmitTimedOut[ep] = 0;
     f10:	2200      	movs	r2, #0
     f12:	4b1f      	ldr	r3, [pc, #124]	; (f90 <_ZN14USBDeviceClass4sendEmPKvm+0x108>)
     f14:	0034      	movs	r4, r6
     f16:	55da      	strb	r2, [r3, r7]
		if (len >= EPX_SIZE) {
     f18:	2e3f      	cmp	r6, #63	; 0x3f
     f1a:	d909      	bls.n	f30 <_ZN14USBDeviceClass4sendEmPKvm+0xa8>
	inline void epBank1EnableAutoZLP(ep_t ep)  { EP[ep].DeviceDescBank[1].PCKSIZE.bit.AUTO_ZLP = 1; }
     f1c:	9b00      	ldr	r3, [sp, #0]
			length = EPX_SIZE;
     f1e:	2440      	movs	r4, #64	; 0x40
     f20:	015a      	lsls	r2, r3, #5
     f22:	4b17      	ldr	r3, [pc, #92]	; (f80 <_ZN14USBDeviceClass4sendEmPKvm+0xf8>)
     f24:	189b      	adds	r3, r3, r2
     f26:	2280      	movs	r2, #128	; 0x80
     f28:	6999      	ldr	r1, [r3, #24]
     f2a:	0612      	lsls	r2, r2, #24
     f2c:	430a      	orrs	r2, r1
     f2e:	619a      	str	r2, [r3, #24]
		memcpy(&udd_ep_in_cache_buffer[ep], data, length);
     f30:	0022      	movs	r2, r4
     f32:	9901      	ldr	r1, [sp, #4]
     f34:	9802      	ldr	r0, [sp, #8]
     f36:	f001 fae1 	bl	24fc <memcpy>
	inline void epBank1SetAddress(ep_t ep, void *addr) { EP[ep].DeviceDescBank[1].ADDR.reg = (uint32_t)addr; }
     f3a:	9b00      	ldr	r3, [sp, #0]
	inline void epBank1SetByteCount(ep_t ep, uint16_t bc) { EP[ep].DeviceDescBank[1].PCKSIZE.bit.BYTE_COUNT = bc; }
     f3c:	04a1      	lsls	r1, r4, #18
	inline void epBank1SetAddress(ep_t ep, void *addr) { EP[ep].DeviceDescBank[1].ADDR.reg = (uint32_t)addr; }
     f3e:	015a      	lsls	r2, r3, #5
     f40:	4b0f      	ldr	r3, [pc, #60]	; (f80 <_ZN14USBDeviceClass4sendEmPKvm+0xf8>)
	inline void epBank1SetByteCount(ep_t ep, uint16_t bc) { EP[ep].DeviceDescBank[1].PCKSIZE.bit.BYTE_COUNT = bc; }
     f42:	0c89      	lsrs	r1, r1, #18
	inline void epBank1SetAddress(ep_t ep, void *addr) { EP[ep].DeviceDescBank[1].ADDR.reg = (uint32_t)addr; }
     f44:	189b      	adds	r3, r3, r2
     f46:	9a02      	ldr	r2, [sp, #8]
		written += length;
     f48:	192d      	adds	r5, r5, r4
     f4a:	615a      	str	r2, [r3, #20]
	inline void epBank1SetByteCount(ep_t ep, uint16_t bc) { EP[ep].DeviceDescBank[1].PCKSIZE.bit.BYTE_COUNT = bc; }
     f4c:	699a      	ldr	r2, [r3, #24]
		len -= length;
     f4e:	1b36      	subs	r6, r6, r4
     f50:	0b92      	lsrs	r2, r2, #14
     f52:	0392      	lsls	r2, r2, #14
     f54:	430a      	orrs	r2, r1
     f56:	619a      	str	r2, [r3, #24]
	inline void epBank1AckTransferComplete(ep_t ep) { usb.DeviceEndpoint[ep].EPINTFLAG.reg = USB_DEVICE_EPINTFLAG_TRCPT(2); }
     f58:	9b00      	ldr	r3, [sp, #0]
     f5a:	9a03      	ldr	r2, [sp, #12]
     f5c:	3308      	adds	r3, #8
     f5e:	015b      	lsls	r3, r3, #5
     f60:	18d3      	adds	r3, r2, r3
     f62:	2202      	movs	r2, #2
     f64:	71da      	strb	r2, [r3, #7]
	inline void epBank1SetReady(ep_t ep)   { usb.DeviceEndpoint[ep].EPSTATUSSET.bit.BK1RDY = 1; }
     f66:	7959      	ldrb	r1, [r3, #5]
     f68:	3a82      	subs	r2, #130	; 0x82
     f6a:	430a      	orrs	r2, r1
     f6c:	715a      	strb	r2, [r3, #5]
		data = (char *)data + length;
     f6e:	9b01      	ldr	r3, [sp, #4]
     f70:	191b      	adds	r3, r3, r4
     f72:	9301      	str	r3, [sp, #4]
	while (len != 0)
     f74:	e79a      	b.n	eac <_ZN14USBDeviceClass4sendEmPKvm+0x24>
     f76:	46c0      	nop			; (mov r8, r8)
     f78:	20000590 	.word	0x20000590
     f7c:	2000010c 	.word	0x2000010c
     f80:	20000598 	.word	0x20000598
     f84:	20000004 	.word	0x20000004
     f88:	000f4240 	.word	0x000f4240
     f8c:	00011170 	.word	0x00011170
     f90:	20000101 	.word	0x20000101

00000f94 <_ZN14USBDeviceClass7armSendEmPKvm>:

uint32_t USBDeviceClass::armSend(uint32_t ep, const void* data, uint32_t len)
{
     f94:	b570      	push	{r4, r5, r6, lr}
     f96:	000d      	movs	r5, r1
     f98:	001c      	movs	r4, r3
	memcpy(&udd_ep_in_cache_buffer[ep], data, len);
     f9a:	4e0d      	ldr	r6, [pc, #52]	; (fd0 <_ZN14USBDeviceClass7armSendEmPKvm+0x3c>)
     f9c:	01ab      	lsls	r3, r5, #6
     f9e:	18f6      	adds	r6, r6, r3
{
     fa0:	0011      	movs	r1, r2
	memcpy(&udd_ep_in_cache_buffer[ep], data, len);
     fa2:	0030      	movs	r0, r6
     fa4:	0022      	movs	r2, r4
     fa6:	f001 faa9 	bl	24fc <memcpy>
	inline void epBank1SetAddress(ep_t ep, void *addr) { EP[ep].DeviceDescBank[1].ADDR.reg = (uint32_t)addr; }
     faa:	b2ed      	uxtb	r5, r5
     fac:	4909      	ldr	r1, [pc, #36]	; (fd4 <_ZN14USBDeviceClass7armSendEmPKvm+0x40>)
     fae:	016d      	lsls	r5, r5, #5
     fb0:	194d      	adds	r5, r1, r5
     fb2:	616e      	str	r6, [r5, #20]
	inline void epBank1SetMultiPacketSize(ep_t ep, uint16_t s) { EP[ep].DeviceDescBank[1].PCKSIZE.bit.MULTI_PACKET_SIZE = s; }
     fb4:	69ab      	ldr	r3, [r5, #24]
     fb6:	4a08      	ldr	r2, [pc, #32]	; (fd8 <_ZN14USBDeviceClass7armSendEmPKvm+0x44>)
	usbd.epBank1SetAddress(ep, &udd_ep_in_cache_buffer[ep]);
	usbd.epBank1SetMultiPacketSize(ep, 0);
	usbd.epBank1SetByteCount(ep, len);

	return len;
}
     fb8:	0020      	movs	r0, r4
     fba:	4013      	ands	r3, r2
     fbc:	61ab      	str	r3, [r5, #24]
	inline void epBank1SetByteCount(ep_t ep, uint16_t bc) { EP[ep].DeviceDescBank[1].PCKSIZE.bit.BYTE_COUNT = bc; }
     fbe:	69ab      	ldr	r3, [r5, #24]
     fc0:	04a2      	lsls	r2, r4, #18
     fc2:	0b9b      	lsrs	r3, r3, #14
     fc4:	0c92      	lsrs	r2, r2, #18
     fc6:	039b      	lsls	r3, r3, #14
     fc8:	4313      	orrs	r3, r2
     fca:	61ab      	str	r3, [r5, #24]
     fcc:	bd70      	pop	{r4, r5, r6, pc}
     fce:	46c0      	nop			; (mov r8, r8)
     fd0:	2000010c 	.word	0x2000010c
     fd4:	20000598 	.word	0x20000598
     fd8:	f0003fff 	.word	0xf0003fff

00000fdc <_ZN14USBDeviceClass11sendControlEPKvm>:

uint32_t USBDeviceClass::sendControl(const void* _data, uint32_t len)
{
     fdc:	b5f7      	push	{r0, r1, r2, r4, r5, r6, r7, lr}
	const uint8_t *data = reinterpret_cast<const uint8_t *>(_data);
	uint32_t length = len;
	uint32_t sent = 0;
	uint32_t pos = 0;

	if (_dry_run == true)
     fde:	4b10      	ldr	r3, [pc, #64]	; (1020 <_ZN14USBDeviceClass11sendControlEPKvm+0x44>)
{
     fe0:	9001      	str	r0, [sp, #4]
	if (_dry_run == true)
     fe2:	781b      	ldrb	r3, [r3, #0]
{
     fe4:	000f      	movs	r7, r1
     fe6:	0015      	movs	r5, r2
	if (_dry_run == true)
     fe8:	2b00      	cmp	r3, #0
     fea:	d10c      	bne.n	1006 <_ZN14USBDeviceClass11sendControlEPKvm+0x2a>
		return length;

	if (_pack_message == true) {
     fec:	4b0d      	ldr	r3, [pc, #52]	; (1024 <_ZN14USBDeviceClass11sendControlEPKvm+0x48>)
     fee:	0016      	movs	r6, r2
     ff0:	781c      	ldrb	r4, [r3, #0]
     ff2:	2c00      	cmp	r4, #0
     ff4:	d009      	beq.n	100a <_ZN14USBDeviceClass11sendControlEPKvm+0x2e>
		memcpy(&_pack_buffer[_pack_size], data, len);
     ff6:	4e0c      	ldr	r6, [pc, #48]	; (1028 <_ZN14USBDeviceClass11sendControlEPKvm+0x4c>)
     ff8:	480c      	ldr	r0, [pc, #48]	; (102c <_ZN14USBDeviceClass11sendControlEPKvm+0x50>)
     ffa:	8834      	ldrh	r4, [r6, #0]
     ffc:	1900      	adds	r0, r0, r4
		_pack_size += len;
     ffe:	1964      	adds	r4, r4, r5
		memcpy(&_pack_buffer[_pack_size], data, len);
    1000:	f001 fa7c 	bl	24fc <memcpy>
		_pack_size += len;
    1004:	8034      	strh	r4, [r6, #0]
		pos += sent;
		len -= sent;
 	}

	return length;
}
    1006:	0028      	movs	r0, r5
    1008:	bdfe      	pop	{r1, r2, r3, r4, r5, r6, r7, pc}
 	while (len > 0)
    100a:	2e00      	cmp	r6, #0
    100c:	d0fb      	beq.n	1006 <_ZN14USBDeviceClass11sendControlEPKvm+0x2a>
		sent = armSend(EP0, data + pos, len);
    100e:	193a      	adds	r2, r7, r4
    1010:	0033      	movs	r3, r6
    1012:	2100      	movs	r1, #0
    1014:	9801      	ldr	r0, [sp, #4]
    1016:	f7ff ffbd 	bl	f94 <_ZN14USBDeviceClass7armSendEmPKvm>
		pos += sent;
    101a:	1824      	adds	r4, r4, r0
		len -= sent;
    101c:	1a36      	subs	r6, r6, r0
 	while (len > 0)
    101e:	e7f4      	b.n	100a <_ZN14USBDeviceClass11sendControlEPKvm+0x2e>
    1020:	2000048c 	.word	0x2000048c
    1024:	2000058d 	.word	0x2000058d
    1028:	2000058e 	.word	0x2000058e
    102c:	2000048d 	.word	0x2000048d

00001030 <_ZN14USBDeviceClass20sendStringDescriptorEPKhm>:
{
    1030:	b5f8      	push	{r3, r4, r5, r6, r7, lr}
    1032:	000e      	movs	r6, r1
    1034:	0015      	movs	r5, r2
		return false;
    1036:	2700      	movs	r7, #0
	if (maxlen < 2)
    1038:	2a01      	cmp	r2, #1
    103a:	d927      	bls.n	108c <_ZN14USBDeviceClass20sendStringDescriptorEPKhm+0x5c>
	uint8_t* buffer = (uint8_t*)malloc(maxlen);
    103c:	0010      	movs	r0, r2
    103e:	f001 fa49 	bl	24d4 <malloc>
    1042:	0004      	movs	r4, r0
	buffer[0] = strlen((const char*)string) * 2 + 2;
    1044:	0030      	movs	r0, r6
    1046:	f001 fb25 	bl	2694 <strlen>
    104a:	3001      	adds	r0, #1
    104c:	0040      	lsls	r0, r0, #1
	buffer[1] = 0x03;
    104e:	2303      	movs	r3, #3
	buffer[0] = strlen((const char*)string) * 2 + 2;
    1050:	7020      	strb	r0, [r4, #0]
	for (i = 2; i < maxlen && *string; i++) {
    1052:	2202      	movs	r2, #2
		buffer[i] = 0;
    1054:	0038      	movs	r0, r7
	buffer[1] = 0x03;
    1056:	7063      	strb	r3, [r4, #1]
	for (i = 2; i < maxlen && *string; i++) {
    1058:	4295      	cmp	r5, r2
    105a:	d90d      	bls.n	1078 <_ZN14USBDeviceClass20sendStringDescriptorEPKhm+0x48>
    105c:	7831      	ldrb	r1, [r6, #0]
    105e:	2900      	cmp	r1, #0
    1060:	d00a      	beq.n	1078 <_ZN14USBDeviceClass20sendStringDescriptorEPKhm+0x48>
		buffer[i++] = *string++;
    1062:	1c53      	adds	r3, r2, #1
    1064:	b2db      	uxtb	r3, r3
    1066:	3601      	adds	r6, #1
    1068:	54a1      	strb	r1, [r4, r2]
		if (i == maxlen) break;
    106a:	429d      	cmp	r5, r3
    106c:	d003      	beq.n	1076 <_ZN14USBDeviceClass20sendStringDescriptorEPKhm+0x46>
	for (i = 2; i < maxlen && *string; i++) {
    106e:	3202      	adds	r2, #2
		buffer[i] = 0;
    1070:	54e0      	strb	r0, [r4, r3]
	for (i = 2; i < maxlen && *string; i++) {
    1072:	b2d2      	uxtb	r2, r2
    1074:	e7f0      	b.n	1058 <_ZN14USBDeviceClass20sendStringDescriptorEPKhm+0x28>
		buffer[i++] = *string++;
    1076:	002a      	movs	r2, r5
	bool ret = USBDevice.sendControl(buffer, i);
    1078:	0021      	movs	r1, r4
    107a:	4805      	ldr	r0, [pc, #20]	; (1090 <_ZN14USBDeviceClass20sendStringDescriptorEPKhm+0x60>)
    107c:	f7ff ffae 	bl	fdc <_ZN14USBDeviceClass11sendControlEPKvm>
    1080:	1e47      	subs	r7, r0, #1
    1082:	41b8      	sbcs	r0, r7
    1084:	b2c7      	uxtb	r7, r0
	free(buffer);
    1086:	0020      	movs	r0, r4
    1088:	f001 fa2e 	bl	24e8 <free>
}
    108c:	0038      	movs	r0, r7
    108e:	bdf8      	pop	{r3, r4, r5, r6, r7, pc}
    1090:	200000e0 	.word	0x200000e0

00001094 <_ZN14USBDeviceClass17sendConfigurationEm>:
{
    1094:	b5f0      	push	{r4, r5, r6, r7, lr}
	uint32_t total = 0;
    1096:	2700      	movs	r7, #0
	_dry_run = true;
    1098:	2601      	movs	r6, #1
{
    109a:	b087      	sub	sp, #28
	_dry_run = true;
    109c:	4b1e      	ldr	r3, [pc, #120]	; (1118 <_ZN14USBDeviceClass17sendConfigurationEm+0x84>)
{
    109e:	9100      	str	r1, [sp, #0]
	uint8_t interfaces = SendInterfaces(&total);
    10a0:	a902      	add	r1, sp, #8
	_dry_run = true;
    10a2:	701e      	strb	r6, [r3, #0]
{
    10a4:	0005      	movs	r5, r0
	uint32_t total = 0;
    10a6:	9702      	str	r7, [sp, #8]
	uint8_t interfaces = SendInterfaces(&total);
    10a8:	f7ff fc65 	bl	976 <_ZN14USBDeviceClass14SendInterfacesEPm>
	ConfigDescriptor config = D_CONFIG((uint16_t)(total + sizeof(ConfigDescriptor)), interfaces);
    10ac:	ac03      	add	r4, sp, #12
	uint8_t interfaces = SendInterfaces(&total);
    10ae:	9001      	str	r0, [sp, #4]
	ConfigDescriptor config = D_CONFIG((uint16_t)(total + sizeof(ConfigDescriptor)), interfaces);
    10b0:	2209      	movs	r2, #9
    10b2:	0039      	movs	r1, r7
    10b4:	0020      	movs	r0, r4
    10b6:	f001 fa2a 	bl	250e <memset>
    10ba:	2309      	movs	r3, #9
    10bc:	7023      	strb	r3, [r4, #0]
    10be:	2302      	movs	r3, #2
    10c0:	7063      	strb	r3, [r4, #1]
    10c2:	339e      	adds	r3, #158	; 0x9e
    10c4:	71e3      	strb	r3, [r4, #7]
    10c6:	335a      	adds	r3, #90	; 0x5a
    10c8:	7223      	strb	r3, [r4, #8]
    10ca:	9b02      	ldr	r3, [sp, #8]
    10cc:	7166      	strb	r6, [r4, #5]
    10ce:	3309      	adds	r3, #9
    10d0:	8063      	strh	r3, [r4, #2]
    10d2:	466b      	mov	r3, sp
    10d4:	791b      	ldrb	r3, [r3, #4]
    10d6:	7123      	strb	r3, [r4, #4]
	_dry_run = false;
    10d8:	4b0f      	ldr	r3, [pc, #60]	; (1118 <_ZN14USBDeviceClass17sendConfigurationEm+0x84>)
    10da:	701f      	strb	r7, [r3, #0]
	if (maxlen == sizeof(ConfigDescriptor)) {
    10dc:	9b00      	ldr	r3, [sp, #0]
    10de:	2b09      	cmp	r3, #9
    10e0:	d107      	bne.n	10f2 <_ZN14USBDeviceClass17sendConfigurationEm+0x5e>
		sendControl(&config, sizeof(ConfigDescriptor));
    10e2:	001a      	movs	r2, r3
    10e4:	0021      	movs	r1, r4
		sendControl(_pack_buffer, _pack_size);
    10e6:	0028      	movs	r0, r5
    10e8:	f7ff ff78 	bl	fdc <_ZN14USBDeviceClass11sendControlEPKvm>
}
    10ec:	2001      	movs	r0, #1
    10ee:	b007      	add	sp, #28
    10f0:	bdf0      	pop	{r4, r5, r6, r7, pc}
		_pack_message = true;
    10f2:	4b0a      	ldr	r3, [pc, #40]	; (111c <_ZN14USBDeviceClass17sendConfigurationEm+0x88>)
	sendControl(&config, sizeof(ConfigDescriptor));
    10f4:	2209      	movs	r2, #9
		_pack_message = true;
    10f6:	701e      	strb	r6, [r3, #0]
		_pack_size = 0;
    10f8:	4e09      	ldr	r6, [pc, #36]	; (1120 <_ZN14USBDeviceClass17sendConfigurationEm+0x8c>)
	sendControl(&config, sizeof(ConfigDescriptor));
    10fa:	0021      	movs	r1, r4
    10fc:	0028      	movs	r0, r5
	total = 0;
    10fe:	9702      	str	r7, [sp, #8]
		_pack_size = 0;
    1100:	8037      	strh	r7, [r6, #0]
	sendControl(&config, sizeof(ConfigDescriptor));
    1102:	f7ff ff6b 	bl	fdc <_ZN14USBDeviceClass11sendControlEPKvm>
	SendInterfaces(&total);
    1106:	a902      	add	r1, sp, #8
    1108:	0028      	movs	r0, r5
    110a:	f7ff fc34 	bl	976 <_ZN14USBDeviceClass14SendInterfacesEPm>
		_pack_message = false;
    110e:	4b03      	ldr	r3, [pc, #12]	; (111c <_ZN14USBDeviceClass17sendConfigurationEm+0x88>)
		sendControl(_pack_buffer, _pack_size);
    1110:	8832      	ldrh	r2, [r6, #0]
		_pack_message = false;
    1112:	701f      	strb	r7, [r3, #0]
		sendControl(_pack_buffer, _pack_size);
    1114:	4903      	ldr	r1, [pc, #12]	; (1124 <_ZN14USBDeviceClass17sendConfigurationEm+0x90>)
    1116:	e7e6      	b.n	10e6 <_ZN14USBDeviceClass17sendConfigurationEm+0x52>
    1118:	2000048c 	.word	0x2000048c
    111c:	2000058d 	.word	0x2000058d
    1120:	2000058e 	.word	0x2000058e
    1124:	2000048d 	.word	0x2000048d

00001128 <_ZN14USBDeviceClass14sendDescriptorER8USBSetup>:
{
    1128:	b570      	push	{r4, r5, r6, lr}
	uint8_t t = setup.wValueH;
    112a:	78ce      	ldrb	r6, [r1, #3]
{
    112c:	b092      	sub	sp, #72	; 0x48
    112e:	0005      	movs	r5, r0
    1130:	000c      	movs	r4, r1
	if (t == USB_CONFIGURATION_DESCRIPTOR_TYPE)
    1132:	2e02      	cmp	r6, #2
    1134:	d10b      	bne.n	114e <_ZN14USBDeviceClass14sendDescriptorER8USBSetup+0x26>
		return USBDevice.sendConfiguration(setup.wLength);
    1136:	798b      	ldrb	r3, [r1, #6]
    1138:	79c9      	ldrb	r1, [r1, #7]
    113a:	482e      	ldr	r0, [pc, #184]	; (11f4 <_ZN14USBDeviceClass14sendDescriptorER8USBSetup+0xcc>)
    113c:	0209      	lsls	r1, r1, #8
    113e:	4319      	orrs	r1, r3
    1140:	f7ff ffa8 	bl	1094 <_ZN14USBDeviceClass17sendConfigurationEm>
    1144:	1e41      	subs	r1, r0, #1
    1146:	4188      	sbcs	r0, r1
    1148:	b2c0      	uxtb	r0, r0
}
    114a:	b012      	add	sp, #72	; 0x48
    114c:	bd70      	pop	{r4, r5, r6, pc}
	ret = PluggableUSB().getDescriptor(setup);
    114e:	f001 f8e3 	bl	2318 <_Z12PluggableUSBv>
    1152:	0021      	movs	r1, r4
    1154:	f001 f874 	bl	2240 <_ZN13PluggableUSB_13getDescriptorER8USBSetup>
	if (ret != 0) {
    1158:	2800      	cmp	r0, #0
    115a:	d003      	beq.n	1164 <_ZN14USBDeviceClass14sendDescriptorER8USBSetup+0x3c>
		return (ret > 0 ? true : false);
    115c:	17c1      	asrs	r1, r0, #31
    115e:	1a08      	subs	r0, r1, r0
    1160:	0fc0      	lsrs	r0, r0, #31
    1162:	e7f2      	b.n	114a <_ZN14USBDeviceClass14sendDescriptorER8USBSetup+0x22>
	if (t == USB_DEVICE_DESCRIPTOR_TYPE)
    1164:	2e01      	cmp	r6, #1
    1166:	d10e      	bne.n	1186 <_ZN14USBDeviceClass14sendDescriptorER8USBSetup+0x5e>
		if (setup.wLength == 8)
    1168:	79e2      	ldrb	r2, [r4, #7]
    116a:	79a3      	ldrb	r3, [r4, #6]
    116c:	0212      	lsls	r2, r2, #8
    116e:	431a      	orrs	r2, r3
    1170:	4921      	ldr	r1, [pc, #132]	; (11f8 <_ZN14USBDeviceClass14sendDescriptorER8USBSetup+0xd0>)
		if (*desc_addr > setup.wLength) {
    1172:	2a11      	cmp	r2, #17
    1174:	dc3c      	bgt.n	11f0 <_ZN14USBDeviceClass14sendDescriptorER8USBSetup+0xc8>
			desc_length = setup.wLength;
    1176:	b2d2      	uxtb	r2, r2
	if (desc_length == 0) {
    1178:	2a00      	cmp	r2, #0
    117a:	d039      	beq.n	11f0 <_ZN14USBDeviceClass14sendDescriptorER8USBSetup+0xc8>
	sendControl(desc_addr, desc_length);
    117c:	0028      	movs	r0, r5
    117e:	f7ff ff2d 	bl	fdc <_ZN14USBDeviceClass11sendControlEPKvm>
	return true;
    1182:	2001      	movs	r0, #1
    1184:	e7e1      	b.n	114a <_ZN14USBDeviceClass14sendDescriptorER8USBSetup+0x22>
	else if (USB_STRING_DESCRIPTOR_TYPE == t)
    1186:	2e03      	cmp	r6, #3
    1188:	d1df      	bne.n	114a <_ZN14USBDeviceClass14sendDescriptorER8USBSetup+0x22>
		if (setup.wValueL == 0) {
    118a:	78a3      	ldrb	r3, [r4, #2]
    118c:	2b00      	cmp	r3, #0
    118e:	d028      	beq.n	11e2 <_ZN14USBDeviceClass14sendDescriptorER8USBSetup+0xba>
		else if (setup.wValueL == IPRODUCT) {
    1190:	2b02      	cmp	r3, #2
    1192:	d108      	bne.n	11a6 <_ZN14USBDeviceClass14sendDescriptorER8USBSetup+0x7e>
			return sendStringDescriptor(STRING_PRODUCT, setup.wLength);
    1194:	79e2      	ldrb	r2, [r4, #7]
    1196:	79a3      	ldrb	r3, [r4, #6]
    1198:	0212      	lsls	r2, r2, #8
    119a:	4918      	ldr	r1, [pc, #96]	; (11fc <_ZN14USBDeviceClass14sendDescriptorER8USBSetup+0xd4>)
    119c:	431a      	orrs	r2, r3
			return sendStringDescriptor(STRING_MANUFACTURER, setup.wLength);
    119e:	0028      	movs	r0, r5
    11a0:	f7ff ff46 	bl	1030 <_ZN14USBDeviceClass20sendStringDescriptorEPKhm>
    11a4:	e7d1      	b.n	114a <_ZN14USBDeviceClass14sendDescriptorER8USBSetup+0x22>
		else if (setup.wValueL == IMANUFACTURER) {
    11a6:	2b01      	cmp	r3, #1
    11a8:	d105      	bne.n	11b6 <_ZN14USBDeviceClass14sendDescriptorER8USBSetup+0x8e>
			return sendStringDescriptor(STRING_MANUFACTURER, setup.wLength);
    11aa:	79e2      	ldrb	r2, [r4, #7]
    11ac:	79a3      	ldrb	r3, [r4, #6]
    11ae:	0212      	lsls	r2, r2, #8
    11b0:	431a      	orrs	r2, r3
    11b2:	4913      	ldr	r1, [pc, #76]	; (1200 <_ZN14USBDeviceClass14sendDescriptorER8USBSetup+0xd8>)
    11b4:	e7f3      	b.n	119e <_ZN14USBDeviceClass14sendDescriptorER8USBSetup+0x76>
		else if (setup.wValueL == ISERIAL) {
    11b6:	2b03      	cmp	r3, #3
    11b8:	d1c7      	bne.n	114a <_ZN14USBDeviceClass14sendDescriptorER8USBSetup+0x22>
			memset(name, 0, sizeof(name));
    11ba:	0001      	movs	r1, r0
    11bc:	2241      	movs	r2, #65	; 0x41
    11be:	a801      	add	r0, sp, #4
    11c0:	f001 f9a5 	bl	250e <memset>
			idx += PluggableUSB().getShortName(&name[idx]);
    11c4:	f001 f8a8 	bl	2318 <_Z12PluggableUSBv>
    11c8:	a901      	add	r1, sp, #4
    11ca:	f001 f849 	bl	2260 <_ZN13PluggableUSB_12getShortNameEPc>
			if (idx > 0) {
    11ce:	2800      	cmp	r0, #0
    11d0:	d005      	beq.n	11de <_ZN14USBDeviceClass14sendDescriptorER8USBSetup+0xb6>
				return sendStringDescriptor((uint8_t*)name, setup.wLength);
    11d2:	79e2      	ldrb	r2, [r4, #7]
    11d4:	79a3      	ldrb	r3, [r4, #6]
    11d6:	0212      	lsls	r2, r2, #8
    11d8:	431a      	orrs	r2, r3
    11da:	a901      	add	r1, sp, #4
    11dc:	e7df      	b.n	119e <_ZN14USBDeviceClass14sendDescriptorER8USBSetup+0x76>
		if (*desc_addr > setup.wLength) {
    11de:	7803      	ldrb	r3, [r0, #0]
    11e0:	deff      	udf	#255	; 0xff
    11e2:	79e2      	ldrb	r2, [r4, #7]
    11e4:	79a3      	ldrb	r3, [r4, #6]
    11e6:	0212      	lsls	r2, r2, #8
    11e8:	431a      	orrs	r2, r3
    11ea:	4906      	ldr	r1, [pc, #24]	; (1204 <_ZN14USBDeviceClass14sendDescriptorER8USBSetup+0xdc>)
    11ec:	2a03      	cmp	r2, #3
    11ee:	ddc2      	ble.n	1176 <_ZN14USBDeviceClass14sendDescriptorER8USBSetup+0x4e>
		desc_length = *desc_addr;
    11f0:	780a      	ldrb	r2, [r1, #0]
    11f2:	e7c3      	b.n	117c <_ZN14USBDeviceClass14sendDescriptorER8USBSetup+0x54>
    11f4:	200000e0 	.word	0x200000e0
    11f8:	00002729 	.word	0x00002729
    11fc:	00002700 	.word	0x00002700
    1200:	00002720 	.word	0x00002720
    1204:	0000271c 	.word	0x0000271c

00001208 <_ZN14USBDeviceClass7sendZlpEm>:
    1208:	b2cb      	uxtb	r3, r1
    120a:	4904      	ldr	r1, [pc, #16]	; (121c <_ZN14USBDeviceClass7sendZlpEm+0x14>)
    120c:	015b      	lsls	r3, r3, #5
    120e:	18c9      	adds	r1, r1, r3
    1210:	698b      	ldr	r3, [r1, #24]
    1212:	0b9b      	lsrs	r3, r3, #14
    1214:	039b      	lsls	r3, r3, #14
    1216:	618b      	str	r3, [r1, #24]

void USBDeviceClass::sendZlp(uint32_t ep)
{
	// Set the byte count as zero
	usbd.epBank1SetByteCount(ep, 0);
}
    1218:	4770      	bx	lr
    121a:	46c0      	nop			; (mov r8, r8)
    121c:	20000598 	.word	0x20000598

00001220 <_ZN14USBDeviceClass19handleStandardSetupER8USBSetup>:

bool USBDeviceClass::handleStandardSetup(USBSetup &setup)
{
    1220:	b537      	push	{r0, r1, r2, r4, r5, lr}
    1222:	0005      	movs	r5, r0
	switch (setup.bRequest) {
    1224:	7848      	ldrb	r0, [r1, #1]
{
    1226:	000c      	movs	r4, r1
	switch (setup.bRequest) {
    1228:	280b      	cmp	r0, #11
    122a:	d811      	bhi.n	1250 <_ZN14USBDeviceClass19handleStandardSetupER8USBSetup+0x30>
    122c:	f001 f898 	bl	2360 <__gnu_thumb1_case_uqi>
    1230:	2e101d06 	.word	0x2e101d06
    1234:	64484310 	.word	0x64484310
    1238:	605d4f4c 	.word	0x605d4f4c
	case GET_STATUS:
		if (setup.bmRequestType == 0)  // device
    123c:	7809      	ldrb	r1, [r1, #0]
    123e:	aa01      	add	r2, sp, #4
    1240:	2900      	cmp	r1, #0
    1242:	d107      	bne.n	1254 <_ZN14USBDeviceClass19handleStandardSetupER8USBSetup+0x34>
		{
			// Send the device status
			// TODO: Check current configuration for power mode (if device is configured)
			// TODO: Check if remote wake-up is enabled
			uint8_t buff[] = { 0, 0 };
			armSend(0, buff, 2);
    1244:	2302      	movs	r3, #2
			uint8_t buff[] = { 0, 0 };
    1246:	7011      	strb	r1, [r2, #0]
    1248:	7051      	strb	r1, [r2, #1]
			armSend(0, buff, 2);
    124a:	0028      	movs	r0, r5
    124c:	f7ff fea2 	bl	f94 <_ZN14USBDeviceClass7armSendEmPKvm>
			return true;
    1250:	2001      	movs	r0, #1

	default:
		return true;
	}
	return true;
}
    1252:	bd3e      	pop	{r1, r2, r3, r4, r5, pc}
			uint8_t buff[] = { 0, 0 };
    1254:	2300      	movs	r3, #0
    1256:	7013      	strb	r3, [r2, #0]
    1258:	7053      	strb	r3, [r2, #1]
			if (isEndpointHalt == 1)
    125a:	4b28      	ldr	r3, [pc, #160]	; (12fc <_ZN14USBDeviceClass19handleStandardSetupER8USBSetup+0xdc>)
			if (isRemoteWakeUpEnabled == 1)
    125c:	781b      	ldrb	r3, [r3, #0]
    125e:	2b01      	cmp	r3, #1
    1260:	d100      	bne.n	1264 <_ZN14USBDeviceClass19handleStandardSetupER8USBSetup+0x44>
				buff[0] = 1;
    1262:	7013      	strb	r3, [r2, #0]
			armSend(0, buff, 2);
    1264:	2302      	movs	r3, #2
		armSend(0, (void*)&_usbSetInterface, 1);
    1266:	2100      	movs	r1, #0
    1268:	e7ef      	b.n	124a <_ZN14USBDeviceClass19handleStandardSetupER8USBSetup+0x2a>
		if (setup.wValueL == 1) // DEVICEREMOTEWAKEUP
    126a:	788a      	ldrb	r2, [r1, #2]
    126c:	2300      	movs	r3, #0
    126e:	2a01      	cmp	r2, #1
    1270:	d104      	bne.n	127c <_ZN14USBDeviceClass19handleStandardSetupER8USBSetup+0x5c>
			uint8_t buff[] = { 0, 0 };
    1272:	aa01      	add	r2, sp, #4
    1274:	7013      	strb	r3, [r2, #0]
    1276:	7053      	strb	r3, [r2, #1]
			if (isRemoteWakeUpEnabled == 1)
    1278:	4b21      	ldr	r3, [pc, #132]	; (1300 <_ZN14USBDeviceClass19handleStandardSetupER8USBSetup+0xe0>)
    127a:	e7ef      	b.n	125c <_ZN14USBDeviceClass19handleStandardSetupER8USBSetup+0x3c>
			isEndpointHalt = 0;
    127c:	4a1f      	ldr	r2, [pc, #124]	; (12fc <_ZN14USBDeviceClass19handleStandardSetupER8USBSetup+0xdc>)
    127e:	7013      	strb	r3, [r2, #0]
    1280:	4a20      	ldr	r2, [pc, #128]	; (1304 <_ZN14USBDeviceClass19handleStandardSetupER8USBSetup+0xe4>)
    1282:	6993      	ldr	r3, [r2, #24]
    1284:	0b9b      	lsrs	r3, r3, #14
    1286:	039b      	lsls	r3, r3, #14
    1288:	6193      	str	r3, [r2, #24]
    128a:	e7e1      	b.n	1250 <_ZN14USBDeviceClass19handleStandardSetupER8USBSetup+0x30>
		if (setup.wValueL == 1) // DEVICEREMOTEWAKEUP
    128c:	788c      	ldrb	r4, [r1, #2]
    128e:	2c01      	cmp	r4, #1
    1290:	d106      	bne.n	12a0 <_ZN14USBDeviceClass19handleStandardSetupER8USBSetup+0x80>
			uint8_t buff[] = { 0 };
    1292:	2100      	movs	r1, #0
			isRemoteWakeUpEnabled = 1;
    1294:	4b1a      	ldr	r3, [pc, #104]	; (1300 <_ZN14USBDeviceClass19handleStandardSetupER8USBSetup+0xe0>)
			uint8_t buff[] = { 0 };
    1296:	aa01      	add	r2, sp, #4
			isRemoteWakeUpEnabled = 1;
    1298:	701c      	strb	r4, [r3, #0]
			uint8_t buff[] = { 0 };
    129a:	7011      	strb	r1, [r2, #0]
			armSend(0, buff, 1);
    129c:	0023      	movs	r3, r4
    129e:	e7d4      	b.n	124a <_ZN14USBDeviceClass19handleStandardSetupER8USBSetup+0x2a>
    12a0:	2001      	movs	r0, #1
		if (setup.wValueL == 0) // ENDPOINTHALT
    12a2:	2c00      	cmp	r4, #0
    12a4:	d1d5      	bne.n	1252 <_ZN14USBDeviceClass19handleStandardSetupER8USBSetup+0x32>
			isEndpointHalt = 1;
    12a6:	4b15      	ldr	r3, [pc, #84]	; (12fc <_ZN14USBDeviceClass19handleStandardSetupER8USBSetup+0xdc>)
    12a8:	4a16      	ldr	r2, [pc, #88]	; (1304 <_ZN14USBDeviceClass19handleStandardSetupER8USBSetup+0xe4>)
    12aa:	7018      	strb	r0, [r3, #0]
    12ac:	6993      	ldr	r3, [r2, #24]
    12ae:	0b9b      	lsrs	r3, r3, #14
    12b0:	039b      	lsls	r3, r3, #14
    12b2:	6193      	str	r3, [r2, #24]
			return true;
    12b4:	e7cd      	b.n	1252 <_ZN14USBDeviceClass19handleStandardSetupER8USBSetup+0x32>
		setAddress(setup.wValueL);
    12b6:	7889      	ldrb	r1, [r1, #2]
    12b8:	0028      	movs	r0, r5
    12ba:	f7ff fc21 	bl	b00 <_ZN14USBDeviceClass10setAddressEm>
    12be:	e7c7      	b.n	1250 <_ZN14USBDeviceClass19handleStandardSetupER8USBSetup+0x30>
		return sendDescriptor(setup);
    12c0:	0028      	movs	r0, r5
    12c2:	f7ff ff31 	bl	1128 <_ZN14USBDeviceClass14sendDescriptorER8USBSetup>
    12c6:	e7c4      	b.n	1252 <_ZN14USBDeviceClass19handleStandardSetupER8USBSetup+0x32>
		armSend(0, (void*)&_usbConfiguration, 1);
    12c8:	2301      	movs	r3, #1
    12ca:	4a0f      	ldr	r2, [pc, #60]	; (1308 <_ZN14USBDeviceClass19handleStandardSetupER8USBSetup+0xe8>)
    12cc:	e7cb      	b.n	1266 <_ZN14USBDeviceClass19handleStandardSetupER8USBSetup+0x46>
		if (REQUEST_DEVICE == (setup.bmRequestType & REQUEST_RECIPIENT)) {
    12ce:	780b      	ldrb	r3, [r1, #0]
			return false;
    12d0:	2000      	movs	r0, #0
		if (REQUEST_DEVICE == (setup.bmRequestType & REQUEST_RECIPIENT)) {
    12d2:	06db      	lsls	r3, r3, #27
    12d4:	d1bd      	bne.n	1252 <_ZN14USBDeviceClass19handleStandardSetupER8USBSetup+0x32>
			initEndpoints();
    12d6:	0028      	movs	r0, r5
    12d8:	f7ff fcca 	bl	c70 <_ZN14USBDeviceClass13initEndpointsEv>
			_usbConfiguration = setup.wValueL;
    12dc:	78a2      	ldrb	r2, [r4, #2]
    12de:	4b0a      	ldr	r3, [pc, #40]	; (1308 <_ZN14USBDeviceClass19handleStandardSetupER8USBSetup+0xe8>)
			SerialUSB.enableInterrupt();
    12e0:	480a      	ldr	r0, [pc, #40]	; (130c <_ZN14USBDeviceClass19handleStandardSetupER8USBSetup+0xec>)
			_usbConfiguration = setup.wValueL;
    12e2:	601a      	str	r2, [r3, #0]
			SerialUSB.enableInterrupt();
    12e4:	f000 ff74 	bl	21d0 <_ZN7Serial_15enableInterruptEv>
    12e8:	e7ca      	b.n	1280 <_ZN14USBDeviceClass19handleStandardSetupER8USBSetup+0x60>
		armSend(0, (void*)&_usbSetInterface, 1);
    12ea:	2301      	movs	r3, #1
    12ec:	4a08      	ldr	r2, [pc, #32]	; (1310 <_ZN14USBDeviceClass19handleStandardSetupER8USBSetup+0xf0>)
    12ee:	e7ba      	b.n	1266 <_ZN14USBDeviceClass19handleStandardSetupER8USBSetup+0x46>
		_usbSetInterface = setup.wValueL;
    12f0:	788a      	ldrb	r2, [r1, #2]
    12f2:	4b07      	ldr	r3, [pc, #28]	; (1310 <_ZN14USBDeviceClass19handleStandardSetupER8USBSetup+0xf0>)
    12f4:	601a      	str	r2, [r3, #0]
    12f6:	e7c3      	b.n	1280 <_ZN14USBDeviceClass19handleStandardSetupER8USBSetup+0x60>
		return false;
    12f8:	2000      	movs	r0, #0
    12fa:	e7aa      	b.n	1252 <_ZN14USBDeviceClass19handleStandardSetupER8USBSetup+0x32>
    12fc:	20000100 	.word	0x20000100
    1300:	20000108 	.word	0x20000108
    1304:	20000598 	.word	0x20000598
    1308:	20000590 	.word	0x20000590
    130c:	200008f0 	.word	0x200008f0
    1310:	20000594 	.word	0x20000594

00001314 <_ZN14USBDeviceClass10ISRHandlerEv>:

void USBDeviceClass::ISRHandler()
{
	if (_pack_message == true) {
    1314:	4b3b      	ldr	r3, [pc, #236]	; (1404 <_ZN14USBDeviceClass10ISRHandlerEv+0xf0>)
{
    1316:	b5f7      	push	{r0, r1, r2, r4, r5, r6, r7, lr}
	if (_pack_message == true) {
    1318:	781e      	ldrb	r6, [r3, #0]
{
    131a:	0005      	movs	r5, r0
	if (_pack_message == true) {
    131c:	2e00      	cmp	r6, #0
    131e:	d161      	bne.n	13e4 <_ZN14USBDeviceClass10ISRHandlerEv+0xd0>
	inline bool isEndOfResetInterrupt()        { return usb.INTFLAG.bit.EORST; }
    1320:	4c39      	ldr	r4, [pc, #228]	; (1408 <_ZN14USBDeviceClass10ISRHandlerEv+0xf4>)
    1322:	6823      	ldr	r3, [r4, #0]
    1324:	8b9a      	ldrh	r2, [r3, #28]
		return;
	}

	// End-Of-Reset
	if (usbd.isEndOfResetInterrupt())
    1326:	0712      	lsls	r2, r2, #28
    1328:	d50d      	bpl.n	1346 <_ZN14USBDeviceClass10ISRHandlerEv+0x32>
	inline void ackEndOfResetInterrupt()       { usb.INTFLAG.reg = USB_DEVICE_INTFLAG_EORST; }
    132a:	2208      	movs	r2, #8
    132c:	0031      	movs	r1, r6
    132e:	839a      	strh	r2, [r3, #28]
    1330:	0030      	movs	r0, r6
    1332:	f7ff f8c9 	bl	4c8 <_ZN14USBDeviceClass6initEPEmm.part.7>
	inline void epBank0EnableSetupReceived(ep_t ep)    { usb.DeviceEndpoint[ep].EPINTENSET.bit.RXSTP = 1; }
    1336:	2210      	movs	r2, #16
    1338:	6823      	ldr	r3, [r4, #0]
    133a:	33ff      	adds	r3, #255	; 0xff
    133c:	7a99      	ldrb	r1, [r3, #10]
    133e:	430a      	orrs	r2, r1
    1340:	729a      	strb	r2, [r3, #10]
		initEP(0, USB_ENDPOINT_TYPE_CONTROL);

		// Enable Setup-Received interrupt
		usbd.epBank0EnableSetupReceived(0);

		_usbConfiguration = 0;
    1342:	4b32      	ldr	r3, [pc, #200]	; (140c <_ZN14USBDeviceClass10ISRHandlerEv+0xf8>)
    1344:	601e      	str	r6, [r3, #0]
	inline bool isStartOfFrameInterrupt()      { return usb.INTFLAG.bit.SOF; }
    1346:	6823      	ldr	r3, [r4, #0]
    1348:	8b9a      	ldrh	r2, [r3, #28]
	}

	// Start-Of-Frame
	if (usbd.isStartOfFrameInterrupt())
    134a:	0752      	lsls	r2, r2, #29
    134c:	d501      	bpl.n	1352 <_ZN14USBDeviceClass10ISRHandlerEv+0x3e>
	inline void ackStartOfFrameInterrupt()     { usb.INTFLAG.reg = USB_DEVICE_INTFLAG_SOF; }
    134e:	2204      	movs	r2, #4
    1350:	839a      	strh	r2, [r3, #28]
	inline bool epBank0IsStalled(ep_t ep)           { return usb.DeviceEndpoint[ep].EPINTFLAG.bit.STALL0; }
    1352:	33ff      	adds	r3, #255	; 0xff
    1354:	7a1a      	ldrb	r2, [r3, #8]
		}
#endif
	}

	/* Remove any stall requests for endpoint #0 */
	if (usbd.epBank0IsStalled(0)) { usbd.epBank0DisableStalled(0); }
    1356:	0692      	lsls	r2, r2, #26
    1358:	d503      	bpl.n	1362 <_ZN14USBDeviceClass10ISRHandlerEv+0x4e>
	inline void epBank0DisableStalled(ep_t ep)          { usb.DeviceEndpoint[ep].EPINTENCLR.bit.STALL0 = 1; }
    135a:	2220      	movs	r2, #32
    135c:	7a59      	ldrb	r1, [r3, #9]
    135e:	430a      	orrs	r2, r1
    1360:	725a      	strb	r2, [r3, #9]
	inline bool epBank0IsSetupReceived(ep_t ep)     { return usb.DeviceEndpoint[ep].EPINTFLAG.bit.RXSTP; }
    1362:	7a1a      	ldrb	r2, [r3, #8]

	// Endpoint 0 Received Setup interrupt
	if (usbd.epBank0IsSetupReceived(0))
    1364:	06d2      	lsls	r2, r2, #27
    1366:	d525      	bpl.n	13b4 <_ZN14USBDeviceClass10ISRHandlerEv+0xa0>
	{
		/* Retrieve received endpoint #0 data from buffer */
		USBSetup setup;
		memcpy(&setup, udd_ep_out_cache_buffer[0], sizeof(USBSetup));
    1368:	4668      	mov	r0, sp
    136a:	4a29      	ldr	r2, [pc, #164]	; (1410 <_ZN14USBDeviceClass10ISRHandlerEv+0xfc>)
    136c:	4669      	mov	r1, sp
    136e:	cac0      	ldmia	r2!, {r6, r7}
    1370:	c0c0      	stmia	r0!, {r6, r7}
	inline void epBank0SetByteCount(ep_t ep, uint16_t bc) { EP[ep].DeviceDescBank[0].PCKSIZE.bit.BYTE_COUNT = bc; }
    1372:	68a2      	ldr	r2, [r4, #8]
    1374:	0b92      	lsrs	r2, r2, #14
    1376:	0392      	lsls	r2, r2, #14
    1378:	60a2      	str	r2, [r4, #8]
	inline void epBank0ResetReady(ep_t ep) { usb.DeviceEndpoint[ep].EPSTATUSCLR.bit.BK0RDY = 1; }
    137a:	2240      	movs	r2, #64	; 0x40
    137c:	7958      	ldrb	r0, [r3, #5]
    137e:	4302      	orrs	r2, r0
    1380:	715a      	strb	r2, [r3, #5]
		 */
		usbd.epBank0SetByteCount(0, 0);
		usbd.epBank0ResetReady(0);

		bool ok;
		if (REQUEST_STANDARD == (setup.bmRequestType & REQUEST_TYPE)) {
    1382:	2360      	movs	r3, #96	; 0x60
    1384:	780a      	ldrb	r2, [r1, #0]
			// Standard Requests
			ok = handleStandardSetup(setup);
    1386:	0028      	movs	r0, r5
		if (REQUEST_STANDARD == (setup.bmRequestType & REQUEST_TYPE)) {
    1388:	421a      	tst	r2, r3
    138a:	d12c      	bne.n	13e6 <_ZN14USBDeviceClass10ISRHandlerEv+0xd2>
			ok = handleStandardSetup(setup);
    138c:	f7ff ff48 	bl	1220 <_ZN14USBDeviceClass19handleStandardSetupER8USBSetup>
		} else {
			// Class Interface Requests
			ok = handleClassInterfaceSetup(setup);
		}

		if (ok) {
    1390:	2800      	cmp	r0, #0
    1392:	d02b      	beq.n	13ec <_ZN14USBDeviceClass10ISRHandlerEv+0xd8>
	inline void epBank1SetReady(ep_t ep)   { usb.DeviceEndpoint[ep].EPSTATUSSET.bit.BK1RDY = 1; }
    1394:	2280      	movs	r2, #128	; 0x80
    1396:	6823      	ldr	r3, [r4, #0]
    1398:	4252      	negs	r2, r2
    139a:	33ff      	adds	r3, #255	; 0xff
    139c:	7999      	ldrb	r1, [r3, #6]
    139e:	430a      	orrs	r2, r1
	USB->DEVICE.DeviceEndpoint[ep].EPSTATUSSET.reg = USB_DEVICE_EPSTATUSSET_STALLRQ(2);
    13a0:	719a      	strb	r2, [r3, #6]
	inline bool epBank1IsStalled(ep_t ep)           { return usb.DeviceEndpoint[ep].EPINTFLAG.bit.STALL1; }
    13a2:	6823      	ldr	r3, [r4, #0]
    13a4:	33ff      	adds	r3, #255	; 0xff
    13a6:	7a1a      	ldrb	r2, [r3, #8]
			usbd.epBank1SetReady(0);
		} else {
			stall(0);
		}

		if (usbd.epBank1IsStalled(0))
    13a8:	0652      	lsls	r2, r2, #25
    13aa:	d503      	bpl.n	13b4 <_ZN14USBDeviceClass10ISRHandlerEv+0xa0>
	inline void epBank1DisableStalled(ep_t ep)          { usb.DeviceEndpoint[ep].EPINTENCLR.bit.STALL1 = 1; }
    13ac:	2240      	movs	r2, #64	; 0x40
    13ae:	7a59      	ldrb	r1, [r3, #9]
    13b0:	430a      	orrs	r2, r1
    13b2:	725a      	strb	r2, [r3, #9]
	inline void epAckPendingInterrupts(ep_t ep)     { usb.DeviceEndpoint[ep].EPINTFLAG.reg = 0x7F; }
    13b4:	267f      	movs	r6, #127	; 0x7f
			usbd.epBank1DisableStalled(0);
		}
	} // end Received Setup handler
	usbd.epAckPendingInterrupts(0);

	for (int ep = 1; ep < USB_EPT_NUM; ep++) {
    13b6:	2501      	movs	r5, #1
    13b8:	6823      	ldr	r3, [r4, #0]
    13ba:	33ff      	adds	r3, #255	; 0xff
    13bc:	721e      	strb	r6, [r3, #8]
	inline bool epHasPendingInterrupts(ep_t ep)     { return usb.DeviceEndpoint[ep].EPINTFLAG.reg != 0; }
    13be:	002f      	movs	r7, r5
    13c0:	6823      	ldr	r3, [r4, #0]
    13c2:	3708      	adds	r7, #8
    13c4:	017f      	lsls	r7, r7, #5
    13c6:	19db      	adds	r3, r3, r7
    13c8:	79db      	ldrb	r3, [r3, #7]
		// Endpoint Transfer Complete (0/1) Interrupt
		if (usbd.epHasPendingInterrupts(ep)) {
    13ca:	2b00      	cmp	r3, #0
    13cc:	d007      	beq.n	13de <_ZN14USBDeviceClass10ISRHandlerEv+0xca>
			if (epHandlers[ep]) {
    13ce:	4b11      	ldr	r3, [pc, #68]	; (1414 <_ZN14USBDeviceClass10ISRHandlerEv+0x100>)
    13d0:	00aa      	lsls	r2, r5, #2
    13d2:	58d0      	ldr	r0, [r2, r3]
    13d4:	2800      	cmp	r0, #0
    13d6:	d00c      	beq.n	13f2 <_ZN14USBDeviceClass10ISRHandlerEv+0xde>
				epHandlers[ep]->handleEndpoint();
    13d8:	6803      	ldr	r3, [r0, #0]
    13da:	681b      	ldr	r3, [r3, #0]
    13dc:	4798      	blx	r3
	for (int ep = 1; ep < USB_EPT_NUM; ep++) {
    13de:	3501      	adds	r5, #1
    13e0:	2d08      	cmp	r5, #8
    13e2:	d1ec      	bne.n	13be <_ZN14USBDeviceClass10ISRHandlerEv+0xaa>
				usbd.epAckPendingInterrupts(ep);
				#endif
			}
		}
	}
}
    13e4:	bdf7      	pop	{r0, r1, r2, r4, r5, r6, r7, pc}
			ok = handleClassInterfaceSetup(setup);
    13e6:	f7ff fbaf 	bl	b48 <_ZN14USBDeviceClass25handleClassInterfaceSetupER8USBSetup>
    13ea:	e7d1      	b.n	1390 <_ZN14USBDeviceClass10ISRHandlerEv+0x7c>
	USB->DEVICE.DeviceEndpoint[ep].EPSTATUSSET.reg = USB_DEVICE_EPSTATUSSET_STALLRQ(2);
    13ec:	2220      	movs	r2, #32
    13ee:	4b0a      	ldr	r3, [pc, #40]	; (1418 <_ZN14USBDeviceClass10ISRHandlerEv+0x104>)
    13f0:	e7d6      	b.n	13a0 <_ZN14USBDeviceClass10ISRHandlerEv+0x8c>
				PluggableUSB().handleEndpoint(ep);
    13f2:	f000 ff91 	bl	2318 <_Z12PluggableUSBv>
    13f6:	0029      	movs	r1, r5
    13f8:	f000 ff55 	bl	22a6 <_ZN13PluggableUSB_14handleEndpointEi>
	inline void epAckPendingInterrupts(ep_t ep)     { usb.DeviceEndpoint[ep].EPINTFLAG.reg = 0x7F; }
    13fc:	6823      	ldr	r3, [r4, #0]
    13fe:	19df      	adds	r7, r3, r7
    1400:	71fe      	strb	r6, [r7, #7]
    1402:	e7ec      	b.n	13de <_ZN14USBDeviceClass10ISRHandlerEv+0xca>
    1404:	2000058d 	.word	0x2000058d
    1408:	20000598 	.word	0x20000598
    140c:	20000590 	.word	0x20000590
    1410:	200002cc 	.word	0x200002cc
    1414:	200000e4 	.word	0x200000e4
    1418:	410050ff 	.word	0x410050ff

0000141c <UDD_Handler>:
extern "C" void UDD_Handler(void) {
    141c:	b510      	push	{r4, lr}
	USBDevice.ISRHandler();
    141e:	4802      	ldr	r0, [pc, #8]	; (1428 <UDD_Handler+0xc>)
    1420:	f7ff ff78 	bl	1314 <_ZN14USBDeviceClass10ISRHandlerEv>
}
    1424:	bd10      	pop	{r4, pc}
    1426:	46c0      	nop			; (mov r8, r8)
    1428:	200000e0 	.word	0x200000e0

0000142c <_GLOBAL__sub_I_usbd>:
	USBDevice_SAMD21G18x() : usb(USB->DEVICE) {
    142c:	4a01      	ldr	r2, [pc, #4]	; (1434 <_GLOBAL__sub_I_usbd+0x8>)
    142e:	4b02      	ldr	r3, [pc, #8]	; (1438 <_GLOBAL__sub_I_usbd+0xc>)
    1430:	601a      	str	r2, [r3, #0]
 * USB Device instance
 * -------------------
 */

// USBDevice class instance
USBDeviceClass USBDevice;
    1432:	4770      	bx	lr
    1434:	41005000 	.word	0x41005000
    1438:	20000598 	.word	0x20000598

0000143c <init>:
 *   - During reset, all PORT lines are configured as inputs with input buffers, output buffers and pull disabled.
 */
void init( void )
{
  // Set Systick to 1ms interval, common to all Cortex-M variants
  if ( SysTick_Config( SystemCoreClock / 1000 ) )
    143c:	21fa      	movs	r1, #250	; 0xfa
    143e:	4b31      	ldr	r3, [pc, #196]	; (1504 <init+0xc8>)
{
    1440:	b510      	push	{r4, lr}
  if ( SysTick_Config( SystemCoreClock / 1000 ) )
    1442:	6818      	ldr	r0, [r3, #0]
    1444:	0089      	lsls	r1, r1, #2
    1446:	f000 ff95 	bl	2374 <__udivsi3>
           function <b>SysTick_Config</b> is not included. In this case, the file <b><i>device</i>.h</b>
           must contain a vendor-specific implementation of this function.
 */
__STATIC_INLINE uint32_t SysTick_Config(uint32_t ticks)
{
  if ((ticks - 1UL) > SysTick_LOAD_RELOAD_Msk)
    144a:	4b2f      	ldr	r3, [pc, #188]	; (1508 <init+0xcc>)
    144c:	3801      	subs	r0, #1
    144e:	4298      	cmp	r0, r3
    1450:	d856      	bhi.n	1500 <init+0xc4>
  {
    return (1UL);                                                   /* Reload value impossible */
  }

  SysTick->LOAD  = (uint32_t)(ticks - 1UL);                         /* set reload register */
    1452:	492e      	ldr	r1, [pc, #184]	; (150c <init+0xd0>)
    SCB->SHP[_SHP_IDX(IRQn)] = ((uint32_t)(SCB->SHP[_SHP_IDX(IRQn)] & ~(0xFFUL << _BIT_SHIFT(IRQn))) |
    1454:	4a2e      	ldr	r2, [pc, #184]	; (1510 <init+0xd4>)
  SysTick->LOAD  = (uint32_t)(ticks - 1UL);                         /* set reload register */
    1456:	6048      	str	r0, [r1, #4]
    SCB->SHP[_SHP_IDX(IRQn)] = ((uint32_t)(SCB->SHP[_SHP_IDX(IRQn)] & ~(0xFFUL << _BIT_SHIFT(IRQn))) |
    1458:	20c0      	movs	r0, #192	; 0xc0
    145a:	6a13      	ldr	r3, [r2, #32]
    145c:	0600      	lsls	r0, r0, #24
    145e:	021b      	lsls	r3, r3, #8
    1460:	0a1b      	lsrs	r3, r3, #8
    1462:	4303      	orrs	r3, r0
    1464:	6213      	str	r3, [r2, #32]
  NVIC_SetPriority (SysTick_IRQn, (1UL << __NVIC_PRIO_BITS) - 1UL); /* set Priority for Systick Interrupt */
  SysTick->VAL   = 0UL;                                             /* Load the SysTick Counter Value */
    1466:	2400      	movs	r4, #0
  SysTick->CTRL  = SysTick_CTRL_CLKSOURCE_Msk |
    1468:	2307      	movs	r3, #7
  SysTick->VAL   = 0UL;                                             /* Load the SysTick Counter Value */
    146a:	608c      	str	r4, [r1, #8]
  SysTick->CTRL  = SysTick_CTRL_CLKSOURCE_Msk |
    146c:	600b      	str	r3, [r1, #0]
    SCB->SHP[_SHP_IDX(IRQn)] = ((uint32_t)(SCB->SHP[_SHP_IDX(IRQn)] & ~(0xFFUL << _BIT_SHIFT(IRQn))) |
    146e:	2180      	movs	r1, #128	; 0x80
    1470:	6a13      	ldr	r3, [r2, #32]
    1472:	0609      	lsls	r1, r1, #24
    1474:	021b      	lsls	r3, r3, #8
    1476:	0a1b      	lsrs	r3, r3, #8
    1478:	430b      	orrs	r3, r1
    147a:	6213      	str	r3, [r2, #32]
//
//  // Clock EIC for I/O interrupts
//  PM->APBAMASK.reg |= PM_APBAMASK_EIC ;

  // Clock SERCOM for Serial
  PM->APBCMASK.reg |= PM_APBCMASK_SERCOM0 | PM_APBCMASK_SERCOM1 | PM_APBCMASK_SERCOM2 | PM_APBCMASK_SERCOM3 | PM_APBCMASK_SERCOM4 | PM_APBCMASK_SERCOM5 ;
    147c:	22fc      	movs	r2, #252	; 0xfc
    147e:	4b25      	ldr	r3, [pc, #148]	; (1514 <init+0xd8>)
    1480:	6a19      	ldr	r1, [r3, #32]
    1482:	430a      	orrs	r2, r1
    1484:	621a      	str	r2, [r3, #32]

  // Clock TC/TCC for Pulse and Analog
  PM->APBCMASK.reg |= PM_APBCMASK_TCC0 | PM_APBCMASK_TCC1 | PM_APBCMASK_TCC2 | PM_APBCMASK_TC3 | PM_APBCMASK_TC4 | PM_APBCMASK_TC5 ;
    1486:	22fc      	movs	r2, #252	; 0xfc
    1488:	6a19      	ldr	r1, [r3, #32]
    148a:	0192      	lsls	r2, r2, #6
    148c:	430a      	orrs	r2, r1
    148e:	621a      	str	r2, [r3, #32]

  // Clock ADC/DAC for Analog
  PM->APBCMASK.reg |= PM_APBCMASK_ADC | PM_APBCMASK_DAC ;
    1490:	22a0      	movs	r2, #160	; 0xa0
    1492:	6a19      	ldr	r1, [r3, #32]
    1494:	02d2      	lsls	r2, r2, #11
    1496:	430a      	orrs	r2, r1
    1498:	621a      	str	r2, [r3, #32]
// However, it really lowers the power consumption by a factor of 20 in low power mode (0.03mA vs 0.6mA)
#ifndef VERY_LOW_POWER
  // Setup all pins (digital and analog) in INPUT mode (default is nothing)
  for (uint32_t ul = 0 ; ul < NUM_DIGITAL_PINS ; ul++ )
  {
    pinMode( ul, INPUT ) ;
    149a:	0020      	movs	r0, r4
    149c:	2100      	movs	r1, #0
  for (uint32_t ul = 0 ; ul < NUM_DIGITAL_PINS ; ul++ )
    149e:	3401      	adds	r4, #1
    pinMode( ul, INPUT ) ;
    14a0:	f000 f876 	bl	1590 <pinMode>
  for (uint32_t ul = 0 ; ul < NUM_DIGITAL_PINS ; ul++ )
    14a4:	2c27      	cmp	r4, #39	; 0x27
    14a6:	d1f8      	bne.n	149a <init+0x5e>
  }
#endif

  // Initialize Analog Controller
  // Setting clock
  while(GCLK->STATUS.reg & GCLK_STATUS_SYNCBUSY);
    14a8:	4b1b      	ldr	r3, [pc, #108]	; (1518 <init+0xdc>)
    14aa:	001c      	movs	r4, r3
    14ac:	785a      	ldrb	r2, [r3, #1]
    14ae:	b252      	sxtb	r2, r2
    14b0:	2a00      	cmp	r2, #0
    14b2:	dbfb      	blt.n	14ac <init+0x70>

  GCLK->CLKCTRL.reg = GCLK_CLKCTRL_ID( GCM_ADC ) | // Generic Clock ADC
    14b4:	4a19      	ldr	r2, [pc, #100]	; (151c <init+0xe0>)
    14b6:	805a      	strh	r2, [r3, #2]
                      GCLK_CLKCTRL_GEN_GCLK0     | // Generic Clock Generator 0 is source
                      GCLK_CLKCTRL_CLKEN ;

  while( ADC->STATUS.bit.SYNCBUSY == 1 );          // Wait for synchronization of registers between the clock domains
    14b8:	4b19      	ldr	r3, [pc, #100]	; (1520 <init+0xe4>)
    14ba:	001a      	movs	r2, r3
    14bc:	7e59      	ldrb	r1, [r3, #25]
    14be:	09c9      	lsrs	r1, r1, #7
    14c0:	2901      	cmp	r1, #1
    14c2:	d0fb      	beq.n	14bc <init+0x80>

  ADC->CTRLB.reg = ADC_CTRLB_PRESCALER_DIV512 |    // Divide Clock by 512.
    14c4:	21e4      	movs	r1, #228	; 0xe4
    14c6:	00c9      	lsls	r1, r1, #3
    14c8:	8099      	strh	r1, [r3, #4]
                   ADC_CTRLB_RESSEL_10BIT;         // 10 bits resolution as default

  ADC->SAMPCTRL.reg = 0x3f;                        // Set max Sampling Time Length
    14ca:	213f      	movs	r1, #63	; 0x3f
    14cc:	70d9      	strb	r1, [r3, #3]

  while( ADC->STATUS.bit.SYNCBUSY == 1 );          // Wait for synchronization of registers between the clock domains
    14ce:	7e53      	ldrb	r3, [r2, #25]
    14d0:	09db      	lsrs	r3, r3, #7
    14d2:	2b01      	cmp	r3, #1
    14d4:	d0fb      	beq.n	14ce <init+0x92>

  ADC->INPUTCTRL.reg = ADC_INPUTCTRL_MUXNEG_GND;   // No Negative input (Internal Ground)
    14d6:	23c0      	movs	r3, #192	; 0xc0

  // Averaging (see datasheet table in AVGCTRL register description)
  ADC->AVGCTRL.reg = ADC_AVGCTRL_SAMPLENUM_1 |    // 1 sample only (no oversampling nor averaging)
    14d8:	2000      	movs	r0, #0
  ADC->INPUTCTRL.reg = ADC_INPUTCTRL_MUXNEG_GND;   // No Negative input (Internal Ground)
    14da:	015b      	lsls	r3, r3, #5
    14dc:	6113      	str	r3, [r2, #16]
  ADC->AVGCTRL.reg = ADC_AVGCTRL_SAMPLENUM_1 |    // 1 sample only (no oversampling nor averaging)
    14de:	7090      	strb	r0, [r2, #2]
                     ADC_AVGCTRL_ADJRES(0x0ul);   // Adjusting result by 0

  analogReference( AR_DEFAULT ) ; // Analog Reference is AREF pin (3.3v)
    14e0:	f000 f824 	bl	152c <analogReference>

  // Initialize DAC
  // Setting clock
  while ( GCLK->STATUS.reg & GCLK_STATUS_SYNCBUSY );
    14e4:	7863      	ldrb	r3, [r4, #1]
    14e6:	b25b      	sxtb	r3, r3
    14e8:	2b00      	cmp	r3, #0
    14ea:	dbfb      	blt.n	14e4 <init+0xa8>
  GCLK->CLKCTRL.reg = GCLK_CLKCTRL_ID( GCM_DAC ) | // Generic Clock ADC
    14ec:	4b0d      	ldr	r3, [pc, #52]	; (1524 <init+0xe8>)
                      GCLK_CLKCTRL_GEN_GCLK0     | // Generic Clock Generator 0 is source
                      GCLK_CLKCTRL_CLKEN ;

  while ( DAC->STATUS.bit.SYNCBUSY == 1 ); // Wait for synchronization of registers between the clock domains
    14ee:	4a0e      	ldr	r2, [pc, #56]	; (1528 <init+0xec>)
  GCLK->CLKCTRL.reg = GCLK_CLKCTRL_ID( GCM_DAC ) | // Generic Clock ADC
    14f0:	8063      	strh	r3, [r4, #2]
  while ( DAC->STATUS.bit.SYNCBUSY == 1 ); // Wait for synchronization of registers between the clock domains
    14f2:	79d3      	ldrb	r3, [r2, #7]
    14f4:	09db      	lsrs	r3, r3, #7
    14f6:	2b01      	cmp	r3, #1
    14f8:	d0fb      	beq.n	14f2 <init+0xb6>
  DAC->CTRLB.reg = DAC_CTRLB_REFSEL_AVCC | // Using the 3.3V reference
    14fa:	2341      	movs	r3, #65	; 0x41
    14fc:	7053      	strb	r3, [r2, #1]
                   DAC_CTRLB_EOEN ;        // External Output Enable (Vout)
}
    14fe:	bd10      	pop	{r4, pc}
    1500:	e7fe      	b.n	1500 <init+0xc4>
    1502:	46c0      	nop			; (mov r8, r8)
    1504:	20000004 	.word	0x20000004
    1508:	00ffffff 	.word	0x00ffffff
    150c:	e000e010 	.word	0xe000e010
    1510:	e000ed00 	.word	0xe000ed00
    1514:	40000400 	.word	0x40000400
    1518:	40000c00 	.word	0x40000c00
    151c:	0000401e 	.word	0x0000401e
    1520:	42004000 	.word	0x42004000
    1524:	00004021 	.word	0x00004021
    1528:	42004800 	.word	0x42004800

0000152c <analogReference>:
static int _writeResolution = 8;

// Wait for synchronization of registers between the clock domains
static __inline__ void syncADC() __attribute__((always_inline, unused));
static void syncADC() {
  while (ADC->STATUS.bit.SYNCBUSY == 1)
    152c:	4a16      	ldr	r2, [pc, #88]	; (1588 <analogReference+0x5c>)
 * External Reference should be between 1v and VDDANA-0.6v=2.7v
 *
 * Warning : On Arduino Zero board the input/output voltage for SAMD21G18 is 3.3 volts maximum
 */
void analogReference(eAnalogReference mode)
{
    152e:	b500      	push	{lr}
    1530:	0013      	movs	r3, r2
  while (ADC->STATUS.bit.SYNCBUSY == 1)
    1532:	7e51      	ldrb	r1, [r2, #25]
    1534:	09c9      	lsrs	r1, r1, #7
    1536:	2901      	cmp	r1, #1
    1538:	d0fb      	beq.n	1532 <analogReference+0x6>
  syncADC();
  switch (mode)
    153a:	3801      	subs	r0, #1
    153c:	2804      	cmp	r0, #4
    153e:	d816      	bhi.n	156e <analogReference+0x42>
      ADC->INPUTCTRL.bit.GAIN = ADC_INPUTCTRL_GAIN_1X_Val;      // Gain Factor Selection
      ADC->REFCTRL.bit.REFSEL = ADC_REFCTRL_REFSEL_INT1V_Val;   // 1.0V voltage reference
      break;

    case AR_INTERNAL1V65:
      ADC->INPUTCTRL.bit.GAIN = ADC_INPUTCTRL_GAIN_1X_Val;      // Gain Factor Selection
    1540:	6919      	ldr	r1, [r3, #16]
    1542:	4a12      	ldr	r2, [pc, #72]	; (158c <analogReference+0x60>)
    1544:	400a      	ands	r2, r1
      ADC->REFCTRL.bit.REFSEL = ADC_REFCTRL_REFSEL_INTVCC1_Val; // 1/2 VDDANA = 0.5* 3V3 = 1.65V
    1546:	210f      	movs	r1, #15
      ADC->INPUTCTRL.bit.GAIN = ADC_INPUTCTRL_GAIN_1X_Val;      // Gain Factor Selection
    1548:	611a      	str	r2, [r3, #16]
      ADC->REFCTRL.bit.REFSEL = ADC_REFCTRL_REFSEL_INTVCC1_Val; // 1/2 VDDANA = 0.5* 3V3 = 1.65V
    154a:	785a      	ldrb	r2, [r3, #1]
    154c:	438a      	bics	r2, r1
  switch (mode)
    154e:	f000 ff07 	bl	2360 <__gnu_thumb1_case_uqi>
    1552:	0803      	.short	0x0803
    1554:	0b06      	.short	0x0b06
    1556:	03          	.byte	0x03
    1557:	00          	.byte	0x00
      ADC->REFCTRL.bit.REFSEL = ADC_REFCTRL_REFSEL_INTVCC0_Val; // 1/1.48 VDDANA = 1/1.48* 3V3 = 2.2297
    1558:	0011      	movs	r1, r2
    155a:	2201      	movs	r2, #1
      ADC->REFCTRL.bit.REFSEL = ADC_REFCTRL_REFSEL_INTVCC1_Val; // 1/2 VDDANA = 0.5* 3V3 = 1.65V
    155c:	430a      	orrs	r2, r1
    155e:	705a      	strb	r2, [r3, #1]
    default:
      ADC->INPUTCTRL.bit.GAIN = ADC_INPUTCTRL_GAIN_DIV2_Val;
      ADC->REFCTRL.bit.REFSEL = ADC_REFCTRL_REFSEL_INTVCC1_Val; // 1/2 VDDANA = 0.5* 3V3 = 1.65V
      break;
  }
}
    1560:	bd00      	pop	{pc}
      ADC->REFCTRL.bit.REFSEL = ADC_REFCTRL_REFSEL_AREFA_Val;
    1562:	0011      	movs	r1, r2
    1564:	2203      	movs	r2, #3
    1566:	e7f9      	b.n	155c <analogReference+0x30>
      ADC->REFCTRL.bit.REFSEL = ADC_REFCTRL_REFSEL_INTVCC1_Val; // 1/2 VDDANA = 0.5* 3V3 = 1.65V
    1568:	0011      	movs	r1, r2
    156a:	2202      	movs	r2, #2
    156c:	e7f6      	b.n	155c <analogReference+0x30>
      ADC->INPUTCTRL.bit.GAIN = ADC_INPUTCTRL_GAIN_DIV2_Val;
    156e:	23f0      	movs	r3, #240	; 0xf0
    1570:	6911      	ldr	r1, [r2, #16]
    1572:	051b      	lsls	r3, r3, #20
    1574:	430b      	orrs	r3, r1
      ADC->REFCTRL.bit.REFSEL = ADC_REFCTRL_REFSEL_INTVCC1_Val; // 1/2 VDDANA = 0.5* 3V3 = 1.65V
    1576:	210f      	movs	r1, #15
      ADC->INPUTCTRL.bit.GAIN = ADC_INPUTCTRL_GAIN_DIV2_Val;
    1578:	6113      	str	r3, [r2, #16]
      ADC->REFCTRL.bit.REFSEL = ADC_REFCTRL_REFSEL_INTVCC1_Val; // 1/2 VDDANA = 0.5* 3V3 = 1.65V
    157a:	7853      	ldrb	r3, [r2, #1]
    157c:	438b      	bics	r3, r1
    157e:	0019      	movs	r1, r3
    1580:	2302      	movs	r3, #2
    1582:	430b      	orrs	r3, r1
    1584:	7053      	strb	r3, [r2, #1]
}
    1586:	e7eb      	b.n	1560 <analogReference+0x34>
    1588:	42004000 	.word	0x42004000
    158c:	f0ffffff 	.word	0xf0ffffff

00001590 <pinMode>:
#endif

void pinMode( uint32_t ulPin, uint32_t ulMode )
{
  // Handle the case the pin isn't usable as PIO
  if ( g_APinDescription[ulPin].ulPinType == PIO_NOT_A_PIN )
    1590:	2318      	movs	r3, #24
{
    1592:	b530      	push	{r4, r5, lr}
  if ( g_APinDescription[ulPin].ulPinType == PIO_NOT_A_PIN )
    1594:	001d      	movs	r5, r3
{
    1596:	0004      	movs	r4, r0
  if ( g_APinDescription[ulPin].ulPinType == PIO_NOT_A_PIN )
    1598:	4345      	muls	r5, r0
    159a:	2008      	movs	r0, #8
    159c:	4a20      	ldr	r2, [pc, #128]	; (1620 <pinMode+0x90>)
    159e:	1955      	adds	r5, r2, r5
    15a0:	5628      	ldrsb	r0, [r5, r0]
    15a2:	3001      	adds	r0, #1
    15a4:	d014      	beq.n	15d0 <pinMode+0x40>
  {
    return ;
  }

  // Set pin mode according to chapter '22.6.3 I/O Pin Configuration'
  switch ( ulMode )
    15a6:	2903      	cmp	r1, #3
    15a8:	d812      	bhi.n	15d0 <pinMode+0x40>
    15aa:	0008      	movs	r0, r1
      PORT->Group[g_APinDescription[ulPin].ulPort].OUTSET.reg = (uint32_t)(1<<g_APinDescription[ulPin].ulPin) ;
    break ;

    case INPUT_PULLDOWN:
      // Set pin to input mode with pull-down resistor enabled
      PORT->Group[g_APinDescription[ulPin].ulPort].PINCFG[g_APinDescription[ulPin].ulPin].reg=(uint8_t)(PORT_PINCFG_INEN|PORT_PINCFG_PULLEN) ;
    15ac:	4363      	muls	r3, r4
    15ae:	56d1      	ldrsb	r1, [r2, r3]
    15b0:	18d3      	adds	r3, r2, r3
  switch ( ulMode )
    15b2:	f000 fed5 	bl	2360 <__gnu_thumb1_case_uqi>
    15b6:	2802      	.short	0x2802
    15b8:	1b0e      	.short	0x1b0e
      PORT->Group[g_APinDescription[ulPin].ulPort].PINCFG[g_APinDescription[ulPin].ulPin].reg=(uint8_t)(PORT_PINCFG_INEN) ;
    15ba:	6858      	ldr	r0, [r3, #4]
    15bc:	01cb      	lsls	r3, r1, #7
    15be:	2102      	movs	r1, #2
    15c0:	4a18      	ldr	r2, [pc, #96]	; (1624 <pinMode+0x94>)
    15c2:	189b      	adds	r3, r3, r2
    15c4:	181a      	adds	r2, r3, r0
    15c6:	3240      	adds	r2, #64	; 0x40
    15c8:	7011      	strb	r1, [r2, #0]
      PORT->Group[g_APinDescription[ulPin].ulPort].DIRCLR.reg = (uint32_t)(1<<g_APinDescription[ulPin].ulPin) ;
    15ca:	2201      	movs	r2, #1
    15cc:	4082      	lsls	r2, r0
    15ce:	605a      	str	r2, [r3, #4]

    default:
      // do nothing
    break ;
  }
}
    15d0:	bd30      	pop	{r4, r5, pc}
      PORT->Group[g_APinDescription[ulPin].ulPort].PINCFG[g_APinDescription[ulPin].ulPin].reg=(uint8_t)(PORT_PINCFG_INEN|PORT_PINCFG_PULLEN) ;
    15d2:	6858      	ldr	r0, [r3, #4]
    15d4:	01cb      	lsls	r3, r1, #7
    15d6:	2106      	movs	r1, #6
    15d8:	4a12      	ldr	r2, [pc, #72]	; (1624 <pinMode+0x94>)
    15da:	189b      	adds	r3, r3, r2
    15dc:	181a      	adds	r2, r3, r0
    15de:	3240      	adds	r2, #64	; 0x40
    15e0:	7011      	strb	r1, [r2, #0]
      PORT->Group[g_APinDescription[ulPin].ulPort].DIRCLR.reg = (uint32_t)(1<<g_APinDescription[ulPin].ulPin) ;
    15e2:	2201      	movs	r2, #1
    15e4:	4082      	lsls	r2, r0
    15e6:	605a      	str	r2, [r3, #4]
      PORT->Group[g_APinDescription[ulPin].ulPort].OUTSET.reg = (uint32_t)(1<<g_APinDescription[ulPin].ulPin) ;
    15e8:	619a      	str	r2, [r3, #24]
    break ;
    15ea:	e7f1      	b.n	15d0 <pinMode+0x40>
      PORT->Group[g_APinDescription[ulPin].ulPort].PINCFG[g_APinDescription[ulPin].ulPin].reg=(uint8_t)(PORT_PINCFG_INEN|PORT_PINCFG_PULLEN) ;
    15ec:	6858      	ldr	r0, [r3, #4]
    15ee:	01cb      	lsls	r3, r1, #7
    15f0:	2106      	movs	r1, #6
    15f2:	4a0c      	ldr	r2, [pc, #48]	; (1624 <pinMode+0x94>)
    15f4:	189b      	adds	r3, r3, r2
    15f6:	181a      	adds	r2, r3, r0
    15f8:	3240      	adds	r2, #64	; 0x40
    15fa:	7011      	strb	r1, [r2, #0]
      PORT->Group[g_APinDescription[ulPin].ulPort].DIRCLR.reg = (uint32_t)(1<<g_APinDescription[ulPin].ulPin) ;
    15fc:	2201      	movs	r2, #1
    15fe:	4082      	lsls	r2, r0
    1600:	605a      	str	r2, [r3, #4]
      PORT->Group[g_APinDescription[ulPin].ulPort].OUTCLR.reg = (uint32_t)(1<<g_APinDescription[ulPin].ulPin) ;
    1602:	615a      	str	r2, [r3, #20]
    break ;
    1604:	e7e4      	b.n	15d0 <pinMode+0x40>
      PORT->Group[g_APinDescription[ulPin].ulPort].PINCFG[g_APinDescription[ulPin].ulPin].reg=(uint8_t)(PORT_PINCFG_INEN) ;
    1606:	6858      	ldr	r0, [r3, #4]
    1608:	01cb      	lsls	r3, r1, #7
    160a:	2102      	movs	r1, #2
    160c:	4a05      	ldr	r2, [pc, #20]	; (1624 <pinMode+0x94>)
    160e:	189b      	adds	r3, r3, r2
    1610:	181a      	adds	r2, r3, r0
    1612:	3240      	adds	r2, #64	; 0x40
    1614:	7011      	strb	r1, [r2, #0]
      PORT->Group[g_APinDescription[ulPin].ulPort].DIRSET.reg = (uint32_t)(1<<g_APinDescription[ulPin].ulPin) ;
    1616:	2201      	movs	r2, #1
    1618:	4082      	lsls	r2, r0
    161a:	609a      	str	r2, [r3, #8]
    break ;
    161c:	e7d8      	b.n	15d0 <pinMode+0x40>
    161e:	46c0      	nop			; (mov r8, r8)
    1620:	0000273c 	.word	0x0000273c
    1624:	41004400 	.word	0x41004400

00001628 <digitalWrite>:

void digitalWrite( uint32_t ulPin, uint32_t ulVal )
{
  // Handle the case the pin isn't usable as PIO
  if ( g_APinDescription[ulPin].ulPinType == PIO_NOT_A_PIN )
    1628:	2318      	movs	r3, #24
{
    162a:	b5f0      	push	{r4, r5, r6, r7, lr}
  if ( g_APinDescription[ulPin].ulPinType == PIO_NOT_A_PIN )
    162c:	2408      	movs	r4, #8
    162e:	4358      	muls	r0, r3
    1630:	4a11      	ldr	r2, [pc, #68]	; (1678 <digitalWrite+0x50>)
    1632:	1813      	adds	r3, r2, r0
    1634:	571c      	ldrsb	r4, [r3, r4]
    1636:	3401      	adds	r4, #1
    1638:	d01b      	beq.n	1672 <digitalWrite+0x4a>
    return ;
  }

  EPortType port = g_APinDescription[ulPin].ulPort;
  uint32_t pin = g_APinDescription[ulPin].ulPin;
  uint32_t pinMask = (1ul << pin);
    163a:	2601      	movs	r6, #1
    163c:	0035      	movs	r5, r6
  uint32_t pin = g_APinDescription[ulPin].ulPin;
    163e:	685f      	ldr	r7, [r3, #4]

  if ( (PORT->Group[port].DIRSET.reg & pinMask) == 0 ) {
    1640:	5683      	ldrsb	r3, [r0, r2]
  uint32_t pinMask = (1ul << pin);
    1642:	40bd      	lsls	r5, r7
  if ( (PORT->Group[port].DIRSET.reg & pinMask) == 0 ) {
    1644:	4a0d      	ldr	r2, [pc, #52]	; (167c <digitalWrite+0x54>)
    1646:	01db      	lsls	r3, r3, #7
    1648:	189a      	adds	r2, r3, r2
    164a:	6890      	ldr	r0, [r2, #8]
    164c:	4228      	tst	r0, r5
    164e:	d10b      	bne.n	1668 <digitalWrite+0x40>
    // the pin is not an output, disable pull-up if val is LOW, otherwise enable pull-up
    PORT->Group[port].PINCFG[pin].bit.PULLEN = ((ulVal == LOW) ? 0 : 1) ;
    1650:	000c      	movs	r4, r1
    1652:	1e60      	subs	r0, r4, #1
    1654:	4184      	sbcs	r4, r0
    1656:	19d2      	adds	r2, r2, r7
    1658:	3240      	adds	r2, #64	; 0x40
    165a:	7810      	ldrb	r0, [r2, #0]
    165c:	4034      	ands	r4, r6
    165e:	3603      	adds	r6, #3
    1660:	00a4      	lsls	r4, r4, #2
    1662:	43b0      	bics	r0, r6
    1664:	4320      	orrs	r0, r4
    1666:	7010      	strb	r0, [r2, #0]
  }

  switch ( ulVal )
  {
    case LOW:
      PORT->Group[port].OUTCLR.reg = pinMask;
    1668:	4a04      	ldr	r2, [pc, #16]	; (167c <digitalWrite+0x54>)
    166a:	189b      	adds	r3, r3, r2
  switch ( ulVal )
    166c:	2900      	cmp	r1, #0
    166e:	d101      	bne.n	1674 <digitalWrite+0x4c>
      PORT->Group[port].OUTCLR.reg = pinMask;
    1670:	615d      	str	r5, [r3, #20]
      PORT->Group[port].OUTSET.reg = pinMask;
    break ;
  }

  return ;
}
    1672:	bdf0      	pop	{r4, r5, r6, r7, pc}
      PORT->Group[port].OUTSET.reg = pinMask;
    1674:	619d      	str	r5, [r3, #24]
    break ;
    1676:	e7fc      	b.n	1672 <digitalWrite+0x4a>
    1678:	0000273c 	.word	0x0000273c
    167c:	41004400 	.word	0x41004400

00001680 <pinPeripheral>:

#include "Arduino.h"
#include "wiring_private.h"

int pinPeripheral( uint32_t ulPin, EPioType ulPeripheral )
{
    1680:	b5f8      	push	{r3, r4, r5, r6, r7, lr}
    1682:	0003      	movs	r3, r0
  // Handle the case the pin isn't usable as PIO
  if ( g_APinDescription[ulPin].ulPinType == PIO_NOT_A_PIN )
    1684:	2018      	movs	r0, #24
    1686:	4358      	muls	r0, r3
    1688:	4a2a      	ldr	r2, [pc, #168]	; (1734 <pinPeripheral+0xb4>)
    168a:	1810      	adds	r0, r2, r0
    168c:	7a00      	ldrb	r0, [r0, #8]
    168e:	b240      	sxtb	r0, r0
  {
    return -1 ;
    1690:	0004      	movs	r4, r0
  if ( g_APinDescription[ulPin].ulPinType == PIO_NOT_A_PIN )
    1692:	3001      	adds	r0, #1
    1694:	d013      	beq.n	16be <pinPeripheral+0x3e>
  }

  switch ( ulPeripheral )
    1696:	1c48      	adds	r0, r1, #1
    case PIO_NOT_A_PIN:
      return -1l ;
    break ;
  }

  return 0l ;
    1698:	2400      	movs	r4, #0
  switch ( ulPeripheral )
    169a:	280c      	cmp	r0, #12
    169c:	d80f      	bhi.n	16be <pinPeripheral+0x3e>
    169e:	f000 fe5f 	bl	2360 <__gnu_thumb1_case_uqi>
    16a2:	1c45      	.short	0x1c45
    16a4:	1c1c1c1c 	.word	0x1c1c1c1c
    16a8:	071c1c1c 	.word	0x071c1c1c
    16ac:	0707      	.short	0x0707
    16ae:	07          	.byte	0x07
    16af:	00          	.byte	0x00
      if ( ulPeripheral == PIO_INPUT )
    16b0:	2909      	cmp	r1, #9
    16b2:	d106      	bne.n	16c2 <pinPeripheral+0x42>
        pinMode( ulPin, INPUT ) ;
    16b4:	2100      	movs	r1, #0
          pinMode( ulPin, INPUT_PULLUP ) ;
    16b6:	0018      	movs	r0, r3
    16b8:	f7ff ff6a 	bl	1590 <pinMode>
  return 0l ;
    16bc:	2400      	movs	r4, #0
}
    16be:	0020      	movs	r0, r4
    16c0:	bdf8      	pop	{r3, r4, r5, r6, r7, pc}
        if ( ulPeripheral == PIO_INPUT_PULLUP )
    16c2:	290a      	cmp	r1, #10
    16c4:	d101      	bne.n	16ca <pinPeripheral+0x4a>
          pinMode( ulPin, INPUT_PULLUP ) ;
    16c6:	3908      	subs	r1, #8
    16c8:	e7f5      	b.n	16b6 <pinPeripheral+0x36>
  return 0l ;
    16ca:	2400      	movs	r4, #0
          if ( ulPeripheral == PIO_OUTPUT )
    16cc:	290b      	cmp	r1, #11
    16ce:	d1f6      	bne.n	16be <pinPeripheral+0x3e>
            pinMode( ulPin, OUTPUT ) ;
    16d0:	390a      	subs	r1, #10
    16d2:	0018      	movs	r0, r3
    16d4:	f7ff ff5c 	bl	1590 <pinMode>
    16d8:	e7f1      	b.n	16be <pinPeripheral+0x3e>
      if ( g_APinDescription[ulPin].ulPin & 1 ) // is pin odd?
    16da:	2018      	movs	r0, #24
    16dc:	4343      	muls	r3, r0
    16de:	18d0      	adds	r0, r2, r3
    16e0:	6846      	ldr	r6, [r0, #4]
    16e2:	2501      	movs	r5, #1
    16e4:	0034      	movs	r4, r6
    16e6:	56d2      	ldrsb	r2, [r2, r3]
        temp = (PORT->Group[g_APinDescription[ulPin].ulPort].PMUX[g_APinDescription[ulPin].ulPin >> 1].reg) & PORT_PMUX_PMUXE( 0xF ) ;
    16e8:	4813      	ldr	r0, [pc, #76]	; (1738 <pinPeripheral+0xb8>)
    16ea:	01d2      	lsls	r2, r2, #7
    16ec:	1812      	adds	r2, r2, r0
    16ee:	0873      	lsrs	r3, r6, #1
    16f0:	18d3      	adds	r3, r2, r3
    16f2:	3330      	adds	r3, #48	; 0x30
      if ( g_APinDescription[ulPin].ulPin & 1 ) // is pin odd?
    16f4:	402c      	ands	r4, r5
        temp = (PORT->Group[g_APinDescription[ulPin].ulPort].PMUX[g_APinDescription[ulPin].ulPin >> 1].reg) & PORT_PMUX_PMUXE( 0xF ) ;
    16f6:	7818      	ldrb	r0, [r3, #0]
      if ( g_APinDescription[ulPin].ulPin & 1 ) // is pin odd?
    16f8:	2c00      	cmp	r4, #0
    16fa:	d00b      	beq.n	1714 <pinPeripheral+0x94>
        PORT->Group[g_APinDescription[ulPin].ulPort].PMUX[g_APinDescription[ulPin].ulPin >> 1].reg = temp|PORT_PMUX_PMUXO( ulPeripheral ) ;
    16fc:	240f      	movs	r4, #15
    16fe:	0109      	lsls	r1, r1, #4
    1700:	4020      	ands	r0, r4
    1702:	4301      	orrs	r1, r0
    1704:	b2c9      	uxtb	r1, r1
        PORT->Group[g_APinDescription[ulPin].ulPort].PINCFG[g_APinDescription[ulPin].ulPin].reg |= PORT_PINCFG_PMUXEN ;
    1706:	1992      	adds	r2, r2, r6
        PORT->Group[g_APinDescription[ulPin].ulPort].PMUX[g_APinDescription[ulPin].ulPin >> 1].reg = temp|PORT_PMUX_PMUXO( ulPeripheral ) ;
    1708:	7019      	strb	r1, [r3, #0]
        PORT->Group[g_APinDescription[ulPin].ulPort].PINCFG[g_APinDescription[ulPin].ulPin].reg |= PORT_PINCFG_PMUXEN ;
    170a:	3240      	adds	r2, #64	; 0x40
    170c:	7813      	ldrb	r3, [r2, #0]
    170e:	431d      	orrs	r5, r3
    1710:	7015      	strb	r5, [r2, #0]
    1712:	e7d3      	b.n	16bc <pinPeripheral+0x3c>
        PORT->Group[g_APinDescription[ulPin].ulPort].PMUX[g_APinDescription[ulPin].ulPin >> 1].reg = temp|PORT_PMUX_PMUXE( ulPeripheral ) ;
    1714:	270f      	movs	r7, #15
    1716:	43b8      	bics	r0, r7
    1718:	4301      	orrs	r1, r0
        PORT->Group[g_APinDescription[ulPin].ulPort].PINCFG[g_APinDescription[ulPin].ulPin].reg |= PORT_PINCFG_PMUXEN ; // Enable port mux
    171a:	1992      	adds	r2, r2, r6
        PORT->Group[g_APinDescription[ulPin].ulPort].PMUX[g_APinDescription[ulPin].ulPin >> 1].reg = temp|PORT_PMUX_PMUXE( ulPeripheral ) ;
    171c:	b2c9      	uxtb	r1, r1
    171e:	7019      	strb	r1, [r3, #0]
        PORT->Group[g_APinDescription[ulPin].ulPort].PINCFG[g_APinDescription[ulPin].ulPin].reg |= PORT_PINCFG_PMUXEN ; // Enable port mux
    1720:	0013      	movs	r3, r2
    1722:	3340      	adds	r3, #64	; 0x40
    1724:	781a      	ldrb	r2, [r3, #0]
    1726:	4315      	orrs	r5, r2
    1728:	701d      	strb	r5, [r3, #0]
    172a:	e7c8      	b.n	16be <pinPeripheral+0x3e>
      return -1l ;
    172c:	2401      	movs	r4, #1
    172e:	4264      	negs	r4, r4
    1730:	e7c5      	b.n	16be <pinPeripheral+0x3e>
    1732:	46c0      	nop			; (mov r8, r8)
    1734:	0000273c 	.word	0x0000273c
    1738:	41004400 	.word	0x41004400

0000173c <SERCOM4_Handler>:
SERCOM sercom5( SERCOM5 ) ;

Uart Serial1( &sercom4, PIN_SERIAL1_RX, PIN_SERIAL1_TX, PAD_SERIAL1_RX, PAD_SERIAL1_TX ) ;

void SERCOM4_Handler()
{
    173c:	b510      	push	{r4, lr}
  Serial1.IrqHandler();
    173e:	4802      	ldr	r0, [pc, #8]	; (1748 <SERCOM4_Handler+0xc>)
    1740:	f000 fa95 	bl	1c6e <_ZN4Uart10IrqHandlerEv>
}
    1744:	bd10      	pop	{r4, pc}
    1746:	46c0      	nop			; (mov r8, r8)
    1748:	2000069c 	.word	0x2000069c

0000174c <_GLOBAL__sub_I_g_APinDescription>:
    174c:	b513      	push	{r0, r1, r4, lr}
SERCOM sercom0( SERCOM0 ) ;
    174e:	4911      	ldr	r1, [pc, #68]	; (1794 <_GLOBAL__sub_I_g_APinDescription+0x48>)
    1750:	4811      	ldr	r0, [pc, #68]	; (1798 <_GLOBAL__sub_I_g_APinDescription+0x4c>)
    1752:	f000 f841 	bl	17d8 <_ZN6SERCOMC1EP6Sercom>
SERCOM sercom1( SERCOM1 ) ;
    1756:	4911      	ldr	r1, [pc, #68]	; (179c <_GLOBAL__sub_I_g_APinDescription+0x50>)
    1758:	4811      	ldr	r0, [pc, #68]	; (17a0 <_GLOBAL__sub_I_g_APinDescription+0x54>)
    175a:	f000 f83d 	bl	17d8 <_ZN6SERCOMC1EP6Sercom>
SERCOM sercom2( SERCOM2 ) ;
    175e:	4911      	ldr	r1, [pc, #68]	; (17a4 <_GLOBAL__sub_I_g_APinDescription+0x58>)
    1760:	4811      	ldr	r0, [pc, #68]	; (17a8 <_GLOBAL__sub_I_g_APinDescription+0x5c>)
    1762:	f000 f839 	bl	17d8 <_ZN6SERCOMC1EP6Sercom>
SERCOM sercom3( SERCOM3 ) ;
    1766:	4911      	ldr	r1, [pc, #68]	; (17ac <_GLOBAL__sub_I_g_APinDescription+0x60>)
    1768:	4811      	ldr	r0, [pc, #68]	; (17b0 <_GLOBAL__sub_I_g_APinDescription+0x64>)
    176a:	f000 f835 	bl	17d8 <_ZN6SERCOMC1EP6Sercom>
SERCOM sercom4( SERCOM4 ) ;
    176e:	4c11      	ldr	r4, [pc, #68]	; (17b4 <_GLOBAL__sub_I_g_APinDescription+0x68>)
    1770:	4911      	ldr	r1, [pc, #68]	; (17b8 <_GLOBAL__sub_I_g_APinDescription+0x6c>)
    1772:	0020      	movs	r0, r4
    1774:	f000 f830 	bl	17d8 <_ZN6SERCOMC1EP6Sercom>
SERCOM sercom5( SERCOM5 ) ;
    1778:	4910      	ldr	r1, [pc, #64]	; (17bc <_GLOBAL__sub_I_g_APinDescription+0x70>)
    177a:	4811      	ldr	r0, [pc, #68]	; (17c0 <_GLOBAL__sub_I_g_APinDescription+0x74>)
    177c:	f000 f82c 	bl	17d8 <_ZN6SERCOMC1EP6Sercom>
Uart Serial1( &sercom4, PIN_SERIAL1_RX, PIN_SERIAL1_TX, PAD_SERIAL1_RX, PAD_SERIAL1_TX ) ;
    1780:	2200      	movs	r2, #0
    1782:	2301      	movs	r3, #1
    1784:	9201      	str	r2, [sp, #4]
    1786:	9300      	str	r3, [sp, #0]
    1788:	0021      	movs	r1, r4
    178a:	480e      	ldr	r0, [pc, #56]	; (17c4 <_GLOBAL__sub_I_g_APinDescription+0x78>)
    178c:	f000 fa04 	bl	1b98 <_ZN4UartC1EP6SERCOMhh11SercomRXPad15SercomUartTXPad>
}
    1790:	bd13      	pop	{r0, r1, r4, pc}
    1792:	46c0      	nop			; (mov r8, r8)
    1794:	42000800 	.word	0x42000800
    1798:	200008d8 	.word	0x200008d8
    179c:	42000c00 	.word	0x42000c00
    17a0:	200008dc 	.word	0x200008dc
    17a4:	42001000 	.word	0x42001000
    17a8:	200008e0 	.word	0x200008e0
    17ac:	42001400 	.word	0x42001400
    17b0:	200008e4 	.word	0x200008e4
    17b4:	200008e8 	.word	0x200008e8
    17b8:	42001800 	.word	0x42001800
    17bc:	42001c00 	.word	0x42001c00
    17c0:	200008ec 	.word	0x200008ec
    17c4:	2000069c 	.word	0x2000069c

000017c8 <_Znwj>:
    17c8:	b510      	push	{r4, lr}
    17ca:	f000 fe83 	bl	24d4 <malloc>
    17ce:	bd10      	pop	{r4, pc}

000017d0 <_ZdlPv>:
    17d0:	b510      	push	{r4, lr}
    17d2:	f000 fe89 	bl	24e8 <free>
    17d6:	bd10      	pop	{r4, pc}

000017d8 <_ZN6SERCOMC1EP6Sercom>:
#define WIRE_RISE_TIME_NANOSECONDS 125
#endif

SERCOM::SERCOM(Sercom* s)
{
  sercom = s;
    17d8:	6001      	str	r1, [r0, #0]
}
    17da:	4770      	bx	lr

000017dc <_ZN6SERCOM9initFrameE18SercomUartCharSize15SercomDataOrder16SercomParityMode19SercomNumberStopBit>:
    sercom->USART.BAUD.FRAC.FP   = (baudTimes8 % 8);
    sercom->USART.BAUD.FRAC.BAUD = (baudTimes8 / 8);
  }
}
void SERCOM::initFrame(SercomUartCharSize charSize, SercomDataOrder dataOrder, SercomParityMode parityMode, SercomNumberStopBit nbStopBits)
{
    17dc:	b5f0      	push	{r4, r5, r6, r7, lr}
    17de:	ac05      	add	r4, sp, #20
    17e0:	7825      	ldrb	r5, [r4, #0]
  //Setting the CTRLA register
  sercom->USART.CTRLA.reg |=	SERCOM_USART_CTRLA_FORM( (parityMode == SERCOM_NO_PARITY ? 0 : 1) ) |
    17e2:	6804      	ldr	r4, [r0, #0]
    17e4:	1e98      	subs	r0, r3, #2
    17e6:	1e47      	subs	r7, r0, #1
    17e8:	41b8      	sbcs	r0, r7
                dataOrder << SERCOM_USART_CTRLA_DORD_Pos;
    17ea:	6826      	ldr	r6, [r4, #0]
    17ec:	0792      	lsls	r2, r2, #30
  sercom->USART.CTRLA.reg |=	SERCOM_USART_CTRLA_FORM( (parityMode == SERCOM_NO_PARITY ? 0 : 1) ) |
    17ee:	0600      	lsls	r0, r0, #24
                dataOrder << SERCOM_USART_CTRLA_DORD_Pos;
    17f0:	4332      	orrs	r2, r6
    17f2:	4302      	orrs	r2, r0

  //Setting the CTRLB register
  sercom->USART.CTRLB.reg |=	SERCOM_USART_CTRLB_CHSIZE(charSize) |
    17f4:	2007      	movs	r0, #7
  sercom->USART.CTRLA.reg |=	SERCOM_USART_CTRLA_FORM( (parityMode == SERCOM_NO_PARITY ? 0 : 1) ) |
    17f6:	6022      	str	r2, [r4, #0]
  sercom->USART.CTRLB.reg |=	SERCOM_USART_CTRLB_CHSIZE(charSize) |
    17f8:	4001      	ands	r1, r0
                nbStopBits << SERCOM_USART_CTRLB_SBMODE_Pos |
    17fa:	01ad      	lsls	r5, r5, #6
                (parityMode == SERCOM_NO_PARITY ? 0 : parityMode) << SERCOM_USART_CTRLB_PMODE_Pos; //If no parity use default value
    17fc:	6862      	ldr	r2, [r4, #4]
    17fe:	4329      	orrs	r1, r5
    1800:	2000      	movs	r0, #0
    1802:	2b02      	cmp	r3, #2
    1804:	d000      	beq.n	1808 <_ZN6SERCOM9initFrameE18SercomUartCharSize15SercomDataOrder16SercomParityMode19SercomNumberStopBit+0x2c>
    1806:	0358      	lsls	r0, r3, #13
    1808:	4311      	orrs	r1, r2
    180a:	4301      	orrs	r1, r0
  sercom->USART.CTRLB.reg |=	SERCOM_USART_CTRLB_CHSIZE(charSize) |
    180c:	6061      	str	r1, [r4, #4]
}
    180e:	bdf0      	pop	{r4, r5, r6, r7, pc}

00001810 <_ZN6SERCOM8initPadsE15SercomUartTXPad11SercomRXPad>:

void SERCOM::initPads(SercomUartTXPad txPad, SercomRXPad rxPad)
{
    1810:	b510      	push	{r4, lr}
  //Setting the CTRLA register
  sercom->USART.CTRLA.reg |=	SERCOM_USART_CTRLA_TXPO(txPad) |
                SERCOM_USART_CTRLA_RXPO(rxPad);
    1812:	24c0      	movs	r4, #192	; 0xc0
  sercom->USART.CTRLA.reg |=	SERCOM_USART_CTRLA_TXPO(txPad) |
    1814:	6803      	ldr	r3, [r0, #0]
                SERCOM_USART_CTRLA_RXPO(rxPad);
    1816:	03a4      	lsls	r4, r4, #14
    1818:	6818      	ldr	r0, [r3, #0]
    181a:	0512      	lsls	r2, r2, #20
    181c:	4022      	ands	r2, r4
    181e:	4302      	orrs	r2, r0
  sercom->USART.CTRLA.reg |=	SERCOM_USART_CTRLA_TXPO(txPad) |
    1820:	20c0      	movs	r0, #192	; 0xc0
    1822:	0409      	lsls	r1, r1, #16
    1824:	0280      	lsls	r0, r0, #10
    1826:	4001      	ands	r1, r0
                SERCOM_USART_CTRLA_RXPO(rxPad);
    1828:	4311      	orrs	r1, r2
  sercom->USART.CTRLA.reg |=	SERCOM_USART_CTRLA_TXPO(txPad) |
    182a:	6019      	str	r1, [r3, #0]

  // Enable Transceiver and Receiver
  sercom->USART.CTRLB.reg |= SERCOM_USART_CTRLB_TXEN | SERCOM_USART_CTRLB_RXEN ;
    182c:	685a      	ldr	r2, [r3, #4]
    182e:	4310      	orrs	r0, r2
    1830:	6058      	str	r0, [r3, #4]
}
    1832:	bd10      	pop	{r4, pc}

00001834 <_ZN6SERCOM9resetUARTEv>:

void SERCOM::resetUART()
{
  // Start the Software Reset
  sercom->USART.CTRLA.bit.SWRST = 1 ;
    1834:	2201      	movs	r2, #1
    1836:	6803      	ldr	r3, [r0, #0]
    1838:	6819      	ldr	r1, [r3, #0]
    183a:	430a      	orrs	r2, r1
    183c:	601a      	str	r2, [r3, #0]

  while ( sercom->USART.CTRLA.bit.SWRST || sercom->USART.SYNCBUSY.bit.SWRST )
    183e:	681a      	ldr	r2, [r3, #0]
    1840:	07d2      	lsls	r2, r2, #31
    1842:	d4fc      	bmi.n	183e <_ZN6SERCOM9resetUARTEv+0xa>
    1844:	69da      	ldr	r2, [r3, #28]
    1846:	07d2      	lsls	r2, r2, #31
    1848:	d4f9      	bmi.n	183e <_ZN6SERCOM9resetUARTEv+0xa>
  {
    // Wait for both bits Software Reset from CTRLA and SYNCBUSY coming back to 0
  }
}
    184a:	4770      	bx	lr

0000184c <_ZN6SERCOM10enableUARTEv>:

void SERCOM::enableUART()
{
  //Setting  the enable bit to 1
  sercom->USART.CTRLA.bit.ENABLE = 0x1u;
    184c:	2202      	movs	r2, #2
    184e:	6803      	ldr	r3, [r0, #0]
    1850:	6819      	ldr	r1, [r3, #0]
    1852:	430a      	orrs	r2, r1
    1854:	601a      	str	r2, [r3, #0]

  //Wait for then enable bit from SYNCBUSY is equal to 0;
  while(sercom->USART.SYNCBUSY.bit.ENABLE);
    1856:	69da      	ldr	r2, [r3, #28]
    1858:	0792      	lsls	r2, r2, #30
    185a:	d4fc      	bmi.n	1856 <_ZN6SERCOM10enableUARTEv+0xa>
}
    185c:	4770      	bx	lr

0000185e <_ZN6SERCOM9flushUARTEv>:
}

bool SERCOM::isDataRegisterEmptyUART()
{
  //DRE : Data Register Empty
  return sercom->USART.INTFLAG.bit.DRE;
    185e:	6803      	ldr	r3, [r0, #0]
    1860:	7e1a      	ldrb	r2, [r3, #24]
  if(isDataRegisterEmptyUART())
    1862:	07d2      	lsls	r2, r2, #31
    1864:	d402      	bmi.n	186c <_ZN6SERCOM9flushUARTEv+0xe>
  while(!sercom->USART.INTFLAG.bit.TXC);
    1866:	7e1a      	ldrb	r2, [r3, #24]
    1868:	0792      	lsls	r2, r2, #30
    186a:	d5fc      	bpl.n	1866 <_ZN6SERCOM9flushUARTEv+0x8>
}
    186c:	4770      	bx	lr

0000186e <_ZN6SERCOM15clearStatusUARTEv>:
  sercom->USART.STATUS.reg = SERCOM_USART_STATUS_RESETVALUE;
    186e:	2200      	movs	r2, #0
    1870:	6803      	ldr	r3, [r0, #0]
    1872:	835a      	strh	r2, [r3, #26]
}
    1874:	4770      	bx	lr

00001876 <_ZN6SERCOM17availableDataUARTEv>:
  return sercom->USART.INTFLAG.bit.RXC;
    1876:	6803      	ldr	r3, [r0, #0]
    1878:	7e18      	ldrb	r0, [r3, #24]
    187a:	0740      	lsls	r0, r0, #29
    187c:	0fc0      	lsrs	r0, r0, #31
}
    187e:	4770      	bx	lr

00001880 <_ZN6SERCOM11isUARTErrorEv>:
  return sercom->USART.INTFLAG.bit.ERROR;
    1880:	6803      	ldr	r3, [r0, #0]
    1882:	7e18      	ldrb	r0, [r3, #24]
    1884:	09c0      	lsrs	r0, r0, #7
}
    1886:	4770      	bx	lr

00001888 <_ZN6SERCOM20acknowledgeUARTErrorEv>:
  sercom->USART.INTFLAG.bit.ERROR = 1;
    1888:	2380      	movs	r3, #128	; 0x80
    188a:	6802      	ldr	r2, [r0, #0]
    188c:	425b      	negs	r3, r3
    188e:	7e11      	ldrb	r1, [r2, #24]
    1890:	430b      	orrs	r3, r1
    1892:	7613      	strb	r3, [r2, #24]
}
    1894:	4770      	bx	lr

00001896 <_ZN6SERCOM16isFrameErrorUARTEv>:
  return sercom->USART.STATUS.bit.FERR;
    1896:	6803      	ldr	r3, [r0, #0]
    1898:	8b58      	ldrh	r0, [r3, #26]
    189a:	0780      	lsls	r0, r0, #30
    189c:	0fc0      	lsrs	r0, r0, #31
}
    189e:	4770      	bx	lr

000018a0 <_ZN6SERCOM19clearFrameErrorUARTEv>:
  sercom->USART.STATUS.bit.FERR = 1;
    18a0:	2302      	movs	r3, #2
    18a2:	6802      	ldr	r2, [r0, #0]
    18a4:	8b51      	ldrh	r1, [r2, #26]
    18a6:	430b      	orrs	r3, r1
    18a8:	8353      	strh	r3, [r2, #26]
}
    18aa:	4770      	bx	lr

000018ac <_ZN6SERCOM23isDataRegisterEmptyUARTEv>:
  return sercom->USART.INTFLAG.bit.DRE;
    18ac:	6803      	ldr	r3, [r0, #0]
    18ae:	7e18      	ldrb	r0, [r3, #24]
    18b0:	07c0      	lsls	r0, r0, #31
    18b2:	0fc0      	lsrs	r0, r0, #31
}
    18b4:	4770      	bx	lr

000018b6 <_ZN6SERCOM12readDataUARTEv>:

uint8_t SERCOM::readDataUART()
{
  return sercom->USART.DATA.bit.DATA;
    18b6:	6803      	ldr	r3, [r0, #0]
    18b8:	8d18      	ldrh	r0, [r3, #40]	; 0x28
    18ba:	b2c0      	uxtb	r0, r0
}
    18bc:	4770      	bx	lr

000018be <_ZN6SERCOM13writeDataUARTEh>:
  return sercom->USART.INTFLAG.bit.DRE;
    18be:	6803      	ldr	r3, [r0, #0]
    18c0:	7e1a      	ldrb	r2, [r3, #24]

int SERCOM::writeDataUART(uint8_t data)
{
  // Wait for data register to be empty
  while(!isDataRegisterEmptyUART());
    18c2:	07d2      	lsls	r2, r2, #31
    18c4:	d5fc      	bpl.n	18c0 <_ZN6SERCOM13writeDataUARTEh+0x2>

  //Put data into DATA register
  sercom->USART.DATA.reg = (uint16_t)data;
    18c6:	b289      	uxth	r1, r1
  return 1;
}
    18c8:	2001      	movs	r0, #1
  sercom->USART.DATA.reg = (uint16_t)data;
    18ca:	8519      	strh	r1, [r3, #40]	; 0x28
}
    18cc:	4770      	bx	lr

000018ce <_ZN6SERCOM36enableDataRegisterEmptyInterruptUARTEv>:

void SERCOM::enableDataRegisterEmptyInterruptUART()
{
  sercom->USART.INTENSET.reg = SERCOM_USART_INTENSET_DRE;
    18ce:	2201      	movs	r2, #1
    18d0:	6803      	ldr	r3, [r0, #0]
    18d2:	759a      	strb	r2, [r3, #22]
}
    18d4:	4770      	bx	lr

000018d6 <_ZN6SERCOM37disableDataRegisterEmptyInterruptUARTEv>:

void SERCOM::disableDataRegisterEmptyInterruptUART()
{
  sercom->USART.INTENCLR.reg = SERCOM_USART_INTENCLR_DRE;
    18d6:	2201      	movs	r2, #1
    18d8:	6803      	ldr	r3, [r0, #0]
    18da:	751a      	strb	r2, [r3, #20]
}
    18dc:	4770      	bx	lr
	...

000018e0 <_ZN6SERCOM13initClockNVICEv>:
void SERCOM::initClockNVIC( void )
{
  uint8_t clockId = 0;
  IRQn_Type IdNvic=PendSV_IRQn ; // Dummy init to intercept potential error later

  if(sercom == SERCOM0)
    18e0:	6803      	ldr	r3, [r0, #0]
    18e2:	4a21      	ldr	r2, [pc, #132]	; (1968 <_ZN6SERCOM13initClockNVICEv+0x88>)
{
    18e4:	b530      	push	{r4, r5, lr}
  if(sercom == SERCOM0)
    18e6:	4293      	cmp	r3, r2
    18e8:	d011      	beq.n	190e <_ZN6SERCOM13initClockNVICEv+0x2e>
  {
    clockId = GCM_SERCOM0_CORE;
    IdNvic = SERCOM0_IRQn;
  }
  else if(sercom == SERCOM1)
    18ea:	4a20      	ldr	r2, [pc, #128]	; (196c <_ZN6SERCOM13initClockNVICEv+0x8c>)
    18ec:	4293      	cmp	r3, r2
    18ee:	d02f      	beq.n	1950 <_ZN6SERCOM13initClockNVICEv+0x70>
  {
    clockId = GCM_SERCOM1_CORE;
    IdNvic = SERCOM1_IRQn;
  }
  else if(sercom == SERCOM2)
    18f0:	4a1f      	ldr	r2, [pc, #124]	; (1970 <_ZN6SERCOM13initClockNVICEv+0x90>)
    18f2:	4293      	cmp	r3, r2
    18f4:	d02f      	beq.n	1956 <_ZN6SERCOM13initClockNVICEv+0x76>
  {
    clockId = GCM_SERCOM2_CORE;
    IdNvic = SERCOM2_IRQn;
  }
  else if(sercom == SERCOM3)
    18f6:	4a1f      	ldr	r2, [pc, #124]	; (1974 <_ZN6SERCOM13initClockNVICEv+0x94>)
    18f8:	4293      	cmp	r3, r2
    18fa:	d02f      	beq.n	195c <_ZN6SERCOM13initClockNVICEv+0x7c>
  {
    clockId = GCM_SERCOM3_CORE;
    IdNvic = SERCOM3_IRQn;
  }
  #if defined(SERCOM4)
  else if(sercom == SERCOM4)
    18fc:	4a1e      	ldr	r2, [pc, #120]	; (1978 <_ZN6SERCOM13initClockNVICEv+0x98>)
    18fe:	4293      	cmp	r3, r2
    1900:	d02f      	beq.n	1962 <_ZN6SERCOM13initClockNVICEv+0x82>
    clockId = GCM_SERCOM4_CORE;
    IdNvic = SERCOM4_IRQn;
  }
  #endif // SERCOM4
  #if defined(SERCOM5)
  else if(sercom == SERCOM5)
    1902:	4a1e      	ldr	r2, [pc, #120]	; (197c <_ZN6SERCOM13initClockNVICEv+0x9c>)
    1904:	4293      	cmp	r3, r2
    1906:	d122      	bne.n	194e <_ZN6SERCOM13initClockNVICEv+0x6e>
  {
    clockId = GCM_SERCOM5_CORE;
    IdNvic = SERCOM5_IRQn;
    1908:	230e      	movs	r3, #14
    clockId = GCM_SERCOM5_CORE;
    190a:	2219      	movs	r2, #25
    190c:	e001      	b.n	1912 <_ZN6SERCOM13initClockNVICEv+0x32>
    IdNvic = SERCOM0_IRQn;
    190e:	2309      	movs	r3, #9
    clockId = GCM_SERCOM0_CORE;
    1910:	2214      	movs	r2, #20
    NVIC->ISER[0U] = (uint32_t)(1UL << (((uint32_t)IRQn) & 0x1FUL));
    1912:	2101      	movs	r1, #1
    NVIC->IP[_IP_IDX(IRQn)]  = ((uint32_t)(NVIC->IP[_IP_IDX(IRQn)]  & ~(0xFFUL << _BIT_SHIFT(IRQn))) |
    1914:	2503      	movs	r5, #3
    NVIC->ISER[0U] = (uint32_t)(1UL << (((uint32_t)IRQn) & 0x1FUL));
    1916:	4099      	lsls	r1, r3
    1918:	4819      	ldr	r0, [pc, #100]	; (1980 <_ZN6SERCOM13initClockNVICEv+0xa0>)
    NVIC->IP[_IP_IDX(IRQn)]  = ((uint32_t)(NVIC->IP[_IP_IDX(IRQn)]  & ~(0xFFUL << _BIT_SHIFT(IRQn))) |
    191a:	24c0      	movs	r4, #192	; 0xc0
    NVIC->ISER[0U] = (uint32_t)(1UL << (((uint32_t)IRQn) & 0x1FUL));
    191c:	6001      	str	r1, [r0, #0]
    NVIC->IP[_IP_IDX(IRQn)]  = ((uint32_t)(NVIC->IP[_IP_IDX(IRQn)]  & ~(0xFFUL << _BIT_SHIFT(IRQn))) |
    191e:	0899      	lsrs	r1, r3, #2
    1920:	402b      	ands	r3, r5
    1922:	40ab      	lsls	r3, r5
    1924:	35fc      	adds	r5, #252	; 0xfc
    1926:	409d      	lsls	r5, r3
    1928:	0089      	lsls	r1, r1, #2
    192a:	1809      	adds	r1, r1, r0
    192c:	00a4      	lsls	r4, r4, #2
    192e:	5908      	ldr	r0, [r1, r4]
    1930:	43a8      	bics	r0, r5
       (((priority << (8U - __NVIC_PRIO_BITS)) & (uint32_t)0xFFUL) << _BIT_SHIFT(IRQn)));
    1932:	25c0      	movs	r5, #192	; 0xc0
    1934:	409d      	lsls	r5, r3
    1936:	002b      	movs	r3, r5
    NVIC->IP[_IP_IDX(IRQn)]  = ((uint32_t)(NVIC->IP[_IP_IDX(IRQn)]  & ~(0xFFUL << _BIT_SHIFT(IRQn))) |
    1938:	4303      	orrs	r3, r0
    193a:	510b      	str	r3, [r1, r4]
  NVIC_EnableIRQ(IdNvic);
  NVIC_SetPriority (IdNvic, SERCOM_NVIC_PRIORITY);  /* set Priority */

  //Setting clock
  GCLK->CLKCTRL.reg = GCLK_CLKCTRL_ID( clockId ) | // Generic Clock 0 (SERCOMx)
                      GCLK_CLKCTRL_GEN_GCLK0 | // Generic Clock Generator 0 is source
    193c:	2380      	movs	r3, #128	; 0x80
    193e:	01db      	lsls	r3, r3, #7
    1940:	431a      	orrs	r2, r3
  GCLK->CLKCTRL.reg = GCLK_CLKCTRL_ID( clockId ) | // Generic Clock 0 (SERCOMx)
    1942:	4b10      	ldr	r3, [pc, #64]	; (1984 <_ZN6SERCOM13initClockNVICEv+0xa4>)
    1944:	805a      	strh	r2, [r3, #2]
                      GCLK_CLKCTRL_CLKEN ;

  while ( GCLK->STATUS.reg & GCLK_STATUS_SYNCBUSY )
    1946:	785a      	ldrb	r2, [r3, #1]
    1948:	b252      	sxtb	r2, r2
    194a:	2a00      	cmp	r2, #0
    194c:	dbfb      	blt.n	1946 <_ZN6SERCOM13initClockNVICEv+0x66>
  {
    /* Wait for synchronization */
  }
}
    194e:	bd30      	pop	{r4, r5, pc}
    IdNvic = SERCOM1_IRQn;
    1950:	230a      	movs	r3, #10
    clockId = GCM_SERCOM1_CORE;
    1952:	2215      	movs	r2, #21
    1954:	e7dd      	b.n	1912 <_ZN6SERCOM13initClockNVICEv+0x32>
    IdNvic = SERCOM2_IRQn;
    1956:	230b      	movs	r3, #11
    clockId = GCM_SERCOM2_CORE;
    1958:	2216      	movs	r2, #22
    195a:	e7da      	b.n	1912 <_ZN6SERCOM13initClockNVICEv+0x32>
    IdNvic = SERCOM3_IRQn;
    195c:	230c      	movs	r3, #12
    clockId = GCM_SERCOM3_CORE;
    195e:	2217      	movs	r2, #23
    1960:	e7d7      	b.n	1912 <_ZN6SERCOM13initClockNVICEv+0x32>
    IdNvic = SERCOM4_IRQn;
    1962:	230d      	movs	r3, #13
    clockId = GCM_SERCOM4_CORE;
    1964:	2218      	movs	r2, #24
    1966:	e7d4      	b.n	1912 <_ZN6SERCOM13initClockNVICEv+0x32>
    1968:	42000800 	.word	0x42000800
    196c:	42000c00 	.word	0x42000c00
    1970:	42001000 	.word	0x42001000
    1974:	42001400 	.word	0x42001400
    1978:	42001800 	.word	0x42001800
    197c:	42001c00 	.word	0x42001c00
    1980:	e000e100 	.word	0xe000e100
    1984:	40000c00 	.word	0x40000c00

00001988 <_ZN6SERCOM8initUARTE14SercomUartMode20SercomUartSampleRatem>:
{
    1988:	b5f8      	push	{r3, r4, r5, r6, r7, lr}
    198a:	0004      	movs	r4, r0
    198c:	0016      	movs	r6, r2
    198e:	000f      	movs	r7, r1
    1990:	001d      	movs	r5, r3
  initClockNVIC();
    1992:	f7ff ffa5 	bl	18e0 <_ZN6SERCOM13initClockNVICEv>
  resetUART();
    1996:	0020      	movs	r0, r4
    1998:	f7ff ff4c 	bl	1834 <_ZN6SERCOM9resetUARTEv>
  sercom->USART.CTRLA.reg =	SERCOM_USART_CTRLA_MODE(mode) |
    199c:	221c      	movs	r2, #28
    199e:	00bb      	lsls	r3, r7, #2
    19a0:	4013      	ands	r3, r2
                SERCOM_USART_CTRLA_SAMPR(sampleRate);
    19a2:	0772      	lsls	r2, r6, #29
  sercom->USART.CTRLA.reg =	SERCOM_USART_CTRLA_MODE(mode) |
    19a4:	6824      	ldr	r4, [r4, #0]
                SERCOM_USART_CTRLA_SAMPR(sampleRate);
    19a6:	0c12      	lsrs	r2, r2, #16
  sercom->USART.CTRLA.reg =	SERCOM_USART_CTRLA_MODE(mode) |
    19a8:	4313      	orrs	r3, r2
    19aa:	6023      	str	r3, [r4, #0]
  sercom->USART.INTENSET.reg =	SERCOM_USART_INTENSET_RXC |  //Received complete
    19ac:	2384      	movs	r3, #132	; 0x84
    19ae:	75a3      	strb	r3, [r4, #22]
  if ( mode == UART_INT_CLOCK )
    19b0:	2f01      	cmp	r7, #1
    19b2:	d118      	bne.n	19e6 <_ZN6SERCOM8initUARTE14SercomUartMode20SercomUartSampleRatem+0x5e>
      sampleRateValue = 16;
    19b4:	2110      	movs	r1, #16
    if (sampleRate == SAMPLE_RATE_x16) {
    19b6:	2e01      	cmp	r6, #1
    19b8:	d000      	beq.n	19bc <_ZN6SERCOM8initUARTE14SercomUartMode20SercomUartSampleRatem+0x34>
      sampleRateValue = 8;
    19ba:	3908      	subs	r1, #8
    uint32_t baudTimes8 = (SystemCoreClock * 8) / (sampleRateValue * baudrate);
    19bc:	4b0a      	ldr	r3, [pc, #40]	; (19e8 <_ZN6SERCOM8initUARTE14SercomUartMode20SercomUartSampleRatem+0x60>)
    19be:	4369      	muls	r1, r5
    19c0:	6818      	ldr	r0, [r3, #0]
    19c2:	00c0      	lsls	r0, r0, #3
    19c4:	f000 fcd6 	bl	2374 <__udivsi3>
    sercom->USART.BAUD.FRAC.FP   = (baudTimes8 % 8);
    19c8:	2207      	movs	r2, #7
    19ca:	89a3      	ldrh	r3, [r4, #12]
    19cc:	4002      	ands	r2, r0
    19ce:	04db      	lsls	r3, r3, #19
    19d0:	0352      	lsls	r2, r2, #13
    19d2:	0cdb      	lsrs	r3, r3, #19
    19d4:	4313      	orrs	r3, r2
    19d6:	81a3      	strh	r3, [r4, #12]
    sercom->USART.BAUD.FRAC.BAUD = (baudTimes8 / 8);
    19d8:	0403      	lsls	r3, r0, #16
    19da:	89a0      	ldrh	r0, [r4, #12]
    19dc:	0cdb      	lsrs	r3, r3, #19
    19de:	0b40      	lsrs	r0, r0, #13
    19e0:	0340      	lsls	r0, r0, #13
    19e2:	4318      	orrs	r0, r3
    19e4:	81a0      	strh	r0, [r4, #12]
}
    19e6:	bdf8      	pop	{r3, r4, r5, r6, r7, pc}
    19e8:	20000004 	.word	0x20000004

000019ec <_ZN4UartcvbEv>:
    size_t write(const uint8_t data);
    using Print::write; // pull in write(str) and write(buf, size) from Print

    void IrqHandler();

    operator bool() { return true; }
    19ec:	2001      	movs	r0, #1
    19ee:	4770      	bx	lr

000019f0 <_ZN4Uart5beginEm>:
  uc_pinRTS = _pinRTS;
  uc_pinCTS = _pinCTS;
}

void Uart::begin(unsigned long baudrate)
{
    19f0:	b510      	push	{r4, lr}
  begin(baudrate, SERIAL_8N1);
    19f2:	6803      	ldr	r3, [r0, #0]
    19f4:	4a01      	ldr	r2, [pc, #4]	; (19fc <_ZN4Uart5beginEm+0xc>)
    19f6:	6a1b      	ldr	r3, [r3, #32]
    19f8:	4798      	blx	r3
}
    19fa:	bd10      	pop	{r4, pc}
    19fc:	00000413 	.word	0x00000413

00001a00 <_ZN4Uart4peekEv>:
  if(_iTail == _iHead)
    1a00:	0003      	movs	r3, r0
    1a02:	33fc      	adds	r3, #252	; 0xfc
    1a04:	69d9      	ldr	r1, [r3, #28]
    1a06:	699a      	ldr	r2, [r3, #24]
    1a08:	4291      	cmp	r1, r2
    1a0a:	d003      	beq.n	1a14 <_ZN4Uart4peekEv+0x14>
  return _aucBuffer[_iTail];
    1a0c:	69db      	ldr	r3, [r3, #28]
    1a0e:	18c0      	adds	r0, r0, r3
    1a10:	7d00      	ldrb	r0, [r0, #20]
}

int Uart::peek()
{
  return rxBuffer.peek();
}
    1a12:	4770      	bx	lr
    return -1;
    1a14:	2001      	movs	r0, #1
    1a16:	4240      	negs	r0, r0
  return rxBuffer.peek();
    1a18:	e7fb      	b.n	1a12 <_ZN4Uart4peekEv+0x12>

00001a1a <_ZN4Uart3endEv>:
{
    1a1a:	b510      	push	{r4, lr}
    1a1c:	0004      	movs	r4, r0
  sercom->resetUART();
    1a1e:	6900      	ldr	r0, [r0, #16]
    1a20:	f7ff ff08 	bl	1834 <_ZN6SERCOM9resetUARTEv>
  _iHead = 0;
    1a24:	0022      	movs	r2, r4
    1a26:	2300      	movs	r3, #0
    1a28:	32fc      	adds	r2, #252	; 0xfc
    1a2a:	6193      	str	r3, [r2, #24]
  _iTail = 0;
